{
	"contracts/TradingAccount.sol": {
		"TradingAccount": {
			"abi": [
				{
					"inputs": [],
					"name": "InvalidInitialization",
					"type": "error"
				},
				{
					"inputs": [],
					"name": "NotInitializing",
					"type": "error"
				},
				{
					"anonymous": false,
					"inputs": [
						{
							"indexed": false,
							"internalType": "uint256",
							"name": "orderId",
							"type": "uint256"
						}
					],
					"name": "CancelLimitOrder",
					"type": "event"
				},
				{
					"anonymous": false,
					"inputs": [
						{
							"indexed": false,
							"internalType": "uint256",
							"name": "redeemCTokenAmount",
							"type": "uint256"
						},
						{
							"indexed": false,
							"internalType": "uint256",
							"name": "redeemUnderlyingAmount",
							"type": "uint256"
						},
						{
							"indexed": false,
							"internalType": "uint256",
							"name": "repayAmount",
							"type": "uint256"
						},
						{
							"indexed": false,
							"internalType": "bool",
							"name": "closeAll",
							"type": "bool"
						}
					],
					"name": "CloseLong",
					"type": "event"
				},
				{
					"anonymous": false,
					"inputs": [
						{
							"indexed": false,
							"internalType": "uint256",
							"name": "redeemCtokenAmount",
							"type": "uint256"
						},
						{
							"indexed": false,
							"internalType": "uint256",
							"name": "redeemUnderlyingAmount",
							"type": "uint256"
						},
						{
							"indexed": false,
							"internalType": "uint256",
							"name": "repayAmount",
							"type": "uint256"
						},
						{
							"indexed": false,
							"internalType": "bool",
							"name": "closeAll",
							"type": "bool"
						}
					],
					"name": "CloseShort",
					"type": "event"
				},
				{
					"anonymous": false,
					"inputs": [
						{
							"indexed": false,
							"internalType": "bool",
							"name": "isETH",
							"type": "bool"
						},
						{
							"indexed": false,
							"internalType": "uint256",
							"name": "account",
							"type": "uint256"
						},
						{
							"indexed": false,
							"internalType": "uint256",
							"name": "cTokenAmount",
							"type": "uint256"
						}
					],
					"name": "Deposit",
					"type": "event"
				},
				{
					"anonymous": false,
					"inputs": [
						{
							"indexed": false,
							"internalType": "uint256",
							"name": "orderId",
							"type": "uint256"
						},
						{
							"indexed": false,
							"internalType": "uint256",
							"name": "dealPrice",
							"type": "uint256"
						}
					],
					"name": "ExecuteLimitOrder",
					"type": "event"
				},
				{
					"anonymous": false,
					"inputs": [
						{
							"indexed": false,
							"internalType": "uint64",
							"name": "version",
							"type": "uint64"
						}
					],
					"name": "Initialized",
					"type": "event"
				},
				{
					"anonymous": false,
					"inputs": [
						{
							"indexed": false,
							"internalType": "uint256",
							"name": "orderId",
							"type": "uint256"
						},
						{
							"indexed": false,
							"internalType": "uint256",
							"name": "ethSize",
							"type": "uint256"
						},
						{
							"indexed": false,
							"internalType": "uint256",
							"name": "limitPrice",
							"type": "uint256"
						},
						{
							"indexed": false,
							"internalType": "uint256",
							"name": "expireAt",
							"type": "uint256"
						},
						{
							"indexed": true,
							"internalType": "address",
							"name": "keeper",
							"type": "address"
						}
					],
					"name": "LimitOpenLong",
					"type": "event"
				},
				{
					"anonymous": false,
					"inputs": [
						{
							"indexed": false,
							"internalType": "uint256",
							"name": "orderId",
							"type": "uint256"
						},
						{
							"indexed": false,
							"internalType": "uint256",
							"name": "usdcSize",
							"type": "uint256"
						},
						{
							"indexed": false,
							"internalType": "uint256",
							"name": "limitPrice",
							"type": "uint256"
						},
						{
							"indexed": false,
							"internalType": "uint256",
							"name": "expireAt",
							"type": "uint256"
						},
						{
							"indexed": true,
							"internalType": "address",
							"name": "keeper",
							"type": "address"
						}
					],
					"name": "LimitOpenShort",
					"type": "event"
				},
				{
					"anonymous": false,
					"inputs": [
						{
							"indexed": false,
							"internalType": "uint256",
							"name": "ethSize",
							"type": "uint256"
						},
						{
							"indexed": false,
							"internalType": "uint256",
							"name": "cTokenMint",
							"type": "uint256"
						},
						{
							"indexed": false,
							"internalType": "uint256",
							"name": "borrowAmount",
							"type": "uint256"
						}
					],
					"name": "OpenLong",
					"type": "event"
				},
				{
					"anonymous": false,
					"inputs": [
						{
							"indexed": false,
							"internalType": "uint256",
							"name": "usdcSize",
							"type": "uint256"
						},
						{
							"indexed": false,
							"internalType": "uint256",
							"name": "cTokenMint",
							"type": "uint256"
						},
						{
							"indexed": false,
							"internalType": "uint256",
							"name": "borrowAmount",
							"type": "uint256"
						}
					],
					"name": "OpenShort",
					"type": "event"
				},
				{
					"anonymous": false,
					"inputs": [
						{
							"indexed": true,
							"internalType": "address",
							"name": "previousOwner",
							"type": "address"
						},
						{
							"indexed": true,
							"internalType": "address",
							"name": "newOwner",
							"type": "address"
						}
					],
					"name": "OwnershipTransferred",
					"type": "event"
				},
				{
					"anonymous": false,
					"inputs": [
						{
							"indexed": false,
							"internalType": "bool",
							"name": "isETH",
							"type": "bool"
						},
						{
							"indexed": false,
							"internalType": "uint256",
							"name": "cTokenAmount",
							"type": "uint256"
						},
						{
							"indexed": false,
							"internalType": "uint256",
							"name": "underlyingAmount",
							"type": "uint256"
						}
					],
					"name": "Withdraw",
					"type": "event"
				},
				{
					"inputs": [],
					"name": "cETH",
					"outputs": [
						{
							"internalType": "address",
							"name": "",
							"type": "address"
						}
					],
					"stateMutability": "view",
					"type": "function"
				},
				{
					"inputs": [],
					"name": "cUSDC",
					"outputs": [
						{
							"internalType": "address",
							"name": "",
							"type": "address"
						}
					],
					"stateMutability": "view",
					"type": "function"
				},
				{
					"inputs": [
						{
							"internalType": "uint256",
							"name": "orderId",
							"type": "uint256"
						}
					],
					"name": "cancelLimitOrder",
					"outputs": [],
					"stateMutability": "nonpayable",
					"type": "function"
				},
				{
					"inputs": [
						{
							"internalType": "uint256",
							"name": "usdcAmount",
							"type": "uint256"
						},
						{
							"internalType": "bool",
							"name": "closeAll",
							"type": "bool"
						}
					],
					"name": "closeLong",
					"outputs": [
						{
							"internalType": "uint256",
							"name": "repayAmount",
							"type": "uint256"
						}
					],
					"stateMutability": "nonpayable",
					"type": "function"
				},
				{
					"inputs": [
						{
							"internalType": "uint256",
							"name": "ethAmount",
							"type": "uint256"
						},
						{
							"internalType": "bool",
							"name": "closeAll",
							"type": "bool"
						}
					],
					"name": "closeShort",
					"outputs": [
						{
							"internalType": "uint256",
							"name": "repayAmount",
							"type": "uint256"
						}
					],
					"stateMutability": "nonpayable",
					"type": "function"
				},
				{
					"inputs": [],
					"name": "comptroller",
					"outputs": [
						{
							"internalType": "address",
							"name": "",
							"type": "address"
						}
					],
					"stateMutability": "view",
					"type": "function"
				},
				{
					"inputs": [],
					"name": "depositETH",
					"outputs": [],
					"stateMutability": "payable",
					"type": "function"
				},
				{
					"inputs": [
						{
							"internalType": "uint256",
							"name": "amount",
							"type": "uint256"
						}
					],
					"name": "depositUSDC",
					"outputs": [],
					"stateMutability": "payable",
					"type": "function"
				},
				{
					"inputs": [
						{
							"internalType": "uint256",
							"name": "orderId",
							"type": "uint256"
						}
					],
					"name": "executeLimitOrder",
					"outputs": [],
					"stateMutability": "nonpayable",
					"type": "function"
				},
				{
					"inputs": [],
					"name": "getLatestPrice",
					"outputs": [
						{
							"internalType": "uint256",
							"name": "",
							"type": "uint256"
						}
					],
					"stateMutability": "view",
					"type": "function"
				},
				{
					"inputs": [
						{
							"internalType": "uint256",
							"name": "",
							"type": "uint256"
						}
					],
					"name": "getLimitOrder",
					"outputs": [
						{
							"internalType": "bool",
							"name": "isLong",
							"type": "bool"
						},
						{
							"internalType": "bool",
							"name": "isCanceled",
							"type": "bool"
						},
						{
							"internalType": "uint256",
							"name": "openSize",
							"type": "uint256"
						},
						{
							"internalType": "uint256",
							"name": "limitPrice",
							"type": "uint256"
						},
						{
							"internalType": "uint256",
							"name": "dealPrice",
							"type": "uint256"
						},
						{
							"internalType": "uint256",
							"name": "expireAt",
							"type": "uint256"
						},
						{
							"internalType": "address",
							"name": "keeper",
							"type": "address"
						}
					],
					"stateMutability": "view",
					"type": "function"
				},
				{
					"inputs": [
						{
							"internalType": "address",
							"name": "owner_",
							"type": "address"
						},
						{
							"internalType": "address",
							"name": "weth_",
							"type": "address"
						},
						{
							"internalType": "address",
							"name": "usdc_",
							"type": "address"
						},
						{
							"internalType": "address",
							"name": "uniswapV2Pair_",
							"type": "address"
						},
						{
							"internalType": "address",
							"name": "cETH_",
							"type": "address"
						},
						{
							"internalType": "address",
							"name": "cUSDC_",
							"type": "address"
						},
						{
							"internalType": "address",
							"name": "comptroller_",
							"type": "address"
						},
						{
							"internalType": "address",
							"name": "priceFeed_",
							"type": "address"
						}
					],
					"name": "initialize",
					"outputs": [],
					"stateMutability": "nonpayable",
					"type": "function"
				},
				{
					"inputs": [],
					"name": "lastCEthBalance",
					"outputs": [
						{
							"internalType": "uint256",
							"name": "",
							"type": "uint256"
						}
					],
					"stateMutability": "view",
					"type": "function"
				},
				{
					"inputs": [],
					"name": "lastCUsdcBalance",
					"outputs": [
						{
							"internalType": "uint256",
							"name": "",
							"type": "uint256"
						}
					],
					"stateMutability": "view",
					"type": "function"
				},
				{
					"inputs": [],
					"name": "lastOrderId",
					"outputs": [
						{
							"internalType": "uint256",
							"name": "",
							"type": "uint256"
						}
					],
					"stateMutability": "view",
					"type": "function"
				},
				{
					"inputs": [
						{
							"internalType": "uint256",
							"name": "ethSize",
							"type": "uint256"
						},
						{
							"internalType": "uint256",
							"name": "limitPrice",
							"type": "uint256"
						},
						{
							"internalType": "uint256",
							"name": "expireAt",
							"type": "uint256"
						},
						{
							"internalType": "address",
							"name": "keeper",
							"type": "address"
						}
					],
					"name": "limitOpenLong",
					"outputs": [
						{
							"internalType": "uint256",
							"name": "orderId",
							"type": "uint256"
						}
					],
					"stateMutability": "nonpayable",
					"type": "function"
				},
				{
					"inputs": [
						{
							"internalType": "uint256",
							"name": "usdcSize",
							"type": "uint256"
						},
						{
							"internalType": "uint256",
							"name": "limitPrice",
							"type": "uint256"
						},
						{
							"internalType": "uint256",
							"name": "expireAt",
							"type": "uint256"
						},
						{
							"internalType": "address",
							"name": "keeper",
							"type": "address"
						}
					],
					"name": "limitOpenShort",
					"outputs": [
						{
							"internalType": "uint256",
							"name": "orderId",
							"type": "uint256"
						}
					],
					"stateMutability": "nonpayable",
					"type": "function"
				},
				{
					"inputs": [
						{
							"internalType": "uint256",
							"name": "ethSize",
							"type": "uint256"
						}
					],
					"name": "openLong",
					"outputs": [],
					"stateMutability": "nonpayable",
					"type": "function"
				},
				{
					"inputs": [
						{
							"internalType": "uint256",
							"name": "usdcSize",
							"type": "uint256"
						}
					],
					"name": "openShort",
					"outputs": [],
					"stateMutability": "nonpayable",
					"type": "function"
				},
				{
					"inputs": [],
					"name": "owner",
					"outputs": [
						{
							"internalType": "address",
							"name": "",
							"type": "address"
						}
					],
					"stateMutability": "view",
					"type": "function"
				},
				{
					"inputs": [],
					"name": "priceFeed",
					"outputs": [
						{
							"internalType": "address",
							"name": "",
							"type": "address"
						}
					],
					"stateMutability": "view",
					"type": "function"
				},
				{
					"inputs": [],
					"name": "renounceOwnership",
					"outputs": [],
					"stateMutability": "nonpayable",
					"type": "function"
				},
				{
					"inputs": [
						{
							"internalType": "address",
							"name": "newOwner",
							"type": "address"
						}
					],
					"name": "transferOwnership",
					"outputs": [],
					"stateMutability": "nonpayable",
					"type": "function"
				},
				{
					"inputs": [
						{
							"internalType": "address",
							"name": "sender",
							"type": "address"
						},
						{
							"internalType": "uint256",
							"name": "amount0",
							"type": "uint256"
						},
						{
							"internalType": "uint256",
							"name": "amount1",
							"type": "uint256"
						},
						{
							"internalType": "bytes",
							"name": "data",
							"type": "bytes"
						}
					],
					"name": "uniswapV2Call",
					"outputs": [],
					"stateMutability": "nonpayable",
					"type": "function"
				},
				{
					"inputs": [],
					"name": "uniswapV2Pair",
					"outputs": [
						{
							"internalType": "address",
							"name": "",
							"type": "address"
						}
					],
					"stateMutability": "view",
					"type": "function"
				},
				{
					"inputs": [],
					"name": "usdc",
					"outputs": [
						{
							"internalType": "address",
							"name": "",
							"type": "address"
						}
					],
					"stateMutability": "view",
					"type": "function"
				},
				{
					"inputs": [],
					"name": "weth",
					"outputs": [
						{
							"internalType": "address",
							"name": "",
							"type": "address"
						}
					],
					"stateMutability": "view",
					"type": "function"
				},
				{
					"inputs": [
						{
							"internalType": "uint256",
							"name": "cEthAmount",
							"type": "uint256"
						},
						{
							"internalType": "uint256",
							"name": "ethAmount",
							"type": "uint256"
						}
					],
					"name": "withdrawETH",
					"outputs": [],
					"stateMutability": "nonpayable",
					"type": "function"
				},
				{
					"inputs": [
						{
							"internalType": "uint256",
							"name": "cUsdcAmount",
							"type": "uint256"
						},
						{
							"internalType": "uint256",
							"name": "usdcAmount",
							"type": "uint256"
						}
					],
					"name": "withdrawUSDC",
					"outputs": [],
					"stateMutability": "nonpayable",
					"type": "function"
				},
				{
					"stateMutability": "payable",
					"type": "receive"
				}
			],
			"devdoc": {
				"errors": {
					"InvalidInitialization()": [
						{
							"details": "The contract is already initialized."
						}
					],
					"NotInitializing()": [
						{
							"details": "The contract is not initializing."
						}
					]
				},
				"events": {
					"Initialized(uint64)": {
						"details": "Triggered when the contract has been initialized or reinitialized."
					}
				},
				"kind": "dev",
				"methods": {},
				"version": 1
			},
			"evm": {
				"assembly": "    /* \"contracts/TradingAccount.sol\":583:15781  contract TradingAccount is ... */\n  mstore(0x40, 0x80)\n  callvalue\n  dup1\n  iszero\n  tag_1\n  jumpi\n  revert(0x00, 0x00)\ntag_1:\n  pop\n    /* \"contracts/base/Ownable.sol\":280:312  _transferOwnership(_msgSender()) */\n  tag_4\n    /* \"contracts/base/Context.sol\":182:192  msg.sender */\n  caller\n    /* \"contracts/base/Ownable.sol\":280:298  _transferOwnership */\n  tag_7\n    /* \"contracts/base/Ownable.sol\":280:312  _transferOwnership(_msgSender()) */\n  jump\t// in\ntag_4:\n    /* \"contracts/TradingAccount.sol\":583:15781  contract TradingAccount is ... */\n  jump(tag_8)\n    /* \"contracts/base/Ownable.sol\":931:1118  function _transferOwnership(address newOwner) internal virtual {... */\ntag_7:\n    /* \"contracts/base/Ownable.sol\":1004:1020  address oldOwner */\n  0x00\n    /* \"contracts/base/Ownable.sol\":1023:1029  _owner */\n  dup1\n  sload\n  sub(shl(0xa0, 0x01), 0x01)\n    /* \"contracts/base/Ownable.sol\":1039:1056  _owner = newOwner */\n  dup4\n  dup2\n  and\n  not(sub(shl(0xa0, 0x01), 0x01))\n  dup4\n  and\n  dup2\n  or\n  dup5\n  sstore\n    /* \"contracts/base/Ownable.sol\":1071:1111  OwnershipTransferred(oldOwner, newOwner) */\n  mload(0x40)\n    /* \"contracts/base/Ownable.sol\":1023:1029  _owner */\n  swap2\n  swap1\n  swap3\n  and\n  swap3\n  dup4\n  swap2\n    /* \"contracts/base/Ownable.sol\":1071:1111  OwnershipTransferred(oldOwner, newOwner) */\n  0x8be0079c531659141344cd1fd0a4f28419497f9722a3daafe3b4186f6b6457e0\n  swap2\n    /* \"contracts/base/Ownable.sol\":1004:1020  address oldOwner */\n  swap1\n    /* \"contracts/base/Ownable.sol\":1071:1111  OwnershipTransferred(oldOwner, newOwner) */\n  log3\n    /* \"contracts/base/Ownable.sol\":994:1118  {... */\n  pop\n    /* \"contracts/base/Ownable.sol\":931:1118  function _transferOwnership(address newOwner) internal virtual {... */\n  pop\n  jump\t// out\n    /* \"contracts/TradingAccount.sol\":583:15781  contract TradingAccount is ... */\ntag_8:\n  dataSize(sub_0)\n  dup1\n  dataOffset(sub_0)\n  0x00\n  codecopy\n  0x00\n  return\nstop\n\nsub_0: assembly {\n        /* \"contracts/TradingAccount.sol\":583:15781  contract TradingAccount is ... */\n      mstore(0x40, 0x80)\n      jumpi(tag_1, lt(calldatasize, 0x04))\n      shr(0xe0, calldataload(0x00))\n      dup1\n      0x8a29e2de\n      gt\n      tag_32\n      jumpi\n      dup1\n      0xc7219460\n      gt\n      tag_33\n      jumpi\n      dup1\n      0xf083ff9a\n      gt\n      tag_34\n      jumpi\n      dup1\n      0xf083ff9a\n      eq\n      tag_28\n      jumpi\n      dup1\n      0xf2fde38b\n      eq\n      tag_29\n      jumpi\n      dup1\n      0xf6326fb3\n      eq\n      tag_30\n      jumpi\n      dup1\n      0xf688bcfb\n      eq\n      tag_31\n      jumpi\n      revert(0x00, 0x00)\n    tag_34:\n      dup1\n      0xc7219460\n      eq\n      tag_24\n      jumpi\n      dup1\n      0xc7cdea37\n      eq\n      tag_25\n      jumpi\n      dup1\n      0xce347a3e\n      eq\n      tag_26\n      jumpi\n      dup1\n      0xed072e22\n      eq\n      tag_27\n      jumpi\n      revert(0x00, 0x00)\n    tag_33:\n      dup1\n      0x8fd1ef61\n      gt\n      tag_35\n      jumpi\n      dup1\n      0x8fd1ef61\n      eq\n      tag_20\n      jumpi\n      dup1\n      0x9f039090\n      eq\n      tag_21\n      jumpi\n      dup1\n      0xa1b4d011\n      eq\n      tag_22\n      jumpi\n      dup1\n      0xa5cdc8fc\n      eq\n      tag_23\n      jumpi\n      revert(0x00, 0x00)\n    tag_35:\n      dup1\n      0x8a29e2de\n      eq\n      tag_17\n      jumpi\n      dup1\n      0x8da5cb5b\n      eq\n      tag_18\n      jumpi\n      dup1\n      0x8e15f473\n      eq\n      tag_19\n      jumpi\n      revert(0x00, 0x00)\n    tag_32:\n      dup1\n      0x5662ecc7\n      gt\n      tag_36\n      jumpi\n      dup1\n      0x715018a6\n      gt\n      tag_37\n      jumpi\n      dup1\n      0x715018a6\n      eq\n      tag_13\n      jumpi\n      dup1\n      0x741bef1a\n      eq\n      tag_14\n      jumpi\n      dup1\n      0x883f9741\n      eq\n      tag_15\n      jumpi\n      dup1\n      0x88e08665\n      eq\n      tag_16\n      jumpi\n      revert(0x00, 0x00)\n    tag_37:\n      dup1\n      0x5662ecc7\n      eq\n      tag_10\n      jumpi\n      dup1\n      0x5fe3b567\n      eq\n      tag_11\n      jumpi\n      dup1\n      0x6d89ba2a\n      eq\n      tag_12\n      jumpi\n      revert(0x00, 0x00)\n    tag_36:\n      dup1\n      0x3e413bee\n      gt\n      tag_38\n      jumpi\n      dup1\n      0x3e413bee\n      eq\n      tag_6\n      jumpi\n      dup1\n      0x3fc8cef3\n      eq\n      tag_7\n      jumpi\n      dup1\n      0x49bd5a5e\n      eq\n      tag_8\n      jumpi\n      dup1\n      0x53061026\n      eq\n      tag_9\n      jumpi\n      revert(0x00, 0x00)\n    tag_38:\n      dup1\n      0x09fffa84\n      eq\n      tag_3\n      jumpi\n      dup1\n      0x10d1e85c\n      eq\n      tag_4\n      jumpi\n      dup1\n      0x3b7ba770\n      eq\n      tag_5\n      jumpi\n      revert(0x00, 0x00)\n    tag_1:\n      jumpi(tag_2, calldatasize)\n        /* \"contracts/TradingAccount.sol\":1432:1436  weth */\n      and(sub(shl(0xa0, 0x01), 0x01), sload(0x01))\n        /* \"contracts/TradingAccount.sol\":1418:1428  msg.sender */\n      caller\n        /* \"contracts/TradingAccount.sol\":1418:1436  msg.sender == weth */\n      eq\n        /* \"contracts/TradingAccount.sol\":1411:1437  assert(msg.sender == weth) */\n      tag_42\n      jumpi\n      tag_42\n      tag_43\n      jump\t// in\n    tag_42:\n        /* \"contracts/TradingAccount.sol\":583:15781  contract TradingAccount is ... */\n      stop\n    tag_2:\n      revert(0x00, 0x00)\n        /* \"contracts/TradingAccount.sol\":7456:7795  function limitOpenLong(... */\n    tag_3:\n      callvalue\n      dup1\n      iszero\n      tag_44\n      jumpi\n      revert(0x00, 0x00)\n    tag_44:\n      pop\n      tag_45\n      tag_46\n      calldatasize\n      0x04\n      tag_47\n      jump\t// in\n    tag_46:\n      tag_48\n      jump\t// in\n    tag_45:\n      mload(0x40)\n        /* \"#utility.yul\":1041:1066   */\n      swap1\n      dup2\n      mstore\n        /* \"#utility.yul\":1029:1031   */\n      0x20\n        /* \"#utility.yul\":1014:1032   */\n      add\n        /* \"contracts/TradingAccount.sol\":7456:7795  function limitOpenLong(... */\n    tag_49:\n      mload(0x40)\n      dup1\n      swap2\n      sub\n      swap1\n      return\n        /* \"contracts/TradingAccount.sol\":9493:12143  function uniswapV2Call(... */\n    tag_4:\n      callvalue\n      dup1\n      iszero\n      tag_51\n      jumpi\n      revert(0x00, 0x00)\n    tag_51:\n      pop\n      tag_42\n      tag_53\n      calldatasize\n      0x04\n      tag_54\n      jump\t// in\n    tag_53:\n      tag_55\n      jump\t// in\n        /* \"contracts/TradingAccount.sol\":7801:8146  function limitOpenShort(... */\n    tag_5:\n      callvalue\n      dup1\n      iszero\n      tag_56\n      jumpi\n      revert(0x00, 0x00)\n    tag_56:\n      pop\n      tag_45\n      tag_58\n      calldatasize\n      0x04\n      tag_47\n      jump\t// in\n    tag_58:\n      tag_59\n      jump\t// in\n        /* \"contracts/TradingAccount.sol\":745:764  address public usdc */\n    tag_6:\n      callvalue\n      dup1\n      iszero\n      tag_61\n      jumpi\n      revert(0x00, 0x00)\n    tag_61:\n      pop\n      sload(0x02)\n      tag_62\n      swap1\n      sub(shl(0xa0, 0x01), 0x01)\n      and\n      dup2\n      jump\n    tag_62:\n      mload(0x40)\n      sub(shl(0xa0, 0x01), 0x01)\n        /* \"#utility.yul\":2208:2240   */\n      swap1\n      swap2\n      and\n        /* \"#utility.yul\":2190:2241   */\n      dup2\n      mstore\n        /* \"#utility.yul\":2178:2180   */\n      0x20\n        /* \"#utility.yul\":2163:2181   */\n      add\n        /* \"contracts/TradingAccount.sol\":745:764  address public usdc */\n      tag_49\n        /* \"#utility.yul\":2044:2247   */\n      jump\n        /* \"contracts/TradingAccount.sol\":720:739  address public weth */\n    tag_7:\n      callvalue\n      dup1\n      iszero\n      tag_66\n      jumpi\n      revert(0x00, 0x00)\n    tag_66:\n      pop\n      sload(0x01)\n      tag_62\n      swap1\n      sub(shl(0xa0, 0x01), 0x01)\n      and\n      dup2\n      jump\n        /* \"contracts/TradingAccount.sol\":770:798  address public uniswapV2Pair */\n    tag_8:\n      callvalue\n      dup1\n      iszero\n      tag_70\n      jumpi\n      revert(0x00, 0x00)\n    tag_70:\n      pop\n      sload(0x03)\n      tag_62\n      swap1\n      sub(shl(0xa0, 0x01), 0x01)\n      and\n      dup2\n      jump\n        /* \"contracts/TradingAccount.sol\":949:1000  mapping(uint256 => LimitOrder) public getLimitOrder */\n    tag_9:\n      callvalue\n      dup1\n      iszero\n      tag_74\n      jumpi\n      revert(0x00, 0x00)\n    tag_74:\n      pop\n      tag_75\n      tag_76\n      calldatasize\n      0x04\n      tag_77\n      jump\t// in\n    tag_76:\n      mstore(0x20, 0x09)\n      0x00\n      swap1\n      dup2\n      mstore\n      0x40\n      swap1\n      keccak256\n      dup1\n      sload\n      0x01\n      dup3\n      add\n      sload\n      0x02\n      dup4\n      add\n      sload\n      0x03\n      dup5\n      add\n      sload\n      0x04\n      dup6\n      add\n      sload\n      0x05\n      swap1\n      swap6\n      add\n      sload\n      0xff\n      dup1\n      dup7\n      and\n      swap7\n      0x0100\n      swap1\n      swap7\n      div\n      and\n      swap5\n      swap1\n      sub(shl(0xa0, 0x01), 0x01)\n      and\n      dup8\n      jump\n    tag_75:\n      0x40\n      dup1\n      mload\n        /* \"#utility.yul\":2811:2825   */\n      swap8\n      iszero\n        /* \"#utility.yul\":2804:2826   */\n      iszero\n        /* \"#utility.yul\":2786:2827   */\n      dup9\n      mstore\n        /* \"#utility.yul\":2870:2884   */\n      swap6\n      iszero\n        /* \"#utility.yul\":2863:2885   */\n      iszero\n        /* \"#utility.yul\":2858:2860   */\n      0x20\n        /* \"#utility.yul\":2843:2861   */\n      dup9\n      add\n        /* \"#utility.yul\":2836:2886   */\n      mstore\n        /* \"#utility.yul\":2902:2920   */\n      swap5\n      dup7\n      add\n        /* \"#utility.yul\":2895:2929   */\n      swap4\n      swap1\n      swap4\n      mstore\n        /* \"#utility.yul\":2960:2962   */\n      0x60\n        /* \"#utility.yul\":2945:2963   */\n      dup6\n      add\n        /* \"#utility.yul\":2938:2972   */\n      swap2\n      swap1\n      swap2\n      mstore\n        /* \"#utility.yul\":3003:3006   */\n      0x80\n        /* \"#utility.yul\":2988:3007   */\n      dup5\n      add\n        /* \"#utility.yul\":2981:3016   */\n      mstore\n        /* \"#utility.yul\":3047:3050   */\n      0xa0\n        /* \"#utility.yul\":3032:3051   */\n      dup4\n      add\n        /* \"#utility.yul\":3025:3060   */\n      mstore\n      sub(shl(0xa0, 0x01), 0x01)\n        /* \"#utility.yul\":3097:3129   */\n      and\n        /* \"#utility.yul\":3091:3094   */\n      0xc0\n        /* \"#utility.yul\":3076:3095   */\n      dup3\n      add\n        /* \"#utility.yul\":3069:3130   */\n      mstore\n        /* \"#utility.yul\":2773:2776   */\n      0xe0\n        /* \"#utility.yul\":2758:2777   */\n      add\n        /* \"contracts/TradingAccount.sol\":949:1000  mapping(uint256 => LimitOrder) public getLimitOrder */\n      tag_49\n        /* \"#utility.yul\":2483:3136   */\n      jump\n        /* \"contracts/TradingAccount.sol\":917:943  uint256 public lastOrderId */\n    tag_10:\n      callvalue\n      dup1\n      iszero\n      tag_81\n      jumpi\n      revert(0x00, 0x00)\n    tag_81:\n      pop\n      tag_45\n      sload(0x08)\n      dup2\n      jump\n        /* \"contracts/TradingAccount.sol\":855:881  address public comptroller */\n    tag_11:\n      callvalue\n      dup1\n      iszero\n      tag_85\n      jumpi\n      revert(0x00, 0x00)\n    tag_85:\n      pop\n      sload(0x06)\n      tag_62\n      swap1\n      sub(shl(0xa0, 0x01), 0x01)\n      and\n      dup2\n      jump\n        /* \"contracts/TradingAccount.sol\":5138:6290  function closeLong(uint256 usdcAmount, bool closeAll) ... */\n    tag_12:\n      callvalue\n      dup1\n      iszero\n      tag_89\n      jumpi\n      revert(0x00, 0x00)\n    tag_89:\n      pop\n      tag_45\n      tag_91\n      calldatasize\n      0x04\n      tag_92\n      jump\t// in\n    tag_91:\n      tag_93\n      jump\t// in\n        /* \"contracts/base/Ownable.sol\":620:721  function renounceOwnership() public virtual onlyOwner {... */\n    tag_13:\n      callvalue\n      dup1\n      iszero\n      tag_95\n      jumpi\n      revert(0x00, 0x00)\n    tag_95:\n      pop\n      tag_42\n      tag_97\n      jump\t// in\n        /* \"contracts/TradingAccount.sol\":887:911  address public priceFeed */\n    tag_14:\n      callvalue\n      dup1\n      iszero\n      tag_98\n      jumpi\n      revert(0x00, 0x00)\n    tag_98:\n      pop\n      sload(0x07)\n      tag_62\n      swap1\n      sub(shl(0xa0, 0x01), 0x01)\n      and\n      dup2\n      jump\n        /* \"contracts/TradingAccount.sol\":1336:1367  uint256 public lastCUsdcBalance */\n    tag_15:\n      callvalue\n      dup1\n      iszero\n      tag_102\n      jumpi\n      revert(0x00, 0x00)\n    tag_102:\n      pop\n      tag_45\n      sload(0x12)\n      dup2\n      jump\n        /* \"contracts/TradingAccount.sol\":4030:4938  function withdrawUSDC(uint256 cUsdcAmount, uint256 usdcAmount) ... */\n    tag_16:\n      callvalue\n      dup1\n      iszero\n      tag_106\n      jumpi\n      revert(0x00, 0x00)\n    tag_106:\n      pop\n      tag_42\n      tag_108\n      calldatasize\n      0x04\n      tag_109\n      jump\t// in\n    tag_108:\n      tag_110\n      jump\t// in\n        /* \"contracts/TradingAccount.sol\":1505:2173  function initialize(... */\n    tag_17:\n      callvalue\n      dup1\n      iszero\n      tag_111\n      jumpi\n      revert(0x00, 0x00)\n    tag_111:\n      pop\n      tag_42\n      tag_113\n      calldatasize\n      0x04\n      tag_114\n      jump\t// in\n    tag_113:\n      tag_115\n      jump\t// in\n        /* \"contracts/base/Ownable.sol\":393:478  function owner() public view virtual returns (address) {... */\n    tag_18:\n      callvalue\n      dup1\n      iszero\n      tag_116\n      jumpi\n      revert(0x00, 0x00)\n    tag_116:\n      pop\n        /* \"contracts/base/Ownable.sol\":439:446  address */\n      0x00\n        /* \"contracts/base/Ownable.sol\":465:471  _owner */\n      sload\n      sub(shl(0xa0, 0x01), 0x01)\n      and\n        /* \"contracts/base/Ownable.sol\":393:478  function owner() public view virtual returns (address) {... */\n      jump(tag_62)\n        /* \"contracts/TradingAccount.sol\":12149:12328  function getLatestPrice() public view returns (uint256) {... */\n    tag_19:\n      callvalue\n      dup1\n      iszero\n      tag_120\n      jumpi\n      revert(0x00, 0x00)\n    tag_120:\n      pop\n      tag_45\n      tag_122\n      jump\t// in\n        /* \"contracts/TradingAccount.sol\":1300:1330  uint256 public lastCEthBalance */\n    tag_20:\n      callvalue\n      dup1\n      iszero\n      tag_124\n      jumpi\n      revert(0x00, 0x00)\n    tag_124:\n      pop\n      tag_45\n      sload(0x11)\n      dup2\n      jump\n        /* \"contracts/TradingAccount.sol\":4944:5033  function openLong(uint256 ethSize) external onlyOwner {... */\n    tag_21:\n      callvalue\n      dup1\n      iszero\n      tag_128\n      jumpi\n      revert(0x00, 0x00)\n    tag_128:\n      pop\n      tag_42\n      tag_130\n      calldatasize\n      0x04\n      tag_77\n      jump\t// in\n    tag_130:\n      tag_131\n      jump\t// in\n        /* \"contracts/TradingAccount.sol\":804:823  address public cETH */\n    tag_22:\n      callvalue\n      dup1\n      iszero\n      tag_132\n      jumpi\n      revert(0x00, 0x00)\n    tag_132:\n      pop\n      sload(0x04)\n      tag_62\n      swap1\n      sub(shl(0xa0, 0x01), 0x01)\n      and\n      dup2\n      jump\n        /* \"contracts/TradingAccount.sol\":8152:8650  function cancelLimitOrder(uint256 orderId) external onlyOwner {... */\n    tag_23:\n      callvalue\n      dup1\n      iszero\n      tag_136\n      jumpi\n      revert(0x00, 0x00)\n    tag_136:\n      pop\n      tag_42\n      tag_138\n      calldatasize\n      0x04\n      tag_77\n      jump\t// in\n    tag_138:\n      tag_139\n      jump\t// in\n        /* \"contracts/TradingAccount.sol\":8656:9487  function executeLimitOrder(uint256 orderId) external {... */\n    tag_24:\n      callvalue\n      dup1\n      iszero\n      tag_140\n      jumpi\n      revert(0x00, 0x00)\n    tag_140:\n      pop\n      tag_42\n      tag_142\n      calldatasize\n      0x04\n      tag_77\n      jump\t// in\n    tag_142:\n      tag_143\n      jump\t// in\n        /* \"contracts/TradingAccount.sol\":3144:4024  function withdrawETH(uint256 cEthAmount, uint256 ethAmount) ... */\n    tag_25:\n      callvalue\n      dup1\n      iszero\n      tag_144\n      jumpi\n      revert(0x00, 0x00)\n    tag_144:\n      pop\n      tag_42\n      tag_146\n      calldatasize\n      0x04\n      tag_109\n      jump\t// in\n    tag_146:\n      tag_147\n      jump\t// in\n        /* \"contracts/TradingAccount.sol\":829:849  address public cUSDC */\n    tag_26:\n      callvalue\n      dup1\n      iszero\n      tag_148\n      jumpi\n      revert(0x00, 0x00)\n    tag_148:\n      pop\n      sload(0x05)\n      tag_62\n      swap1\n      sub(shl(0xa0, 0x01), 0x01)\n      and\n      dup2\n      jump\n        /* \"contracts/TradingAccount.sol\":5039:5132  function openShort(uint256 usdcSize) external onlyOwner {... */\n    tag_27:\n      callvalue\n      dup1\n      iszero\n      tag_152\n      jumpi\n      revert(0x00, 0x00)\n    tag_152:\n      pop\n      tag_42\n      tag_154\n      calldatasize\n      0x04\n      tag_77\n      jump\t// in\n    tag_154:\n      tag_155\n      jump\t// in\n        /* \"contracts/TradingAccount.sol\":6296:7450  function closeShort(uint256 ethAmount, bool closeAll) ... */\n    tag_28:\n      callvalue\n      dup1\n      iszero\n      tag_156\n      jumpi\n      revert(0x00, 0x00)\n    tag_156:\n      pop\n      tag_45\n      tag_158\n      calldatasize\n      0x04\n      tag_92\n      jump\t// in\n    tag_158:\n      tag_159\n      jump\t// in\n        /* \"contracts/base/Ownable.sol\":727:925  function transferOwnership(address newOwner) public virtual onlyOwner {... */\n    tag_29:\n      callvalue\n      dup1\n      iszero\n      tag_161\n      jumpi\n      revert(0x00, 0x00)\n    tag_161:\n      pop\n      tag_42\n      tag_163\n      calldatasize\n      0x04\n      tag_164\n      jump\t// in\n    tag_163:\n      tag_165\n      jump\t// in\n        /* \"contracts/TradingAccount.sol\":2179:2559  function depositETH() external payable onlyOwner {... */\n    tag_30:\n      tag_42\n      tag_167\n      jump\t// in\n        /* \"contracts/TradingAccount.sol\":2565:3138  function depositUSDC(uint256 amount) external payable onlyOwner {... */\n    tag_31:\n      tag_42\n      tag_169\n      calldatasize\n      0x04\n      tag_77\n      jump\t// in\n    tag_169:\n      tag_170\n      jump\t// in\n        /* \"contracts/TradingAccount.sol\":7456:7795  function limitOpenLong(... */\n    tag_48:\n        /* \"contracts/TradingAccount.sol\":7616:7631  uint256 orderId */\n      0x00\n        /* \"contracts/base/Ownable.sol\":356:369  _checkOwner() */\n      tag_172\n        /* \"contracts/base/Ownable.sol\":356:367  _checkOwner */\n      tag_173\n        /* \"contracts/base/Ownable.sol\":356:369  _checkOwner() */\n      jump\t// in\n    tag_172:\n        /* \"contracts/TradingAccount.sol\":7653:7712  _newLimitOrder(true, ethSize, limitPrice, expireAt, keeper) */\n      tag_175\n        /* \"contracts/TradingAccount.sol\":7668:7672  true */\n      0x01\n        /* \"contracts/TradingAccount.sol\":7674:7681  ethSize */\n      dup7\n        /* \"contracts/TradingAccount.sol\":7683:7693  limitPrice */\n      dup7\n        /* \"contracts/TradingAccount.sol\":7695:7703  expireAt */\n      dup7\n        /* \"contracts/TradingAccount.sol\":7705:7711  keeper */\n      dup7\n        /* \"contracts/TradingAccount.sol\":7653:7667  _newLimitOrder */\n      tag_176\n        /* \"contracts/TradingAccount.sol\":7653:7712  _newLimitOrder(true, ethSize, limitPrice, expireAt, keeper) */\n      jump\t// in\n    tag_175:\n        /* \"contracts/TradingAccount.sol\":7727:7788  LimitOpenLong(orderId, ethSize, limitPrice, expireAt, keeper) */\n      0x40\n      dup1\n      mload\n        /* \"#utility.yul\":5708:5733   */\n      dup3\n      dup2\n      mstore\n        /* \"#utility.yul\":5764:5766   */\n      0x20\n        /* \"#utility.yul\":5749:5767   */\n      dup2\n      add\n        /* \"#utility.yul\":5742:5776   */\n      dup9\n      swap1\n      mstore\n        /* \"#utility.yul\":5792:5810   */\n      swap1\n      dup2\n      add\n        /* \"#utility.yul\":5785:5819   */\n      dup7\n      swap1\n      mstore\n        /* \"#utility.yul\":5850:5852   */\n      0x60\n        /* \"#utility.yul\":5835:5853   */\n      dup2\n      add\n        /* \"#utility.yul\":5828:5862   */\n      dup6\n      swap1\n      mstore\n        /* \"contracts/TradingAccount.sol\":7643:7712  orderId = _newLimitOrder(true, ethSize, limitPrice, expireAt, keeper) */\n      swap1\n      swap2\n      pop\n      sub(shl(0xa0, 0x01), 0x01)\n        /* \"contracts/TradingAccount.sol\":7727:7788  LimitOpenLong(orderId, ethSize, limitPrice, expireAt, keeper) */\n      dup4\n      and\n      swap1\n      0x0d3f71d54beaf5776a99a3c0c84a1207de2861ede3d1d85dfcc17df11ebab1d7\n      swap1\n        /* \"#utility.yul\":5695:5698   */\n      0x80\n        /* \"#utility.yul\":5680:5699   */\n      add\n        /* \"contracts/TradingAccount.sol\":7727:7788  LimitOpenLong(orderId, ethSize, limitPrice, expireAt, keeper) */\n    tag_177:\n      mload(0x40)\n      dup1\n      swap2\n      sub\n      swap1\n      log2\n        /* \"contracts/TradingAccount.sol\":7456:7795  function limitOpenLong(... */\n      swap5\n      swap4\n      pop\n      pop\n      pop\n      pop\n      jump\t// out\n        /* \"contracts/TradingAccount.sol\":9493:12143  function uniswapV2Call(... */\n    tag_55:\n        /* \"contracts/TradingAccount.sol\":9666:9679  uniswapV2Pair */\n      and(sub(shl(0xa0, 0x01), 0x01), sload(0x03))\n        /* \"contracts/TradingAccount.sol\":9652:9662  msg.sender */\n      caller\n        /* \"contracts/TradingAccount.sol\":9652:9679  msg.sender == uniswapV2Pair */\n      eq\n        /* \"contracts/TradingAccount.sol\":9644:9702  require(msg.sender == uniswapV2Pair, \"only uniswapV2Pair\") */\n      tag_180\n      jumpi\n      mload(0x40)\n      shl(0xe5, 0x461bcd)\n      dup2\n      mstore\n        /* \"#utility.yul\":6075:6077   */\n      0x20\n        /* \"contracts/TradingAccount.sol\":9644:9702  require(msg.sender == uniswapV2Pair, \"only uniswapV2Pair\") */\n      0x04\n      dup3\n      add\n        /* \"#utility.yul\":6057:6078   */\n      mstore\n        /* \"#utility.yul\":6114:6116   */\n      0x12\n        /* \"#utility.yul\":6094:6112   */\n      0x24\n      dup3\n      add\n        /* \"#utility.yul\":6087:6117   */\n      mstore\n      shl(0x71, 0x37b7363c903ab734b9bbb0b82b192830b4b9)\n        /* \"#utility.yul\":6133:6151   */\n      0x44\n      dup3\n      add\n        /* \"#utility.yul\":6126:6174   */\n      mstore\n        /* \"#utility.yul\":6191:6209   */\n      0x64\n      add\n        /* \"contracts/TradingAccount.sol\":9644:9702  require(msg.sender == uniswapV2Pair, \"only uniswapV2Pair\") */\n    tag_181:\n      mload(0x40)\n      dup1\n      swap2\n      sub\n      swap1\n      revert\n    tag_180:\n        /* \"contracts/TradingAccount.sol\":9744:9757  uniswapV2Pair */\n      sload(0x03)\n        /* \"contracts/TradingAccount.sol\":9729:9767  IUniswapV2Pair(uniswapV2Pair).token0() */\n      0x40\n      dup1\n      mload\n      shl(0xe0, 0x0dfe1681)\n      dup2\n      mstore\n      swap1\n      mload\n        /* \"contracts/TradingAccount.sol\":9712:9726  address token0 */\n      0x00\n      swap3\n      sub(shl(0xa0, 0x01), 0x01)\n        /* \"contracts/TradingAccount.sol\":9744:9757  uniswapV2Pair */\n      and\n      swap2\n        /* \"contracts/TradingAccount.sol\":9729:9765  IUniswapV2Pair(uniswapV2Pair).token0 */\n      0x0dfe1681\n      swap2\n        /* \"contracts/TradingAccount.sol\":9729:9767  IUniswapV2Pair(uniswapV2Pair).token0() */\n      0x04\n      dup1\n      dup4\n      add\n      swap3\n      0x20\n      swap3\n      swap2\n      swap1\n      dup3\n      swap1\n      sub\n      add\n      dup2\n        /* \"contracts/TradingAccount.sol\":9744:9757  uniswapV2Pair */\n      dup7\n        /* \"contracts/TradingAccount.sol\":9729:9767  IUniswapV2Pair(uniswapV2Pair).token0() */\n      gas\n      staticcall\n      iszero\n      dup1\n      iszero\n      tag_184\n      jumpi\n      returndatacopy(0x00, 0x00, returndatasize)\n      revert(0x00, returndatasize)\n    tag_184:\n      pop\n      pop\n      pop\n      pop\n      mload(0x40)\n      returndatasize\n      not(0x1f)\n      0x1f\n      dup3\n      add\n      and\n      dup3\n      add\n      dup1\n      0x40\n      mstore\n      pop\n      dup2\n      add\n      swap1\n      tag_185\n      swap2\n      swap1\n      tag_186\n      jump\t// in\n    tag_185:\n        /* \"contracts/TradingAccount.sol\":9712:9767  address token0 = IUniswapV2Pair(uniswapV2Pair).token0() */\n      swap1\n      pop\n        /* \"contracts/TradingAccount.sol\":9777:9791  address token1 */\n      0x00\n        /* \"contracts/TradingAccount.sol\":9809:9822  uniswapV2Pair */\n      0x03\n      0x00\n      swap1\n      sload\n      swap1\n      0x0100\n      exp\n      swap1\n      div\n      sub(shl(0xa0, 0x01), 0x01)\n      and\n      sub(shl(0xa0, 0x01), 0x01)\n        /* \"contracts/TradingAccount.sol\":9794:9830  IUniswapV2Pair(uniswapV2Pair).token1 */\n      and\n      0xd21220a7\n        /* \"contracts/TradingAccount.sol\":9794:9832  IUniswapV2Pair(uniswapV2Pair).token1() */\n      mload(0x40)\n      dup2\n      0xffffffff\n      and\n      0xe0\n      shl\n      dup2\n      mstore\n      0x04\n      add\n      0x20\n      mload(0x40)\n      dup1\n      dup4\n      sub\n      dup2\n      dup7\n      gas\n      staticcall\n      iszero\n      dup1\n      iszero\n      tag_188\n      jumpi\n      returndatacopy(0x00, 0x00, returndatasize)\n      revert(0x00, returndatasize)\n    tag_188:\n      pop\n      pop\n      pop\n      pop\n      mload(0x40)\n      returndatasize\n      not(0x1f)\n      0x1f\n      dup3\n      add\n      and\n      dup3\n      add\n      dup1\n      0x40\n      mstore\n      pop\n      dup2\n      add\n      swap1\n      tag_189\n      swap2\n      swap1\n      tag_186\n      jump\t// in\n    tag_189:\n        /* \"contracts/TradingAccount.sol\":9777:9832  address token1 = IUniswapV2Pair(uniswapV2Pair).token1() */\n      swap1\n      pop\n        /* \"contracts/TradingAccount.sol\":9843:9859  uint112 reserve0 */\n      0x00\n        /* \"contracts/TradingAccount.sol\":9861:9877  uint112 reserve1 */\n      0x00\n        /* \"contracts/TradingAccount.sol\":9898:9911  uniswapV2Pair */\n      0x03\n      0x00\n      swap1\n      sload\n      swap1\n      0x0100\n      exp\n      swap1\n      div\n      sub(shl(0xa0, 0x01), 0x01)\n      and\n      sub(shl(0xa0, 0x01), 0x01)\n        /* \"contracts/TradingAccount.sol\":9883:9924  IUniswapV2Pair(uniswapV2Pair).getReserves */\n      and\n      0x0902f1ac\n        /* \"contracts/TradingAccount.sol\":9883:9926  IUniswapV2Pair(uniswapV2Pair).getReserves() */\n      mload(0x40)\n      dup2\n      0xffffffff\n      and\n      0xe0\n      shl\n      dup2\n      mstore\n      0x04\n      add\n      0x60\n      mload(0x40)\n      dup1\n      dup4\n      sub\n      dup2\n      dup7\n      gas\n      staticcall\n      iszero\n      dup1\n      iszero\n      tag_191\n      jumpi\n      returndatacopy(0x00, 0x00, returndatasize)\n      revert(0x00, returndatasize)\n    tag_191:\n      pop\n      pop\n      pop\n      pop\n      mload(0x40)\n      returndatasize\n      not(0x1f)\n      0x1f\n      dup3\n      add\n      and\n      dup3\n      add\n      dup1\n      0x40\n      mstore\n      pop\n      dup2\n      add\n      swap1\n      tag_192\n      swap2\n      swap1\n      tag_193\n      jump\t// in\n    tag_192:\n      pop\n        /* \"contracts/TradingAccount.sol\":9842:9926  (uint112 reserve0, uint112 reserve1, ) = IUniswapV2Pair(uniswapV2Pair).getReserves() */\n      swap1\n      swap3\n      pop\n      swap1\n      pop\n        /* \"contracts/TradingAccount.sol\":9937:9956  address tokenOutput */\n      0x00\n      dup1\n      dup1\n      dup1\n        /* \"contracts/TradingAccount.sol\":10053:10064  amount0 > 0 */\n      dup12\n      iszero\n        /* \"contracts/TradingAccount.sol\":10049:10366  if (amount0 > 0) {... */\n      tag_194\n      jumpi\n      pop\n        /* \"contracts/TradingAccount.sol\":10094:10100  token0 */\n      dup7\n      swap3\n      pop\n      pop\n      sub(shl(0x70, 0x01), 0x01)\n        /* \"contracts/TradingAccount.sol\":10114:10134  reserveIn = reserve1 */\n      dup1\n      dup5\n      and\n      swap2\n      pop\n        /* \"contracts/TradingAccount.sol\":10148:10169  reserveOut = reserve0 */\n      dup5\n      and\n        /* \"contracts/TradingAccount.sol\":10195:10202  amount0 */\n      dup11\n        /* \"contracts/TradingAccount.sol\":10049:10366  if (amount0 > 0) {... */\n      jump(tag_195)\n    tag_194:\n      pop\n        /* \"contracts/TradingAccount.sol\":10247:10253  token1 */\n      dup6\n      swap3\n      pop\n      pop\n      sub(shl(0x70, 0x01), 0x01)\n        /* \"contracts/TradingAccount.sol\":10267:10287  reserveIn = reserve0 */\n      dup1\n      dup6\n      and\n      swap2\n      pop\n        /* \"contracts/TradingAccount.sol\":10301:10322  reserveOut = reserve1 */\n      dup4\n      and\n        /* \"contracts/TradingAccount.sol\":10348:10355  amount1 */\n      dup10\n        /* \"contracts/TradingAccount.sol\":10049:10366  if (amount0 > 0) {... */\n    tag_195:\n        /* \"contracts/TradingAccount.sol\":10375:10391  uint256 amountIn */\n      0x00\n        /* \"contracts/TradingAccount.sol\":10394:10440  _getAmountIn(amountOut, reserveIn, reserveOut) */\n      tag_196\n        /* \"contracts/TradingAccount.sol\":10407:10416  amountOut */\n      dup3\n        /* \"contracts/TradingAccount.sol\":10418:10427  reserveIn */\n      dup6\n        /* \"contracts/TradingAccount.sol\":10429:10439  reserveOut */\n      dup6\n        /* \"contracts/TradingAccount.sol\":10394:10406  _getAmountIn */\n      tag_197\n        /* \"contracts/TradingAccount.sol\":10394:10440  _getAmountIn(amountOut, reserveIn, reserveOut) */\n      jump\t// in\n    tag_196:\n        /* \"contracts/TradingAccount.sol\":10455:10465  tempParams */\n      0x0a\n        /* \"contracts/TradingAccount.sol\":10455:10472  tempParams.isOpen */\n      sload\n        /* \"contracts/TradingAccount.sol\":10375:10440  uint256 amountIn = _getAmountIn(amountOut, reserveIn, reserveOut) */\n      swap1\n      swap2\n      pop\n        /* \"contracts/TradingAccount.sol\":10455:10472  tempParams.isOpen */\n      0xff\n      and\n        /* \"contracts/TradingAccount.sol\":10451:12137  if (tempParams.isOpen) {... */\n      iszero\n      tag_198\n      jumpi\n        /* \"contracts/TradingAccount.sol\":10488:10513  tempParams.borrowedAmount */\n      0x0c\n        /* \"contracts/TradingAccount.sol\":10488:10524  tempParams.borrowedAmount = amountIn */\n      dup2\n      swap1\n      sstore\n        /* \"contracts/TradingAccount.sol\":10488:10498  tempParams */\n      0x0a\n        /* \"contracts/TradingAccount.sol\":10542:10559  tempParams.isLong */\n      sload\n      0x0100\n      swap1\n      div\n      0xff\n      and\n        /* \"contracts/TradingAccount.sol\":10538:11210  if (tempParams.isLong) {... */\n      iszero\n      tag_199\n      jumpi\n        /* \"contracts/TradingAccount.sol\":10585:10589  weth */\n      sload(0x01)\n        /* \"contracts/TradingAccount.sol\":10579:10610  IWETH(weth).withdraw(amountOut) */\n      mload(0x40)\n      shl(0xe0, 0x2e1a7d4d)\n      dup2\n      mstore\n      0x04\n      dup2\n      add\n        /* \"#utility.yul\":1041:1066   */\n      dup5\n      swap1\n      mstore\n      sub(shl(0xa0, 0x01), 0x01)\n        /* \"contracts/TradingAccount.sol\":10585:10589  weth */\n      swap1\n      swap2\n      and\n      swap1\n        /* \"contracts/TradingAccount.sol\":10579:10599  IWETH(weth).withdraw */\n      0x2e1a7d4d\n      swap1\n        /* \"#utility.yul\":1014:1032   */\n      0x24\n      add\n        /* \"contracts/TradingAccount.sol\":10579:10610  IWETH(weth).withdraw(amountOut) */\n      0x00\n      mload(0x40)\n      dup1\n      dup4\n      sub\n      dup2\n      0x00\n      dup8\n      dup1\n      extcodesize\n      iszero\n      dup1\n      iszero\n      tag_201\n      jumpi\n      revert(0x00, 0x00)\n    tag_201:\n      pop\n      gas\n      call\n      iszero\n      dup1\n      iszero\n      tag_203\n      jumpi\n      returndatacopy(0x00, 0x00, returndatasize)\n      revert(0x00, returndatasize)\n    tag_203:\n      pop\n      pop\n      pop\n      pop\n        /* \"contracts/TradingAccount.sol\":10636:10640  cETH */\n      0x04\n      0x00\n      swap1\n      sload\n      swap1\n      0x0100\n      exp\n      swap1\n      div\n      sub(shl(0xa0, 0x01), 0x01)\n      and\n      sub(shl(0xa0, 0x01), 0x01)\n        /* \"contracts/TradingAccount.sol\":10628:10646  ICEther(cETH).mint */\n      and\n      0x1249c58b\n        /* \"contracts/TradingAccount.sol\":10654:10663  amountOut */\n      dup4\n        /* \"contracts/TradingAccount.sol\":10628:10666  ICEther(cETH).mint{value: amountOut}() */\n      mload(0x40)\n      dup3\n      0xffffffff\n      and\n      0xe0\n      shl\n      dup2\n      mstore\n      0x04\n      add\n      0x00\n      mload(0x40)\n      dup1\n      dup4\n      sub\n      dup2\n      dup6\n      dup9\n      dup1\n      extcodesize\n      iszero\n      dup1\n      iszero\n      tag_204\n      jumpi\n      revert(0x00, 0x00)\n    tag_204:\n      pop\n      gas\n      call\n      iszero\n      dup1\n      iszero\n      tag_206\n      jumpi\n      returndatacopy(0x00, 0x00, returndatasize)\n      revert(0x00, returndatasize)\n    tag_206:\n      pop\n      pop\n        /* \"contracts/TradingAccount.sol\":10700:10705  cUSDC */\n      sload(0x05)\n        /* \"contracts/TradingAccount.sol\":10692:10723  ICERC20(cUSDC).borrow(amountIn) */\n      mload(0x40)\n      shl(0xe2, 0x317afabb)\n      dup2\n      mstore\n      0x04\n      dup2\n      add\n        /* \"#utility.yul\":1041:1066   */\n      dup7\n      swap1\n      mstore\n      sub(shl(0xa0, 0x01), 0x01)\n        /* \"contracts/TradingAccount.sol\":10700:10705  cUSDC */\n      swap1\n      swap2\n      and\n      swap4\n      pop\n        /* \"contracts/TradingAccount.sol\":10692:10713  ICERC20(cUSDC).borrow */\n      0xc5ebeaec\n      swap3\n      pop\n        /* \"#utility.yul\":1014:1032   */\n      0x24\n      add\n      swap1\n      pop\n        /* \"contracts/TradingAccount.sol\":10692:10723  ICERC20(cUSDC).borrow(amountIn) */\n      0x20\n      mload(0x40)\n      dup1\n      dup4\n      sub\n      dup2\n      0x00\n      dup8\n      gas\n      call\n      iszero\n      dup1\n      iszero\n      tag_209\n      jumpi\n      returndatacopy(0x00, 0x00, returndatasize)\n      revert(0x00, returndatasize)\n    tag_209:\n      pop\n      pop\n      pop\n      pop\n      mload(0x40)\n      returndatasize\n      not(0x1f)\n      0x1f\n      dup3\n      add\n      and\n      dup3\n      add\n      dup1\n      0x40\n      mstore\n      pop\n      dup2\n      add\n      swap1\n      tag_210\n      swap2\n      swap1\n      tag_211\n      jump\t// in\n    tag_210:\n        /* \"contracts/TradingAccount.sol\":10692:10728  ICERC20(cUSDC).borrow(amountIn) == 0 */\n      iszero\n        /* \"contracts/TradingAccount.sol\":10684:10745  require(ICERC20(cUSDC).borrow(amountIn) == 0, \"borrow error\") */\n      tag_212\n      jumpi\n      mload(0x40)\n      shl(0xe5, 0x461bcd)\n      dup2\n      mstore\n        /* \"#utility.yul\":7561:7563   */\n      0x20\n        /* \"contracts/TradingAccount.sol\":10684:10745  require(ICERC20(cUSDC).borrow(amountIn) == 0, \"borrow error\") */\n      0x04\n      dup3\n      add\n        /* \"#utility.yul\":7543:7564   */\n      mstore\n        /* \"#utility.yul\":7600:7602   */\n      0x0c\n        /* \"#utility.yul\":7580:7598   */\n      0x24\n      dup3\n      add\n        /* \"#utility.yul\":7573:7603   */\n      mstore\n      shl(0xa1, 0x3137b93937bb9032b93937b9)\n        /* \"#utility.yul\":7619:7637   */\n      0x44\n      dup3\n      add\n        /* \"#utility.yul\":7612:7654   */\n      mstore\n        /* \"#utility.yul\":7671:7689   */\n      0x64\n      add\n        /* \"contracts/TradingAccount.sol\":10684:10745  require(ICERC20(cUSDC).borrow(amountIn) == 0, \"borrow error\") */\n      tag_181\n        /* \"#utility.yul\":7359:7695   */\n      jump\n        /* \"contracts/TradingAccount.sol\":10684:10745  require(ICERC20(cUSDC).borrow(amountIn) == 0, \"borrow error\") */\n    tag_212:\n        /* \"contracts/TradingAccount.sol\":10791:10795  usdc */\n      sload(0x02)\n        /* \"contracts/TradingAccount.sol\":10797:10810  uniswapV2Pair */\n      sload(0x03)\n        /* \"contracts/TradingAccount.sol\":10763:10821  TransferHelper.safeTransfer(usdc, uniswapV2Pair, amountIn) */\n      tag_215\n      swap2\n      sub(shl(0xa0, 0x01), 0x01)\n        /* \"contracts/TradingAccount.sol\":10791:10795  usdc */\n      swap1\n      dup2\n      and\n      swap2\n        /* \"contracts/TradingAccount.sol\":10797:10810  uniswapV2Pair */\n      and\n        /* \"contracts/TradingAccount.sol\":10812:10820  amountIn */\n      dup4\n        /* \"contracts/TradingAccount.sol\":10763:10790  TransferHelper.safeTransfer */\n      tag_216\n        /* \"contracts/TradingAccount.sol\":10763:10821  TransferHelper.safeTransfer(usdc, uniswapV2Pair, amountIn) */\n      jump\t// in\n    tag_215:\n        /* \"contracts/TradingAccount.sol\":10451:12137  if (tempParams.isOpen) {... */\n      jump(tag_268)\n        /* \"contracts/TradingAccount.sol\":10538:11210  if (tempParams.isLong) {... */\n    tag_199:\n        /* \"contracts/TradingAccount.sol\":10887:10891  usdc */\n      sload(0x02)\n        /* \"contracts/TradingAccount.sol\":10892:10897  cUSDC */\n      sload(0x05)\n        /* \"contracts/TradingAccount.sol\":10860:10909  TransferHelper.safeApprove(usdc,cUSDC, amountOut) */\n      tag_218\n      swap2\n      sub(shl(0xa0, 0x01), 0x01)\n        /* \"contracts/TradingAccount.sol\":10887:10891  usdc */\n      swap1\n      dup2\n      and\n      swap2\n        /* \"contracts/TradingAccount.sol\":10892:10897  cUSDC */\n      and\n        /* \"contracts/TradingAccount.sol\":10899:10908  amountOut */\n      dup5\n        /* \"contracts/TradingAccount.sol\":10860:10886  TransferHelper.safeApprove */\n      tag_219\n        /* \"contracts/TradingAccount.sol\":10860:10909  TransferHelper.safeApprove(usdc,cUSDC, amountOut) */\n      jump\t// in\n    tag_218:\n        /* \"contracts/TradingAccount.sol\":10943:10948  cUSDC */\n      sload(0x05)\n        /* \"contracts/TradingAccount.sol\":10935:10965  ICERC20(cUSDC).mint(amountOut) */\n      mload(0x40)\n      shl(0xe3, 0x140e25ad)\n      dup2\n      mstore\n      0x04\n      dup2\n      add\n        /* \"#utility.yul\":1041:1066   */\n      dup5\n      swap1\n      mstore\n      sub(shl(0xa0, 0x01), 0x01)\n        /* \"contracts/TradingAccount.sol\":10943:10948  cUSDC */\n      swap1\n      swap2\n      and\n      swap1\n        /* \"contracts/TradingAccount.sol\":10935:10954  ICERC20(cUSDC).mint */\n      0xa0712d68\n      swap1\n        /* \"#utility.yul\":1014:1032   */\n      0x24\n      add\n        /* \"contracts/TradingAccount.sol\":10935:10965  ICERC20(cUSDC).mint(amountOut) */\n      0x20\n      mload(0x40)\n      dup1\n      dup4\n      sub\n      dup2\n      0x00\n      dup8\n      gas\n      call\n      iszero\n      dup1\n      iszero\n      tag_222\n      jumpi\n      returndatacopy(0x00, 0x00, returndatasize)\n      revert(0x00, returndatasize)\n    tag_222:\n      pop\n      pop\n      pop\n      pop\n      mload(0x40)\n      returndatasize\n      not(0x1f)\n      0x1f\n      dup3\n      add\n      and\n      dup3\n      add\n      dup1\n      0x40\n      mstore\n      pop\n      dup2\n      add\n      swap1\n      tag_223\n      swap2\n      swap1\n      tag_211\n      jump\t// in\n    tag_223:\n        /* \"contracts/TradingAccount.sol\":10935:10970  ICERC20(cUSDC).mint(amountOut) == 0 */\n      iszero\n        /* \"contracts/TradingAccount.sol\":10927:10985  require(ICERC20(cUSDC).mint(amountOut) == 0, \"mint error\") */\n      tag_224\n      jumpi\n      mload(0x40)\n      shl(0xe5, 0x461bcd)\n      dup2\n      mstore\n        /* \"#utility.yul\":7902:7904   */\n      0x20\n        /* \"contracts/TradingAccount.sol\":10927:10985  require(ICERC20(cUSDC).mint(amountOut) == 0, \"mint error\") */\n      0x04\n      dup3\n      add\n        /* \"#utility.yul\":7884:7905   */\n      mstore\n        /* \"#utility.yul\":7941:7943   */\n      0x0a\n        /* \"#utility.yul\":7921:7939   */\n      0x24\n      dup3\n      add\n        /* \"#utility.yul\":7914:7944   */\n      mstore\n      shl(0xb1, 0x36b4b73a1032b93937b9)\n        /* \"#utility.yul\":7960:7978   */\n      0x44\n      dup3\n      add\n        /* \"#utility.yul\":7953:7993   */\n      mstore\n        /* \"#utility.yul\":8010:8028   */\n      0x64\n      add\n        /* \"contracts/TradingAccount.sol\":10927:10985  require(ICERC20(cUSDC).mint(amountOut) == 0, \"mint error\") */\n      tag_181\n        /* \"#utility.yul\":7700:8034   */\n      jump\n        /* \"contracts/TradingAccount.sol\":10927:10985  require(ICERC20(cUSDC).mint(amountOut) == 0, \"mint error\") */\n    tag_224:\n        /* \"contracts/TradingAccount.sol\":11019:11023  cETH */\n      0x04\n      dup1\n      sload\n        /* \"contracts/TradingAccount.sol\":11011:11041  ICEther(cETH).borrow(amountIn) */\n      mload(0x40)\n      shl(0xe2, 0x317afabb)\n      dup2\n      mstore\n      swap2\n      dup3\n      add\n        /* \"#utility.yul\":1041:1066   */\n      dup4\n      swap1\n      mstore\n      sub(shl(0xa0, 0x01), 0x01)\n        /* \"contracts/TradingAccount.sol\":11019:11023  cETH */\n      and\n      swap1\n        /* \"contracts/TradingAccount.sol\":11011:11031  ICEther(cETH).borrow */\n      0xc5ebeaec\n      swap1\n        /* \"#utility.yul\":1014:1032   */\n      0x24\n      add\n        /* \"contracts/TradingAccount.sol\":11011:11041  ICEther(cETH).borrow(amountIn) */\n      0x20\n      mload(0x40)\n      dup1\n      dup4\n      sub\n      dup2\n      0x00\n      dup8\n      gas\n      call\n      iszero\n      dup1\n      iszero\n      tag_229\n      jumpi\n      returndatacopy(0x00, 0x00, returndatasize)\n      revert(0x00, returndatasize)\n    tag_229:\n      pop\n      pop\n      pop\n      pop\n      mload(0x40)\n      returndatasize\n      not(0x1f)\n      0x1f\n      dup3\n      add\n      and\n      dup3\n      add\n      dup1\n      0x40\n      mstore\n      pop\n      dup2\n      add\n      swap1\n      tag_230\n      swap2\n      swap1\n      tag_211\n      jump\t// in\n    tag_230:\n        /* \"contracts/TradingAccount.sol\":11011:11046  ICEther(cETH).borrow(amountIn) == 0 */\n      iszero\n        /* \"contracts/TradingAccount.sol\":11003:11063  require(ICEther(cETH).borrow(amountIn) == 0, \"borrow error\") */\n      tag_231\n      jumpi\n      mload(0x40)\n      shl(0xe5, 0x461bcd)\n      dup2\n      mstore\n        /* \"#utility.yul\":7561:7563   */\n      0x20\n        /* \"contracts/TradingAccount.sol\":11003:11063  require(ICEther(cETH).borrow(amountIn) == 0, \"borrow error\") */\n      0x04\n      dup3\n      add\n        /* \"#utility.yul\":7543:7564   */\n      mstore\n        /* \"#utility.yul\":7600:7602   */\n      0x0c\n        /* \"#utility.yul\":7580:7598   */\n      0x24\n      dup3\n      add\n        /* \"#utility.yul\":7573:7603   */\n      mstore\n      shl(0xa1, 0x3137b93937bb9032b93937b9)\n        /* \"#utility.yul\":7619:7637   */\n      0x44\n      dup3\n      add\n        /* \"#utility.yul\":7612:7654   */\n      mstore\n        /* \"#utility.yul\":7671:7689   */\n      0x64\n      add\n        /* \"contracts/TradingAccount.sol\":11003:11063  require(ICEther(cETH).borrow(amountIn) == 0, \"borrow error\") */\n      tag_181\n        /* \"#utility.yul\":7359:7695   */\n      jump\n        /* \"contracts/TradingAccount.sol\":11003:11063  require(ICEther(cETH).borrow(amountIn) == 0, \"borrow error\") */\n    tag_231:\n        /* \"contracts/TradingAccount.sol\":11087:11091  weth */\n      0x01\n      0x00\n      swap1\n      sload\n      swap1\n      0x0100\n      exp\n      swap1\n      div\n      sub(shl(0xa0, 0x01), 0x01)\n      and\n      sub(shl(0xa0, 0x01), 0x01)\n        /* \"contracts/TradingAccount.sol\":11081:11100  IWETH(weth).deposit */\n      and\n      0xd0e30db0\n        /* \"contracts/TradingAccount.sol\":11108:11116  amountIn */\n      dup3\n        /* \"contracts/TradingAccount.sol\":11081:11119  IWETH(weth).deposit{value: amountIn}() */\n      mload(0x40)\n      dup3\n      0xffffffff\n      and\n      0xe0\n      shl\n      dup2\n      mstore\n      0x04\n      add\n      0x00\n      mload(0x40)\n      dup1\n      dup4\n      sub\n      dup2\n      dup6\n      dup9\n      dup1\n      extcodesize\n      iszero\n      dup1\n      iszero\n      tag_233\n      jumpi\n      revert(0x00, 0x00)\n    tag_233:\n      pop\n      gas\n      call\n      iszero\n      dup1\n      iszero\n      tag_235\n      jumpi\n      returndatacopy(0x00, 0x00, returndatasize)\n      revert(0x00, returndatasize)\n    tag_235:\n      pop\n      pop\n        /* \"contracts/TradingAccount.sol\":11165:11169  weth */\n      sload(0x01)\n        /* \"contracts/TradingAccount.sol\":11171:11184  uniswapV2Pair */\n      sload(0x03)\n        /* \"contracts/TradingAccount.sol\":11137:11195  TransferHelper.safeTransfer(weth, uniswapV2Pair, amountIn) */\n      tag_215\n      swap5\n      pop\n      sub(shl(0xa0, 0x01), 0x01)\n        /* \"contracts/TradingAccount.sol\":11165:11169  weth */\n      swap2\n      dup3\n      and\n      swap4\n      pop\n        /* \"contracts/TradingAccount.sol\":11171:11184  uniswapV2Pair */\n      and\n      swap1\n      pop\n        /* \"contracts/TradingAccount.sol\":11186:11194  amountIn */\n      dup4\n        /* \"contracts/TradingAccount.sol\":11137:11164  TransferHelper.safeTransfer */\n      tag_216\n        /* \"contracts/TradingAccount.sol\":11137:11195  TransferHelper.safeTransfer(weth, uniswapV2Pair, amountIn) */\n      jump\t// in\n        /* \"contracts/TradingAccount.sol\":10451:12137  if (tempParams.isOpen) {... */\n    tag_198:\n        /* \"contracts/TradingAccount.sol\":11240:11269  tempParams.underlyingRedeemed */\n      0x0f\n        /* \"contracts/TradingAccount.sol\":11240:11280  tempParams.underlyingRedeemed = amountIn */\n      dup2\n      swap1\n      sstore\n        /* \"contracts/TradingAccount.sol\":11240:11250  tempParams */\n      0x0a\n        /* \"contracts/TradingAccount.sol\":11298:11315  tempParams.isLong */\n      sload\n      0x0100\n      swap1\n      div\n      0xff\n      and\n        /* \"contracts/TradingAccount.sol\":11294:12127  if (tempParams.isLong) {... */\n      iszero\n      tag_238\n      jumpi\n        /* \"contracts/TradingAccount.sol\":11362:11366  usdc */\n      sload(0x02)\n        /* \"contracts/TradingAccount.sol\":11368:11373  cUSDC */\n      sload(0x05)\n        /* \"contracts/TradingAccount.sol\":11335:11385  TransferHelper.safeApprove(usdc, cUSDC, amountOut) */\n      tag_239\n      swap2\n      sub(shl(0xa0, 0x01), 0x01)\n        /* \"contracts/TradingAccount.sol\":11362:11366  usdc */\n      swap1\n      dup2\n      and\n      swap2\n        /* \"contracts/TradingAccount.sol\":11368:11373  cUSDC */\n      and\n        /* \"contracts/TradingAccount.sol\":11375:11384  amountOut */\n      dup5\n        /* \"contracts/TradingAccount.sol\":11335:11361  TransferHelper.safeApprove */\n      tag_219\n        /* \"contracts/TradingAccount.sol\":11335:11385  TransferHelper.safeApprove(usdc, cUSDC, amountOut) */\n      jump\t// in\n    tag_239:\n        /* \"contracts/TradingAccount.sol\":11440:11445  cUSDC */\n      sload(0x05)\n        /* \"contracts/TradingAccount.sol\":11432:11469  ICERC20(cUSDC).repayBorrow(amountOut) */\n      mload(0x40)\n      shl(0xe1, 0x073a9381)\n      dup2\n      mstore\n      0x04\n      dup2\n      add\n        /* \"#utility.yul\":1041:1066   */\n      dup5\n      swap1\n      mstore\n      sub(shl(0xa0, 0x01), 0x01)\n        /* \"contracts/TradingAccount.sol\":11440:11445  cUSDC */\n      swap1\n      swap2\n      and\n      swap1\n        /* \"contracts/TradingAccount.sol\":11432:11458  ICERC20(cUSDC).repayBorrow */\n      0x0e752702\n      swap1\n        /* \"#utility.yul\":1014:1032   */\n      0x24\n      add\n        /* \"contracts/TradingAccount.sol\":11432:11469  ICERC20(cUSDC).repayBorrow(amountOut) */\n      0x20\n      mload(0x40)\n      dup1\n      dup4\n      sub\n      dup2\n      0x00\n      dup8\n      gas\n      call\n      iszero\n      dup1\n      iszero\n      tag_242\n      jumpi\n      returndatacopy(0x00, 0x00, returndatasize)\n      revert(0x00, returndatasize)\n    tag_242:\n      pop\n      pop\n      pop\n      pop\n      mload(0x40)\n      returndatasize\n      not(0x1f)\n      0x1f\n      dup3\n      add\n      and\n      dup3\n      add\n      dup1\n      0x40\n      mstore\n      pop\n      dup2\n      add\n      swap1\n      tag_243\n      swap2\n      swap1\n      tag_211\n      jump\t// in\n    tag_243:\n        /* \"contracts/TradingAccount.sol\":11432:11474  ICERC20(cUSDC).repayBorrow(amountOut) == 0 */\n      iszero\n        /* \"contracts/TradingAccount.sol\":11403:11527  require(... */\n      tag_244\n      jumpi\n      mload(0x40)\n      shl(0xe5, 0x461bcd)\n      dup2\n      mstore\n        /* \"#utility.yul\":8241:8243   */\n      0x20\n        /* \"contracts/TradingAccount.sol\":11403:11527  require(... */\n      0x04\n      dup3\n      add\n        /* \"#utility.yul\":8223:8244   */\n      mstore\n        /* \"#utility.yul\":8280:8282   */\n      0x0b\n        /* \"#utility.yul\":8260:8278   */\n      0x24\n      dup3\n      add\n        /* \"#utility.yul\":8253:8283   */\n      mstore\n      shl(0xa9, 0x3932b830bc9032b93937b9)\n        /* \"#utility.yul\":8299:8317   */\n      0x44\n      dup3\n      add\n        /* \"#utility.yul\":8292:8333   */\n      mstore\n        /* \"#utility.yul\":8350:8368   */\n      0x64\n      add\n        /* \"contracts/TradingAccount.sol\":11403:11527  require(... */\n      tag_181\n        /* \"#utility.yul\":8039:8374   */\n      jump\n        /* \"contracts/TradingAccount.sol\":11403:11527  require(... */\n    tag_244:\n        /* \"contracts/TradingAccount.sol\":11582:11586  cETH */\n      0x04\n      dup1\n      sload\n        /* \"contracts/TradingAccount.sol\":11574:11614  ICEther(cETH).redeemUnderlying(amountIn) */\n      mload(0x40)\n      shl(0xe0, 0x852a12e3)\n      dup2\n      mstore\n      swap2\n      dup3\n      add\n        /* \"#utility.yul\":1041:1066   */\n      dup4\n      swap1\n      mstore\n      sub(shl(0xa0, 0x01), 0x01)\n        /* \"contracts/TradingAccount.sol\":11582:11586  cETH */\n      and\n      swap1\n        /* \"contracts/TradingAccount.sol\":11574:11604  ICEther(cETH).redeemUnderlying */\n      0x852a12e3\n      swap1\n        /* \"#utility.yul\":1014:1032   */\n      0x24\n      add\n        /* \"contracts/TradingAccount.sol\":11574:11614  ICEther(cETH).redeemUnderlying(amountIn) */\n      0x20\n      mload(0x40)\n      dup1\n      dup4\n      sub\n      dup2\n      0x00\n      dup8\n      gas\n      call\n      iszero\n      dup1\n      iszero\n      tag_249\n      jumpi\n      returndatacopy(0x00, 0x00, returndatasize)\n      revert(0x00, returndatasize)\n    tag_249:\n      pop\n      pop\n      pop\n      pop\n      mload(0x40)\n      returndatasize\n      not(0x1f)\n      0x1f\n      dup3\n      add\n      and\n      dup3\n      add\n      dup1\n      0x40\n      mstore\n      pop\n      dup2\n      add\n      swap1\n      tag_250\n      swap2\n      swap1\n      tag_211\n      jump\t// in\n    tag_250:\n        /* \"contracts/TradingAccount.sol\":11574:11619  ICEther(cETH).redeemUnderlying(amountIn) == 0 */\n      iszero\n        /* \"contracts/TradingAccount.sol\":11545:11673  require(... */\n      tag_231\n      jumpi\n      mload(0x40)\n      shl(0xe5, 0x461bcd)\n      dup2\n      mstore\n      0x04\n      add\n      tag_181\n      swap1\n      tag_253\n      jump\t// in\n        /* \"contracts/TradingAccount.sol\":11294:12127  if (tempParams.isLong) {... */\n    tag_238:\n        /* \"contracts/TradingAccount.sol\":11852:11856  cETH */\n      0x04\n      dup1\n      sload\n        /* \"contracts/TradingAccount.sol\":11844:11889  ICEther(cETH).repayBorrow{value: amountOut}() */\n      0x40\n      dup1\n      mload\n      shl(0xe1, 0x2726cff5)\n      dup2\n      mstore\n      swap1\n      mload\n      sub(shl(0xa0, 0x01), 0x01)\n        /* \"contracts/TradingAccount.sol\":11852:11856  cETH */\n      swap1\n      swap3\n      and\n      swap3\n        /* \"contracts/TradingAccount.sol\":11844:11869  ICEther(cETH).repayBorrow */\n      0x4e4d9fea\n      swap3\n        /* \"contracts/TradingAccount.sol\":11877:11886  amountOut */\n      dup7\n      swap3\n        /* \"contracts/TradingAccount.sol\":11844:11889  ICEther(cETH).repayBorrow{value: amountOut}() */\n      dup1\n      dup4\n      add\n      swap3\n        /* \"contracts/TradingAccount.sol\":11852:11856  cETH */\n      0x00\n      swap3\n        /* \"contracts/TradingAccount.sol\":11844:11889  ICEther(cETH).repayBorrow{value: amountOut}() */\n      swap2\n      dup3\n      swap1\n      sub\n      add\n      dup2\n        /* \"contracts/TradingAccount.sol\":11877:11886  amountOut */\n      dup6\n        /* \"contracts/TradingAccount.sol\":11852:11856  cETH */\n      dup9\n        /* \"contracts/TradingAccount.sol\":11844:11889  ICEther(cETH).repayBorrow{value: amountOut}() */\n      dup1\n      extcodesize\n      iszero\n      dup1\n      iszero\n      tag_259\n      jumpi\n      revert(0x00, 0x00)\n    tag_259:\n      pop\n      gas\n      call\n      iszero\n      dup1\n      iszero\n      tag_261\n      jumpi\n      returndatacopy(0x00, 0x00, returndatasize)\n      revert(0x00, returndatasize)\n    tag_261:\n      pop\n      pop\n        /* \"contracts/TradingAccount.sol\":11944:11949  cUSDC */\n      sload(0x05)\n        /* \"contracts/TradingAccount.sol\":11936:11977  ICERC20(cUSDC).redeemUnderlying(amountIn) */\n      mload(0x40)\n      shl(0xe0, 0x852a12e3)\n      dup2\n      mstore\n      0x04\n      dup2\n      add\n        /* \"#utility.yul\":1041:1066   */\n      dup7\n      swap1\n      mstore\n      sub(shl(0xa0, 0x01), 0x01)\n        /* \"contracts/TradingAccount.sol\":11944:11949  cUSDC */\n      swap1\n      swap2\n      and\n      swap4\n      pop\n        /* \"contracts/TradingAccount.sol\":11936:11967  ICERC20(cUSDC).redeemUnderlying */\n      0x852a12e3\n      swap3\n      pop\n        /* \"#utility.yul\":1014:1032   */\n      0x24\n      add\n      swap1\n      pop\n        /* \"contracts/TradingAccount.sol\":11936:11977  ICERC20(cUSDC).redeemUnderlying(amountIn) */\n      0x20\n      mload(0x40)\n      dup1\n      dup4\n      sub\n      dup2\n      0x00\n      dup8\n      gas\n      call\n      iszero\n      dup1\n      iszero\n      tag_264\n      jumpi\n      returndatacopy(0x00, 0x00, returndatasize)\n      revert(0x00, returndatasize)\n    tag_264:\n      pop\n      pop\n      pop\n      pop\n      mload(0x40)\n      returndatasize\n      not(0x1f)\n      0x1f\n      dup3\n      add\n      and\n      dup3\n      add\n      dup1\n      0x40\n      mstore\n      pop\n      dup2\n      add\n      swap1\n      tag_265\n      swap2\n      swap1\n      tag_211\n      jump\t// in\n    tag_265:\n        /* \"contracts/TradingAccount.sol\":11936:11982  ICERC20(cUSDC).redeemUnderlying(amountIn) == 0 */\n      iszero\n        /* \"contracts/TradingAccount.sol\":11907:12036  require(... */\n      tag_266\n      jumpi\n      mload(0x40)\n      shl(0xe5, 0x461bcd)\n      dup2\n      mstore\n      0x04\n      add\n      tag_181\n      swap1\n      tag_253\n      jump\t// in\n    tag_266:\n        /* \"contracts/TradingAccount.sol\":12082:12086  usdc */\n      sload(0x02)\n        /* \"contracts/TradingAccount.sol\":12088:12101  uniswapV2Pair */\n      sload(0x03)\n        /* \"contracts/TradingAccount.sol\":12054:12112  TransferHelper.safeTransfer(usdc, uniswapV2Pair, amountIn) */\n      tag_268\n      swap2\n      sub(shl(0xa0, 0x01), 0x01)\n        /* \"contracts/TradingAccount.sol\":12082:12086  usdc */\n      swap1\n      dup2\n      and\n      swap2\n        /* \"contracts/TradingAccount.sol\":12088:12101  uniswapV2Pair */\n      and\n        /* \"contracts/TradingAccount.sol\":12103:12111  amountIn */\n      dup4\n        /* \"contracts/TradingAccount.sol\":12054:12081  TransferHelper.safeTransfer */\n      tag_216\n        /* \"contracts/TradingAccount.sol\":12054:12112  TransferHelper.safeTransfer(usdc, uniswapV2Pair, amountIn) */\n      jump\t// in\n    tag_268:\n        /* \"contracts/TradingAccount.sol\":9634:12143  {... */\n      pop\n      pop\n      pop\n      pop\n      pop\n      pop\n      pop\n      pop\n      pop\n        /* \"contracts/TradingAccount.sol\":9493:12143  function uniswapV2Call(... */\n      pop\n      pop\n      pop\n      pop\n      pop\n      jump\t// out\n        /* \"contracts/TradingAccount.sol\":7801:8146  function limitOpenShort(... */\n    tag_59:\n        /* \"contracts/TradingAccount.sol\":7963:7978  uint256 orderId */\n      0x00\n        /* \"contracts/base/Ownable.sol\":356:369  _checkOwner() */\n      tag_270\n        /* \"contracts/base/Ownable.sol\":356:367  _checkOwner */\n      tag_173\n        /* \"contracts/base/Ownable.sol\":356:369  _checkOwner() */\n      jump\t// in\n    tag_270:\n        /* \"contracts/TradingAccount.sol\":8000:8061  _newLimitOrder(false, usdcSize, limitPrice, expireAt, keeper) */\n      tag_272\n        /* \"contracts/TradingAccount.sol\":8015:8020  false */\n      0x00\n        /* \"contracts/TradingAccount.sol\":8022:8030  usdcSize */\n      dup7\n        /* \"contracts/TradingAccount.sol\":8032:8042  limitPrice */\n      dup7\n        /* \"contracts/TradingAccount.sol\":8044:8052  expireAt */\n      dup7\n        /* \"contracts/TradingAccount.sol\":8054:8060  keeper */\n      dup7\n        /* \"contracts/TradingAccount.sol\":8000:8014  _newLimitOrder */\n      tag_176\n        /* \"contracts/TradingAccount.sol\":8000:8061  _newLimitOrder(false, usdcSize, limitPrice, expireAt, keeper) */\n      jump\t// in\n    tag_272:\n        /* \"contracts/TradingAccount.sol\":8076:8139  LimitOpenShort(orderId, usdcSize, limitPrice, expireAt, keeper) */\n      0x40\n      dup1\n      mload\n        /* \"#utility.yul\":5708:5733   */\n      dup3\n      dup2\n      mstore\n        /* \"#utility.yul\":5764:5766   */\n      0x20\n        /* \"#utility.yul\":5749:5767   */\n      dup2\n      add\n        /* \"#utility.yul\":5742:5776   */\n      dup9\n      swap1\n      mstore\n        /* \"#utility.yul\":5792:5810   */\n      swap1\n      dup2\n      add\n        /* \"#utility.yul\":5785:5819   */\n      dup7\n      swap1\n      mstore\n        /* \"#utility.yul\":5850:5852   */\n      0x60\n        /* \"#utility.yul\":5835:5853   */\n      dup2\n      add\n        /* \"#utility.yul\":5828:5862   */\n      dup6\n      swap1\n      mstore\n        /* \"contracts/TradingAccount.sol\":7990:8061  orderId = _newLimitOrder(false, usdcSize, limitPrice, expireAt, keeper) */\n      swap1\n      swap2\n      pop\n      sub(shl(0xa0, 0x01), 0x01)\n        /* \"contracts/TradingAccount.sol\":8076:8139  LimitOpenShort(orderId, usdcSize, limitPrice, expireAt, keeper) */\n      dup4\n      and\n      swap1\n      0xa88905c54863632716f8c0132503b7e5d225a2537cd992c34fef80a5f6c2d800\n      swap1\n        /* \"#utility.yul\":5695:5698   */\n      0x80\n        /* \"#utility.yul\":5680:5699   */\n      add\n        /* \"contracts/TradingAccount.sol\":8076:8139  LimitOpenShort(orderId, usdcSize, limitPrice, expireAt, keeper) */\n      tag_177\n        /* \"#utility.yul\":5477:5868   */\n      jump\n        /* \"contracts/TradingAccount.sol\":5138:6290  function closeLong(uint256 usdcAmount, bool closeAll) ... */\n    tag_93:\n        /* \"contracts/TradingAccount.sol\":5248:5267  uint256 repayAmount */\n      0x00\n        /* \"contracts/base/Ownable.sol\":356:369  _checkOwner() */\n      tag_275\n        /* \"contracts/base/Ownable.sol\":356:367  _checkOwner */\n      tag_173\n        /* \"contracts/base/Ownable.sol\":356:369  _checkOwner() */\n      jump\t// in\n    tag_275:\n        /* \"contracts/TradingAccount.sol\":5315:5320  cUSDC */\n      sload(0x05)\n        /* \"contracts/TradingAccount.sol\":5307:5378  ICERC20(cUSDC).borrowBalanceStored(... */\n      mload(0x40)\n      shl(0xe0, 0x95dd9193)\n      dup2\n      mstore\n        /* \"contracts/TradingAccount.sol\":5363:5367  this */\n      address\n        /* \"contracts/TradingAccount.sol\":5307:5378  ICERC20(cUSDC).borrowBalanceStored(... */\n      0x04\n      dup3\n      add\n        /* \"#utility.yul\":2190:2241   */\n      mstore\n        /* \"contracts/TradingAccount.sol\":5283:5304  uint256 borrowBalance */\n      0x00\n      swap2\n      sub(shl(0xa0, 0x01), 0x01)\n        /* \"contracts/TradingAccount.sol\":5315:5320  cUSDC */\n      and\n      swap1\n        /* \"contracts/TradingAccount.sol\":5307:5341  ICERC20(cUSDC).borrowBalanceStored */\n      0x95dd9193\n      swap1\n        /* \"#utility.yul\":2163:2181   */\n      0x24\n      add\n        /* \"contracts/TradingAccount.sol\":5307:5378  ICERC20(cUSDC).borrowBalanceStored(... */\n      0x20\n      mload(0x40)\n      dup1\n      dup4\n      sub\n      dup2\n      dup7\n      gas\n      staticcall\n      iszero\n      dup1\n      iszero\n      tag_279\n      jumpi\n      returndatacopy(0x00, 0x00, returndatasize)\n      revert(0x00, returndatasize)\n    tag_279:\n      pop\n      pop\n      pop\n      pop\n      mload(0x40)\n      returndatasize\n      not(0x1f)\n      0x1f\n      dup3\n      add\n      and\n      dup3\n      add\n      dup1\n      0x40\n      mstore\n      pop\n      dup2\n      add\n      swap1\n      tag_280\n      swap2\n      swap1\n      tag_211\n      jump\t// in\n    tag_280:\n        /* \"contracts/TradingAccount.sol\":5283:5378  uint256 borrowBalance = ICERC20(cUSDC).borrowBalanceStored(... */\n      swap1\n      pop\n        /* \"contracts/TradingAccount.sol\":5402:5410  closeAll */\n      dup3\n        /* \"contracts/TradingAccount.sol\":5402:5439  closeAll ? borrowBalance : usdcAmount */\n      tag_281\n      jumpi\n        /* \"contracts/TradingAccount.sol\":5429:5439  usdcAmount */\n      dup4\n        /* \"contracts/TradingAccount.sol\":5402:5439  closeAll ? borrowBalance : usdcAmount */\n      jump(tag_282)\n    tag_281:\n        /* \"contracts/TradingAccount.sol\":5413:5426  borrowBalance */\n      dup1\n        /* \"contracts/TradingAccount.sol\":5402:5439  closeAll ? borrowBalance : usdcAmount */\n    tag_282:\n        /* \"contracts/TradingAccount.sol\":5388:5439  repayAmount = closeAll ? borrowBalance : usdcAmount */\n      swap2\n      pop\n        /* \"contracts/TradingAccount.sol\":5450:5464  address token0 */\n      0x00\n        /* \"contracts/TradingAccount.sol\":5482:5495  uniswapV2Pair */\n      0x03\n      0x00\n      swap1\n      sload\n      swap1\n      0x0100\n      exp\n      swap1\n      div\n      sub(shl(0xa0, 0x01), 0x01)\n      and\n      sub(shl(0xa0, 0x01), 0x01)\n        /* \"contracts/TradingAccount.sol\":5467:5503  IUniswapV2Pair(uniswapV2Pair).token0 */\n      and\n      0x0dfe1681\n        /* \"contracts/TradingAccount.sol\":5467:5505  IUniswapV2Pair(uniswapV2Pair).token0() */\n      mload(0x40)\n      dup2\n      0xffffffff\n      and\n      0xe0\n      shl\n      dup2\n      mstore\n      0x04\n      add\n      0x20\n      mload(0x40)\n      dup1\n      dup4\n      sub\n      dup2\n      dup7\n      gas\n      staticcall\n      iszero\n      dup1\n      iszero\n      tag_284\n      jumpi\n      returndatacopy(0x00, 0x00, returndatasize)\n      revert(0x00, returndatasize)\n    tag_284:\n      pop\n      pop\n      pop\n      pop\n      mload(0x40)\n      returndatasize\n      not(0x1f)\n      0x1f\n      dup3\n      add\n      and\n      dup3\n      add\n      dup1\n      0x40\n      mstore\n      pop\n      dup2\n      add\n      swap1\n      tag_285\n      swap2\n      swap1\n      tag_186\n      jump\t// in\n    tag_285:\n        /* \"contracts/TradingAccount.sol\":5585:5589  usdc */\n      sload(0x02)\n        /* \"contracts/TradingAccount.sol\":5450:5505  address token0 = IUniswapV2Pair(uniswapV2Pair).token0() */\n      swap1\n      swap2\n      pop\n        /* \"contracts/TradingAccount.sol\":5515:5533  uint256 amount0Out */\n      0x00\n      swap1\n      dup2\n      swap1\n      sub(shl(0xa0, 0x01), 0x01)\n        /* \"contracts/TradingAccount.sol\":5585:5589  usdc */\n      swap1\n      dup2\n      and\n        /* \"contracts/TradingAccount.sol\":5575:5589  token0 == usdc */\n      swap1\n      dup5\n      and\n      sub\n        /* \"contracts/TradingAccount.sol\":5571:5695  if (token0 == usdc) {... */\n      tag_286\n      jumpi\n        /* \"contracts/TradingAccount.sol\":5618:5629  repayAmount */\n      dup5\n        /* \"contracts/TradingAccount.sol\":5605:5629  amount0Out = repayAmount */\n      swap2\n      pop\n        /* \"contracts/TradingAccount.sol\":5571:5695  if (token0 == usdc) {... */\n      jump(tag_287)\n    tag_286:\n      pop\n        /* \"contracts/TradingAccount.sol\":5673:5684  repayAmount */\n      dup4\n        /* \"contracts/TradingAccount.sol\":5571:5695  if (token0 == usdc) {... */\n    tag_287:\n        /* \"contracts/TradingAccount.sol\":5717:5768  TempParams(false, true, 0, 0, 0, 0, 0, repayAmount) */\n      0x40\n      dup1\n      mload\n      0x0100\n      dup1\n      dup3\n      add\n      dup4\n      mstore\n      0x00\n      dup1\n      dup4\n      mstore\n      0x01\n      0x20\n      dup5\n      add\n      mstore\n      dup3\n      dup5\n      add\n      dup2\n      swap1\n      mstore\n      0x60\n      dup4\n      add\n      dup2\n      swap1\n      mstore\n      0x80\n      dup4\n      add\n      dup2\n      swap1\n      mstore\n      0xa0\n      dup4\n      add\n      dup2\n      swap1\n      mstore\n      0xc0\n      dup4\n      add\n      dup2\n      swap1\n      mstore\n      0xe0\n      swap1\n      swap3\n      add\n      dup9\n      swap1\n      mstore\n        /* \"contracts/TradingAccount.sol\":5704:5714  tempParams */\n      0x0a\n        /* \"contracts/TradingAccount.sol\":5704:5768  tempParams = TempParams(false, true, 0, 0, 0, 0, 0, repayAmount) */\n      dup1\n      sload\n      not(0xffff)\n      and\n      swap1\n      swap2\n      or\n      swap1\n      sstore\n      0x0b\n      dup2\n      swap1\n      sstore\n      0x0c\n      dup2\n      swap1\n      sstore\n      0x0d\n      dup2\n      swap1\n      sstore\n      0x0e\n      dup2\n      swap1\n      sstore\n      0x0f\n      sstore\n      0x10\n      dup7\n      swap1\n      sstore\n      0x03\n        /* \"contracts/TradingAccount.sol\":5793:5806  uniswapV2Pair */\n      sload\n        /* \"contracts/TradingAccount.sol\":5778:5919  IUniswapV2Pair(uniswapV2Pair).swap(... */\n      swap1\n      mload\n      shl(0xe0, 0x022c0d9f)\n      dup2\n      mstore\n      sub(shl(0xa0, 0x01), 0x01)\n        /* \"contracts/TradingAccount.sol\":5793:5806  uniswapV2Pair */\n      swap1\n      swap2\n      and\n      swap1\n        /* \"contracts/TradingAccount.sol\":5778:5812  IUniswapV2Pair(uniswapV2Pair).swap */\n      0x022c0d9f\n      swap1\n        /* \"contracts/TradingAccount.sol\":5778:5919  IUniswapV2Pair(uniswapV2Pair).swap(... */\n      tag_288\n      swap1\n        /* \"contracts/TradingAccount.sol\":5826:5836  amount0Out */\n      dup6\n      swap1\n        /* \"contracts/TradingAccount.sol\":5850:5860  amount1Out */\n      dup6\n      swap1\n        /* \"contracts/TradingAccount.sol\":5882:5886  this */\n      address\n      swap1\n        /* \"contracts/TradingAccount.sol\":5704:5768  tempParams = TempParams(false, true, 0, 0, 0, 0, 0, repayAmount) */\n      0x04\n        /* \"contracts/TradingAccount.sol\":5778:5919  IUniswapV2Pair(uniswapV2Pair).swap(... */\n      add\n      tag_289\n      jump\t// in\n    tag_288:\n      0x00\n      mload(0x40)\n      dup1\n      dup4\n      sub\n      dup2\n      0x00\n      dup8\n      dup1\n      extcodesize\n      iszero\n      dup1\n      iszero\n      tag_290\n      jumpi\n      revert(0x00, 0x00)\n    tag_290:\n      pop\n      gas\n      call\n      iszero\n      dup1\n      iszero\n      tag_292\n      jumpi\n      returndatacopy(0x00, 0x00, returndatasize)\n      revert(0x00, returndatasize)\n    tag_292:\n      pop\n      pop\n        /* \"contracts/TradingAccount.sol\":5963:5967  cETH */\n      0x04\n      dup1\n      sload\n        /* \"contracts/TradingAccount.sol\":5956:5993  IERC20(cETH).balanceOf(address(this)) */\n      mload(0x40)\n      shl(0xe0, 0x70a08231)\n      dup2\n      mstore\n        /* \"contracts/TradingAccount.sol\":5987:5991  this */\n      address\n        /* \"contracts/TradingAccount.sol\":5956:5993  IERC20(cETH).balanceOf(address(this)) */\n      swap3\n      dup2\n      add\n        /* \"#utility.yul\":2190:2241   */\n      swap3\n      swap1\n      swap3\n      mstore\n        /* \"contracts/TradingAccount.sol\":5929:5953  uint256 cTokenBalanceNew */\n      0x00\n      swap4\n      pop\n      sub(shl(0xa0, 0x01), 0x01)\n        /* \"contracts/TradingAccount.sol\":5963:5967  cETH */\n      and\n      swap2\n      pop\n        /* \"contracts/TradingAccount.sol\":5956:5978  IERC20(cETH).balanceOf */\n      0x70a08231\n      swap1\n        /* \"#utility.yul\":2163:2181   */\n      0x24\n      add\n        /* \"contracts/TradingAccount.sol\":5956:5993  IERC20(cETH).balanceOf(address(this)) */\n      0x20\n      mload(0x40)\n      dup1\n      dup4\n      sub\n      dup2\n      dup7\n      gas\n      staticcall\n      iszero\n      dup1\n      iszero\n      tag_295\n      jumpi\n      returndatacopy(0x00, 0x00, returndatasize)\n      revert(0x00, returndatasize)\n    tag_295:\n      pop\n      pop\n      pop\n      pop\n      mload(0x40)\n      returndatasize\n      not(0x1f)\n      0x1f\n      dup3\n      add\n      and\n      dup3\n      add\n      dup1\n      0x40\n      mstore\n      pop\n      dup2\n      add\n      swap1\n      tag_296\n      swap2\n      swap1\n      tag_211\n      jump\t// in\n    tag_296:\n        /* \"contracts/TradingAccount.sol\":5929:5993  uint256 cTokenBalanceNew = IERC20(cETH).balanceOf(address(this)) */\n      swap1\n      pop\n        /* \"contracts/TradingAccount.sol\":6003:6024  uint256 redeemdCToken */\n      0x00\n        /* \"contracts/TradingAccount.sol\":6045:6061  cTokenBalanceNew */\n      dup2\n        /* \"contracts/TradingAccount.sol\":6027:6042  lastCEthBalance */\n      sload(0x11)\n        /* \"contracts/TradingAccount.sol\":6027:6061  lastCEthBalance - cTokenBalanceNew */\n      tag_297\n      swap2\n      swap1\n      tag_298\n      jump\t// in\n    tag_297:\n        /* \"contracts/TradingAccount.sol\":6071:6086  lastCEthBalance */\n      0x11\n        /* \"contracts/TradingAccount.sol\":6071:6105  lastCEthBalance = cTokenBalanceNew */\n      dup4\n      swap1\n      sstore\n        /* \"contracts/TradingAccount.sol\":6170:6199  tempParams.underlyingRedeemed */\n      sload(0x0f)\n        /* \"contracts/TradingAccount.sol\":6120:6256  CloseLong(... */\n      0x40\n      dup1\n      mload\n        /* \"#utility.yul\":9786:9811   */\n      dup4\n      dup2\n      mstore\n        /* \"#utility.yul\":9842:9844   */\n      0x20\n        /* \"#utility.yul\":9827:9845   */\n      dup2\n      add\n        /* \"#utility.yul\":9820:9854   */\n      swap3\n      swap1\n      swap3\n      mstore\n        /* \"#utility.yul\":9870:9888   */\n      dup2\n      add\n        /* \"#utility.yul\":9863:9897   */\n      dup10\n      swap1\n      mstore\n        /* \"#utility.yul\":9940:9954   */\n      dup10\n      iszero\n        /* \"#utility.yul\":9933:9955   */\n      iszero\n        /* \"#utility.yul\":9928:9930   */\n      0x60\n        /* \"#utility.yul\":9913:9931   */\n      dup3\n      add\n        /* \"#utility.yul\":9906:9956   */\n      mstore\n        /* \"contracts/TradingAccount.sol\":6003:6061  uint256 redeemdCToken = lastCEthBalance - cTokenBalanceNew */\n      swap1\n      swap2\n      pop\n        /* \"contracts/TradingAccount.sol\":6120:6256  CloseLong(... */\n      0x37b43c784f8d7bce65eda84311e0e462cf6fd3db2f40193ef86e97b610f0c06f\n      swap1\n        /* \"#utility.yul\":9773:9776   */\n      0x80\n        /* \"#utility.yul\":9758:9777   */\n      add\n        /* \"contracts/TradingAccount.sol\":6120:6256  CloseLong(... */\n    tag_299:\n      mload(0x40)\n      dup1\n      swap2\n      sub\n      swap1\n      log1\n      pop\n      pop\n        /* \"contracts/TradingAccount.sol\":6273:6283  tempParams */\n      0x0a\n        /* \"contracts/TradingAccount.sol\":6266:6283  delete tempParams */\n      dup1\n      sload\n      not(0xffff)\n      and\n      swap1\n      sstore\n      pop\n      pop\n        /* \"contracts/TradingAccount.sol\":6273:6283  tempParams */\n      0x00\n        /* \"contracts/TradingAccount.sol\":6266:6283  delete tempParams */\n      0x0b\n      dup2\n      swap1\n      sstore\n      0x0c\n      dup2\n      swap1\n      sstore\n      0x0d\n      dup2\n      swap1\n      sstore\n      0x0e\n      dup2\n      swap1\n      sstore\n      0x0f\n      dup2\n      swap1\n      sstore\n      0x10\n      sstore\n      pop\n        /* \"contracts/TradingAccount.sol\":5138:6290  function closeLong(uint256 usdcAmount, bool closeAll) ... */\n      swap1\n      swap4\n      swap3\n      pop\n      pop\n      pop\n      jump\t// out\n        /* \"contracts/base/Ownable.sol\":620:721  function renounceOwnership() public virtual onlyOwner {... */\n    tag_97:\n        /* \"contracts/base/Ownable.sol\":356:369  _checkOwner() */\n      tag_302\n        /* \"contracts/base/Ownable.sol\":356:367  _checkOwner */\n      tag_173\n        /* \"contracts/base/Ownable.sol\":356:369  _checkOwner() */\n      jump\t// in\n    tag_302:\n        /* \"contracts/base/Ownable.sol\":684:714  _transferOwnership(address(0)) */\n      tag_304\n        /* \"contracts/base/Ownable.sol\":711:712  0 */\n      0x00\n        /* \"contracts/base/Ownable.sol\":684:702  _transferOwnership */\n      tag_305\n        /* \"contracts/base/Ownable.sol\":684:714  _transferOwnership(address(0)) */\n      jump\t// in\n    tag_304:\n        /* \"contracts/base/Ownable.sol\":620:721  function renounceOwnership() public virtual onlyOwner {... */\n      jump\t// out\n        /* \"contracts/TradingAccount.sol\":4030:4938  function withdrawUSDC(uint256 cUsdcAmount, uint256 usdcAmount) ... */\n    tag_110:\n        /* \"contracts/base/Ownable.sol\":356:369  _checkOwner() */\n      tag_307\n        /* \"contracts/base/Ownable.sol\":356:367  _checkOwner */\n      tag_173\n        /* \"contracts/base/Ownable.sol\":356:369  _checkOwner() */\n      jump\t// in\n    tag_307:\n        /* \"contracts/TradingAccount.sol\":4179:4180  0 */\n      0x00\n        /* \"contracts/TradingAccount.sol\":4165:4176  cUsdcAmount */\n      dup3\n        /* \"contracts/TradingAccount.sol\":4165:4180  cUsdcAmount > 0 */\n      gt\n        /* \"contracts/TradingAccount.sol\":4165:4199  cUsdcAmount > 0 && usdcAmount == 0 */\n      dup1\n      iszero\n      tag_309\n      jumpi\n      pop\n        /* \"contracts/TradingAccount.sol\":4184:4199  usdcAmount == 0 */\n      dup1\n      iszero\n        /* \"contracts/TradingAccount.sol\":4165:4199  cUsdcAmount > 0 && usdcAmount == 0 */\n    tag_309:\n        /* \"contracts/TradingAccount.sol\":4164:4240  (cUsdcAmount > 0 && usdcAmount == 0) || (cUsdcAmount == 0 && usdcAmount > 0) */\n      dup1\n      tag_311\n      jumpi\n      pop\n        /* \"contracts/TradingAccount.sol\":4205:4221  cUsdcAmount == 0 */\n      dup2\n      iszero\n        /* \"contracts/TradingAccount.sol\":4205:4239  cUsdcAmount == 0 && usdcAmount > 0 */\n      dup1\n      iszero\n      tag_311\n      jumpi\n      pop\n        /* \"contracts/TradingAccount.sol\":4238:4239  0 */\n      0x00\n        /* \"contracts/TradingAccount.sol\":4225:4235  usdcAmount */\n      dup2\n        /* \"contracts/TradingAccount.sol\":4225:4239  usdcAmount > 0 */\n      gt\n        /* \"contracts/TradingAccount.sol\":4205:4239  cUsdcAmount == 0 && usdcAmount > 0 */\n    tag_311:\n        /* \"contracts/TradingAccount.sol\":4143:4300  require(... */\n      tag_312\n      jumpi\n      mload(0x40)\n      shl(0xe5, 0x461bcd)\n      dup2\n      mstore\n      0x04\n      add\n      tag_181\n      swap1\n      tag_314\n      jump\t// in\n    tag_312:\n        /* \"contracts/TradingAccount.sol\":4314:4329  cUsdcAmount > 0 */\n      dup2\n      iszero\n        /* \"contracts/TradingAccount.sol\":4310:4570  if (cUsdcAmount > 0) {... */\n      tag_315\n      jumpi\n        /* \"contracts/TradingAccount.sol\":4361:4366  cUSDC */\n      sload(0x05)\n        /* \"contracts/TradingAccount.sol\":4353:4387  ICERC20(cUSDC).redeem(cUsdcAmount) */\n      mload(0x40)\n      shl(0xe0, 0xdb006a75)\n      dup2\n      mstore\n      0x04\n      dup2\n      add\n        /* \"#utility.yul\":1041:1066   */\n      dup5\n      swap1\n      mstore\n      sub(shl(0xa0, 0x01), 0x01)\n        /* \"contracts/TradingAccount.sol\":4361:4366  cUSDC */\n      swap1\n      swap2\n      and\n      swap1\n        /* \"contracts/TradingAccount.sol\":4353:4374  ICERC20(cUSDC).redeem */\n      0xdb006a75\n      swap1\n        /* \"#utility.yul\":1014:1032   */\n      0x24\n      add\n        /* \"contracts/TradingAccount.sol\":4353:4387  ICERC20(cUSDC).redeem(cUsdcAmount) */\n      0x20\n      mload(0x40)\n      dup1\n      dup4\n      sub\n      dup2\n      0x00\n      dup8\n      gas\n      call\n      iszero\n      dup1\n      iszero\n      tag_318\n      jumpi\n      returndatacopy(0x00, 0x00, returndatasize)\n      revert(0x00, returndatasize)\n    tag_318:\n      pop\n      pop\n      pop\n      pop\n      mload(0x40)\n      returndatasize\n      not(0x1f)\n      0x1f\n      dup3\n      add\n      and\n      dup3\n      add\n      dup1\n      0x40\n      mstore\n      pop\n      dup2\n      add\n      swap1\n      tag_319\n      swap2\n      swap1\n      tag_211\n      jump\t// in\n    tag_319:\n        /* \"contracts/TradingAccount.sol\":4353:4392  ICERC20(cUSDC).redeem(cUsdcAmount) == 0 */\n      iszero\n        /* \"contracts/TradingAccount.sol\":4345:4409  require(ICERC20(cUSDC).redeem(cUsdcAmount) == 0, \"redeem error\") */\n      tag_320\n      jumpi\n      mload(0x40)\n      shl(0xe5, 0x461bcd)\n      dup2\n      mstore\n      0x04\n      add\n      tag_181\n      swap1\n      tag_253\n      jump\t// in\n    tag_320:\n        /* \"contracts/TradingAccount.sol\":4310:4570  if (cUsdcAmount > 0) {... */\n      jump(tag_327)\n    tag_315:\n        /* \"contracts/TradingAccount.sol\":4473:4478  cUSDC */\n      sload(0x05)\n        /* \"contracts/TradingAccount.sol\":4465:4508  ICERC20(cUSDC).redeemUnderlying(usdcAmount) */\n      mload(0x40)\n      shl(0xe0, 0x852a12e3)\n      dup2\n      mstore\n      0x04\n      dup2\n      add\n        /* \"#utility.yul\":1041:1066   */\n      dup4\n      swap1\n      mstore\n      sub(shl(0xa0, 0x01), 0x01)\n        /* \"contracts/TradingAccount.sol\":4473:4478  cUSDC */\n      swap1\n      swap2\n      and\n      swap1\n        /* \"contracts/TradingAccount.sol\":4465:4496  ICERC20(cUSDC).redeemUnderlying */\n      0x852a12e3\n      swap1\n        /* \"#utility.yul\":1014:1032   */\n      0x24\n      add\n        /* \"contracts/TradingAccount.sol\":4465:4508  ICERC20(cUSDC).redeemUnderlying(usdcAmount) */\n      0x20\n      mload(0x40)\n      dup1\n      dup4\n      sub\n      dup2\n      0x00\n      dup8\n      gas\n      call\n      iszero\n      dup1\n      iszero\n      tag_325\n      jumpi\n      returndatacopy(0x00, 0x00, returndatasize)\n      revert(0x00, returndatasize)\n    tag_325:\n      pop\n      pop\n      pop\n      pop\n      mload(0x40)\n      returndatasize\n      not(0x1f)\n      0x1f\n      dup3\n      add\n      and\n      dup3\n      add\n      dup1\n      0x40\n      mstore\n      pop\n      dup2\n      add\n      swap1\n      tag_326\n      swap2\n      swap1\n      tag_211\n      jump\t// in\n    tag_326:\n        /* \"contracts/TradingAccount.sol\":4465:4513  ICERC20(cUSDC).redeemUnderlying(usdcAmount) == 0 */\n      iszero\n        /* \"contracts/TradingAccount.sol\":4440:4559  require(... */\n      tag_327\n      jumpi\n      mload(0x40)\n      shl(0xe5, 0x461bcd)\n      dup2\n      mstore\n      0x04\n      add\n      tag_181\n      swap1\n      tag_253\n      jump\t// in\n    tag_327:\n        /* \"contracts/TradingAccount.sol\":4613:4618  cUSDC */\n      sload(0x05)\n        /* \"contracts/TradingAccount.sol\":4606:4644  IERC20(cUSDC).balanceOf(address(this)) */\n      mload(0x40)\n      shl(0xe0, 0x70a08231)\n      dup2\n      mstore\n        /* \"contracts/TradingAccount.sol\":4638:4642  this */\n      address\n        /* \"contracts/TradingAccount.sol\":4606:4644  IERC20(cUSDC).balanceOf(address(this)) */\n      0x04\n      dup3\n      add\n        /* \"#utility.yul\":2190:2241   */\n      mstore\n        /* \"contracts/TradingAccount.sol\":4579:4603  uint256 cTokenBalanceNew */\n      0x00\n      swap2\n      sub(shl(0xa0, 0x01), 0x01)\n        /* \"contracts/TradingAccount.sol\":4613:4618  cUSDC */\n      and\n      swap1\n        /* \"contracts/TradingAccount.sol\":4606:4629  IERC20(cUSDC).balanceOf */\n      0x70a08231\n      swap1\n        /* \"#utility.yul\":2163:2181   */\n      0x24\n      add\n        /* \"contracts/TradingAccount.sol\":4606:4644  IERC20(cUSDC).balanceOf(address(this)) */\n      0x20\n      mload(0x40)\n      dup1\n      dup4\n      sub\n      dup2\n      dup7\n      gas\n      staticcall\n      iszero\n      dup1\n      iszero\n      tag_331\n      jumpi\n      returndatacopy(0x00, 0x00, returndatasize)\n      revert(0x00, returndatasize)\n    tag_331:\n      pop\n      pop\n      pop\n      pop\n      mload(0x40)\n      returndatasize\n      not(0x1f)\n      0x1f\n      dup3\n      add\n      and\n      dup3\n      add\n      dup1\n      0x40\n      mstore\n      pop\n      dup2\n      add\n      swap1\n      tag_332\n      swap2\n      swap1\n      tag_211\n      jump\t// in\n    tag_332:\n        /* \"contracts/TradingAccount.sol\":4579:4644  uint256 cTokenBalanceNew = IERC20(cUSDC).balanceOf(address(this)) */\n      swap1\n      pop\n        /* \"contracts/TradingAccount.sol\":4687:4703  cTokenBalanceNew */\n      dup1\n        /* \"contracts/TradingAccount.sol\":4668:4684  lastCUsdcBalance */\n      sload(0x12)\n        /* \"contracts/TradingAccount.sol\":4668:4703  lastCUsdcBalance - cTokenBalanceNew */\n      tag_333\n      swap2\n      swap1\n      tag_298\n      jump\t// in\n    tag_333:\n        /* \"contracts/TradingAccount.sol\":4713:4729  lastCUsdcBalance */\n      0x12\n        /* \"contracts/TradingAccount.sol\":4713:4748  lastCUsdcBalance = cTokenBalanceNew */\n      dup3\n      swap1\n      sstore\n        /* \"contracts/TradingAccount.sol\":4778:4782  usdc */\n      sload(0x02)\n        /* \"contracts/TradingAccount.sol\":4771:4808  IERC20(usdc).balanceOf(address(this)) */\n      mload(0x40)\n      shl(0xe0, 0x70a08231)\n      dup2\n      mstore\n        /* \"contracts/TradingAccount.sol\":4802:4806  this */\n      address\n        /* \"contracts/TradingAccount.sol\":4771:4808  IERC20(usdc).balanceOf(address(this)) */\n      0x04\n      dup3\n      add\n        /* \"#utility.yul\":2190:2241   */\n      mstore\n        /* \"contracts/TradingAccount.sol\":4654:4703  cUsdcAmount = lastCUsdcBalance - cTokenBalanceNew */\n      swap2\n      swap5\n      pop\n      sub(shl(0xa0, 0x01), 0x01)\n        /* \"contracts/TradingAccount.sol\":4778:4782  usdc */\n      and\n      swap1\n        /* \"contracts/TradingAccount.sol\":4771:4793  IERC20(usdc).balanceOf */\n      0x70a08231\n      swap1\n        /* \"#utility.yul\":2163:2181   */\n      0x24\n      add\n        /* \"contracts/TradingAccount.sol\":4771:4808  IERC20(usdc).balanceOf(address(this)) */\n      0x20\n      mload(0x40)\n      dup1\n      dup4\n      sub\n      dup2\n      dup7\n      gas\n      staticcall\n      iszero\n      dup1\n      iszero\n      tag_336\n      jumpi\n      returndatacopy(0x00, 0x00, returndatasize)\n      revert(0x00, returndatasize)\n    tag_336:\n      pop\n      pop\n      pop\n      pop\n      mload(0x40)\n      returndatasize\n      not(0x1f)\n      0x1f\n      dup3\n      add\n      and\n      dup3\n      add\n      dup1\n      0x40\n      mstore\n      pop\n      dup2\n      add\n      swap1\n      tag_337\n      swap2\n      swap1\n      tag_211\n      jump\t// in\n    tag_337:\n        /* \"contracts/TradingAccount.sol\":4847:4851  usdc */\n      sload(0x02)\n        /* \"contracts/TradingAccount.sol\":4758:4808  usdcAmount = IERC20(usdc).balanceOf(address(this)) */\n      swap1\n      swap3\n      pop\n        /* \"contracts/TradingAccount.sol\":4819:4876  TransferHelper.safeTransfer(usdc, msg.sender, usdcAmount) */\n      tag_338\n      swap1\n      sub(shl(0xa0, 0x01), 0x01)\n        /* \"contracts/TradingAccount.sol\":4847:4851  usdc */\n      and\n        /* \"contracts/TradingAccount.sol\":4853:4863  msg.sender */\n      caller\n        /* \"contracts/TradingAccount.sol\":4758:4808  usdcAmount = IERC20(usdc).balanceOf(address(this)) */\n      dup5\n        /* \"contracts/TradingAccount.sol\":4819:4846  TransferHelper.safeTransfer */\n      tag_216\n        /* \"contracts/TradingAccount.sol\":4819:4876  TransferHelper.safeTransfer(usdc, msg.sender, usdcAmount) */\n      jump\t// in\n    tag_338:\n        /* \"contracts/TradingAccount.sol\":4891:4931  Withdraw(false, cUsdcAmount, usdcAmount) */\n      0x40\n      dup1\n      mload\n        /* \"contracts/TradingAccount.sol\":4900:4905  false */\n      0x00\n        /* \"#utility.yul\":10566:10607   */\n      dup2\n      mstore\n        /* \"#utility.yul\":10638:10640   */\n      0x20\n        /* \"#utility.yul\":10623:10641   */\n      dup2\n      add\n        /* \"#utility.yul\":10616:10650   */\n      dup6\n      swap1\n      mstore\n        /* \"#utility.yul\":10666:10684   */\n      swap1\n      dup2\n      add\n        /* \"#utility.yul\":10659:10693   */\n      dup4\n      swap1\n      mstore\n        /* \"contracts/TradingAccount.sol\":4891:4931  Withdraw(false, cUsdcAmount, usdcAmount) */\n      0xfedb0622d5d5fa46cc706a5c2c169f2bf2eb31a59ff2f70cef3096376f58c2c0\n      swap1\n        /* \"#utility.yul\":10554:10556   */\n      0x60\n        /* \"#utility.yul\":10539:10557   */\n      add\n        /* \"contracts/TradingAccount.sol\":4891:4931  Withdraw(false, cUsdcAmount, usdcAmount) */\n    tag_339:\n      mload(0x40)\n      dup1\n      swap2\n      sub\n      swap1\n      log1\n        /* \"contracts/TradingAccount.sol\":4133:4938  {... */\n      pop\n        /* \"contracts/TradingAccount.sol\":4030:4938  function withdrawUSDC(uint256 cUsdcAmount, uint256 usdcAmount) ... */\n      pop\n      pop\n      jump\t// out\n        /* \"contracts/TradingAccount.sol\":1505:2173  function initialize(... */\n    tag_115:\n        /* \"@openzeppelin/contracts/proxy/utils/Initializable.sol\":8870:8891  INITIALIZABLE_STORAGE */\n      0xf0c57e16840df040f15088dc2f81fe391c3923bec73e23a9662efc9c229c6a00\n        /* \"@openzeppelin/contracts/proxy/utils/Initializable.sol\":4302:4317  $._initializing */\n      dup1\n      sload\n      shl(0x40, 0x01)\n      dup2\n      div\n      0xff\n      and\n        /* \"@openzeppelin/contracts/proxy/utils/Initializable.sol\":4301:4317  !$._initializing */\n      iszero\n      swap1\n        /* \"@openzeppelin/contracts/proxy/utils/Initializable.sol\":4348:4362  $._initialized */\n      0xffffffffffffffff\n      and\n        /* \"@openzeppelin/contracts/proxy/utils/Initializable.sol\":4158:4188  InitializableStorage storage $ */\n      0x00\n        /* \"@openzeppelin/contracts/proxy/utils/Initializable.sol\":4726:4742  initialized == 0 */\n      dup2\n      iszero\n        /* \"@openzeppelin/contracts/proxy/utils/Initializable.sol\":4726:4760  initialized == 0 && isTopLevelCall */\n      dup1\n      iszero\n      tag_344\n      jumpi\n      pop\n        /* \"@openzeppelin/contracts/proxy/utils/Initializable.sol\":4746:4760  isTopLevelCall */\n      dup3\n        /* \"@openzeppelin/contracts/proxy/utils/Initializable.sol\":4726:4760  initialized == 0 && isTopLevelCall */\n    tag_344:\n        /* \"@openzeppelin/contracts/proxy/utils/Initializable.sol\":4706:4760  bool initialSetup = initialized == 0 && isTopLevelCall */\n      swap1\n      pop\n        /* \"@openzeppelin/contracts/proxy/utils/Initializable.sol\":4770:4787  bool construction */\n      0x00\n        /* \"@openzeppelin/contracts/proxy/utils/Initializable.sol\":4790:4801  initialized */\n      dup3\n        /* \"@openzeppelin/contracts/proxy/utils/Initializable.sol\":4790:4806  initialized == 1 */\n      0xffffffffffffffff\n      and\n        /* \"@openzeppelin/contracts/proxy/utils/Initializable.sol\":4805:4806  1 */\n      0x01\n        /* \"@openzeppelin/contracts/proxy/utils/Initializable.sol\":4790:4806  initialized == 1 */\n      eq\n        /* \"@openzeppelin/contracts/proxy/utils/Initializable.sol\":4790:4840  initialized == 1 && address(this).code.length == 0 */\n      dup1\n      iszero\n      tag_345\n      jumpi\n      pop\n        /* \"@openzeppelin/contracts/proxy/utils/Initializable.sol\":4818:4822  this */\n      address\n        /* \"@openzeppelin/contracts/proxy/utils/Initializable.sol\":4810:4835  address(this).code.length */\n      extcodesize\n        /* \"@openzeppelin/contracts/proxy/utils/Initializable.sol\":4810:4840  address(this).code.length == 0 */\n      iszero\n        /* \"@openzeppelin/contracts/proxy/utils/Initializable.sol\":4790:4840  initialized == 1 && address(this).code.length == 0 */\n    tag_345:\n        /* \"@openzeppelin/contracts/proxy/utils/Initializable.sol\":4770:4840  bool construction = initialized == 1 && address(this).code.length == 0 */\n      swap1\n      pop\n        /* \"@openzeppelin/contracts/proxy/utils/Initializable.sol\":4856:4868  initialSetup */\n      dup2\n        /* \"@openzeppelin/contracts/proxy/utils/Initializable.sol\":4855:4868  !initialSetup */\n      iszero\n        /* \"@openzeppelin/contracts/proxy/utils/Initializable.sol\":4855:4885  !initialSetup && !construction */\n      dup1\n      iszero\n      tag_346\n      jumpi\n      pop\n        /* \"@openzeppelin/contracts/proxy/utils/Initializable.sol\":4873:4885  construction */\n      dup1\n        /* \"@openzeppelin/contracts/proxy/utils/Initializable.sol\":4872:4885  !construction */\n      iszero\n        /* \"@openzeppelin/contracts/proxy/utils/Initializable.sol\":4855:4885  !initialSetup && !construction */\n    tag_346:\n        /* \"@openzeppelin/contracts/proxy/utils/Initializable.sol\":4851:4942  if (!initialSetup && !construction) {... */\n      iszero\n      tag_347\n      jumpi\n        /* \"@openzeppelin/contracts/proxy/utils/Initializable.sol\":4908:4931  InvalidInitialization() */\n      mload(0x40)\n      shl(0xe0, 0xf92ee8a9)\n      dup2\n      mstore\n      0x04\n      add\n      mload(0x40)\n      dup1\n      swap2\n      sub\n      swap1\n      revert\n        /* \"@openzeppelin/contracts/proxy/utils/Initializable.sol\":4851:4942  if (!initialSetup && !construction) {... */\n    tag_347:\n        /* \"@openzeppelin/contracts/proxy/utils/Initializable.sol\":4951:4969  $._initialized = 1 */\n      dup5\n      sload\n      not(0xffffffffffffffff)\n      and\n        /* \"@openzeppelin/contracts/proxy/utils/Initializable.sol\":4968:4969  1 */\n      0x01\n        /* \"@openzeppelin/contracts/proxy/utils/Initializable.sol\":4951:4969  $._initialized = 1 */\n      or\n      dup6\n      sstore\n        /* \"@openzeppelin/contracts/proxy/utils/Initializable.sol\":4979:5046  if (isTopLevelCall) {... */\n      dup4\n      iszero\n      tag_348\n      jumpi\n        /* \"@openzeppelin/contracts/proxy/utils/Initializable.sol\":5013:5035  $._initializing = true */\n      dup5\n      sload\n      not(shl(0x40, 0xff))\n      and\n      shl(0x40, 0x01)\n      or\n      dup6\n      sstore\n        /* \"@openzeppelin/contracts/proxy/utils/Initializable.sol\":4979:5046  if (isTopLevelCall) {... */\n    tag_348:\n        /* \"contracts/TradingAccount.sol\":1778:1803  transferOwnership(owner_) */\n      tag_350\n        /* \"contracts/TradingAccount.sol\":1796:1802  owner_ */\n      dup14\n        /* \"contracts/TradingAccount.sol\":1778:1795  transferOwnership */\n      tag_165\n        /* \"contracts/TradingAccount.sol\":1778:1803  transferOwnership(owner_) */\n      jump\t// in\n    tag_350:\n        /* \"contracts/TradingAccount.sol\":1813:1817  weth */\n      0x01\n        /* \"contracts/TradingAccount.sol\":1813:1825  weth = weth_ */\n      dup1\n      sload\n      not(sub(shl(0xa0, 0x01), 0x01))\n      swap1\n      dup2\n      and\n      sub(shl(0xa0, 0x01), 0x01)\n      dup16\n      dup2\n      and\n      swap2\n      swap1\n      swap2\n      or\n      swap1\n      swap3\n      sstore\n        /* \"contracts/TradingAccount.sol\":1835:1839  usdc */\n      0x02\n        /* \"contracts/TradingAccount.sol\":1835:1847  usdc = usdc_ */\n      dup1\n      sload\n      dup3\n      and\n      dup15\n      dup5\n      and\n      or\n      dup2\n      sstore\n        /* \"contracts/TradingAccount.sol\":1857:1870  uniswapV2Pair */\n      0x03\n        /* \"contracts/TradingAccount.sol\":1857:1887  uniswapV2Pair = uniswapV2Pair_ */\n      dup1\n      sload\n      dup4\n      and\n      dup15\n      dup6\n      and\n      or\n      swap1\n      sstore\n        /* \"contracts/TradingAccount.sol\":1897:1901  cETH */\n      0x04\n        /* \"contracts/TradingAccount.sol\":1897:1909  cETH = cETH_ */\n      dup1\n      sload\n      dup4\n      and\n      dup14\n      dup6\n      and\n      or\n      swap1\n      sstore\n        /* \"contracts/TradingAccount.sol\":1919:1924  cUSDC */\n      0x05\n        /* \"contracts/TradingAccount.sol\":1919:1933  cUSDC = cUSDC_ */\n      dup1\n      sload\n      dup4\n      and\n      dup13\n      dup6\n      and\n      or\n      swap1\n      sstore\n        /* \"contracts/TradingAccount.sol\":1943:1954  comptroller */\n      0x06\n        /* \"contracts/TradingAccount.sol\":1943:1969  comptroller = comptroller_ */\n      dup1\n      sload\n      dup4\n      and\n      dup12\n      dup6\n      and\n      or\n      swap1\n      sstore\n        /* \"contracts/TradingAccount.sol\":1979:1988  priceFeed */\n      0x07\n        /* \"contracts/TradingAccount.sol\":1979:2001  priceFeed = priceFeed_ */\n      dup1\n      sload\n      swap1\n      swap3\n      and\n      swap3\n      dup10\n      and\n      swap3\n      swap1\n      swap3\n      or\n      swap1\n      sstore\n        /* \"contracts/TradingAccount.sol\":2038:2054  new address[](2) */\n      0x40\n      dup1\n      mload\n      dup3\n      dup2\n      mstore\n      0x60\n      dup2\n      add\n      dup3\n      mstore\n      0x00\n      swap3\n      swap1\n      swap2\n      0x20\n      dup4\n      add\n      swap1\n      dup1\n      calldatasize\n      dup4\n      calldatacopy\n      pop\n      pop\n        /* \"contracts/TradingAccount.sol\":2077:2081  cETH */\n      sload(0x04)\n        /* \"contracts/TradingAccount.sol\":2064:2074  cTokens[0] */\n      dup3\n      mload\n      swap3\n      swap4\n      pop\n      sub(shl(0xa0, 0x01), 0x01)\n        /* \"contracts/TradingAccount.sol\":2077:2081  cETH */\n      and\n      swap2\n        /* \"contracts/TradingAccount.sol\":2064:2074  cTokens[0] */\n      dup4\n      swap2\n      pop\n        /* \"contracts/TradingAccount.sol\":2077:2081  cETH */\n      0x00\n      swap1\n        /* \"contracts/TradingAccount.sol\":2064:2074  cTokens[0] */\n      tag_356\n      jumpi\n      tag_356\n      tag_357\n      jump\t// in\n    tag_356:\n      sub(shl(0xa0, 0x01), 0x01)\n        /* \"contracts/TradingAccount.sol\":2064:2081  cTokens[0] = cETH */\n      swap3\n      dup4\n      and\n        /* \"contracts/TradingAccount.sol\":2064:2074  cTokens[0] */\n      0x20\n      swap2\n      dup3\n      mul\n      swap3\n      swap1\n      swap3\n      add\n      add\n        /* \"contracts/TradingAccount.sol\":2064:2081  cTokens[0] = cETH */\n      mstore\n        /* \"contracts/TradingAccount.sol\":2104:2109  cUSDC */\n      sload(0x05)\n        /* \"contracts/TradingAccount.sol\":2091:2101  cTokens[1] */\n      dup3\n      mload\n        /* \"contracts/TradingAccount.sol\":2104:2109  cUSDC */\n      swap2\n      and\n      swap1\n        /* \"contracts/TradingAccount.sol\":2091:2098  cTokens */\n      dup3\n      swap1\n        /* \"contracts/TradingAccount.sol\":2104:2109  cUSDC */\n      0x01\n      swap1\n        /* \"contracts/TradingAccount.sol\":2091:2101  cTokens[1] */\n      dup2\n      lt\n      tag_359\n      jumpi\n      tag_359\n      tag_357\n      jump\t// in\n    tag_359:\n      sub(shl(0xa0, 0x01), 0x01)\n        /* \"contracts/TradingAccount.sol\":2091:2109  cTokens[1] = cUSDC */\n      swap3\n      dup4\n      and\n        /* \"contracts/TradingAccount.sol\":2091:2101  cTokens[1] */\n      0x20\n      swap2\n      dup3\n      mul\n      swap3\n      swap1\n      swap3\n      add\n      add\n        /* \"contracts/TradingAccount.sol\":2091:2109  cTokens[1] = cUSDC */\n      mstore\n        /* \"contracts/TradingAccount.sol\":2132:2143  comptroller */\n      sload(0x06)\n        /* \"contracts/TradingAccount.sol\":2119:2166  IComptroller(comptroller).enterMarkets(cTokens) */\n      mload(0x40)\n      shl(0xe3, 0x18533047)\n      dup2\n      mstore\n        /* \"contracts/TradingAccount.sol\":2132:2143  comptroller */\n      swap2\n      and\n      swap1\n        /* \"contracts/TradingAccount.sol\":2119:2157  IComptroller(comptroller).enterMarkets */\n      0xc2998238\n      swap1\n        /* \"contracts/TradingAccount.sol\":2119:2166  IComptroller(comptroller).enterMarkets(cTokens) */\n      tag_360\n      swap1\n        /* \"contracts/TradingAccount.sol\":2158:2165  cTokens */\n      dup5\n      swap1\n        /* \"contracts/TradingAccount.sol\":2119:2166  IComptroller(comptroller).enterMarkets(cTokens) */\n      0x04\n      add\n      tag_361\n      jump\t// in\n    tag_360:\n      0x00\n      mload(0x40)\n      dup1\n      dup4\n      sub\n      dup2\n      0x00\n      dup8\n      gas\n      call\n      iszero\n      dup1\n      iszero\n      tag_363\n      jumpi\n      returndatacopy(0x00, 0x00, returndatasize)\n      revert(0x00, returndatasize)\n    tag_363:\n      pop\n      pop\n      pop\n      pop\n      mload(0x40)\n      returndatasize\n      0x00\n      dup3\n      returndatacopy\n      0x1f\n      returndatasize\n      swap1\n      dup2\n      add\n      not(0x1f)\n      and\n      dup3\n      add\n      0x40\n      mstore\n      tag_364\n      swap2\n      swap1\n      dup2\n      add\n      swap1\n      tag_365\n      jump\t// in\n    tag_364:\n      pop\n        /* \"contracts/TradingAccount.sol\":1768:2173  {... */\n      pop\n        /* \"@openzeppelin/contracts/proxy/utils/Initializable.sol\":5070:5084  isTopLevelCall */\n      dup4\n        /* \"@openzeppelin/contracts/proxy/utils/Initializable.sol\":5066:5167  if (isTopLevelCall) {... */\n      iszero\n      tag_366\n      jumpi\n        /* \"@openzeppelin/contracts/proxy/utils/Initializable.sol\":5100:5123  $._initializing = false */\n      dup5\n      sload\n      not(shl(0x40, 0xff))\n      and\n      dup6\n      sstore\n        /* \"@openzeppelin/contracts/proxy/utils/Initializable.sol\":5142:5156  Initialized(1) */\n      mload(0x40)\n      0x01\n        /* \"#utility.yul\":12933:12983   */\n      dup2\n      mstore\n        /* \"@openzeppelin/contracts/proxy/utils/Initializable.sol\":5142:5156  Initialized(1) */\n      0xc7f505b2f371ae2175ee4913f4499e1f2633a7b5936321eed1cdaeb6115181d2\n      swap1\n        /* \"#utility.yul\":12921:12923   */\n      0x20\n        /* \"#utility.yul\":12906:12924   */\n      add\n        /* \"@openzeppelin/contracts/proxy/utils/Initializable.sol\":5142:5156  Initialized(1) */\n      mload(0x40)\n      dup1\n      swap2\n      sub\n      swap1\n      log1\n        /* \"@openzeppelin/contracts/proxy/utils/Initializable.sol\":5066:5167  if (isTopLevelCall) {... */\n    tag_366:\n        /* \"@openzeppelin/contracts/proxy/utils/Initializable.sol\":4092:5173  {... */\n      pop\n      pop\n      pop\n      pop\n      pop\n        /* \"contracts/TradingAccount.sol\":1505:2173  function initialize(... */\n      pop\n      pop\n      pop\n      pop\n      pop\n      pop\n      pop\n      pop\n      jump\t// out\n        /* \"contracts/TradingAccount.sol\":12149:12328  function getLatestPrice() public view returns (uint256) {... */\n    tag_122:\n        /* \"contracts/TradingAccount.sol\":12196:12203  uint256 */\n      0x00\n        /* \"contracts/TradingAccount.sol\":12218:12230  int256 price */\n      0x00\n        /* \"contracts/TradingAccount.sol\":12262:12271  priceFeed */\n      0x07\n      0x00\n      swap1\n      sload\n      swap1\n      0x0100\n      exp\n      swap1\n      div\n      sub(shl(0xa0, 0x01), 0x01)\n      and\n      sub(shl(0xa0, 0x01), 0x01)\n        /* \"contracts/TradingAccount.sol\":12240:12288  AggregatorV3Interface(priceFeed).latestRoundData */\n      and\n      0xfeaf968c\n        /* \"contracts/TradingAccount.sol\":12240:12290  AggregatorV3Interface(priceFeed).latestRoundData() */\n      mload(0x40)\n      dup2\n      0xffffffff\n      and\n      0xe0\n      shl\n      dup2\n      mstore\n      0x04\n      add\n      0xa0\n      mload(0x40)\n      dup1\n      dup4\n      sub\n      dup2\n      dup7\n      gas\n      staticcall\n      iszero\n      dup1\n      iszero\n      tag_372\n      jumpi\n      returndatacopy(0x00, 0x00, returndatasize)\n      revert(0x00, returndatasize)\n    tag_372:\n      pop\n      pop\n      pop\n      pop\n      mload(0x40)\n      returndatasize\n      not(0x1f)\n      0x1f\n      dup3\n      add\n      and\n      dup3\n      add\n      dup1\n      0x40\n      mstore\n      pop\n      dup2\n      add\n      swap1\n      tag_373\n      swap2\n      swap1\n      tag_374\n      jump\t// in\n    tag_373:\n      pop\n        /* \"contracts/TradingAccount.sol\":12215:12290  (, int256 price, , , ) = AggregatorV3Interface(priceFeed).latestRoundData() */\n      swap2\n      swap6\n        /* \"contracts/TradingAccount.sol\":12149:12328  function getLatestPrice() public view returns (uint256) {... */\n      swap5\n      pop\n      pop\n      pop\n      pop\n      pop\n      jump\t// out\n        /* \"contracts/TradingAccount.sol\":4944:5033  function openLong(uint256 ethSize) external onlyOwner {... */\n    tag_131:\n        /* \"contracts/base/Ownable.sol\":356:369  _checkOwner() */\n      tag_376\n        /* \"contracts/base/Ownable.sol\":356:367  _checkOwner */\n      tag_173\n        /* \"contracts/base/Ownable.sol\":356:369  _checkOwner() */\n      jump\t// in\n    tag_376:\n        /* \"contracts/TradingAccount.sol\":5008:5026  _openLong(ethSize) */\n      tag_378\n        /* \"contracts/TradingAccount.sol\":5018:5025  ethSize */\n      dup2\n        /* \"contracts/TradingAccount.sol\":5008:5017  _openLong */\n      tag_379\n        /* \"contracts/TradingAccount.sol\":5008:5026  _openLong(ethSize) */\n      jump\t// in\n    tag_378:\n        /* \"contracts/TradingAccount.sol\":4944:5033  function openLong(uint256 ethSize) external onlyOwner {... */\n      pop\n      jump\t// out\n        /* \"contracts/TradingAccount.sol\":8152:8650  function cancelLimitOrder(uint256 orderId) external onlyOwner {... */\n    tag_139:\n        /* \"contracts/base/Ownable.sol\":356:369  _checkOwner() */\n      tag_381\n        /* \"contracts/base/Ownable.sol\":356:367  _checkOwner */\n      tag_173\n        /* \"contracts/base/Ownable.sol\":356:369  _checkOwner() */\n      jump\t// in\n    tag_381:\n        /* \"contracts/TradingAccount.sol\":8242:8243  0 */\n      0x00\n        /* \"contracts/TradingAccount.sol\":8232:8239  orderId */\n      dup2\n        /* \"contracts/TradingAccount.sol\":8232:8243  orderId > 0 */\n      gt\n        /* \"contracts/TradingAccount.sol\":8232:8269  orderId > 0 && orderId <= lastOrderId */\n      dup1\n      iszero\n      tag_383\n      jumpi\n      pop\n        /* \"contracts/TradingAccount.sol\":8258:8269  lastOrderId */\n      sload(0x08)\n        /* \"contracts/TradingAccount.sol\":8247:8254  orderId */\n      dup2\n        /* \"contracts/TradingAccount.sol\":8247:8269  orderId <= lastOrderId */\n      gt\n      iszero\n        /* \"contracts/TradingAccount.sol\":8232:8269  orderId > 0 && orderId <= lastOrderId */\n    tag_383:\n        /* \"contracts/TradingAccount.sol\":8224:8289  require(orderId > 0 && orderId <= lastOrderId, \"order not found\") */\n      tag_384\n      jumpi\n      mload(0x40)\n      shl(0xe5, 0x461bcd)\n      dup2\n      mstore\n        /* \"#utility.yul\":13956:13958   */\n      0x20\n        /* \"contracts/TradingAccount.sol\":8224:8289  require(orderId > 0 && orderId <= lastOrderId, \"order not found\") */\n      0x04\n      dup3\n      add\n        /* \"#utility.yul\":13938:13959   */\n      mstore\n        /* \"#utility.yul\":13995:13997   */\n      0x0f\n        /* \"#utility.yul\":13975:13993   */\n      0x24\n      dup3\n      add\n        /* \"#utility.yul\":13968:13998   */\n      mstore\n      shl(0x8a, 0x1bdc99195c881b9bdd08199bdd5b99)\n        /* \"#utility.yul\":14014:14032   */\n      0x44\n      dup3\n      add\n        /* \"#utility.yul\":14007:14052   */\n      mstore\n        /* \"#utility.yul\":14069:14087   */\n      0x64\n      add\n        /* \"contracts/TradingAccount.sol\":8224:8289  require(orderId > 0 && orderId <= lastOrderId, \"order not found\") */\n      tag_181\n        /* \"#utility.yul\":13754:14093   */\n      jump\n        /* \"contracts/TradingAccount.sol\":8224:8289  require(orderId > 0 && orderId <= lastOrderId, \"order not found\") */\n    tag_384:\n        /* \"contracts/TradingAccount.sol\":8299:8322  LimitOrder memory order */\n      0x00\n        /* \"contracts/TradingAccount.sol\":8325:8347  getLimitOrder[orderId] */\n      dup2\n      dup2\n      mstore\n        /* \"contracts/TradingAccount.sol\":8325:8338  getLimitOrder */\n      0x09\n        /* \"contracts/TradingAccount.sol\":8325:8347  getLimitOrder[orderId] */\n      0x20\n      swap1\n      dup2\n      mstore\n      0x40\n      swap2\n      dup3\n      swap1\n      keccak256\n        /* \"contracts/TradingAccount.sol\":8299:8347  LimitOrder memory order = getLimitOrder[orderId] */\n      dup3\n      mload\n      0xe0\n      dup2\n      add\n      dup5\n      mstore\n      dup2\n      sload\n      0xff\n      dup1\n      dup3\n      and\n      iszero\n      iszero\n      dup4\n      mstore\n      0x0100\n      swap1\n      swap2\n      div\n      and\n      iszero\n      dup1\n      iszero\n      swap4\n      dup3\n      add\n      swap4\n      swap1\n      swap4\n      mstore\n      0x01\n      dup3\n      add\n      sload\n      swap4\n      dup2\n      add\n      swap4\n      swap1\n      swap4\n      mstore\n      0x02\n      dup2\n      add\n      sload\n      0x60\n      dup5\n      add\n      mstore\n      0x03\n      dup2\n      add\n      sload\n      0x80\n      dup5\n      add\n      mstore\n      0x04\n      dup2\n      add\n      sload\n      0xa0\n      dup5\n      add\n      mstore\n      0x05\n      add\n      sload\n      sub(shl(0xa0, 0x01), 0x01)\n      and\n      0xc0\n      dup4\n      add\n      mstore\n        /* \"contracts/TradingAccount.sol\":8357:8403  require(!order.isCanceled, \"already canceled\") */\n      tag_387\n      jumpi\n      mload(0x40)\n      shl(0xe5, 0x461bcd)\n      dup2\n      mstore\n        /* \"#utility.yul\":14300:14302   */\n      0x20\n        /* \"contracts/TradingAccount.sol\":8357:8403  require(!order.isCanceled, \"already canceled\") */\n      0x04\n      dup3\n      add\n        /* \"#utility.yul\":14282:14303   */\n      mstore\n        /* \"#utility.yul\":14339:14341   */\n      0x10\n        /* \"#utility.yul\":14319:14337   */\n      0x24\n      dup3\n      add\n        /* \"#utility.yul\":14312:14342   */\n      mstore\n      shl(0x82, 0x185b1c9958591e4818d85b98d95b1959)\n        /* \"#utility.yul\":14358:14376   */\n      0x44\n      dup3\n      add\n        /* \"#utility.yul\":14351:14397   */\n      mstore\n        /* \"#utility.yul\":14414:14432   */\n      0x64\n      add\n        /* \"contracts/TradingAccount.sol\":8357:8403  require(!order.isCanceled, \"already canceled\") */\n      tag_181\n        /* \"#utility.yul\":14098:14438   */\n      jump\n        /* \"contracts/TradingAccount.sol\":8357:8403  require(!order.isCanceled, \"already canceled\") */\n    tag_387:\n        /* \"contracts/TradingAccount.sol\":8421:8436  order.dealPrice */\n      0x80\n      dup2\n      add\n      mload\n        /* \"contracts/TradingAccount.sol\":8421:8441  order.dealPrice == 0 */\n      iszero\n        /* \"contracts/TradingAccount.sol\":8413:8459  require(order.dealPrice == 0, \"already dealt\") */\n      tag_390\n      jumpi\n      mload(0x40)\n      shl(0xe5, 0x461bcd)\n      dup2\n      mstore\n        /* \"#utility.yul\":14645:14647   */\n      0x20\n        /* \"contracts/TradingAccount.sol\":8413:8459  require(order.dealPrice == 0, \"already dealt\") */\n      0x04\n      dup3\n      add\n        /* \"#utility.yul\":14627:14648   */\n      mstore\n        /* \"#utility.yul\":14684:14686   */\n      0x0d\n        /* \"#utility.yul\":14664:14682   */\n      0x24\n      dup3\n      add\n        /* \"#utility.yul\":14657:14687   */\n      mstore\n      shl(0x9a, 0x185b1c9958591e481919585b1d)\n        /* \"#utility.yul\":14703:14721   */\n      0x44\n      dup3\n      add\n        /* \"#utility.yul\":14696:14739   */\n      mstore\n        /* \"#utility.yul\":14756:14774   */\n      0x64\n      add\n        /* \"contracts/TradingAccount.sol\":8413:8459  require(order.dealPrice == 0, \"already dealt\") */\n      tag_181\n        /* \"#utility.yul\":14443:14780   */\n      jump\n        /* \"contracts/TradingAccount.sol\":8413:8459  require(order.dealPrice == 0, \"already dealt\") */\n    tag_390:\n        /* \"contracts/TradingAccount.sol\":8494:8509  block.timestamp */\n      timestamp\n        /* \"contracts/TradingAccount.sol\":8477:8482  order */\n      dup2\n        /* \"contracts/TradingAccount.sol\":8477:8491  order.expireAt */\n      0xa0\n      add\n      mload\n        /* \"contracts/TradingAccount.sol\":8477:8509  order.expireAt > block.timestamp */\n      gt\n        /* \"contracts/TradingAccount.sol\":8469:8529  require(order.expireAt > block.timestamp, \"already expired\") */\n      tag_393\n      jumpi\n      mload(0x40)\n      shl(0xe5, 0x461bcd)\n      dup2\n      mstore\n        /* \"#utility.yul\":14987:14989   */\n      0x20\n        /* \"contracts/TradingAccount.sol\":8469:8529  require(order.expireAt > block.timestamp, \"already expired\") */\n      0x04\n      dup3\n      add\n        /* \"#utility.yul\":14969:14990   */\n      mstore\n        /* \"#utility.yul\":15026:15028   */\n      0x0f\n        /* \"#utility.yul\":15006:15024   */\n      0x24\n      dup3\n      add\n        /* \"#utility.yul\":14999:15029   */\n      mstore\n      shl(0x8a, 0x185b1c9958591e48195e1c1a5c9959)\n        /* \"#utility.yul\":15045:15063   */\n      0x44\n      dup3\n      add\n        /* \"#utility.yul\":15038:15083   */\n      mstore\n        /* \"#utility.yul\":15100:15118   */\n      0x64\n      add\n        /* \"contracts/TradingAccount.sol\":8469:8529  require(order.expireAt > block.timestamp, \"already expired\") */\n      tag_181\n        /* \"#utility.yul\":14785:15124   */\n      jump\n        /* \"contracts/TradingAccount.sol\":8469:8529  require(order.expireAt > block.timestamp, \"already expired\") */\n    tag_393:\n        /* \"contracts/TradingAccount.sol\":8558:8562  true */\n      0x01\n        /* \"contracts/TradingAccount.sol\":8539:8555  order.isCanceled */\n      0x20\n      dup3\n      dup2\n      add\n        /* \"contracts/TradingAccount.sol\":8539:8562  order.isCanceled = true */\n      dup3\n      dup2\n      mstore\n      0x00\n        /* \"contracts/TradingAccount.sol\":8572:8594  getLimitOrder[orderId] */\n      dup6\n      dup2\n      mstore\n        /* \"contracts/TradingAccount.sol\":8572:8585  getLimitOrder */\n      0x09\n        /* \"contracts/TradingAccount.sol\":8572:8594  getLimitOrder[orderId] */\n      dup4\n      mstore\n      0x40\n      swap1\n      dup2\n      swap1\n      keccak256\n        /* \"contracts/TradingAccount.sol\":8572:8602  getLimitOrder[orderId] = order */\n      dup6\n      mload\n      dup2\n      sload\n      swap4\n      mload\n      not(0xffff)\n      swap1\n      swap5\n      and\n      swap1\n      iszero\n      iszero\n      not(0xff00)\n      and\n      or\n      0x0100\n      swap4\n      iszero\n      iszero\n      swap4\n      swap1\n      swap4\n      mul\n      swap3\n      swap1\n      swap3\n      or\n      dup3\n      sstore\n      dup1\n      dup6\n      add\n      mload\n      swap4\n      dup3\n      add\n      swap4\n      swap1\n      swap4\n      sstore\n      0x60\n      dup5\n      add\n      mload\n      0x02\n      dup3\n      add\n      sstore\n      0x80\n      dup5\n      add\n      mload\n      0x03\n      dup3\n      add\n      sstore\n      0xa0\n      dup5\n      add\n      mload\n      0x04\n      dup3\n      add\n      sstore\n      0xc0\n      dup5\n      add\n      mload\n      0x05\n      swap1\n      swap2\n      add\n      dup1\n      sload\n      not(sub(shl(0xa0, 0x01), 0x01))\n      and\n      sub(shl(0xa0, 0x01), 0x01)\n      swap1\n      swap3\n      and\n      swap2\n      swap1\n      swap2\n      or\n      swap1\n      sstore\n        /* \"contracts/TradingAccount.sol\":8618:8643  CancelLimitOrder(orderId) */\n      swap1\n      mload\n        /* \"#utility.yul\":1041:1066   */\n      dup4\n      dup2\n      mstore\n        /* \"contracts/TradingAccount.sol\":8618:8643  CancelLimitOrder(orderId) */\n      0xacb097d265630549c66967ff31a6d9a30a35656b951b1fe2d90a3499ba29ee26\n      swap2\n        /* \"#utility.yul\":1014:1032   */\n      add\n        /* \"contracts/TradingAccount.sol\":8618:8643  CancelLimitOrder(orderId) */\n      mload(0x40)\n      dup1\n      swap2\n      sub\n      swap1\n      log1\n        /* \"contracts/TradingAccount.sol\":8214:8650  {... */\n      pop\n        /* \"contracts/TradingAccount.sol\":8152:8650  function cancelLimitOrder(uint256 orderId) external onlyOwner {... */\n      pop\n      jump\t// out\n        /* \"contracts/TradingAccount.sol\":8656:9487  function executeLimitOrder(uint256 orderId) external {... */\n    tag_143:\n        /* \"contracts/TradingAccount.sol\":8737:8738  0 */\n      0x00\n        /* \"contracts/TradingAccount.sol\":8727:8734  orderId */\n      dup2\n        /* \"contracts/TradingAccount.sol\":8727:8738  orderId > 0 */\n      gt\n        /* \"contracts/TradingAccount.sol\":8727:8764  orderId > 0 && orderId <= lastOrderId */\n      dup1\n      iszero\n      tag_398\n      jumpi\n      pop\n        /* \"contracts/TradingAccount.sol\":8753:8764  lastOrderId */\n      sload(0x08)\n        /* \"contracts/TradingAccount.sol\":8742:8749  orderId */\n      dup2\n        /* \"contracts/TradingAccount.sol\":8742:8764  orderId <= lastOrderId */\n      gt\n      iszero\n        /* \"contracts/TradingAccount.sol\":8727:8764  orderId > 0 && orderId <= lastOrderId */\n    tag_398:\n        /* \"contracts/TradingAccount.sol\":8719:8784  require(orderId > 0 && orderId <= lastOrderId, \"order not found\") */\n      tag_399\n      jumpi\n      mload(0x40)\n      shl(0xe5, 0x461bcd)\n      dup2\n      mstore\n        /* \"#utility.yul\":13956:13958   */\n      0x20\n        /* \"contracts/TradingAccount.sol\":8719:8784  require(orderId > 0 && orderId <= lastOrderId, \"order not found\") */\n      0x04\n      dup3\n      add\n        /* \"#utility.yul\":13938:13959   */\n      mstore\n        /* \"#utility.yul\":13995:13997   */\n      0x0f\n        /* \"#utility.yul\":13975:13993   */\n      0x24\n      dup3\n      add\n        /* \"#utility.yul\":13968:13998   */\n      mstore\n      shl(0x8a, 0x1bdc99195c881b9bdd08199bdd5b99)\n        /* \"#utility.yul\":14014:14032   */\n      0x44\n      dup3\n      add\n        /* \"#utility.yul\":14007:14052   */\n      mstore\n        /* \"#utility.yul\":14069:14087   */\n      0x64\n      add\n        /* \"contracts/TradingAccount.sol\":8719:8784  require(orderId > 0 && orderId <= lastOrderId, \"order not found\") */\n      tag_181\n        /* \"#utility.yul\":13754:14093   */\n      jump\n        /* \"contracts/TradingAccount.sol\":8719:8784  require(orderId > 0 && orderId <= lastOrderId, \"order not found\") */\n    tag_399:\n        /* \"contracts/TradingAccount.sol\":8794:8817  LimitOrder memory order */\n      0x00\n        /* \"contracts/TradingAccount.sol\":8820:8842  getLimitOrder[orderId] */\n      dup2\n      dup2\n      mstore\n        /* \"contracts/TradingAccount.sol\":8820:8833  getLimitOrder */\n      0x09\n        /* \"contracts/TradingAccount.sol\":8820:8842  getLimitOrder[orderId] */\n      0x20\n      swap1\n      dup2\n      mstore\n      0x40\n      swap2\n      dup3\n      swap1\n      keccak256\n        /* \"contracts/TradingAccount.sol\":8794:8842  LimitOrder memory order = getLimitOrder[orderId] */\n      dup3\n      mload\n      0xe0\n      dup2\n      add\n      dup5\n      mstore\n      dup2\n      sload\n      0xff\n      dup1\n      dup3\n      and\n      iszero\n      iszero\n      dup4\n      mstore\n      0x0100\n      swap1\n      swap2\n      div\n      and\n      iszero\n      iszero\n      swap3\n      dup2\n      add\n      swap3\n      swap1\n      swap3\n      mstore\n      0x01\n      dup2\n      add\n      sload\n      swap3\n      dup3\n      add\n      swap3\n      swap1\n      swap3\n      mstore\n      0x02\n      dup3\n      add\n      sload\n      0x60\n      dup3\n      add\n      mstore\n      0x03\n      dup3\n      add\n      sload\n      0x80\n      dup3\n      add\n      mstore\n      0x04\n      dup3\n      add\n      sload\n      0xa0\n      dup3\n      add\n      mstore\n      0x05\n      swap1\n      swap2\n      add\n      sload\n      sub(shl(0xa0, 0x01), 0x01)\n      and\n      0xc0\n      dup3\n      add\n      dup2\n      swap1\n      mstore\n        /* \"contracts/TradingAccount.sol\":8876:8886  msg.sender */\n      caller\n        /* \"contracts/TradingAccount.sol\":8860:8886  order.keeper == msg.sender */\n      eq\n        /* \"contracts/TradingAccount.sol\":8852:8905  require(order.keeper == msg.sender, \"require keeper\") */\n      tag_401\n      jumpi\n      mload(0x40)\n      shl(0xe5, 0x461bcd)\n      dup2\n      mstore\n        /* \"#utility.yul\":15331:15333   */\n      0x20\n        /* \"contracts/TradingAccount.sol\":8852:8905  require(order.keeper == msg.sender, \"require keeper\") */\n      0x04\n      dup3\n      add\n        /* \"#utility.yul\":15313:15334   */\n      mstore\n        /* \"#utility.yul\":15370:15372   */\n      0x0e\n        /* \"#utility.yul\":15350:15368   */\n      0x24\n      dup3\n      add\n        /* \"#utility.yul\":15343:15373   */\n      mstore\n      shl(0x91, 0x3932b8bab4b9329035b2b2b832b9)\n        /* \"#utility.yul\":15389:15407   */\n      0x44\n      dup3\n      add\n        /* \"#utility.yul\":15382:15426   */\n      mstore\n        /* \"#utility.yul\":15443:15461   */\n      0x64\n      add\n        /* \"contracts/TradingAccount.sol\":8852:8905  require(order.keeper == msg.sender, \"require keeper\") */\n      tag_181\n        /* \"#utility.yul\":15129:15467   */\n      jump\n        /* \"contracts/TradingAccount.sol\":8852:8905  require(order.keeper == msg.sender, \"require keeper\") */\n    tag_401:\n        /* \"contracts/TradingAccount.sol\":8924:8929  order */\n      dup1\n        /* \"contracts/TradingAccount.sol\":8924:8940  order.isCanceled */\n      0x20\n      add\n      mload\n        /* \"contracts/TradingAccount.sol\":8923:8940  !order.isCanceled */\n      iszero\n        /* \"contracts/TradingAccount.sol\":8915:8961  require(!order.isCanceled, \"already canceled\") */\n      tag_404\n      jumpi\n      mload(0x40)\n      shl(0xe5, 0x461bcd)\n      dup2\n      mstore\n        /* \"#utility.yul\":14300:14302   */\n      0x20\n        /* \"contracts/TradingAccount.sol\":8915:8961  require(!order.isCanceled, \"already canceled\") */\n      0x04\n      dup3\n      add\n        /* \"#utility.yul\":14282:14303   */\n      mstore\n        /* \"#utility.yul\":14339:14341   */\n      0x10\n        /* \"#utility.yul\":14319:14337   */\n      0x24\n      dup3\n      add\n        /* \"#utility.yul\":14312:14342   */\n      mstore\n      shl(0x82, 0x185b1c9958591e4818d85b98d95b1959)\n        /* \"#utility.yul\":14358:14376   */\n      0x44\n      dup3\n      add\n        /* \"#utility.yul\":14351:14397   */\n      mstore\n        /* \"#utility.yul\":14414:14432   */\n      0x64\n      add\n        /* \"contracts/TradingAccount.sol\":8915:8961  require(!order.isCanceled, \"already canceled\") */\n      tag_181\n        /* \"#utility.yul\":14098:14438   */\n      jump\n        /* \"contracts/TradingAccount.sol\":8915:8961  require(!order.isCanceled, \"already canceled\") */\n    tag_404:\n        /* \"contracts/TradingAccount.sol\":8979:8994  order.dealPrice */\n      0x80\n      dup2\n      add\n      mload\n        /* \"contracts/TradingAccount.sol\":8979:8999  order.dealPrice == 0 */\n      iszero\n        /* \"contracts/TradingAccount.sol\":8971:9017  require(order.dealPrice == 0, \"already dealt\") */\n      tag_406\n      jumpi\n      mload(0x40)\n      shl(0xe5, 0x461bcd)\n      dup2\n      mstore\n        /* \"#utility.yul\":14645:14647   */\n      0x20\n        /* \"contracts/TradingAccount.sol\":8971:9017  require(order.dealPrice == 0, \"already dealt\") */\n      0x04\n      dup3\n      add\n        /* \"#utility.yul\":14627:14648   */\n      mstore\n        /* \"#utility.yul\":14684:14686   */\n      0x0d\n        /* \"#utility.yul\":14664:14682   */\n      0x24\n      dup3\n      add\n        /* \"#utility.yul\":14657:14687   */\n      mstore\n      shl(0x9a, 0x185b1c9958591e481919585b1d)\n        /* \"#utility.yul\":14703:14721   */\n      0x44\n      dup3\n      add\n        /* \"#utility.yul\":14696:14739   */\n      mstore\n        /* \"#utility.yul\":14756:14774   */\n      0x64\n      add\n        /* \"contracts/TradingAccount.sol\":8971:9017  require(order.dealPrice == 0, \"already dealt\") */\n      tag_181\n        /* \"#utility.yul\":14443:14780   */\n      jump\n        /* \"contracts/TradingAccount.sol\":8971:9017  require(order.dealPrice == 0, \"already dealt\") */\n    tag_406:\n        /* \"contracts/TradingAccount.sol\":9052:9067  block.timestamp */\n      timestamp\n        /* \"contracts/TradingAccount.sol\":9035:9040  order */\n      dup2\n        /* \"contracts/TradingAccount.sol\":9035:9049  order.expireAt */\n      0xa0\n      add\n      mload\n        /* \"contracts/TradingAccount.sol\":9035:9067  order.expireAt > block.timestamp */\n      gt\n        /* \"contracts/TradingAccount.sol\":9027:9087  require(order.expireAt > block.timestamp, \"already expired\") */\n      tag_408\n      jumpi\n      mload(0x40)\n      shl(0xe5, 0x461bcd)\n      dup2\n      mstore\n        /* \"#utility.yul\":14987:14989   */\n      0x20\n        /* \"contracts/TradingAccount.sol\":9027:9087  require(order.expireAt > block.timestamp, \"already expired\") */\n      0x04\n      dup3\n      add\n        /* \"#utility.yul\":14969:14990   */\n      mstore\n        /* \"#utility.yul\":15026:15028   */\n      0x0f\n        /* \"#utility.yul\":15006:15024   */\n      0x24\n      dup3\n      add\n        /* \"#utility.yul\":14999:15029   */\n      mstore\n      shl(0x8a, 0x185b1c9958591e48195e1c1a5c9959)\n        /* \"#utility.yul\":15045:15063   */\n      0x44\n      dup3\n      add\n        /* \"#utility.yul\":15038:15083   */\n      mstore\n        /* \"#utility.yul\":15100:15118   */\n      0x64\n      add\n        /* \"contracts/TradingAccount.sol\":9027:9087  require(order.expireAt > block.timestamp, \"already expired\") */\n      tag_181\n        /* \"#utility.yul\":14785:15124   */\n      jump\n        /* \"contracts/TradingAccount.sol\":9027:9087  require(order.expireAt > block.timestamp, \"already expired\") */\n    tag_408:\n        /* \"contracts/TradingAccount.sol\":9098:9117  uint256 latestPrice */\n      0x00\n        /* \"contracts/TradingAccount.sol\":9120:9136  getLatestPrice() */\n      tag_410\n        /* \"contracts/TradingAccount.sol\":9120:9134  getLatestPrice */\n      tag_122\n        /* \"contracts/TradingAccount.sol\":9120:9136  getLatestPrice() */\n      jump\t// in\n    tag_410:\n        /* \"contracts/TradingAccount.sol\":9150:9162  order.isLong */\n      dup3\n      mload\n        /* \"contracts/TradingAccount.sol\":9098:9136  uint256 latestPrice = getLatestPrice() */\n      swap1\n      swap2\n      pop\n        /* \"contracts/TradingAccount.sol\":9146:9426  if (order.isLong) {... */\n      iszero\n      tag_411\n      jumpi\n        /* \"contracts/TradingAccount.sol\":9206:9217  latestPrice */\n      dup1\n        /* \"contracts/TradingAccount.sol\":9186:9191  order */\n      dup3\n        /* \"contracts/TradingAccount.sol\":9186:9202  order.limitPrice */\n      0x60\n      add\n      mload\n        /* \"contracts/TradingAccount.sol\":9186:9217  order.limitPrice >= latestPrice */\n      lt\n      iszero\n        /* \"contracts/TradingAccount.sol\":9178:9242  require(order.limitPrice >= latestPrice, \"not reach limitPrice\") */\n      tag_412\n      jumpi\n      mload(0x40)\n      shl(0xe5, 0x461bcd)\n      dup2\n      mstore\n        /* \"#utility.yul\":15674:15676   */\n      0x20\n        /* \"contracts/TradingAccount.sol\":9178:9242  require(order.limitPrice >= latestPrice, \"not reach limitPrice\") */\n      0x04\n      dup3\n      add\n        /* \"#utility.yul\":15656:15677   */\n      mstore\n        /* \"#utility.yul\":15713:15715   */\n      0x14\n        /* \"#utility.yul\":15693:15711   */\n      0x24\n      dup3\n      add\n        /* \"#utility.yul\":15686:15716   */\n      mstore\n      shl(0x60, 0x6e6f74207265616368206c696d69745072696365)\n        /* \"#utility.yul\":15732:15750   */\n      0x44\n      dup3\n      add\n        /* \"#utility.yul\":15725:15775   */\n      mstore\n        /* \"#utility.yul\":15792:15810   */\n      0x64\n      add\n        /* \"contracts/TradingAccount.sol\":9178:9242  require(order.limitPrice >= latestPrice, \"not reach limitPrice\") */\n      tag_181\n        /* \"#utility.yul\":15472:15816   */\n      jump\n        /* \"contracts/TradingAccount.sol\":9178:9242  require(order.limitPrice >= latestPrice, \"not reach limitPrice\") */\n    tag_412:\n        /* \"contracts/TradingAccount.sol\":9256:9281  _openLong(order.openSize) */\n      tag_415\n        /* \"contracts/TradingAccount.sol\":9266:9271  order */\n      dup3\n        /* \"contracts/TradingAccount.sol\":9266:9280  order.openSize */\n      0x40\n      add\n      mload\n        /* \"contracts/TradingAccount.sol\":9256:9265  _openLong */\n      tag_379\n        /* \"contracts/TradingAccount.sol\":9256:9281  _openLong(order.openSize) */\n      jump\t// in\n    tag_415:\n        /* \"contracts/TradingAccount.sol\":9146:9426  if (order.isLong) {... */\n      jump(tag_420)\n    tag_411:\n        /* \"contracts/TradingAccount.sol\":9340:9351  latestPrice */\n      dup1\n        /* \"contracts/TradingAccount.sol\":9320:9325  order */\n      dup3\n        /* \"contracts/TradingAccount.sol\":9320:9336  order.limitPrice */\n      0x60\n      add\n      mload\n        /* \"contracts/TradingAccount.sol\":9320:9351  order.limitPrice <= latestPrice */\n      gt\n      iszero\n        /* \"contracts/TradingAccount.sol\":9312:9375  require(order.limitPrice <= latestPrice, \"not rach limitPrice\") */\n      tag_417\n      jumpi\n      mload(0x40)\n      shl(0xe5, 0x461bcd)\n      dup2\n      mstore\n        /* \"#utility.yul\":16023:16025   */\n      0x20\n        /* \"contracts/TradingAccount.sol\":9312:9375  require(order.limitPrice <= latestPrice, \"not rach limitPrice\") */\n      0x04\n      dup3\n      add\n        /* \"#utility.yul\":16005:16026   */\n      mstore\n        /* \"#utility.yul\":16062:16064   */\n      0x13\n        /* \"#utility.yul\":16042:16060   */\n      0x24\n      dup3\n      add\n        /* \"#utility.yul\":16035:16065   */\n      mstore\n      shl(0x68, 0x6e6f742072616368206c696d69745072696365)\n        /* \"#utility.yul\":16081:16099   */\n      0x44\n      dup3\n      add\n        /* \"#utility.yul\":16074:16123   */\n      mstore\n        /* \"#utility.yul\":16140:16158   */\n      0x64\n      add\n        /* \"contracts/TradingAccount.sol\":9312:9375  require(order.limitPrice <= latestPrice, \"not rach limitPrice\") */\n      tag_181\n        /* \"#utility.yul\":15821:16164   */\n      jump\n        /* \"contracts/TradingAccount.sol\":9312:9375  require(order.limitPrice <= latestPrice, \"not rach limitPrice\") */\n    tag_417:\n        /* \"contracts/TradingAccount.sol\":9389:9415  _openShort(order.openSize) */\n      tag_420\n        /* \"contracts/TradingAccount.sol\":9400:9405  order */\n      dup3\n        /* \"contracts/TradingAccount.sol\":9400:9414  order.openSize */\n      0x40\n      add\n      mload\n        /* \"contracts/TradingAccount.sol\":9389:9399  _openShort */\n      tag_421\n        /* \"contracts/TradingAccount.sol\":9389:9415  _openShort(order.openSize) */\n      jump\t// in\n    tag_420:\n        /* \"contracts/TradingAccount.sol\":9441:9480  ExecuteLimitOrder(orderId, latestPrice) */\n      0x40\n      dup1\n      mload\n        /* \"#utility.yul\":16343:16368   */\n      dup5\n      dup2\n      mstore\n        /* \"#utility.yul\":16399:16401   */\n      0x20\n        /* \"#utility.yul\":16384:16402   */\n      dup2\n      add\n        /* \"#utility.yul\":16377:16411   */\n      dup4\n      swap1\n      mstore\n        /* \"contracts/TradingAccount.sol\":9441:9480  ExecuteLimitOrder(orderId, latestPrice) */\n      0xba5c68549d7afe892d9d1e6d4acdb167b18828851f715d44db58adb8b0f91aca\n      swap2\n        /* \"#utility.yul\":16316:16334   */\n      add\n        /* \"contracts/TradingAccount.sol\":9441:9480  ExecuteLimitOrder(orderId, latestPrice) */\n      tag_339\n        /* \"#utility.yul\":16169:16417   */\n      jump\n        /* \"contracts/TradingAccount.sol\":3144:4024  function withdrawETH(uint256 cEthAmount, uint256 ethAmount) ... */\n    tag_147:\n        /* \"contracts/base/Ownable.sol\":356:369  _checkOwner() */\n      tag_425\n        /* \"contracts/base/Ownable.sol\":356:367  _checkOwner */\n      tag_173\n        /* \"contracts/base/Ownable.sol\":356:369  _checkOwner() */\n      jump\t// in\n    tag_425:\n        /* \"contracts/TradingAccount.sol\":3289:3290  0 */\n      0x00\n        /* \"contracts/TradingAccount.sol\":3276:3286  cEthAmount */\n      dup3\n        /* \"contracts/TradingAccount.sol\":3276:3290  cEthAmount > 0 */\n      gt\n        /* \"contracts/TradingAccount.sol\":3276:3308  cEthAmount > 0 && ethAmount == 0 */\n      dup1\n      iszero\n      tag_427\n      jumpi\n      pop\n        /* \"contracts/TradingAccount.sol\":3294:3308  ethAmount == 0 */\n      dup1\n      iszero\n        /* \"contracts/TradingAccount.sol\":3276:3308  cEthAmount > 0 && ethAmount == 0 */\n    tag_427:\n        /* \"contracts/TradingAccount.sol\":3275:3347  (cEthAmount > 0 && ethAmount == 0) || (cEthAmount == 0 && ethAmount > 0) */\n      dup1\n      tag_429\n      jumpi\n      pop\n        /* \"contracts/TradingAccount.sol\":3314:3329  cEthAmount == 0 */\n      dup2\n      iszero\n        /* \"contracts/TradingAccount.sol\":3314:3346  cEthAmount == 0 && ethAmount > 0 */\n      dup1\n      iszero\n      tag_429\n      jumpi\n      pop\n        /* \"contracts/TradingAccount.sol\":3345:3346  0 */\n      0x00\n        /* \"contracts/TradingAccount.sol\":3333:3342  ethAmount */\n      dup2\n        /* \"contracts/TradingAccount.sol\":3333:3346  ethAmount > 0 */\n      gt\n        /* \"contracts/TradingAccount.sol\":3314:3346  cEthAmount == 0 && ethAmount > 0 */\n    tag_429:\n        /* \"contracts/TradingAccount.sol\":3254:3407  require(... */\n      tag_430\n      jumpi\n      mload(0x40)\n      shl(0xe5, 0x461bcd)\n      dup2\n      mstore\n      0x04\n      add\n      tag_181\n      swap1\n      tag_314\n      jump\t// in\n    tag_430:\n        /* \"contracts/TradingAccount.sol\":3421:3435  cEthAmount > 0 */\n      dup2\n      iszero\n        /* \"contracts/TradingAccount.sol\":3417:3672  if (cEthAmount > 0) {... */\n      tag_432\n      jumpi\n        /* \"contracts/TradingAccount.sol\":3467:3471  cETH */\n      0x04\n      dup1\n      sload\n        /* \"contracts/TradingAccount.sol\":3459:3491  ICEther(cETH).redeem(cEthAmount) */\n      mload(0x40)\n      shl(0xe0, 0xdb006a75)\n      dup2\n      mstore\n      swap2\n      dup3\n      add\n        /* \"#utility.yul\":1041:1066   */\n      dup5\n      swap1\n      mstore\n      sub(shl(0xa0, 0x01), 0x01)\n        /* \"contracts/TradingAccount.sol\":3467:3471  cETH */\n      and\n      swap1\n        /* \"contracts/TradingAccount.sol\":3459:3479  ICEther(cETH).redeem */\n      0xdb006a75\n      swap1\n        /* \"#utility.yul\":1014:1032   */\n      0x24\n      add\n        /* \"contracts/TradingAccount.sol\":3459:3491  ICEther(cETH).redeem(cEthAmount) */\n      0x20\n      mload(0x40)\n      dup1\n      dup4\n      sub\n      dup2\n      0x00\n      dup8\n      gas\n      call\n      iszero\n      dup1\n      iszero\n      tag_435\n      jumpi\n      returndatacopy(0x00, 0x00, returndatasize)\n      revert(0x00, returndatasize)\n    tag_435:\n      pop\n      pop\n      pop\n      pop\n      mload(0x40)\n      returndatasize\n      not(0x1f)\n      0x1f\n      dup3\n      add\n      and\n      dup3\n      add\n      dup1\n      0x40\n      mstore\n      pop\n      dup2\n      add\n      swap1\n      tag_436\n      swap2\n      swap1\n      tag_211\n      jump\t// in\n    tag_436:\n        /* \"contracts/TradingAccount.sol\":3459:3496  ICEther(cETH).redeem(cEthAmount) == 0 */\n      iszero\n        /* \"contracts/TradingAccount.sol\":3451:3513  require(ICEther(cETH).redeem(cEthAmount) == 0, \"redeem error\") */\n      tag_437\n      jumpi\n      mload(0x40)\n      shl(0xe5, 0x461bcd)\n      dup2\n      mstore\n      0x04\n      add\n      tag_181\n      swap1\n      tag_253\n      jump\t// in\n    tag_437:\n        /* \"contracts/TradingAccount.sol\":3417:3672  if (cEthAmount > 0) {... */\n      jump(tag_444)\n    tag_432:\n        /* \"contracts/TradingAccount.sol\":3577:3581  cETH */\n      0x04\n      dup1\n      sload\n        /* \"contracts/TradingAccount.sol\":3569:3610  ICEther(cETH).redeemUnderlying(ethAmount) */\n      mload(0x40)\n      shl(0xe0, 0x852a12e3)\n      dup2\n      mstore\n      swap2\n      dup3\n      add\n        /* \"#utility.yul\":1041:1066   */\n      dup4\n      swap1\n      mstore\n      sub(shl(0xa0, 0x01), 0x01)\n        /* \"contracts/TradingAccount.sol\":3577:3581  cETH */\n      and\n      swap1\n        /* \"contracts/TradingAccount.sol\":3569:3599  ICEther(cETH).redeemUnderlying */\n      0x852a12e3\n      swap1\n        /* \"#utility.yul\":1014:1032   */\n      0x24\n      add\n        /* \"contracts/TradingAccount.sol\":3569:3610  ICEther(cETH).redeemUnderlying(ethAmount) */\n      0x20\n      mload(0x40)\n      dup1\n      dup4\n      sub\n      dup2\n      0x00\n      dup8\n      gas\n      call\n      iszero\n      dup1\n      iszero\n      tag_442\n      jumpi\n      returndatacopy(0x00, 0x00, returndatasize)\n      revert(0x00, returndatasize)\n    tag_442:\n      pop\n      pop\n      pop\n      pop\n      mload(0x40)\n      returndatasize\n      not(0x1f)\n      0x1f\n      dup3\n      add\n      and\n      dup3\n      add\n      dup1\n      0x40\n      mstore\n      pop\n      dup2\n      add\n      swap1\n      tag_443\n      swap2\n      swap1\n      tag_211\n      jump\t// in\n    tag_443:\n        /* \"contracts/TradingAccount.sol\":3569:3615  ICEther(cETH).redeemUnderlying(ethAmount) == 0 */\n      iszero\n        /* \"contracts/TradingAccount.sol\":3544:3661  require(... */\n      tag_444\n      jumpi\n      mload(0x40)\n      shl(0xe5, 0x461bcd)\n      dup2\n      mstore\n      0x04\n      add\n      tag_181\n      swap1\n      tag_253\n      jump\t// in\n    tag_444:\n        /* \"contracts/TradingAccount.sol\":3715:3719  cETH */\n      0x04\n      dup1\n      sload\n        /* \"contracts/TradingAccount.sol\":3708:3745  IERC20(cETH).balanceOf(address(this)) */\n      mload(0x40)\n      shl(0xe0, 0x70a08231)\n      dup2\n      mstore\n        /* \"contracts/TradingAccount.sol\":3739:3743  this */\n      address\n        /* \"contracts/TradingAccount.sol\":3708:3745  IERC20(cETH).balanceOf(address(this)) */\n      swap3\n      dup2\n      add\n        /* \"#utility.yul\":2190:2241   */\n      swap3\n      swap1\n      swap3\n      mstore\n        /* \"contracts/TradingAccount.sol\":3681:3705  uint256 cTokenBalanceNew */\n      0x00\n      swap2\n      sub(shl(0xa0, 0x01), 0x01)\n        /* \"contracts/TradingAccount.sol\":3715:3719  cETH */\n      swap1\n      swap2\n      and\n      swap1\n        /* \"contracts/TradingAccount.sol\":3708:3730  IERC20(cETH).balanceOf */\n      0x70a08231\n      swap1\n        /* \"#utility.yul\":2163:2181   */\n      0x24\n      add\n        /* \"contracts/TradingAccount.sol\":3708:3745  IERC20(cETH).balanceOf(address(this)) */\n      0x20\n      mload(0x40)\n      dup1\n      dup4\n      sub\n      dup2\n      dup7\n      gas\n      staticcall\n      iszero\n      dup1\n      iszero\n      tag_448\n      jumpi\n      returndatacopy(0x00, 0x00, returndatasize)\n      revert(0x00, returndatasize)\n    tag_448:\n      pop\n      pop\n      pop\n      pop\n      mload(0x40)\n      returndatasize\n      not(0x1f)\n      0x1f\n      dup3\n      add\n      and\n      dup3\n      add\n      dup1\n      0x40\n      mstore\n      pop\n      dup2\n      add\n      swap1\n      tag_449\n      swap2\n      swap1\n      tag_211\n      jump\t// in\n    tag_449:\n        /* \"contracts/TradingAccount.sol\":3681:3745  uint256 cTokenBalanceNew = IERC20(cETH).balanceOf(address(this)) */\n      swap1\n      pop\n        /* \"contracts/TradingAccount.sol\":3786:3802  cTokenBalanceNew */\n      dup1\n        /* \"contracts/TradingAccount.sol\":3768:3783  lastCEthBalance */\n      sload(0x11)\n        /* \"contracts/TradingAccount.sol\":3768:3802  lastCEthBalance - cTokenBalanceNew */\n      tag_450\n      swap2\n      swap1\n      tag_298\n      jump\t// in\n    tag_450:\n        /* \"contracts/TradingAccount.sol\":3812:3827  lastCEthBalance */\n      0x11\n        /* \"contracts/TradingAccount.sol\":3812:3846  lastCEthBalance = cTokenBalanceNew */\n      dup3\n      swap1\n      sstore\n        /* \"contracts/TradingAccount.sol\":3755:3802  cEthAmount = lastCEthBalance - cTokenBalanceNew */\n      swap3\n      pop\n        /* \"contracts/TradingAccount.sol\":3868:3889  address(this).balance */\n      selfbalance\n      swap2\n      pop\n        /* \"contracts/TradingAccount.sol\":3900:3965  TransferHelper.safeTransferETH(msg.sender, address(this).balance) */\n      tag_451\n        /* \"contracts/TradingAccount.sol\":3931:3941  msg.sender */\n      caller\n        /* \"contracts/TradingAccount.sol\":3943:3964  address(this).balance */\n      selfbalance\n        /* \"contracts/TradingAccount.sol\":3900:3930  TransferHelper.safeTransferETH */\n      tag_452\n        /* \"contracts/TradingAccount.sol\":3900:3965  TransferHelper.safeTransferETH(msg.sender, address(this).balance) */\n      jump\t// in\n    tag_451:\n        /* \"contracts/TradingAccount.sol\":3980:4017  Withdraw(true, cEthAmount, ethAmount) */\n      0x40\n      dup1\n      mload\n        /* \"contracts/TradingAccount.sol\":3989:3993  true */\n      0x01\n        /* \"#utility.yul\":10566:10607   */\n      dup2\n      mstore\n        /* \"#utility.yul\":10638:10640   */\n      0x20\n        /* \"#utility.yul\":10623:10641   */\n      dup2\n      add\n        /* \"#utility.yul\":10616:10650   */\n      dup6\n      swap1\n      mstore\n        /* \"#utility.yul\":10666:10684   */\n      swap1\n      dup2\n      add\n        /* \"#utility.yul\":10659:10693   */\n      dup4\n      swap1\n      mstore\n        /* \"contracts/TradingAccount.sol\":3980:4017  Withdraw(true, cEthAmount, ethAmount) */\n      0xfedb0622d5d5fa46cc706a5c2c169f2bf2eb31a59ff2f70cef3096376f58c2c0\n      swap1\n        /* \"#utility.yul\":10554:10556   */\n      0x60\n        /* \"#utility.yul\":10539:10557   */\n      add\n        /* \"contracts/TradingAccount.sol\":3980:4017  Withdraw(true, cEthAmount, ethAmount) */\n      tag_339\n        /* \"#utility.yul\":10370:10699   */\n      jump\n        /* \"contracts/TradingAccount.sol\":5039:5132  function openShort(uint256 usdcSize) external onlyOwner {... */\n    tag_155:\n        /* \"contracts/base/Ownable.sol\":356:369  _checkOwner() */\n      tag_455\n        /* \"contracts/base/Ownable.sol\":356:367  _checkOwner */\n      tag_173\n        /* \"contracts/base/Ownable.sol\":356:369  _checkOwner() */\n      jump\t// in\n    tag_455:\n        /* \"contracts/TradingAccount.sol\":5105:5125  _openShort(usdcSize) */\n      tag_378\n        /* \"contracts/TradingAccount.sol\":5116:5124  usdcSize */\n      dup2\n        /* \"contracts/TradingAccount.sol\":5105:5115  _openShort */\n      tag_421\n        /* \"contracts/TradingAccount.sol\":5105:5125  _openShort(usdcSize) */\n      jump\t// in\n        /* \"contracts/TradingAccount.sol\":6296:7450  function closeShort(uint256 ethAmount, bool closeAll) ... */\n    tag_159:\n        /* \"contracts/TradingAccount.sol\":6406:6425  uint256 repayAmount */\n      0x00\n        /* \"contracts/base/Ownable.sol\":356:369  _checkOwner() */\n      tag_459\n        /* \"contracts/base/Ownable.sol\":356:367  _checkOwner */\n      tag_173\n        /* \"contracts/base/Ownable.sol\":356:369  _checkOwner() */\n      jump\t// in\n    tag_459:\n        /* \"contracts/TradingAccount.sol\":6473:6477  cETH */\n      0x04\n      dup1\n      sload\n        /* \"contracts/TradingAccount.sol\":6465:6535  ICEther(cETH).borrowBalanceStored(... */\n      mload(0x40)\n      shl(0xe0, 0x95dd9193)\n      dup2\n      mstore\n        /* \"contracts/TradingAccount.sol\":6520:6524  this */\n      address\n        /* \"contracts/TradingAccount.sol\":6465:6535  ICEther(cETH).borrowBalanceStored(... */\n      swap3\n      dup2\n      add\n        /* \"#utility.yul\":2190:2241   */\n      swap3\n      swap1\n      swap3\n      mstore\n        /* \"contracts/TradingAccount.sol\":6441:6462  uint256 borrowBalance */\n      0x00\n      swap2\n      sub(shl(0xa0, 0x01), 0x01)\n        /* \"contracts/TradingAccount.sol\":6473:6477  cETH */\n      swap1\n      swap2\n      and\n      swap1\n        /* \"contracts/TradingAccount.sol\":6465:6498  ICEther(cETH).borrowBalanceStored */\n      0x95dd9193\n      swap1\n        /* \"#utility.yul\":2163:2181   */\n      0x24\n      add\n        /* \"contracts/TradingAccount.sol\":6465:6535  ICEther(cETH).borrowBalanceStored(... */\n      0x20\n      mload(0x40)\n      dup1\n      dup4\n      sub\n      dup2\n      dup7\n      gas\n      staticcall\n      iszero\n      dup1\n      iszero\n      tag_463\n      jumpi\n      returndatacopy(0x00, 0x00, returndatasize)\n      revert(0x00, returndatasize)\n    tag_463:\n      pop\n      pop\n      pop\n      pop\n      mload(0x40)\n      returndatasize\n      not(0x1f)\n      0x1f\n      dup3\n      add\n      and\n      dup3\n      add\n      dup1\n      0x40\n      mstore\n      pop\n      dup2\n      add\n      swap1\n      tag_464\n      swap2\n      swap1\n      tag_211\n      jump\t// in\n    tag_464:\n        /* \"contracts/TradingAccount.sol\":6441:6535  uint256 borrowBalance = ICEther(cETH).borrowBalanceStored(... */\n      swap1\n      pop\n        /* \"contracts/TradingAccount.sol\":6559:6567  closeAll */\n      dup3\n        /* \"contracts/TradingAccount.sol\":6559:6595  closeAll ? borrowBalance : ethAmount */\n      tag_465\n      jumpi\n        /* \"contracts/TradingAccount.sol\":6586:6595  ethAmount */\n      dup4\n        /* \"contracts/TradingAccount.sol\":6559:6595  closeAll ? borrowBalance : ethAmount */\n      jump(tag_466)\n    tag_465:\n        /* \"contracts/TradingAccount.sol\":6570:6583  borrowBalance */\n      dup1\n        /* \"contracts/TradingAccount.sol\":6559:6595  closeAll ? borrowBalance : ethAmount */\n    tag_466:\n        /* \"contracts/TradingAccount.sol\":6545:6595  repayAmount = closeAll ? borrowBalance : ethAmount */\n      swap2\n      pop\n        /* \"contracts/TradingAccount.sol\":6606:6620  address token0 */\n      0x00\n        /* \"contracts/TradingAccount.sol\":6638:6651  uniswapV2Pair */\n      0x03\n      0x00\n      swap1\n      sload\n      swap1\n      0x0100\n      exp\n      swap1\n      div\n      sub(shl(0xa0, 0x01), 0x01)\n      and\n      sub(shl(0xa0, 0x01), 0x01)\n        /* \"contracts/TradingAccount.sol\":6623:6659  IUniswapV2Pair(uniswapV2Pair).token0 */\n      and\n      0x0dfe1681\n        /* \"contracts/TradingAccount.sol\":6623:6661  IUniswapV2Pair(uniswapV2Pair).token0() */\n      mload(0x40)\n      dup2\n      0xffffffff\n      and\n      0xe0\n      shl\n      dup2\n      mstore\n      0x04\n      add\n      0x20\n      mload(0x40)\n      dup1\n      dup4\n      sub\n      dup2\n      dup7\n      gas\n      staticcall\n      iszero\n      dup1\n      iszero\n      tag_468\n      jumpi\n      returndatacopy(0x00, 0x00, returndatasize)\n      revert(0x00, returndatasize)\n    tag_468:\n      pop\n      pop\n      pop\n      pop\n      mload(0x40)\n      returndatasize\n      not(0x1f)\n      0x1f\n      dup3\n      add\n      and\n      dup3\n      add\n      dup1\n      0x40\n      mstore\n      pop\n      dup2\n      add\n      swap1\n      tag_469\n      swap2\n      swap1\n      tag_186\n      jump\t// in\n    tag_469:\n        /* \"contracts/TradingAccount.sol\":6741:6745  weth */\n      sload(0x01)\n        /* \"contracts/TradingAccount.sol\":6606:6661  address token0 = IUniswapV2Pair(uniswapV2Pair).token0() */\n      swap1\n      swap2\n      pop\n        /* \"contracts/TradingAccount.sol\":6671:6689  uint256 amount0Out */\n      0x00\n      swap1\n      dup2\n      swap1\n      sub(shl(0xa0, 0x01), 0x01)\n        /* \"contracts/TradingAccount.sol\":6741:6745  weth */\n      swap1\n      dup2\n      and\n        /* \"contracts/TradingAccount.sol\":6731:6745  token0 == weth */\n      swap1\n      dup5\n      and\n      sub\n        /* \"contracts/TradingAccount.sol\":6727:6851  if (token0 == weth) {... */\n      tag_470\n      jumpi\n        /* \"contracts/TradingAccount.sol\":6774:6785  repayAmount */\n      dup5\n        /* \"contracts/TradingAccount.sol\":6761:6785  amount0Out = repayAmount */\n      swap2\n      pop\n        /* \"contracts/TradingAccount.sol\":6727:6851  if (token0 == weth) {... */\n      jump(tag_471)\n    tag_470:\n      pop\n        /* \"contracts/TradingAccount.sol\":6829:6840  repayAmount */\n      dup4\n        /* \"contracts/TradingAccount.sol\":6727:6851  if (token0 == weth) {... */\n    tag_471:\n        /* \"contracts/TradingAccount.sol\":6873:6924  TempParams(false, true, 0, 0, 0, 0, 0, repayAmount) */\n      0x40\n      dup1\n      mload\n      0x0100\n      dup1\n      dup3\n      add\n      dup4\n      mstore\n      0x00\n      dup1\n      dup4\n      mstore\n      0x01\n      0x20\n      dup5\n      add\n      mstore\n      dup3\n      dup5\n      add\n      dup2\n      swap1\n      mstore\n      0x60\n      dup4\n      add\n      dup2\n      swap1\n      mstore\n      0x80\n      dup4\n      add\n      dup2\n      swap1\n      mstore\n      0xa0\n      dup4\n      add\n      dup2\n      swap1\n      mstore\n      0xc0\n      dup4\n      add\n      dup2\n      swap1\n      mstore\n      0xe0\n      swap1\n      swap3\n      add\n      dup9\n      swap1\n      mstore\n        /* \"contracts/TradingAccount.sol\":6860:6870  tempParams */\n      0x0a\n        /* \"contracts/TradingAccount.sol\":6860:6924  tempParams = TempParams(false, true, 0, 0, 0, 0, 0, repayAmount) */\n      dup1\n      sload\n      not(0xffff)\n      and\n      swap1\n      swap2\n      or\n      swap1\n      sstore\n      0x0b\n      dup2\n      swap1\n      sstore\n      0x0c\n      dup2\n      swap1\n      sstore\n      0x0d\n      dup2\n      swap1\n      sstore\n      0x0e\n      dup2\n      swap1\n      sstore\n      0x0f\n      sstore\n      0x10\n      dup7\n      swap1\n      sstore\n      0x03\n        /* \"contracts/TradingAccount.sol\":6949:6962  uniswapV2Pair */\n      sload\n        /* \"contracts/TradingAccount.sol\":6934:7075  IUniswapV2Pair(uniswapV2Pair).swap(... */\n      swap1\n      mload\n      shl(0xe0, 0x022c0d9f)\n      dup2\n      mstore\n      sub(shl(0xa0, 0x01), 0x01)\n        /* \"contracts/TradingAccount.sol\":6949:6962  uniswapV2Pair */\n      swap1\n      swap2\n      and\n      swap1\n        /* \"contracts/TradingAccount.sol\":6934:6968  IUniswapV2Pair(uniswapV2Pair).swap */\n      0x022c0d9f\n      swap1\n        /* \"contracts/TradingAccount.sol\":6934:7075  IUniswapV2Pair(uniswapV2Pair).swap(... */\n      tag_472\n      swap1\n        /* \"contracts/TradingAccount.sol\":6982:6992  amount0Out */\n      dup6\n      swap1\n        /* \"contracts/TradingAccount.sol\":7006:7016  amount1Out */\n      dup6\n      swap1\n        /* \"contracts/TradingAccount.sol\":7038:7042  this */\n      address\n      swap1\n        /* \"contracts/TradingAccount.sol\":6860:6924  tempParams = TempParams(false, true, 0, 0, 0, 0, 0, repayAmount) */\n      0x04\n        /* \"contracts/TradingAccount.sol\":6934:7075  IUniswapV2Pair(uniswapV2Pair).swap(... */\n      add\n      tag_289\n      jump\t// in\n    tag_472:\n      0x00\n      mload(0x40)\n      dup1\n      dup4\n      sub\n      dup2\n      0x00\n      dup8\n      dup1\n      extcodesize\n      iszero\n      dup1\n      iszero\n      tag_473\n      jumpi\n      revert(0x00, 0x00)\n    tag_473:\n      pop\n      gas\n      call\n      iszero\n      dup1\n      iszero\n      tag_475\n      jumpi\n      returndatacopy(0x00, 0x00, returndatasize)\n      revert(0x00, returndatasize)\n    tag_475:\n      pop\n      pop\n        /* \"contracts/TradingAccount.sol\":7119:7124  cUSDC */\n      sload(0x05)\n        /* \"contracts/TradingAccount.sol\":7112:7150  IERC20(cUSDC).balanceOf(address(this)) */\n      mload(0x40)\n      shl(0xe0, 0x70a08231)\n      dup2\n      mstore\n        /* \"contracts/TradingAccount.sol\":7144:7148  this */\n      address\n        /* \"contracts/TradingAccount.sol\":7112:7150  IERC20(cUSDC).balanceOf(address(this)) */\n      0x04\n      dup3\n      add\n        /* \"#utility.yul\":2190:2241   */\n      mstore\n        /* \"contracts/TradingAccount.sol\":7085:7109  uint256 cTokenBalanceNew */\n      0x00\n      swap4\n      pop\n      sub(shl(0xa0, 0x01), 0x01)\n        /* \"contracts/TradingAccount.sol\":7119:7124  cUSDC */\n      swap1\n      swap2\n      and\n      swap2\n      pop\n        /* \"contracts/TradingAccount.sol\":7112:7135  IERC20(cUSDC).balanceOf */\n      0x70a08231\n      swap1\n        /* \"#utility.yul\":2163:2181   */\n      0x24\n      add\n        /* \"contracts/TradingAccount.sol\":7112:7150  IERC20(cUSDC).balanceOf(address(this)) */\n      0x20\n      mload(0x40)\n      dup1\n      dup4\n      sub\n      dup2\n      dup7\n      gas\n      staticcall\n      iszero\n      dup1\n      iszero\n      tag_478\n      jumpi\n      returndatacopy(0x00, 0x00, returndatasize)\n      revert(0x00, returndatasize)\n    tag_478:\n      pop\n      pop\n      pop\n      pop\n      mload(0x40)\n      returndatasize\n      not(0x1f)\n      0x1f\n      dup3\n      add\n      and\n      dup3\n      add\n      dup1\n      0x40\n      mstore\n      pop\n      dup2\n      add\n      swap1\n      tag_479\n      swap2\n      swap1\n      tag_211\n      jump\t// in\n    tag_479:\n        /* \"contracts/TradingAccount.sol\":7085:7150  uint256 cTokenBalanceNew = IERC20(cUSDC).balanceOf(address(this)) */\n      swap1\n      pop\n        /* \"contracts/TradingAccount.sol\":7160:7181  uint256 redeemdCToken */\n      0x00\n        /* \"contracts/TradingAccount.sol\":7203:7219  cTokenBalanceNew */\n      dup2\n        /* \"contracts/TradingAccount.sol\":7184:7200  lastCUsdcBalance */\n      sload(0x12)\n        /* \"contracts/TradingAccount.sol\":7184:7219  lastCUsdcBalance - cTokenBalanceNew */\n      tag_480\n      swap2\n      swap1\n      tag_298\n      jump\t// in\n    tag_480:\n        /* \"contracts/TradingAccount.sol\":7229:7245  lastCUsdcBalance */\n      0x12\n        /* \"contracts/TradingAccount.sol\":7229:7264  lastCUsdcBalance = cTokenBalanceNew */\n      dup4\n      swap1\n      sstore\n        /* \"contracts/TradingAccount.sol\":7330:7359  tempParams.underlyingRedeemed */\n      sload(0x0f)\n        /* \"contracts/TradingAccount.sol\":7279:7416  CloseShort(... */\n      0x40\n      dup1\n      mload\n        /* \"#utility.yul\":9786:9811   */\n      dup4\n      dup2\n      mstore\n        /* \"#utility.yul\":9842:9844   */\n      0x20\n        /* \"#utility.yul\":9827:9845   */\n      dup2\n      add\n        /* \"#utility.yul\":9820:9854   */\n      swap3\n      swap1\n      swap3\n      mstore\n        /* \"#utility.yul\":9870:9888   */\n      dup2\n      add\n        /* \"#utility.yul\":9863:9897   */\n      dup10\n      swap1\n      mstore\n        /* \"#utility.yul\":9940:9954   */\n      dup10\n      iszero\n        /* \"#utility.yul\":9933:9955   */\n      iszero\n        /* \"#utility.yul\":9928:9930   */\n      0x60\n        /* \"#utility.yul\":9913:9931   */\n      dup3\n      add\n        /* \"#utility.yul\":9906:9956   */\n      mstore\n        /* \"contracts/TradingAccount.sol\":7160:7219  uint256 redeemdCToken = lastCUsdcBalance - cTokenBalanceNew */\n      swap1\n      swap2\n      pop\n        /* \"contracts/TradingAccount.sol\":7279:7416  CloseShort(... */\n      0x78ce03753721a9db485dbe4101e71eb7c530f35bf14365d3b53e0465bc54c0c5\n      swap1\n        /* \"#utility.yul\":9773:9776   */\n      0x80\n        /* \"#utility.yul\":9758:9777   */\n      add\n        /* \"contracts/TradingAccount.sol\":7279:7416  CloseShort(... */\n      tag_299\n        /* \"#utility.yul\":9561:9962   */\n      jump\n        /* \"contracts/base/Ownable.sol\":727:925  function transferOwnership(address newOwner) public virtual onlyOwner {... */\n    tag_165:\n        /* \"contracts/base/Ownable.sol\":356:369  _checkOwner() */\n      tag_483\n        /* \"contracts/base/Ownable.sol\":356:367  _checkOwner */\n      tag_173\n        /* \"contracts/base/Ownable.sol\":356:369  _checkOwner() */\n      jump\t// in\n    tag_483:\n      sub(shl(0xa0, 0x01), 0x01)\n        /* \"contracts/base/Ownable.sol\":815:837  newOwner != address(0) */\n      dup2\n      and\n        /* \"contracts/base/Ownable.sol\":807:880  require(newOwner != address(0), \"Ownable: new owner is the zero address\") */\n      tag_485\n      jumpi\n      mload(0x40)\n      shl(0xe5, 0x461bcd)\n      dup2\n      mstore\n        /* \"#utility.yul\":16624:16626   */\n      0x20\n        /* \"contracts/base/Ownable.sol\":807:880  require(newOwner != address(0), \"Ownable: new owner is the zero address\") */\n      0x04\n      dup3\n      add\n        /* \"#utility.yul\":16606:16627   */\n      mstore\n        /* \"#utility.yul\":16663:16665   */\n      0x26\n        /* \"#utility.yul\":16643:16661   */\n      0x24\n      dup3\n      add\n        /* \"#utility.yul\":16636:16666   */\n      mstore\n        /* \"#utility.yul\":16702:16736   */\n      0x4f776e61626c653a206e6577206f776e657220697320746865207a65726f2061\n        /* \"#utility.yul\":16682:16700   */\n      0x44\n      dup3\n      add\n        /* \"#utility.yul\":16675:16737   */\n      mstore\n      shl(0xd0, 0x646472657373)\n        /* \"#utility.yul\":16753:16771   */\n      0x64\n      dup3\n      add\n        /* \"#utility.yul\":16746:16782   */\n      mstore\n        /* \"#utility.yul\":16799:16818   */\n      0x84\n      add\n        /* \"contracts/base/Ownable.sol\":807:880  require(newOwner != address(0), \"Ownable: new owner is the zero address\") */\n      tag_181\n        /* \"#utility.yul\":16422:16824   */\n      jump\n        /* \"contracts/base/Ownable.sol\":807:880  require(newOwner != address(0), \"Ownable: new owner is the zero address\") */\n    tag_485:\n        /* \"contracts/base/Ownable.sol\":890:918  _transferOwnership(newOwner) */\n      tag_378\n        /* \"contracts/base/Ownable.sol\":909:917  newOwner */\n      dup2\n        /* \"contracts/base/Ownable.sol\":890:908  _transferOwnership */\n      tag_305\n        /* \"contracts/base/Ownable.sol\":890:918  _transferOwnership(newOwner) */\n      jump\t// in\n        /* \"contracts/TradingAccount.sol\":2179:2559  function depositETH() external payable onlyOwner {... */\n    tag_167:\n        /* \"contracts/base/Ownable.sol\":356:369  _checkOwner() */\n      tag_490\n        /* \"contracts/base/Ownable.sol\":356:367  _checkOwner */\n      tag_173\n        /* \"contracts/base/Ownable.sol\":356:369  _checkOwner() */\n      jump\t// in\n    tag_490:\n        /* \"contracts/TradingAccount.sol\":2289:2293  cETH */\n      0x04\n      dup1\n      sload\n        /* \"contracts/TradingAccount.sol\":2281:2323  ICEther(cETH).mint{value: depositAmount}() */\n      0x40\n      dup1\n      mload\n      shl(0xe0, 0x1249c58b)\n      dup2\n      mstore\n      swap1\n      mload\n        /* \"contracts/TradingAccount.sol\":2262:2271  msg.value */\n      callvalue\n      swap4\n      sub(shl(0xa0, 0x01), 0x01)\n        /* \"contracts/TradingAccount.sol\":2289:2293  cETH */\n      swap1\n      swap4\n      and\n      swap3\n        /* \"contracts/TradingAccount.sol\":2281:2299  ICEther(cETH).mint */\n      0x1249c58b\n      swap3\n        /* \"contracts/TradingAccount.sol\":2262:2271  msg.value */\n      dup6\n      swap3\n        /* \"contracts/TradingAccount.sol\":2281:2323  ICEther(cETH).mint{value: depositAmount}() */\n      dup2\n      dup4\n      add\n      swap3\n        /* \"contracts/TradingAccount.sol\":2238:2259  uint256 depositAmount */\n      0x00\n      swap3\n        /* \"contracts/TradingAccount.sol\":2281:2323  ICEther(cETH).mint{value: depositAmount}() */\n      dup3\n      swap1\n      sub\n      add\n      dup2\n        /* \"contracts/TradingAccount.sol\":2262:2271  msg.value */\n      dup6\n        /* \"contracts/TradingAccount.sol\":2289:2293  cETH */\n      dup9\n        /* \"contracts/TradingAccount.sol\":2281:2323  ICEther(cETH).mint{value: depositAmount}() */\n      dup1\n      extcodesize\n      iszero\n      dup1\n      iszero\n      tag_492\n      jumpi\n      revert(0x00, 0x00)\n    tag_492:\n      pop\n      gas\n      call\n      iszero\n      dup1\n      iszero\n      tag_494\n      jumpi\n      returndatacopy(0x00, 0x00, returndatasize)\n      revert(0x00, returndatasize)\n    tag_494:\n      pop\n      pop\n        /* \"contracts/TradingAccount.sol\":2362:2366  cETH */\n      0x04\n      dup1\n      sload\n        /* \"contracts/TradingAccount.sol\":2355:2392  IERC20(cETH).balanceOf(address(this)) */\n      mload(0x40)\n      shl(0xe0, 0x70a08231)\n      dup2\n      mstore\n        /* \"contracts/TradingAccount.sol\":2386:2390  this */\n      address\n        /* \"contracts/TradingAccount.sol\":2355:2392  IERC20(cETH).balanceOf(address(this)) */\n      swap3\n      dup2\n      add\n        /* \"#utility.yul\":2190:2241   */\n      swap3\n      swap1\n      swap3\n      mstore\n        /* \"contracts/TradingAccount.sol\":2333:2352  uint256 cEthBalance */\n      0x00\n      swap5\n      pop\n      sub(shl(0xa0, 0x01), 0x01)\n        /* \"contracts/TradingAccount.sol\":2362:2366  cETH */\n      and\n      swap3\n      pop\n        /* \"contracts/TradingAccount.sol\":2355:2377  IERC20(cETH).balanceOf */\n      0x70a08231\n      swap2\n      pop\n        /* \"#utility.yul\":2163:2181   */\n      0x24\n      add\n        /* \"contracts/TradingAccount.sol\":2355:2392  IERC20(cETH).balanceOf(address(this)) */\n      0x20\n      mload(0x40)\n      dup1\n      dup4\n      sub\n      dup2\n      dup7\n      gas\n      staticcall\n      iszero\n      dup1\n      iszero\n      tag_497\n      jumpi\n      returndatacopy(0x00, 0x00, returndatasize)\n      revert(0x00, returndatasize)\n    tag_497:\n      pop\n      pop\n      pop\n      pop\n      mload(0x40)\n      returndatasize\n      not(0x1f)\n      0x1f\n      dup3\n      add\n      and\n      dup3\n      add\n      dup1\n      0x40\n      mstore\n      pop\n      dup2\n      add\n      swap1\n      tag_498\n      swap2\n      swap1\n      tag_211\n      jump\t// in\n    tag_498:\n        /* \"contracts/TradingAccount.sol\":2333:2392  uint256 cEthBalance = IERC20(cETH).balanceOf(address(this)) */\n      swap1\n      pop\n        /* \"contracts/TradingAccount.sol\":2402:2423  uint256 cEthAmountGet */\n      0x00\n        /* \"contracts/TradingAccount.sol\":2440:2455  lastCEthBalance */\n      sload(0x11)\n        /* \"contracts/TradingAccount.sol\":2426:2437  cEthBalance */\n      dup3\n        /* \"contracts/TradingAccount.sol\":2426:2455  cEthBalance - lastCEthBalance */\n      tag_499\n      swap2\n      swap1\n      tag_298\n      jump\t// in\n    tag_499:\n        /* \"contracts/TradingAccount.sol\":2465:2480  lastCEthBalance */\n      0x11\n        /* \"contracts/TradingAccount.sol\":2465:2494  lastCEthBalance = cEthBalance */\n      dup4\n      swap1\n      sstore\n        /* \"contracts/TradingAccount.sol\":2509:2552  Deposit(true, depositAmount, cEthAmountGet) */\n      0x40\n      dup1\n      mload\n        /* \"contracts/TradingAccount.sol\":2517:2521  true */\n      0x01\n        /* \"#utility.yul\":10566:10607   */\n      dup2\n      mstore\n        /* \"#utility.yul\":10638:10640   */\n      0x20\n        /* \"#utility.yul\":10623:10641   */\n      dup2\n      add\n        /* \"#utility.yul\":10616:10650   */\n      dup7\n      swap1\n      mstore\n        /* \"#utility.yul\":10666:10684   */\n      swap1\n      dup2\n      add\n        /* \"#utility.yul\":10659:10693   */\n      dup3\n      swap1\n      mstore\n        /* \"contracts/TradingAccount.sol\":2402:2455  uint256 cEthAmountGet = cEthBalance - lastCEthBalance */\n      swap1\n      swap2\n      pop\n        /* \"contracts/TradingAccount.sol\":2509:2552  Deposit(true, depositAmount, cEthAmountGet) */\n      0x1c49111414d8cd618ba259b16508c34541a4f27a1e3c4372c0f358d5086652bd\n      swap1\n        /* \"#utility.yul\":10554:10556   */\n      0x60\n        /* \"#utility.yul\":10539:10557   */\n      add\n        /* \"contracts/TradingAccount.sol\":2509:2552  Deposit(true, depositAmount, cEthAmountGet) */\n      tag_339\n        /* \"#utility.yul\":10370:10699   */\n      jump\n        /* \"contracts/TradingAccount.sol\":2565:3138  function depositUSDC(uint256 amount) external payable onlyOwner {... */\n    tag_170:\n        /* \"contracts/base/Ownable.sol\":356:369  _checkOwner() */\n      tag_502\n        /* \"contracts/base/Ownable.sol\":356:367  _checkOwner */\n      tag_173\n        /* \"contracts/base/Ownable.sol\":356:369  _checkOwner() */\n      jump\t// in\n    tag_502:\n        /* \"contracts/TradingAccount.sol\":2684:2688  usdc */\n      sload(0x02)\n        /* \"contracts/TradingAccount.sol\":2639:2769  TransferHelper.safeTransferFrom(... */\n      tag_504\n      swap1\n      sub(shl(0xa0, 0x01), 0x01)\n        /* \"contracts/TradingAccount.sol\":2684:2688  usdc */\n      and\n        /* \"contracts/TradingAccount.sol\":2702:2712  msg.sender */\n      caller\n        /* \"contracts/TradingAccount.sol\":2734:2738  this */\n      address\n        /* \"contracts/TradingAccount.sol\":2753:2759  amount */\n      dup5\n        /* \"contracts/TradingAccount.sol\":2639:2670  TransferHelper.safeTransferFrom */\n      tag_505\n        /* \"contracts/TradingAccount.sol\":2639:2769  TransferHelper.safeTransferFrom(... */\n      jump\t// in\n    tag_504:\n        /* \"contracts/TradingAccount.sol\":2786:2790  usdc */\n      sload(0x02)\n        /* \"contracts/TradingAccount.sol\":2800:2805  cUSDC */\n      sload(0x05)\n        /* \"contracts/TradingAccount.sol\":2779:2814  IERC20(usdc).approve(cUSDC, amount) */\n      mload(0x40)\n      shl(0xe0, 0x095ea7b3)\n      dup2\n      mstore\n      sub(shl(0xa0, 0x01), 0x01)\n        /* \"contracts/TradingAccount.sol\":2800:2805  cUSDC */\n      swap2\n      dup3\n      and\n        /* \"contracts/TradingAccount.sol\":2779:2814  IERC20(usdc).approve(cUSDC, amount) */\n      0x04\n      dup3\n      add\n        /* \"#utility.yul\":17003:17054   */\n      mstore\n        /* \"#utility.yul\":17070:17088   */\n      0x24\n      dup2\n      add\n        /* \"#utility.yul\":17063:17097   */\n      dup5\n      swap1\n      mstore\n        /* \"contracts/TradingAccount.sol\":2786:2790  usdc */\n      swap2\n      and\n      swap1\n        /* \"contracts/TradingAccount.sol\":2779:2799  IERC20(usdc).approve */\n      0x095ea7b3\n      swap1\n        /* \"#utility.yul\":16976:16994   */\n      0x44\n      add\n        /* \"contracts/TradingAccount.sol\":2779:2814  IERC20(usdc).approve(cUSDC, amount) */\n      0x20\n      mload(0x40)\n      dup1\n      dup4\n      sub\n      dup2\n      0x00\n      dup8\n      gas\n      call\n      iszero\n      dup1\n      iszero\n      tag_509\n      jumpi\n      returndatacopy(0x00, 0x00, returndatasize)\n      revert(0x00, returndatasize)\n    tag_509:\n      pop\n      pop\n      pop\n      pop\n      mload(0x40)\n      returndatasize\n      not(0x1f)\n      0x1f\n      dup3\n      add\n      and\n      dup3\n      add\n      dup1\n      0x40\n      mstore\n      pop\n      dup2\n      add\n      swap1\n      tag_510\n      swap2\n      swap1\n      tag_511\n      jump\t// in\n    tag_510:\n      pop\n        /* \"contracts/TradingAccount.sol\":2862:2867  cUSDC */\n      sload(0x05)\n        /* \"contracts/TradingAccount.sol\":2854:2881  ICERC20(cUSDC).mint(amount) */\n      mload(0x40)\n      shl(0xe3, 0x140e25ad)\n      dup2\n      mstore\n      0x04\n      dup2\n      add\n        /* \"#utility.yul\":1041:1066   */\n      dup4\n      swap1\n      mstore\n      sub(shl(0xa0, 0x01), 0x01)\n        /* \"contracts/TradingAccount.sol\":2862:2867  cUSDC */\n      swap1\n      swap2\n      and\n      swap1\n        /* \"contracts/TradingAccount.sol\":2854:2873  ICERC20(cUSDC).mint */\n      0xa0712d68\n      swap1\n        /* \"#utility.yul\":1014:1032   */\n      0x24\n      add\n        /* \"contracts/TradingAccount.sol\":2854:2881  ICERC20(cUSDC).mint(amount) */\n      0x20\n      mload(0x40)\n      dup1\n      dup4\n      sub\n      dup2\n      0x00\n      dup8\n      gas\n      call\n      iszero\n      dup1\n      iszero\n      tag_514\n      jumpi\n      returndatacopy(0x00, 0x00, returndatasize)\n      revert(0x00, returndatasize)\n    tag_514:\n      pop\n      pop\n      pop\n      pop\n      mload(0x40)\n      returndatasize\n      not(0x1f)\n      0x1f\n      dup3\n      add\n      and\n      dup3\n      add\n      dup1\n      0x40\n      mstore\n      pop\n      dup2\n      add\n      swap1\n      tag_515\n      swap2\n      swap1\n      tag_211\n      jump\t// in\n    tag_515:\n        /* \"contracts/TradingAccount.sol\":2854:2886  ICERC20(cUSDC).mint(amount) == 0 */\n      iszero\n        /* \"contracts/TradingAccount.sol\":2846:2901  require(ICERC20(cUSDC).mint(amount) == 0, \"mint error\") */\n      tag_516\n      jumpi\n      mload(0x40)\n      shl(0xe5, 0x461bcd)\n      dup2\n      mstore\n        /* \"#utility.yul\":7902:7904   */\n      0x20\n        /* \"contracts/TradingAccount.sol\":2846:2901  require(ICERC20(cUSDC).mint(amount) == 0, \"mint error\") */\n      0x04\n      dup3\n      add\n        /* \"#utility.yul\":7884:7905   */\n      mstore\n        /* \"#utility.yul\":7941:7943   */\n      0x0a\n        /* \"#utility.yul\":7921:7939   */\n      0x24\n      dup3\n      add\n        /* \"#utility.yul\":7914:7944   */\n      mstore\n      shl(0xb1, 0x36b4b73a1032b93937b9)\n        /* \"#utility.yul\":7960:7978   */\n      0x44\n      dup3\n      add\n        /* \"#utility.yul\":7953:7993   */\n      mstore\n        /* \"#utility.yul\":8010:8028   */\n      0x64\n      add\n        /* \"contracts/TradingAccount.sol\":2846:2901  require(ICERC20(cUSDC).mint(amount) == 0, \"mint error\") */\n      tag_181\n        /* \"#utility.yul\":7700:8034   */\n      jump\n        /* \"contracts/TradingAccount.sol\":2846:2901  require(ICERC20(cUSDC).mint(amount) == 0, \"mint error\") */\n    tag_516:\n        /* \"contracts/TradingAccount.sol\":2941:2946  cUSDC */\n      sload(0x05)\n        /* \"contracts/TradingAccount.sol\":2934:2972  IERC20(cUSDC).balanceOf(address(this)) */\n      mload(0x40)\n      shl(0xe0, 0x70a08231)\n      dup2\n      mstore\n        /* \"contracts/TradingAccount.sol\":2966:2970  this */\n      address\n        /* \"contracts/TradingAccount.sol\":2934:2972  IERC20(cUSDC).balanceOf(address(this)) */\n      0x04\n      dup3\n      add\n        /* \"#utility.yul\":2190:2241   */\n      mstore\n        /* \"contracts/TradingAccount.sol\":2911:2931  uint256 cUsdcBalance */\n      0x00\n      swap2\n      sub(shl(0xa0, 0x01), 0x01)\n        /* \"contracts/TradingAccount.sol\":2941:2946  cUSDC */\n      and\n      swap1\n        /* \"contracts/TradingAccount.sol\":2934:2957  IERC20(cUSDC).balanceOf */\n      0x70a08231\n      swap1\n        /* \"#utility.yul\":2163:2181   */\n      0x24\n      add\n        /* \"contracts/TradingAccount.sol\":2934:2972  IERC20(cUSDC).balanceOf(address(this)) */\n      0x20\n      mload(0x40)\n      dup1\n      dup4\n      sub\n      dup2\n      dup7\n      gas\n      staticcall\n      iszero\n      dup1\n      iszero\n      tag_520\n      jumpi\n      returndatacopy(0x00, 0x00, returndatasize)\n      revert(0x00, returndatasize)\n    tag_520:\n      pop\n      pop\n      pop\n      pop\n      mload(0x40)\n      returndatasize\n      not(0x1f)\n      0x1f\n      dup3\n      add\n      and\n      dup3\n      add\n      dup1\n      0x40\n      mstore\n      pop\n      dup2\n      add\n      swap1\n      tag_521\n      swap2\n      swap1\n      tag_211\n      jump\t// in\n    tag_521:\n        /* \"contracts/TradingAccount.sol\":2911:2972  uint256 cUsdcBalance = IERC20(cUSDC).balanceOf(address(this)) */\n      swap1\n      pop\n        /* \"contracts/TradingAccount.sol\":2982:3004  uint256 cUsdcAmountGet */\n      0x00\n        /* \"contracts/TradingAccount.sol\":3022:3038  lastCUsdcBalance */\n      sload(0x12)\n        /* \"contracts/TradingAccount.sol\":3007:3019  cUsdcBalance */\n      dup3\n        /* \"contracts/TradingAccount.sol\":3007:3038  cUsdcBalance - lastCUsdcBalance */\n      tag_522\n      swap2\n      swap1\n      tag_298\n      jump\t// in\n    tag_522:\n        /* \"contracts/TradingAccount.sol\":3048:3063  lastCEthBalance */\n      0x11\n        /* \"contracts/TradingAccount.sol\":3048:3078  lastCEthBalance = cUsdcBalance */\n      dup4\n      swap1\n      sstore\n        /* \"contracts/TradingAccount.sol\":3093:3131  Deposit(false, amount, cUsdcAmountGet) */\n      0x40\n      dup1\n      mload\n        /* \"contracts/TradingAccount.sol\":3101:3106  false */\n      0x00\n        /* \"#utility.yul\":10566:10607   */\n      dup2\n      mstore\n        /* \"#utility.yul\":10638:10640   */\n      0x20\n        /* \"#utility.yul\":10623:10641   */\n      dup2\n      add\n        /* \"#utility.yul\":10616:10650   */\n      dup7\n      swap1\n      mstore\n        /* \"#utility.yul\":10666:10684   */\n      swap1\n      dup2\n      add\n        /* \"#utility.yul\":10659:10693   */\n      dup3\n      swap1\n      mstore\n        /* \"contracts/TradingAccount.sol\":2982:3038  uint256 cUsdcAmountGet = cUsdcBalance - lastCUsdcBalance */\n      swap1\n      swap2\n      pop\n        /* \"contracts/TradingAccount.sol\":3093:3131  Deposit(false, amount, cUsdcAmountGet) */\n      0x1c49111414d8cd618ba259b16508c34541a4f27a1e3c4372c0f358d5086652bd\n      swap1\n        /* \"#utility.yul\":10554:10556   */\n      0x60\n        /* \"#utility.yul\":10539:10557   */\n      add\n        /* \"contracts/TradingAccount.sol\":3093:3131  Deposit(false, amount, cUsdcAmountGet) */\n      tag_339\n        /* \"#utility.yul\":10370:10699   */\n      jump\n        /* \"contracts/base/Ownable.sol\":484:614  function _checkOwner() internal view virtual {... */\n    tag_173:\n        /* \"contracts/base/Ownable.sol\":439:446  address */\n      0x00\n        /* \"contracts/base/Ownable.sol\":465:471  _owner */\n      sload\n      sub(shl(0xa0, 0x01), 0x01)\n      and\n        /* \"contracts/base/Context.sol\":182:192  msg.sender */\n      caller\n        /* \"contracts/base/Ownable.sol\":547:570  owner() == _msgSender() */\n      eq\n        /* \"contracts/base/Ownable.sol\":539:607  require(owner() == _msgSender(), \"Ownable: caller is not the owner\") */\n      tag_304\n      jumpi\n      mload(0x40)\n      shl(0xe5, 0x461bcd)\n      dup2\n      mstore\n        /* \"#utility.yul\":17560:17562   */\n      0x20\n        /* \"contracts/base/Ownable.sol\":539:607  require(owner() == _msgSender(), \"Ownable: caller is not the owner\") */\n      0x04\n      dup3\n      add\n        /* \"#utility.yul\":17542:17563   */\n      dup2\n      swap1\n      mstore\n        /* \"#utility.yul\":17579:17597   */\n      0x24\n      dup3\n      add\n        /* \"#utility.yul\":17572:17602   */\n      mstore\n        /* \"#utility.yul\":17638:17672   */\n      0x4f776e61626c653a2063616c6c6572206973206e6f7420746865206f776e6572\n        /* \"#utility.yul\":17618:17636   */\n      0x44\n      dup3\n      add\n        /* \"#utility.yul\":17611:17673   */\n      mstore\n        /* \"#utility.yul\":17690:17708   */\n      0x64\n      add\n        /* \"contracts/base/Ownable.sol\":539:607  require(owner() == _msgSender(), \"Ownable: caller is not the owner\") */\n      tag_181\n        /* \"#utility.yul\":17358:17714   */\n      jump\n        /* \"contracts/TradingAccount.sol\":13946:14827  function _newLimitOrder(... */\n    tag_176:\n        /* \"contracts/TradingAccount.sol\":14119:14134  uint256 orderId */\n      0x00\n        /* \"contracts/TradingAccount.sol\":14165:14180  block.timestamp */\n      timestamp\n        /* \"contracts/TradingAccount.sol\":14154:14162  expireAt */\n      dup4\n        /* \"contracts/TradingAccount.sol\":14154:14180  expireAt > block.timestamp */\n      gt\n        /* \"contracts/TradingAccount.sol\":14146:14212  require(expireAt > block.timestamp, \"expireAt <= block.timestamp\") */\n      tag_532\n      jumpi\n      mload(0x40)\n      shl(0xe5, 0x461bcd)\n      dup2\n      mstore\n        /* \"#utility.yul\":17921:17923   */\n      0x20\n        /* \"contracts/TradingAccount.sol\":14146:14212  require(expireAt > block.timestamp, \"expireAt <= block.timestamp\") */\n      0x04\n      dup3\n      add\n        /* \"#utility.yul\":17903:17924   */\n      mstore\n        /* \"#utility.yul\":17960:17962   */\n      0x1b\n        /* \"#utility.yul\":17940:17958   */\n      0x24\n      dup3\n      add\n        /* \"#utility.yul\":17933:17963   */\n      mstore\n        /* \"#utility.yul\":17999:18028   */\n      0x6578706972654174203c3d20626c6f636b2e74696d657374616d700000000000\n        /* \"#utility.yul\":17979:17997   */\n      0x44\n      dup3\n      add\n        /* \"#utility.yul\":17972:18029   */\n      mstore\n        /* \"#utility.yul\":18046:18064   */\n      0x64\n      add\n        /* \"contracts/TradingAccount.sol\":14146:14212  require(expireAt > block.timestamp, \"expireAt <= block.timestamp\") */\n      tag_181\n        /* \"#utility.yul\":17719:18070   */\n      jump\n        /* \"contracts/TradingAccount.sol\":14146:14212  require(expireAt > block.timestamp, \"expireAt <= block.timestamp\") */\n    tag_532:\n        /* \"contracts/TradingAccount.sol\":14226:14232  isLong */\n      dup6\n        /* \"contracts/TradingAccount.sol\":14222:14424  if (isLong) {... */\n      iszero\n      tag_535\n      jumpi\n        /* \"contracts/TradingAccount.sol\":14269:14285  getLatestPrice() */\n      tag_536\n        /* \"contracts/TradingAccount.sol\":14269:14283  getLatestPrice */\n      tag_122\n        /* \"contracts/TradingAccount.sol\":14269:14285  getLatestPrice() */\n      jump\t// in\n    tag_536:\n        /* \"contracts/TradingAccount.sol\":14256:14266  limitPrice */\n      dup5\n        /* \"contracts/TradingAccount.sol\":14256:14285  limitPrice < getLatestPrice() */\n      lt\n        /* \"contracts/TradingAccount.sol\":14248:14315  require(limitPrice < getLatestPrice(), \"limitPrice >= latestPrice\") */\n      tag_537\n      jumpi\n      mload(0x40)\n      shl(0xe5, 0x461bcd)\n      dup2\n      mstore\n        /* \"#utility.yul\":18277:18279   */\n      0x20\n        /* \"contracts/TradingAccount.sol\":14248:14315  require(limitPrice < getLatestPrice(), \"limitPrice >= latestPrice\") */\n      0x04\n      dup3\n      add\n        /* \"#utility.yul\":18259:18280   */\n      mstore\n        /* \"#utility.yul\":18316:18318   */\n      0x19\n        /* \"#utility.yul\":18296:18314   */\n      0x24\n      dup3\n      add\n        /* \"#utility.yul\":18289:18319   */\n      mstore\n        /* \"#utility.yul\":18355:18382   */\n      0x6c696d69745072696365203e3d206c6174657374507269636500000000000000\n        /* \"#utility.yul\":18335:18353   */\n      0x44\n      dup3\n      add\n        /* \"#utility.yul\":18328:18383   */\n      mstore\n        /* \"#utility.yul\":18400:18418   */\n      0x64\n      add\n        /* \"contracts/TradingAccount.sol\":14248:14315  require(limitPrice < getLatestPrice(), \"limitPrice >= latestPrice\") */\n      tag_181\n        /* \"#utility.yul\":18075:18424   */\n      jump\n        /* \"contracts/TradingAccount.sol\":14248:14315  require(limitPrice < getLatestPrice(), \"limitPrice >= latestPrice\") */\n    tag_537:\n        /* \"contracts/TradingAccount.sol\":14222:14424  if (isLong) {... */\n      jump(tag_542)\n    tag_535:\n        /* \"contracts/TradingAccount.sol\":14367:14383  getLatestPrice() */\n      tag_541\n        /* \"contracts/TradingAccount.sol\":14367:14381  getLatestPrice */\n      tag_122\n        /* \"contracts/TradingAccount.sol\":14367:14383  getLatestPrice() */\n      jump\t// in\n    tag_541:\n        /* \"contracts/TradingAccount.sol\":14354:14364  limitPrice */\n      dup5\n        /* \"contracts/TradingAccount.sol\":14354:14383  limitPrice > getLatestPrice() */\n      gt\n        /* \"contracts/TradingAccount.sol\":14346:14413  require(limitPrice > getLatestPrice(), \"limitPrice <= latestPrice\") */\n      tag_542\n      jumpi\n      mload(0x40)\n      shl(0xe5, 0x461bcd)\n      dup2\n      mstore\n        /* \"#utility.yul\":18631:18633   */\n      0x20\n        /* \"contracts/TradingAccount.sol\":14346:14413  require(limitPrice > getLatestPrice(), \"limitPrice <= latestPrice\") */\n      0x04\n      dup3\n      add\n        /* \"#utility.yul\":18613:18634   */\n      mstore\n        /* \"#utility.yul\":18670:18672   */\n      0x19\n        /* \"#utility.yul\":18650:18668   */\n      0x24\n      dup3\n      add\n        /* \"#utility.yul\":18643:18673   */\n      mstore\n        /* \"#utility.yul\":18709:18736   */\n      0x6c696d69745072696365203c3d206c6174657374507269636500000000000000\n        /* \"#utility.yul\":18689:18707   */\n      0x44\n      dup3\n      add\n        /* \"#utility.yul\":18682:18737   */\n      mstore\n        /* \"#utility.yul\":18754:18772   */\n      0x64\n      add\n        /* \"contracts/TradingAccount.sol\":14346:14413  require(limitPrice > getLatestPrice(), \"limitPrice <= latestPrice\") */\n      tag_181\n        /* \"#utility.yul\":18429:18778   */\n      jump\n        /* \"contracts/TradingAccount.sol\":14346:14413  require(limitPrice > getLatestPrice(), \"limitPrice <= latestPrice\") */\n    tag_542:\n        /* \"contracts/TradingAccount.sol\":14434:14457  LimitOrder memory order */\n      0x00\n        /* \"contracts/TradingAccount.sol\":14460:14695  LimitOrder({... */\n      mload(0x40)\n      dup1\n      0xe0\n      add\n      0x40\n      mstore\n      dup1\n        /* \"contracts/TradingAccount.sol\":14493:14499  isLong */\n      dup9\n        /* \"contracts/TradingAccount.sol\":14460:14695  LimitOrder({... */\n      iszero\n      iszero\n      dup2\n      mstore\n      0x20\n      add\n        /* \"contracts/TradingAccount.sol\":14525:14530  false */\n      0x00\n        /* \"contracts/TradingAccount.sol\":14460:14695  LimitOrder({... */\n      iszero\n      iszero\n      dup2\n      mstore\n      0x20\n      add\n        /* \"contracts/TradingAccount.sol\":14554:14562  openSize */\n      dup8\n        /* \"contracts/TradingAccount.sol\":14460:14695  LimitOrder({... */\n      dup2\n      mstore\n      0x20\n      add\n        /* \"contracts/TradingAccount.sol\":14588:14598  limitPrice */\n      dup7\n        /* \"contracts/TradingAccount.sol\":14460:14695  LimitOrder({... */\n      dup2\n      mstore\n      0x20\n      add\n        /* \"contracts/TradingAccount.sol\":14623:14624  0 */\n      0x00\n        /* \"contracts/TradingAccount.sol\":14460:14695  LimitOrder({... */\n      dup2\n      mstore\n      0x20\n      add\n        /* \"contracts/TradingAccount.sol\":14648:14656  expireAt */\n      dup6\n        /* \"contracts/TradingAccount.sol\":14460:14695  LimitOrder({... */\n      dup2\n      mstore\n      0x20\n      add\n        /* \"contracts/TradingAccount.sol\":14678:14684  keeper */\n      dup5\n      sub(shl(0xa0, 0x01), 0x01)\n        /* \"contracts/TradingAccount.sol\":14460:14695  LimitOrder({... */\n      and\n      dup2\n      mstore\n      pop\n        /* \"contracts/TradingAccount.sol\":14434:14695  LimitOrder memory order = LimitOrder({... */\n      swap1\n      pop\n        /* \"contracts/TradingAccount.sol\":14720:14721  1 */\n      0x01\n        /* \"contracts/TradingAccount.sol\":14705:14716  lastOrderId */\n      0x08\n      0x00\n        /* \"contracts/TradingAccount.sol\":14705:14721  lastOrderId += 1 */\n      dup3\n      dup3\n      sload\n      tag_545\n      swap2\n      swap1\n      tag_546\n      jump\t// in\n    tag_545:\n      swap1\n      swap2\n      sstore\n      pop\n      pop\n        /* \"contracts/TradingAccount.sol\":14745:14756  lastOrderId */\n      0x08\n      dup1\n      sload\n        /* \"contracts/TradingAccount.sol\":14731:14757  getLimitOrder[lastOrderId] */\n      0x00\n      swap1\n      dup2\n      mstore\n        /* \"contracts/TradingAccount.sol\":14731:14744  getLimitOrder */\n      0x09\n        /* \"contracts/TradingAccount.sol\":14731:14757  getLimitOrder[lastOrderId] */\n      0x20\n      swap1\n      dup2\n      mstore\n      0x40\n      swap2\n      dup3\n      swap1\n      keccak256\n        /* \"contracts/TradingAccount.sol\":14731:14765  getLimitOrder[lastOrderId] = order */\n      dup5\n      mload\n      dup2\n      sload\n      swap3\n      dup7\n      add\n      mload\n      not(0xffff)\n      swap1\n      swap4\n      and\n      swap1\n      iszero\n      iszero\n      not(0xff00)\n      and\n      or\n      0x0100\n      swap3\n      iszero\n      iszero\n      swap3\n      swap1\n      swap3\n      mul\n      swap2\n      swap1\n      swap2\n      or\n      dup2\n      sstore\n      swap1\n      dup4\n      add\n      mload\n      0x01\n      dup3\n      add\n      sstore\n      0x60\n      dup4\n      add\n      mload\n      0x02\n      dup3\n      add\n      sstore\n      0x80\n      dup4\n      add\n      mload\n      0x03\n      dup3\n      add\n      sstore\n      0xa0\n      dup4\n      add\n      mload\n      0x04\n      dup3\n      add\n      sstore\n      0xc0\n      swap1\n      swap3\n      add\n      mload\n      0x05\n      swap1\n      swap3\n      add\n      dup1\n      sload\n      not(sub(shl(0xa0, 0x01), 0x01))\n      and\n      sub(shl(0xa0, 0x01), 0x01)\n      swap1\n      swap4\n      and\n      swap3\n      swap1\n      swap3\n      or\n      swap1\n      swap2\n      sstore\n        /* \"contracts/TradingAccount.sol\":14785:14796  lastOrderId */\n      sload\n      swap7\n        /* \"contracts/TradingAccount.sol\":13946:14827  function _newLimitOrder(... */\n      swap6\n      pop\n      pop\n      pop\n      pop\n      pop\n      pop\n      jump\t// out\n        /* \"contracts/TradingAccount.sol\":15333:15779  function _getAmountIn(... */\n    tag_197:\n        /* \"contracts/TradingAccount.sol\":15458:15471  uint amountIn */\n      0x00\n        /* \"contracts/TradingAccount.sol\":15503:15504  0 */\n      0x00\n        /* \"contracts/TradingAccount.sol\":15491:15500  amountOut */\n      dup5\n        /* \"contracts/TradingAccount.sol\":15491:15504  amountOut > 0 */\n      gt\n        /* \"contracts/TradingAccount.sol\":15483:15535  require(amountOut > 0, \"INSUFFICIENT_OUTPUT_AMOUNT\") */\n      tag_548\n      jumpi\n      mload(0x40)\n      shl(0xe5, 0x461bcd)\n      dup2\n      mstore\n        /* \"#utility.yul\":19115:19117   */\n      0x20\n        /* \"contracts/TradingAccount.sol\":15483:15535  require(amountOut > 0, \"INSUFFICIENT_OUTPUT_AMOUNT\") */\n      0x04\n      dup3\n      add\n        /* \"#utility.yul\":19097:19118   */\n      mstore\n        /* \"#utility.yul\":19154:19156   */\n      0x1a\n        /* \"#utility.yul\":19134:19152   */\n      0x24\n      dup3\n      add\n        /* \"#utility.yul\":19127:19157   */\n      mstore\n        /* \"#utility.yul\":19193:19221   */\n      0x494e53554646494349454e545f4f55545055545f414d4f554e54000000000000\n        /* \"#utility.yul\":19173:19191   */\n      0x44\n      dup3\n      add\n        /* \"#utility.yul\":19166:19222   */\n      mstore\n        /* \"#utility.yul\":19239:19257   */\n      0x64\n      add\n        /* \"contracts/TradingAccount.sol\":15483:15535  require(amountOut > 0, \"INSUFFICIENT_OUTPUT_AMOUNT\") */\n      tag_181\n        /* \"#utility.yul\":18913:19263   */\n      jump\n        /* \"contracts/TradingAccount.sol\":15483:15535  require(amountOut > 0, \"INSUFFICIENT_OUTPUT_AMOUNT\") */\n    tag_548:\n        /* \"contracts/TradingAccount.sol\":15565:15566  0 */\n      0x00\n        /* \"contracts/TradingAccount.sol\":15553:15562  reserveIn */\n      dup4\n        /* \"contracts/TradingAccount.sol\":15553:15566  reserveIn > 0 */\n      gt\n        /* \"contracts/TradingAccount.sol\":15553:15584  reserveIn > 0 && reserveOut > 0 */\n      dup1\n      iszero\n      tag_551\n      jumpi\n      pop\n        /* \"contracts/TradingAccount.sol\":15583:15584  0 */\n      0x00\n        /* \"contracts/TradingAccount.sol\":15570:15580  reserveOut */\n      dup3\n        /* \"contracts/TradingAccount.sol\":15570:15584  reserveOut > 0 */\n      gt\n        /* \"contracts/TradingAccount.sol\":15553:15584  reserveIn > 0 && reserveOut > 0 */\n    tag_551:\n        /* \"contracts/TradingAccount.sol\":15545:15611  require(reserveIn > 0 && reserveOut > 0, \"INSUFFICIENT_LIQUIDITY\") */\n      tag_552\n      jumpi\n      mload(0x40)\n      shl(0xe5, 0x461bcd)\n      dup2\n      mstore\n        /* \"#utility.yul\":19470:19472   */\n      0x20\n        /* \"contracts/TradingAccount.sol\":15545:15611  require(reserveIn > 0 && reserveOut > 0, \"INSUFFICIENT_LIQUIDITY\") */\n      0x04\n      dup3\n      add\n        /* \"#utility.yul\":19452:19473   */\n      mstore\n        /* \"#utility.yul\":19509:19511   */\n      0x16\n        /* \"#utility.yul\":19489:19507   */\n      0x24\n      dup3\n      add\n        /* \"#utility.yul\":19482:19512   */\n      mstore\n      shl(0x50, 0x494e53554646494349454e545f4c4951554944495459)\n        /* \"#utility.yul\":19528:19546   */\n      0x44\n      dup3\n      add\n        /* \"#utility.yul\":19521:19573   */\n      mstore\n        /* \"#utility.yul\":19590:19608   */\n      0x64\n      add\n        /* \"contracts/TradingAccount.sol\":15545:15611  require(reserveIn > 0 && reserveOut > 0, \"INSUFFICIENT_LIQUIDITY\") */\n      tag_181\n        /* \"#utility.yul\":19268:19614   */\n      jump\n        /* \"contracts/TradingAccount.sol\":15545:15611  require(reserveIn > 0 && reserveOut > 0, \"INSUFFICIENT_LIQUIDITY\") */\n    tag_552:\n        /* \"contracts/TradingAccount.sol\":15621:15635  uint numerator */\n      0x00\n        /* \"contracts/TradingAccount.sol\":15638:15658  amountIn * amountOut */\n      tag_555\n        /* \"contracts/TradingAccount.sol\":15649:15658  amountOut */\n      dup6\n        /* \"contracts/TradingAccount.sol\":15638:15646  amountIn */\n      dup4\n        /* \"contracts/TradingAccount.sol\":15638:15658  amountIn * amountOut */\n      tag_556\n      jump\t// in\n    tag_555:\n        /* \"contracts/TradingAccount.sol\":15638:15665  amountIn * amountOut * 1000 */\n      tag_557\n      swap1\n        /* \"contracts/TradingAccount.sol\":15661:15665  1000 */\n      0x03e8\n        /* \"contracts/TradingAccount.sol\":15638:15665  amountIn * amountOut * 1000 */\n      tag_556\n      jump\t// in\n    tag_557:\n        /* \"contracts/TradingAccount.sol\":15621:15665  uint numerator = amountIn * amountOut * 1000 */\n      swap1\n      pop\n        /* \"contracts/TradingAccount.sol\":15675:15691  uint denominator */\n      0x00\n        /* \"contracts/TradingAccount.sol\":15695:15717  reserveOut - amountOut */\n      tag_558\n        /* \"contracts/TradingAccount.sol\":15708:15717  amountOut */\n      dup7\n        /* \"contracts/TradingAccount.sol\":15695:15705  reserveOut */\n      dup6\n        /* \"contracts/TradingAccount.sol\":15695:15717  reserveOut - amountOut */\n      tag_298\n      jump\t// in\n    tag_558:\n        /* \"contracts/TradingAccount.sol\":15694:15724  (reserveOut - amountOut) * 997 */\n      tag_559\n      swap1\n        /* \"contracts/TradingAccount.sol\":15721:15724  997 */\n      0x03e5\n        /* \"contracts/TradingAccount.sol\":15694:15724  (reserveOut - amountOut) * 997 */\n      tag_556\n      jump\t// in\n    tag_559:\n        /* \"contracts/TradingAccount.sol\":15675:15724  uint denominator = (reserveOut - amountOut) * 997 */\n      swap1\n      pop\n        /* \"contracts/TradingAccount.sol\":15745:15768  numerator / denominator */\n      tag_560\n        /* \"contracts/TradingAccount.sol\":15675:15724  uint denominator = (reserveOut - amountOut) * 997 */\n      dup2\n        /* \"contracts/TradingAccount.sol\":15745:15754  numerator */\n      dup4\n        /* \"contracts/TradingAccount.sol\":15745:15768  numerator / denominator */\n      tag_561\n      jump\t// in\n    tag_560:\n        /* \"contracts/TradingAccount.sol\":15745:15772  numerator / denominator + 1 */\n      tag_562\n      swap1\n        /* \"contracts/TradingAccount.sol\":15771:15772  1 */\n      0x01\n        /* \"contracts/TradingAccount.sol\":15745:15772  numerator / denominator + 1 */\n      tag_546\n      jump\t// in\n    tag_562:\n        /* \"contracts/TradingAccount.sol\":15734:15772  amountIn = numerator / denominator + 1 */\n      swap7\n        /* \"contracts/TradingAccount.sol\":15333:15779  function _getAmountIn(... */\n      swap6\n      pop\n      pop\n      pop\n      pop\n      pop\n      pop\n      jump\t// out\n        /* \"contracts/libraries/TransferHelper.sol\":658:1096  function safeTransfer(... */\n    tag_216:\n        /* \"contracts/libraries/TransferHelper.sol\":884:929  abi.encodeWithSelector(0xa9059cbb, to, value) */\n      0x40\n      dup1\n      mload\n      sub(shl(0xa0, 0x01), 0x01)\n        /* \"#utility.yul\":17021:17053   */\n      dup5\n      dup2\n      and\n        /* \"contracts/libraries/TransferHelper.sol\":884:929  abi.encodeWithSelector(0xa9059cbb, to, value) */\n      0x24\n      dup4\n      add\n        /* \"#utility.yul\":17003:17054   */\n      mstore\n        /* \"#utility.yul\":17070:17088   */\n      0x44\n      dup1\n      dup4\n      add\n        /* \"#utility.yul\":17063:17097   */\n      dup6\n      swap1\n      mstore\n        /* \"contracts/libraries/TransferHelper.sol\":884:929  abi.encodeWithSelector(0xa9059cbb, to, value) */\n      dup4\n      mload\n      dup1\n      dup5\n      sub\n      swap1\n      swap2\n      add\n      dup2\n      mstore\n        /* \"#utility.yul\":16976:16994   */\n      0x64\n      swap1\n      swap3\n      add\n        /* \"contracts/libraries/TransferHelper.sol\":884:929  abi.encodeWithSelector(0xa9059cbb, to, value) */\n      dup4\n      mstore\n      0x20\n      dup3\n      add\n      dup1\n      mload\n      sub(shl(0xe0, 0x01), 0x01)\n      and\n      shl(0xe0, 0xa9059cbb)\n      or\n      swap1\n      mstore\n        /* \"contracts/libraries/TransferHelper.sol\":873:930  token.call(abi.encodeWithSelector(0xa9059cbb, to, value)) */\n      swap2\n      mload\n      0x00\n      swap3\n      dup4\n      swap3\n        /* \"contracts/libraries/TransferHelper.sol\":873:883  token.call */\n      swap1\n      dup8\n      and\n      swap2\n        /* \"contracts/libraries/TransferHelper.sol\":873:930  token.call(abi.encodeWithSelector(0xa9059cbb, to, value)) */\n      tag_565\n      swap2\n        /* \"contracts/libraries/TransferHelper.sol\":884:929  abi.encodeWithSelector(0xa9059cbb, to, value) */\n      swap1\n        /* \"contracts/libraries/TransferHelper.sol\":873:930  token.call(abi.encodeWithSelector(0xa9059cbb, to, value)) */\n      tag_566\n      jump\t// in\n    tag_565:\n      0x00\n      mload(0x40)\n      dup1\n      dup4\n      sub\n      dup2\n      0x00\n      dup7\n      gas\n      call\n      swap2\n      pop\n      pop\n      returndatasize\n      dup1\n      0x00\n      dup2\n      eq\n      tag_569\n      jumpi\n      mload(0x40)\n      swap2\n      pop\n      and(add(returndatasize, 0x3f), not(0x1f))\n      dup3\n      add\n      0x40\n      mstore\n      returndatasize\n      dup3\n      mstore\n      returndatasize\n      0x00\n      0x20\n      dup5\n      add\n      returndatacopy\n      jump(tag_568)\n    tag_569:\n      0x60\n      swap2\n      pop\n    tag_568:\n      pop\n        /* \"contracts/libraries/TransferHelper.sol\":837:930  (bool success, bytes memory data) = token.call(abi.encodeWithSelector(0xa9059cbb, to, value)) */\n      swap2\n      pop\n      swap2\n      pop\n        /* \"contracts/libraries/TransferHelper.sol\":961:968  success */\n      dup2\n        /* \"contracts/libraries/TransferHelper.sol\":961:1018  success && (data.length == 0 || abi.decode(data, (bool))) */\n      dup1\n      iszero\n      tag_572\n      jumpi\n      pop\n        /* \"contracts/libraries/TransferHelper.sol\":973:984  data.length */\n      dup1\n      mload\n        /* \"contracts/libraries/TransferHelper.sol\":973:989  data.length == 0 */\n      iszero\n      dup1\n        /* \"contracts/libraries/TransferHelper.sol\":973:1017  data.length == 0 || abi.decode(data, (bool)) */\n      tag_572\n      jumpi\n      pop\n        /* \"contracts/libraries/TransferHelper.sol\":1004:1008  data */\n      dup1\n        /* \"contracts/libraries/TransferHelper.sol\":993:1017  abi.decode(data, (bool)) */\n      dup1\n      0x20\n      add\n      swap1\n      mload\n      dup2\n      add\n      swap1\n      tag_572\n      swap2\n      swap1\n      tag_511\n      jump\t// in\n    tag_572:\n        /* \"contracts/libraries/TransferHelper.sol\":940:1089  require(... */\n      tag_573\n      jumpi\n      mload(0x40)\n      shl(0xe5, 0x461bcd)\n      dup2\n      mstore\n        /* \"#utility.yul\":20522:20524   */\n      0x20\n        /* \"contracts/libraries/TransferHelper.sol\":940:1089  require(... */\n      0x04\n      dup3\n      add\n        /* \"#utility.yul\":20504:20525   */\n      mstore\n        /* \"#utility.yul\":20561:20563   */\n      0x2d\n        /* \"#utility.yul\":20541:20559   */\n      0x24\n      dup3\n      add\n        /* \"#utility.yul\":20534:20564   */\n      mstore\n        /* \"#utility.yul\":20600:20634   */\n      0x5472616e7366657248656c7065723a3a736166655472616e736665723a207472\n        /* \"#utility.yul\":20580:20598   */\n      0x44\n      dup3\n      add\n        /* \"#utility.yul\":20573:20635   */\n      mstore\n      shl(0x9a, 0x185b9cd9995c8819985a5b1959)\n        /* \"#utility.yul\":20651:20669   */\n      0x64\n      dup3\n      add\n        /* \"#utility.yul\":20644:20687   */\n      mstore\n        /* \"#utility.yul\":20704:20723   */\n      0x84\n      add\n        /* \"contracts/libraries/TransferHelper.sol\":940:1089  require(... */\n      tag_181\n        /* \"#utility.yul\":20320:20729   */\n      jump\n        /* \"contracts/libraries/TransferHelper.sol\":940:1089  require(... */\n    tag_573:\n        /* \"contracts/libraries/TransferHelper.sol\":761:1096  {... */\n      pop\n      pop\n        /* \"contracts/libraries/TransferHelper.sol\":658:1096  function safeTransfer(... */\n      pop\n      pop\n      pop\n      jump\t// out\n        /* \"contracts/libraries/TransferHelper.sol\":218:652  function safeApprove(... */\n    tag_219:\n        /* \"contracts/libraries/TransferHelper.sol\":442:487  abi.encodeWithSelector(0x095ea7b3, to, value) */\n      0x40\n      dup1\n      mload\n      sub(shl(0xa0, 0x01), 0x01)\n        /* \"#utility.yul\":17021:17053   */\n      dup5\n      dup2\n      and\n        /* \"contracts/libraries/TransferHelper.sol\":442:487  abi.encodeWithSelector(0x095ea7b3, to, value) */\n      0x24\n      dup4\n      add\n        /* \"#utility.yul\":17003:17054   */\n      mstore\n        /* \"#utility.yul\":17070:17088   */\n      0x44\n      dup1\n      dup4\n      add\n        /* \"#utility.yul\":17063:17097   */\n      dup6\n      swap1\n      mstore\n        /* \"contracts/libraries/TransferHelper.sol\":442:487  abi.encodeWithSelector(0x095ea7b3, to, value) */\n      dup4\n      mload\n      dup1\n      dup5\n      sub\n      swap1\n      swap2\n      add\n      dup2\n      mstore\n        /* \"#utility.yul\":16976:16994   */\n      0x64\n      swap1\n      swap3\n      add\n        /* \"contracts/libraries/TransferHelper.sol\":442:487  abi.encodeWithSelector(0x095ea7b3, to, value) */\n      dup4\n      mstore\n      0x20\n      dup3\n      add\n      dup1\n      mload\n      sub(shl(0xe0, 0x01), 0x01)\n      and\n      shl(0xe0, 0x095ea7b3)\n      or\n      swap1\n      mstore\n        /* \"contracts/libraries/TransferHelper.sol\":431:488  token.call(abi.encodeWithSelector(0x095ea7b3, to, value)) */\n      swap2\n      mload\n      0x00\n      swap3\n      dup4\n      swap3\n        /* \"contracts/libraries/TransferHelper.sol\":431:441  token.call */\n      swap1\n      dup8\n      and\n      swap2\n        /* \"contracts/libraries/TransferHelper.sol\":431:488  token.call(abi.encodeWithSelector(0x095ea7b3, to, value)) */\n      tag_578\n      swap2\n        /* \"contracts/libraries/TransferHelper.sol\":442:487  abi.encodeWithSelector(0x095ea7b3, to, value) */\n      swap1\n        /* \"contracts/libraries/TransferHelper.sol\":431:488  token.call(abi.encodeWithSelector(0x095ea7b3, to, value)) */\n      tag_566\n      jump\t// in\n    tag_578:\n      0x00\n      mload(0x40)\n      dup1\n      dup4\n      sub\n      dup2\n      0x00\n      dup7\n      gas\n      call\n      swap2\n      pop\n      pop\n      returndatasize\n      dup1\n      0x00\n      dup2\n      eq\n      tag_581\n      jumpi\n      mload(0x40)\n      swap2\n      pop\n      and(add(returndatasize, 0x3f), not(0x1f))\n      dup3\n      add\n      0x40\n      mstore\n      returndatasize\n      dup3\n      mstore\n      returndatasize\n      0x00\n      0x20\n      dup5\n      add\n      returndatacopy\n      jump(tag_580)\n    tag_581:\n      0x60\n      swap2\n      pop\n    tag_580:\n      pop\n        /* \"contracts/libraries/TransferHelper.sol\":395:488  (bool success, bytes memory data) = token.call(abi.encodeWithSelector(0x095ea7b3, to, value)) */\n      swap2\n      pop\n      swap2\n      pop\n        /* \"contracts/libraries/TransferHelper.sol\":519:526  success */\n      dup2\n        /* \"contracts/libraries/TransferHelper.sol\":519:576  success && (data.length == 0 || abi.decode(data, (bool))) */\n      dup1\n      iszero\n      tag_584\n      jumpi\n      pop\n        /* \"contracts/libraries/TransferHelper.sol\":531:542  data.length */\n      dup1\n      mload\n        /* \"contracts/libraries/TransferHelper.sol\":531:547  data.length == 0 */\n      iszero\n      dup1\n        /* \"contracts/libraries/TransferHelper.sol\":531:575  data.length == 0 || abi.decode(data, (bool)) */\n      tag_584\n      jumpi\n      pop\n        /* \"contracts/libraries/TransferHelper.sol\":562:566  data */\n      dup1\n        /* \"contracts/libraries/TransferHelper.sol\":551:575  abi.decode(data, (bool)) */\n      dup1\n      0x20\n      add\n      swap1\n      mload\n      dup2\n      add\n      swap1\n      tag_584\n      swap2\n      swap1\n      tag_511\n      jump\t// in\n    tag_584:\n        /* \"contracts/libraries/TransferHelper.sol\":498:645  require(... */\n      tag_573\n      jumpi\n      mload(0x40)\n      shl(0xe5, 0x461bcd)\n      dup2\n      mstore\n        /* \"#utility.yul\":20936:20938   */\n      0x20\n        /* \"contracts/libraries/TransferHelper.sol\":498:645  require(... */\n      0x04\n      dup3\n      add\n        /* \"#utility.yul\":20918:20939   */\n      mstore\n        /* \"#utility.yul\":20975:20977   */\n      0x2b\n        /* \"#utility.yul\":20955:20973   */\n      0x24\n      dup3\n      add\n        /* \"#utility.yul\":20948:20978   */\n      mstore\n        /* \"#utility.yul\":21014:21048   */\n      0x5472616e7366657248656c7065723a3a73616665417070726f76653a20617070\n        /* \"#utility.yul\":20994:21012   */\n      0x44\n      dup3\n      add\n        /* \"#utility.yul\":20987:21049   */\n      mstore\n      shl(0xaa, 0x1c9bdd994819985a5b1959)\n        /* \"#utility.yul\":21065:21083   */\n      0x64\n      dup3\n      add\n        /* \"#utility.yul\":21058:21099   */\n      mstore\n        /* \"#utility.yul\":21116:21135   */\n      0x84\n      add\n        /* \"contracts/libraries/TransferHelper.sol\":498:645  require(... */\n      tag_181\n        /* \"#utility.yul\":20734:21141   */\n      jump\n        /* \"contracts/base/Ownable.sol\":931:1118  function _transferOwnership(address newOwner) internal virtual {... */\n    tag_305:\n        /* \"contracts/base/Ownable.sol\":1004:1020  address oldOwner */\n      0x00\n        /* \"contracts/base/Ownable.sol\":1023:1029  _owner */\n      dup1\n      sload\n      sub(shl(0xa0, 0x01), 0x01)\n        /* \"contracts/base/Ownable.sol\":1039:1056  _owner = newOwner */\n      dup4\n      dup2\n      and\n      not(sub(shl(0xa0, 0x01), 0x01))\n      dup4\n      and\n      dup2\n      or\n      dup5\n      sstore\n        /* \"contracts/base/Ownable.sol\":1071:1111  OwnershipTransferred(oldOwner, newOwner) */\n      mload(0x40)\n        /* \"contracts/base/Ownable.sol\":1023:1029  _owner */\n      swap2\n      swap1\n      swap3\n      and\n      swap3\n      dup4\n      swap2\n        /* \"contracts/base/Ownable.sol\":1071:1111  OwnershipTransferred(oldOwner, newOwner) */\n      0x8be0079c531659141344cd1fd0a4f28419497f9722a3daafe3b4186f6b6457e0\n      swap2\n        /* \"contracts/base/Ownable.sol\":1004:1020  address oldOwner */\n      swap1\n        /* \"contracts/base/Ownable.sol\":1071:1111  OwnershipTransferred(oldOwner, newOwner) */\n      log3\n        /* \"contracts/base/Ownable.sol\":994:1118  {... */\n      pop\n        /* \"contracts/base/Ownable.sol\":931:1118  function _transferOwnership(address newOwner) internal virtual {... */\n      pop\n      jump\t// out\n        /* \"contracts/TradingAccount.sol\":12334:13126  function _openLong(uint256 ethSize) internal {... */\n    tag_379:\n        /* \"contracts/TradingAccount.sol\":12421:12434  uniswapV2Pair */\n      sload(0x03)\n        /* \"contracts/TradingAccount.sol\":12406:12444  IUniswapV2Pair(uniswapV2Pair).token0() */\n      0x40\n      dup1\n      mload\n      shl(0xe0, 0x0dfe1681)\n      dup2\n      mstore\n      swap1\n      mload\n        /* \"contracts/TradingAccount.sol\":12389:12403  address token0 */\n      0x00\n      swap3\n      sub(shl(0xa0, 0x01), 0x01)\n        /* \"contracts/TradingAccount.sol\":12421:12434  uniswapV2Pair */\n      and\n      swap2\n        /* \"contracts/TradingAccount.sol\":12406:12442  IUniswapV2Pair(uniswapV2Pair).token0 */\n      0x0dfe1681\n      swap2\n        /* \"contracts/TradingAccount.sol\":12406:12444  IUniswapV2Pair(uniswapV2Pair).token0() */\n      0x04\n      dup1\n      dup4\n      add\n      swap3\n      0x20\n      swap3\n      swap2\n      swap1\n      dup3\n      swap1\n      sub\n      add\n      dup2\n        /* \"contracts/TradingAccount.sol\":12421:12434  uniswapV2Pair */\n      dup7\n        /* \"contracts/TradingAccount.sol\":12406:12444  IUniswapV2Pair(uniswapV2Pair).token0() */\n      gas\n      staticcall\n      iszero\n      dup1\n      iszero\n      tag_592\n      jumpi\n      returndatacopy(0x00, 0x00, returndatasize)\n      revert(0x00, returndatasize)\n    tag_592:\n      pop\n      pop\n      pop\n      pop\n      mload(0x40)\n      returndatasize\n      not(0x1f)\n      0x1f\n      dup3\n      add\n      and\n      dup3\n      add\n      dup1\n      0x40\n      mstore\n      pop\n      dup2\n      add\n      swap1\n      tag_593\n      swap2\n      swap1\n      tag_186\n      jump\t// in\n    tag_593:\n        /* \"contracts/TradingAccount.sol\":12524:12528  weth */\n      sload(0x01)\n        /* \"contracts/TradingAccount.sol\":12389:12444  address token0 = IUniswapV2Pair(uniswapV2Pair).token0() */\n      swap1\n      swap2\n      pop\n        /* \"contracts/TradingAccount.sol\":12454:12472  uint256 amount0Out */\n      0x00\n      swap1\n      dup2\n      swap1\n      sub(shl(0xa0, 0x01), 0x01)\n        /* \"contracts/TradingAccount.sol\":12524:12528  weth */\n      swap1\n      dup2\n      and\n        /* \"contracts/TradingAccount.sol\":12514:12528  token0 == weth */\n      swap1\n      dup5\n      and\n      sub\n        /* \"contracts/TradingAccount.sol\":12510:12626  if (token0 == weth) {... */\n      tag_594\n      jumpi\n        /* \"contracts/TradingAccount.sol\":12557:12564  ethSize */\n      dup4\n        /* \"contracts/TradingAccount.sol\":12544:12564  amount0Out = ethSize */\n      swap2\n      pop\n        /* \"contracts/TradingAccount.sol\":12510:12626  if (token0 == weth) {... */\n      jump(tag_595)\n    tag_594:\n      pop\n        /* \"contracts/TradingAccount.sol\":12608:12615  ethSize */\n      dup3\n        /* \"contracts/TradingAccount.sol\":12510:12626  if (token0 == weth) {... */\n    tag_595:\n        /* \"contracts/TradingAccount.sol\":12649:12695  TempParams(true, true, ethSize, 0, 0, 0, 0, 0) */\n      0x40\n      dup1\n      mload\n      0x0100\n      dup2\n      add\n      dup3\n      mstore\n        /* \"contracts/TradingAccount.sol\":12660:12664  true */\n      0x01\n        /* \"contracts/TradingAccount.sol\":12649:12695  TempParams(true, true, ethSize, 0, 0, 0, 0, 0) */\n      dup1\n      dup3\n      mstore\n      0x20\n      dup3\n      add\n      mstore\n      dup1\n      dup3\n      add\n      dup7\n      swap1\n      mstore\n      0x00\n      0x60\n      dup3\n      add\n      dup2\n      swap1\n      mstore\n      0x80\n      dup3\n      add\n      dup2\n      swap1\n      mstore\n      0xa0\n      dup3\n      add\n      dup2\n      swap1\n      mstore\n      0xc0\n      dup3\n      add\n      dup2\n      swap1\n      mstore\n      0xe0\n      swap1\n      swap2\n      add\n      dup2\n      swap1\n      mstore\n        /* \"contracts/TradingAccount.sol\":12636:12646  tempParams */\n      0x0a\n        /* \"contracts/TradingAccount.sol\":12636:12695  tempParams = TempParams(true, true, ethSize, 0, 0, 0, 0, 0) */\n      dup1\n      sload\n      not(0xffff)\n      and\n      0x0101\n      or\n      swap1\n      sstore\n      0x0b\n      dup7\n      swap1\n      sstore\n      0x0c\n      dup2\n      swap1\n      sstore\n      0x0d\n      dup2\n      swap1\n      sstore\n      0x0e\n      dup2\n      swap1\n      sstore\n      0x0f\n      dup2\n      swap1\n      sstore\n      0x10\n      sstore\n      0x03\n        /* \"contracts/TradingAccount.sol\":12720:12733  uniswapV2Pair */\n      sload\n        /* \"contracts/TradingAccount.sol\":12705:12846  IUniswapV2Pair(uniswapV2Pair).swap(... */\n      swap1\n      mload\n      shl(0xe0, 0x022c0d9f)\n      dup2\n      mstore\n      sub(shl(0xa0, 0x01), 0x01)\n        /* \"contracts/TradingAccount.sol\":12720:12733  uniswapV2Pair */\n      swap1\n      swap2\n      and\n      swap1\n        /* \"contracts/TradingAccount.sol\":12705:12739  IUniswapV2Pair(uniswapV2Pair).swap */\n      0x022c0d9f\n      swap1\n        /* \"contracts/TradingAccount.sol\":12705:12846  IUniswapV2Pair(uniswapV2Pair).swap(... */\n      tag_596\n      swap1\n        /* \"contracts/TradingAccount.sol\":12753:12763  amount0Out */\n      dup6\n      swap1\n        /* \"contracts/TradingAccount.sol\":12777:12787  amount1Out */\n      dup6\n      swap1\n        /* \"contracts/TradingAccount.sol\":12809:12813  this */\n      address\n      swap1\n        /* \"contracts/TradingAccount.sol\":12636:12695  tempParams = TempParams(true, true, ethSize, 0, 0, 0, 0, 0) */\n      0x04\n        /* \"contracts/TradingAccount.sol\":12705:12846  IUniswapV2Pair(uniswapV2Pair).swap(... */\n      add\n      tag_289\n      jump\t// in\n    tag_596:\n      0x00\n      mload(0x40)\n      dup1\n      dup4\n      sub\n      dup2\n      0x00\n      dup8\n      dup1\n      extcodesize\n      iszero\n      dup1\n      iszero\n      tag_597\n      jumpi\n      revert(0x00, 0x00)\n    tag_597:\n      pop\n      gas\n      call\n      iszero\n      dup1\n      iszero\n      tag_599\n      jumpi\n      returndatacopy(0x00, 0x00, returndatasize)\n      revert(0x00, returndatasize)\n    tag_599:\n      pop\n      pop\n        /* \"contracts/TradingAccount.sol\":12886:12890  cETH */\n      0x04\n      dup1\n      sload\n        /* \"contracts/TradingAccount.sol\":12879:12916  IERC20(cETH).balanceOf(address(this)) */\n      mload(0x40)\n      shl(0xe0, 0x70a08231)\n      dup2\n      mstore\n        /* \"contracts/TradingAccount.sol\":12910:12914  this */\n      address\n        /* \"contracts/TradingAccount.sol\":12879:12916  IERC20(cETH).balanceOf(address(this)) */\n      swap3\n      dup2\n      add\n        /* \"#utility.yul\":2190:2241   */\n      swap3\n      swap1\n      swap3\n      mstore\n        /* \"contracts/TradingAccount.sol\":12857:12876  uint256 cEthBalance */\n      0x00\n      swap4\n      pop\n      sub(shl(0xa0, 0x01), 0x01)\n        /* \"contracts/TradingAccount.sol\":12886:12890  cETH */\n      and\n      swap2\n      pop\n        /* \"contracts/TradingAccount.sol\":12879:12901  IERC20(cETH).balanceOf */\n      0x70a08231\n      swap1\n        /* \"#utility.yul\":2163:2181   */\n      0x24\n      add\n        /* \"contracts/TradingAccount.sol\":12879:12916  IERC20(cETH).balanceOf(address(this)) */\n      0x20\n      mload(0x40)\n      dup1\n      dup4\n      sub\n      dup2\n      dup7\n      gas\n      staticcall\n      iszero\n      dup1\n      iszero\n      tag_602\n      jumpi\n      returndatacopy(0x00, 0x00, returndatasize)\n      revert(0x00, returndatasize)\n    tag_602:\n      pop\n      pop\n      pop\n      pop\n      mload(0x40)\n      returndatasize\n      not(0x1f)\n      0x1f\n      dup3\n      add\n      and\n      dup3\n      add\n      dup1\n      0x40\n      mstore\n      pop\n      dup2\n      add\n      swap1\n      tag_603\n      swap2\n      swap1\n      tag_211\n      jump\t// in\n    tag_603:\n        /* \"contracts/TradingAccount.sol\":12857:12916  uint256 cEthBalance = IERC20(cETH).balanceOf(address(this)) */\n      swap1\n      pop\n        /* \"contracts/TradingAccount.sol\":12926:12947  uint256 cEthAmountGet */\n      0x00\n        /* \"contracts/TradingAccount.sol\":12964:12979  lastCEthBalance */\n      sload(0x11)\n        /* \"contracts/TradingAccount.sol\":12950:12961  cEthBalance */\n      dup3\n        /* \"contracts/TradingAccount.sol\":12950:12979  cEthBalance - lastCEthBalance */\n      tag_604\n      swap2\n      swap1\n      tag_298\n      jump\t// in\n    tag_604:\n        /* \"contracts/TradingAccount.sol\":12989:13004  lastCEthBalance */\n      0x11\n        /* \"contracts/TradingAccount.sol\":12989:13018  lastCEthBalance = cEthBalance */\n      dup4\n      swap1\n      sstore\n        /* \"contracts/TradingAccount.sol\":13066:13091  tempParams.borrowedAmount */\n      sload(0x0c)\n        /* \"contracts/TradingAccount.sol\":13033:13092  OpenLong(ethSize, cEthAmountGet, tempParams.borrowedAmount) */\n      0x40\n      dup1\n      mload\n        /* \"#utility.yul\":21348:21373   */\n      dup10\n      dup2\n      mstore\n        /* \"#utility.yul\":21404:21406   */\n      0x20\n        /* \"#utility.yul\":21389:21407   */\n      dup2\n      add\n        /* \"#utility.yul\":21382:21416   */\n      dup5\n      swap1\n      mstore\n        /* \"#utility.yul\":21432:21450   */\n      swap1\n      dup2\n      add\n        /* \"#utility.yul\":21425:21459   */\n      swap2\n      swap1\n      swap2\n      mstore\n        /* \"contracts/TradingAccount.sol\":12926:12979  uint256 cEthAmountGet = cEthBalance - lastCEthBalance */\n      swap1\n      swap2\n      pop\n        /* \"contracts/TradingAccount.sol\":13033:13092  OpenLong(ethSize, cEthAmountGet, tempParams.borrowedAmount) */\n      0xefb1650edbd2ee9b7b1940e049e74fc26ce6f3d0f62f1a3f32e25397b4dffe3b\n      swap1\n        /* \"#utility.yul\":21336:21338   */\n      0x60\n        /* \"#utility.yul\":21321:21339   */\n      add\n        /* \"contracts/TradingAccount.sol\":13033:13092  OpenLong(ethSize, cEthAmountGet, tempParams.borrowedAmount) */\n    tag_605:\n      mload(0x40)\n      dup1\n      swap2\n      sub\n      swap1\n      log1\n      pop\n      pop\n        /* \"contracts/TradingAccount.sol\":13109:13119  tempParams */\n      0x0a\n        /* \"contracts/TradingAccount.sol\":13102:13119  delete tempParams */\n      dup1\n      sload\n      not(0xffff)\n      and\n      swap1\n      sstore\n      pop\n      pop\n        /* \"contracts/TradingAccount.sol\":13109:13119  tempParams */\n      0x00\n        /* \"contracts/TradingAccount.sol\":13102:13119  delete tempParams */\n      0x0b\n      dup2\n      swap1\n      sstore\n      0x0c\n      dup2\n      swap1\n      sstore\n      0x0d\n      dup2\n      swap1\n      sstore\n      0x0e\n      dup2\n      swap1\n      sstore\n      0x0f\n      dup2\n      swap1\n      sstore\n      0x10\n      sstore\n      pop\n      pop\n        /* \"contracts/TradingAccount.sol\":12334:13126  function _openLong(uint256 ethSize) internal {... */\n      jump\t// out\n        /* \"contracts/TradingAccount.sol\":13132:13940  function _openShort(uint256 usdcSize) internal {... */\n    tag_421:\n        /* \"contracts/TradingAccount.sol\":13221:13234  uniswapV2Pair */\n      sload(0x03)\n        /* \"contracts/TradingAccount.sol\":13206:13244  IUniswapV2Pair(uniswapV2Pair).token0() */\n      0x40\n      dup1\n      mload\n      shl(0xe0, 0x0dfe1681)\n      dup2\n      mstore\n      swap1\n      mload\n        /* \"contracts/TradingAccount.sol\":13189:13203  address token0 */\n      0x00\n      swap3\n      sub(shl(0xa0, 0x01), 0x01)\n        /* \"contracts/TradingAccount.sol\":13221:13234  uniswapV2Pair */\n      and\n      swap2\n        /* \"contracts/TradingAccount.sol\":13206:13242  IUniswapV2Pair(uniswapV2Pair).token0 */\n      0x0dfe1681\n      swap2\n        /* \"contracts/TradingAccount.sol\":13206:13244  IUniswapV2Pair(uniswapV2Pair).token0() */\n      0x04\n      dup1\n      dup4\n      add\n      swap3\n      0x20\n      swap3\n      swap2\n      swap1\n      dup3\n      swap1\n      sub\n      add\n      dup2\n        /* \"contracts/TradingAccount.sol\":13221:13234  uniswapV2Pair */\n      dup7\n        /* \"contracts/TradingAccount.sol\":13206:13244  IUniswapV2Pair(uniswapV2Pair).token0() */\n      gas\n      staticcall\n      iszero\n      dup1\n      iszero\n      tag_609\n      jumpi\n      returndatacopy(0x00, 0x00, returndatasize)\n      revert(0x00, returndatasize)\n    tag_609:\n      pop\n      pop\n      pop\n      pop\n      mload(0x40)\n      returndatasize\n      not(0x1f)\n      0x1f\n      dup3\n      add\n      and\n      dup3\n      add\n      dup1\n      0x40\n      mstore\n      pop\n      dup2\n      add\n      swap1\n      tag_610\n      swap2\n      swap1\n      tag_186\n      jump\t// in\n    tag_610:\n        /* \"contracts/TradingAccount.sol\":13324:13328  usdc */\n      sload(0x02)\n        /* \"contracts/TradingAccount.sol\":13189:13244  address token0 = IUniswapV2Pair(uniswapV2Pair).token0() */\n      swap1\n      swap2\n      pop\n        /* \"contracts/TradingAccount.sol\":13254:13272  uint256 amount0Out */\n      0x00\n      swap1\n      dup2\n      swap1\n      sub(shl(0xa0, 0x01), 0x01)\n        /* \"contracts/TradingAccount.sol\":13324:13328  usdc */\n      swap1\n      dup2\n      and\n        /* \"contracts/TradingAccount.sol\":13314:13328  token0 == usdc */\n      swap1\n      dup5\n      and\n      sub\n        /* \"contracts/TradingAccount.sol\":13310:13428  if (token0 == usdc) {... */\n      tag_611\n      jumpi\n        /* \"contracts/TradingAccount.sol\":13357:13365  usdcSize */\n      dup4\n        /* \"contracts/TradingAccount.sol\":13344:13365  amount0Out = usdcSize */\n      swap2\n      pop\n        /* \"contracts/TradingAccount.sol\":13310:13428  if (token0 == usdc) {... */\n      jump(tag_612)\n    tag_611:\n      pop\n        /* \"contracts/TradingAccount.sol\":13409:13417  usdcSize */\n      dup3\n        /* \"contracts/TradingAccount.sol\":13310:13428  if (token0 == usdc) {... */\n    tag_612:\n        /* \"contracts/TradingAccount.sol\":13451:13499  TempParams(true, false, usdcSize, 0, 0, 0, 0, 0) */\n      0x40\n      dup1\n      mload\n      0x0100\n      dup2\n      add\n      dup3\n      mstore\n        /* \"contracts/TradingAccount.sol\":13462:13466  true */\n      0x01\n        /* \"contracts/TradingAccount.sol\":13451:13499  TempParams(true, false, usdcSize, 0, 0, 0, 0, 0) */\n      dup1\n      dup3\n      mstore\n      0x00\n      0x20\n      dup4\n      add\n      dup2\n      swap1\n      mstore\n      dup3\n      dup5\n      add\n      dup9\n      swap1\n      mstore\n      0x60\n      dup4\n      add\n      dup2\n      swap1\n      mstore\n      0x80\n      dup4\n      add\n      dup2\n      swap1\n      mstore\n      0xa0\n      dup4\n      add\n      dup2\n      swap1\n      mstore\n      0xc0\n      dup4\n      add\n      dup2\n      swap1\n      mstore\n      0xe0\n      swap1\n      swap3\n      add\n      dup3\n      swap1\n      mstore\n        /* \"contracts/TradingAccount.sol\":13438:13448  tempParams */\n      0x0a\n        /* \"contracts/TradingAccount.sol\":13438:13499  tempParams = TempParams(true, false, usdcSize, 0, 0, 0, 0, 0) */\n      dup1\n      sload\n      not(0xffff)\n      and\n      swap1\n      swap2\n      or\n      swap1\n      sstore\n      0x0b\n      dup7\n      swap1\n      sstore\n      0x0c\n      dup2\n      swap1\n      sstore\n      0x0d\n      dup2\n      swap1\n      sstore\n      0x0e\n      dup2\n      swap1\n      sstore\n      0x0f\n      dup2\n      swap1\n      sstore\n      0x10\n      sstore\n      0x03\n        /* \"contracts/TradingAccount.sol\":13524:13537  uniswapV2Pair */\n      sload\n        /* \"contracts/TradingAccount.sol\":13509:13650  IUniswapV2Pair(uniswapV2Pair).swap(... */\n      swap1\n      mload\n      shl(0xe0, 0x022c0d9f)\n      dup2\n      mstore\n      sub(shl(0xa0, 0x01), 0x01)\n        /* \"contracts/TradingAccount.sol\":13524:13537  uniswapV2Pair */\n      swap1\n      swap2\n      and\n      swap1\n        /* \"contracts/TradingAccount.sol\":13509:13543  IUniswapV2Pair(uniswapV2Pair).swap */\n      0x022c0d9f\n      swap1\n        /* \"contracts/TradingAccount.sol\":13509:13650  IUniswapV2Pair(uniswapV2Pair).swap(... */\n      tag_613\n      swap1\n        /* \"contracts/TradingAccount.sol\":13557:13567  amount0Out */\n      dup6\n      swap1\n        /* \"contracts/TradingAccount.sol\":13581:13591  amount1Out */\n      dup6\n      swap1\n        /* \"contracts/TradingAccount.sol\":13613:13617  this */\n      address\n      swap1\n        /* \"contracts/TradingAccount.sol\":13438:13499  tempParams = TempParams(true, false, usdcSize, 0, 0, 0, 0, 0) */\n      0x04\n        /* \"contracts/TradingAccount.sol\":13509:13650  IUniswapV2Pair(uniswapV2Pair).swap(... */\n      add\n      tag_289\n      jump\t// in\n    tag_613:\n      0x00\n      mload(0x40)\n      dup1\n      dup4\n      sub\n      dup2\n      0x00\n      dup8\n      dup1\n      extcodesize\n      iszero\n      dup1\n      iszero\n      tag_614\n      jumpi\n      revert(0x00, 0x00)\n    tag_614:\n      pop\n      gas\n      call\n      iszero\n      dup1\n      iszero\n      tag_616\n      jumpi\n      returndatacopy(0x00, 0x00, returndatasize)\n      revert(0x00, returndatasize)\n    tag_616:\n      pop\n      pop\n        /* \"contracts/TradingAccount.sol\":13691:13696  cUSDC */\n      sload(0x05)\n        /* \"contracts/TradingAccount.sol\":13684:13722  IERC20(cUSDC).balanceOf(address(this)) */\n      mload(0x40)\n      shl(0xe0, 0x70a08231)\n      dup2\n      mstore\n        /* \"contracts/TradingAccount.sol\":13716:13720  this */\n      address\n        /* \"contracts/TradingAccount.sol\":13684:13722  IERC20(cUSDC).balanceOf(address(this)) */\n      0x04\n      dup3\n      add\n        /* \"#utility.yul\":2190:2241   */\n      mstore\n        /* \"contracts/TradingAccount.sol\":13661:13681  uint256 cUsdcBalance */\n      0x00\n      swap4\n      pop\n      sub(shl(0xa0, 0x01), 0x01)\n        /* \"contracts/TradingAccount.sol\":13691:13696  cUSDC */\n      swap1\n      swap2\n      and\n      swap2\n      pop\n        /* \"contracts/TradingAccount.sol\":13684:13707  IERC20(cUSDC).balanceOf */\n      0x70a08231\n      swap1\n        /* \"#utility.yul\":2163:2181   */\n      0x24\n      add\n        /* \"contracts/TradingAccount.sol\":13684:13722  IERC20(cUSDC).balanceOf(address(this)) */\n      0x20\n      mload(0x40)\n      dup1\n      dup4\n      sub\n      dup2\n      dup7\n      gas\n      staticcall\n      iszero\n      dup1\n      iszero\n      tag_619\n      jumpi\n      returndatacopy(0x00, 0x00, returndatasize)\n      revert(0x00, returndatasize)\n    tag_619:\n      pop\n      pop\n      pop\n      pop\n      mload(0x40)\n      returndatasize\n      not(0x1f)\n      0x1f\n      dup3\n      add\n      and\n      dup3\n      add\n      dup1\n      0x40\n      mstore\n      pop\n      dup2\n      add\n      swap1\n      tag_620\n      swap2\n      swap1\n      tag_211\n      jump\t// in\n    tag_620:\n        /* \"contracts/TradingAccount.sol\":13661:13722  uint256 cUsdcBalance = IERC20(cUSDC).balanceOf(address(this)) */\n      swap1\n      pop\n        /* \"contracts/TradingAccount.sol\":13732:13754  uint256 cUsdcAmountGet */\n      0x00\n        /* \"contracts/TradingAccount.sol\":13772:13788  lastCUsdcBalance */\n      sload(0x12)\n        /* \"contracts/TradingAccount.sol\":13757:13769  cUsdcBalance */\n      dup3\n        /* \"contracts/TradingAccount.sol\":13757:13788  cUsdcBalance - lastCUsdcBalance */\n      tag_621\n      swap2\n      swap1\n      tag_298\n      jump\t// in\n    tag_621:\n        /* \"contracts/TradingAccount.sol\":13798:13814  lastCUsdcBalance */\n      0x12\n        /* \"contracts/TradingAccount.sol\":13798:13829  lastCUsdcBalance = cUsdcBalance */\n      dup4\n      swap1\n      sstore\n        /* \"contracts/TradingAccount.sol\":13880:13905  tempParams.borrowedAmount */\n      sload(0x0c)\n        /* \"contracts/TradingAccount.sol\":13844:13906  OpenShort(usdcSize, cUsdcAmountGet, tempParams.borrowedAmount) */\n      0x40\n      dup1\n      mload\n        /* \"#utility.yul\":21348:21373   */\n      dup10\n      dup2\n      mstore\n        /* \"#utility.yul\":21404:21406   */\n      0x20\n        /* \"#utility.yul\":21389:21407   */\n      dup2\n      add\n        /* \"#utility.yul\":21382:21416   */\n      dup5\n      swap1\n      mstore\n        /* \"#utility.yul\":21432:21450   */\n      swap1\n      dup2\n      add\n        /* \"#utility.yul\":21425:21459   */\n      swap2\n      swap1\n      swap2\n      mstore\n        /* \"contracts/TradingAccount.sol\":13732:13788  uint256 cUsdcAmountGet = cUsdcBalance - lastCUsdcBalance */\n      swap1\n      swap2\n      pop\n        /* \"contracts/TradingAccount.sol\":13844:13906  OpenShort(usdcSize, cUsdcAmountGet, tempParams.borrowedAmount) */\n      0x383a754f7fb836d68aa84a08d21e9abdd63725207f15a8d8777e1992ca92f4ed\n      swap1\n        /* \"#utility.yul\":21336:21338   */\n      0x60\n        /* \"#utility.yul\":21321:21339   */\n      add\n        /* \"contracts/TradingAccount.sol\":13844:13906  OpenShort(usdcSize, cUsdcAmountGet, tempParams.borrowedAmount) */\n      tag_605\n        /* \"#utility.yul\":21146:21465   */\n      jump\n        /* \"contracts/libraries/TransferHelper.sol\":1594:1808  function safeTransferETH(address to, uint256 value) internal {... */\n    tag_452:\n        /* \"contracts/libraries/TransferHelper.sol\":1706:1718  new bytes(0) */\n      0x40\n      dup1\n      mload\n        /* \"contracts/libraries/TransferHelper.sol\":1666:1678  bool success */\n      0x00\n        /* \"contracts/libraries/TransferHelper.sol\":1706:1718  new bytes(0) */\n      dup1\n      dup3\n      mstore\n      0x20\n      dup3\n      add\n      swap1\n      swap3\n      mstore\n      sub(shl(0xa0, 0x01), 0x01)\n        /* \"contracts/libraries/TransferHelper.sol\":1684:1691  to.call */\n      dup5\n      and\n      swap1\n        /* \"contracts/libraries/TransferHelper.sol\":1699:1704  value */\n      dup4\n      swap1\n        /* \"contracts/libraries/TransferHelper.sol\":1684:1719  to.call{value: value}(new bytes(0)) */\n      mload(0x40)\n      tag_627\n      swap2\n      swap1\n      tag_566\n      jump\t// in\n    tag_627:\n      0x00\n      mload(0x40)\n      dup1\n      dup4\n      sub\n      dup2\n      dup6\n      dup8\n      gas\n      call\n      swap3\n      pop\n      pop\n      pop\n      returndatasize\n      dup1\n      0x00\n      dup2\n      eq\n      tag_630\n      jumpi\n      mload(0x40)\n      swap2\n      pop\n      and(add(returndatasize, 0x3f), not(0x1f))\n      dup3\n      add\n      0x40\n      mstore\n      returndatasize\n      dup3\n      mstore\n      returndatasize\n      0x00\n      0x20\n      dup5\n      add\n      returndatacopy\n      jump(tag_629)\n    tag_630:\n      0x60\n      swap2\n      pop\n    tag_629:\n      pop\n        /* \"contracts/libraries/TransferHelper.sol\":1665:1719  (bool success, ) = to.call{value: value}(new bytes(0)) */\n      pop\n      swap1\n      pop\n        /* \"contracts/libraries/TransferHelper.sol\":1737:1744  success */\n      dup1\n        /* \"contracts/libraries/TransferHelper.sol\":1729:1801  require(success, 'TransferHelper::safeTransferETH: ETH transfer failed') */\n      tag_631\n      jumpi\n      mload(0x40)\n      shl(0xe5, 0x461bcd)\n      dup2\n      mstore\n        /* \"#utility.yul\":21672:21674   */\n      0x20\n        /* \"contracts/libraries/TransferHelper.sol\":1729:1801  require(success, 'TransferHelper::safeTransferETH: ETH transfer failed') */\n      0x04\n      dup3\n      add\n        /* \"#utility.yul\":21654:21675   */\n      mstore\n        /* \"#utility.yul\":21711:21713   */\n      0x34\n        /* \"#utility.yul\":21691:21709   */\n      0x24\n      dup3\n      add\n        /* \"#utility.yul\":21684:21714   */\n      mstore\n        /* \"#utility.yul\":21750:21784   */\n      0x5472616e7366657248656c7065723a3a736166655472616e736665724554483a\n        /* \"#utility.yul\":21730:21748   */\n      0x44\n      dup3\n      add\n        /* \"#utility.yul\":21723:21785   */\n      mstore\n      shl(0x62, 0x08115512081d1c985b9cd9995c8819985a5b1959)\n        /* \"#utility.yul\":21801:21819   */\n      0x64\n      dup3\n      add\n        /* \"#utility.yul\":21794:21844   */\n      mstore\n        /* \"#utility.yul\":21861:21880   */\n      0x84\n      add\n        /* \"contracts/libraries/TransferHelper.sol\":1729:1801  require(success, 'TransferHelper::safeTransferETH: ETH transfer failed') */\n      tag_181\n        /* \"#utility.yul\":21470:21886   */\n      jump\n        /* \"contracts/libraries/TransferHelper.sol\":1729:1801  require(success, 'TransferHelper::safeTransferETH: ETH transfer failed') */\n    tag_631:\n        /* \"contracts/libraries/TransferHelper.sol\":1655:1808  {... */\n      pop\n        /* \"contracts/libraries/TransferHelper.sol\":1594:1808  function safeTransferETH(address to, uint256 value) internal {... */\n      pop\n      pop\n      jump\t// out\n        /* \"contracts/libraries/TransferHelper.sol\":1102:1588  function safeTransferFrom(... */\n    tag_505:\n        /* \"contracts/libraries/TransferHelper.sol\":1366:1417  abi.encodeWithSelector(0x23b872dd, from, to, value) */\n      0x40\n      dup1\n      mload\n      sub(shl(0xa0, 0x01), 0x01)\n        /* \"#utility.yul\":22111:22143   */\n      dup6\n      dup2\n      and\n        /* \"contracts/libraries/TransferHelper.sol\":1366:1417  abi.encodeWithSelector(0x23b872dd, from, to, value) */\n      0x24\n      dup4\n      add\n        /* \"#utility.yul\":22093:22144   */\n      mstore\n        /* \"#utility.yul\":22180:22212   */\n      dup5\n      dup2\n      and\n        /* \"#utility.yul\":22160:22178   */\n      0x44\n      dup4\n      add\n        /* \"#utility.yul\":22153:22213   */\n      mstore\n        /* \"#utility.yul\":22229:22247   */\n      0x64\n      dup1\n      dup4\n      add\n        /* \"#utility.yul\":22222:22256   */\n      dup6\n      swap1\n      mstore\n        /* \"contracts/libraries/TransferHelper.sol\":1366:1417  abi.encodeWithSelector(0x23b872dd, from, to, value) */\n      dup4\n      mload\n      dup1\n      dup5\n      sub\n      swap1\n      swap2\n      add\n      dup2\n      mstore\n        /* \"#utility.yul\":22066:22084   */\n      0x84\n      swap1\n      swap3\n      add\n        /* \"contracts/libraries/TransferHelper.sol\":1366:1417  abi.encodeWithSelector(0x23b872dd, from, to, value) */\n      dup4\n      mstore\n      0x20\n      dup3\n      add\n      dup1\n      mload\n      sub(shl(0xe0, 0x01), 0x01)\n      and\n      shl(0xe0, 0x23b872dd)\n      or\n      swap1\n      mstore\n        /* \"contracts/libraries/TransferHelper.sol\":1355:1418  token.call(abi.encodeWithSelector(0x23b872dd, from, to, value)) */\n      swap2\n      mload\n      0x00\n      swap3\n      dup4\n      swap3\n        /* \"contracts/libraries/TransferHelper.sol\":1355:1365  token.call */\n      swap1\n      dup9\n      and\n      swap2\n        /* \"contracts/libraries/TransferHelper.sol\":1355:1418  token.call(abi.encodeWithSelector(0x23b872dd, from, to, value)) */\n      tag_637\n      swap2\n        /* \"contracts/libraries/TransferHelper.sol\":1366:1417  abi.encodeWithSelector(0x23b872dd, from, to, value) */\n      swap1\n        /* \"contracts/libraries/TransferHelper.sol\":1355:1418  token.call(abi.encodeWithSelector(0x23b872dd, from, to, value)) */\n      tag_566\n      jump\t// in\n    tag_637:\n      0x00\n      mload(0x40)\n      dup1\n      dup4\n      sub\n      dup2\n      0x00\n      dup7\n      gas\n      call\n      swap2\n      pop\n      pop\n      returndatasize\n      dup1\n      0x00\n      dup2\n      eq\n      tag_640\n      jumpi\n      mload(0x40)\n      swap2\n      pop\n      and(add(returndatasize, 0x3f), not(0x1f))\n      dup3\n      add\n      0x40\n      mstore\n      returndatasize\n      dup3\n      mstore\n      returndatasize\n      0x00\n      0x20\n      dup5\n      add\n      returndatacopy\n      jump(tag_639)\n    tag_640:\n      0x60\n      swap2\n      pop\n    tag_639:\n      pop\n        /* \"contracts/libraries/TransferHelper.sol\":1319:1418  (bool success, bytes memory data) = token.call(abi.encodeWithSelector(0x23b872dd, from, to, value)) */\n      swap2\n      pop\n      swap2\n      pop\n        /* \"contracts/libraries/TransferHelper.sol\":1449:1456  success */\n      dup2\n        /* \"contracts/libraries/TransferHelper.sol\":1449:1506  success && (data.length == 0 || abi.decode(data, (bool))) */\n      dup1\n      iszero\n      tag_643\n      jumpi\n      pop\n        /* \"contracts/libraries/TransferHelper.sol\":1461:1472  data.length */\n      dup1\n      mload\n        /* \"contracts/libraries/TransferHelper.sol\":1461:1477  data.length == 0 */\n      iszero\n      dup1\n        /* \"contracts/libraries/TransferHelper.sol\":1461:1505  data.length == 0 || abi.decode(data, (bool)) */\n      tag_643\n      jumpi\n      pop\n        /* \"contracts/libraries/TransferHelper.sol\":1492:1496  data */\n      dup1\n        /* \"contracts/libraries/TransferHelper.sol\":1481:1505  abi.decode(data, (bool)) */\n      dup1\n      0x20\n      add\n      swap1\n      mload\n      dup2\n      add\n      swap1\n      tag_643\n      swap2\n      swap1\n      tag_511\n      jump\t// in\n    tag_643:\n        /* \"contracts/libraries/TransferHelper.sol\":1428:1581  require(... */\n      tag_644\n      jumpi\n      mload(0x40)\n      shl(0xe5, 0x461bcd)\n      dup2\n      mstore\n        /* \"#utility.yul\":22469:22471   */\n      0x20\n        /* \"contracts/libraries/TransferHelper.sol\":1428:1581  require(... */\n      0x04\n      dup3\n      add\n        /* \"#utility.yul\":22451:22472   */\n      mstore\n        /* \"#utility.yul\":22508:22510   */\n      0x31\n        /* \"#utility.yul\":22488:22506   */\n      0x24\n      dup3\n      add\n        /* \"#utility.yul\":22481:22511   */\n      mstore\n        /* \"#utility.yul\":22547:22581   */\n      0x5472616e7366657248656c7065723a3a7472616e7366657246726f6d3a207472\n        /* \"#utility.yul\":22527:22545   */\n      0x44\n      dup3\n      add\n        /* \"#utility.yul\":22520:22582   */\n      mstore\n      shl(0x7a, 0x185b9cd9995c919c9bdb4819985a5b1959)\n        /* \"#utility.yul\":22598:22616   */\n      0x64\n      dup3\n      add\n        /* \"#utility.yul\":22591:22638   */\n      mstore\n        /* \"#utility.yul\":22655:22674   */\n      0x84\n      add\n        /* \"contracts/libraries/TransferHelper.sol\":1428:1581  require(... */\n      tag_181\n        /* \"#utility.yul\":22267:22680   */\n      jump\n        /* \"contracts/libraries/TransferHelper.sol\":1428:1581  require(... */\n    tag_644:\n        /* \"contracts/libraries/TransferHelper.sol\":1231:1588  {... */\n      pop\n      pop\n        /* \"contracts/libraries/TransferHelper.sol\":1102:1588  function safeTransferFrom(... */\n      pop\n      pop\n      pop\n      pop\n      jump\t// out\n        /* \"#utility.yul\":14:141   */\n    tag_43:\n        /* \"#utility.yul\":75:85   */\n      0x4e487b71\n        /* \"#utility.yul\":70:73   */\n      0xe0\n        /* \"#utility.yul\":66:86   */\n      shl\n        /* \"#utility.yul\":63:64   */\n      0x00\n        /* \"#utility.yul\":56:87   */\n      mstore\n        /* \"#utility.yul\":106:110   */\n      0x01\n        /* \"#utility.yul\":103:104   */\n      0x04\n        /* \"#utility.yul\":96:111   */\n      mstore\n        /* \"#utility.yul\":130:134   */\n      0x24\n        /* \"#utility.yul\":127:128   */\n      0x00\n        /* \"#utility.yul\":120:135   */\n      revert\n        /* \"#utility.yul\":146:277   */\n    tag_648:\n      sub(shl(0xa0, 0x01), 0x01)\n        /* \"#utility.yul\":221:252   */\n      dup2\n      and\n        /* \"#utility.yul\":211:253   */\n      dup2\n      eq\n        /* \"#utility.yul\":201:271   */\n      tag_378\n      jumpi\n        /* \"#utility.yul\":267:268   */\n      0x00\n        /* \"#utility.yul\":264:265   */\n      0x00\n        /* \"#utility.yul\":257:269   */\n      revert\n        /* \"#utility.yul\":282:890   */\n    tag_47:\n        /* \"#utility.yul\":368:374   */\n      0x00\n        /* \"#utility.yul\":376:382   */\n      0x00\n        /* \"#utility.yul\":384:390   */\n      0x00\n        /* \"#utility.yul\":392:398   */\n      0x00\n        /* \"#utility.yul\":445:448   */\n      0x80\n        /* \"#utility.yul\":433:442   */\n      dup6\n        /* \"#utility.yul\":424:431   */\n      dup8\n        /* \"#utility.yul\":420:443   */\n      sub\n        /* \"#utility.yul\":416:449   */\n      slt\n        /* \"#utility.yul\":413:466   */\n      iszero\n      tag_658\n      jumpi\n        /* \"#utility.yul\":462:463   */\n      0x00\n        /* \"#utility.yul\":459:460   */\n      0x00\n        /* \"#utility.yul\":452:464   */\n      revert\n        /* \"#utility.yul\":413:466   */\n    tag_658:\n        /* \"#utility.yul\":507:530   */\n      dup5\n      calldataload\n      swap4\n      pop\n        /* \"#utility.yul\":627:629   */\n      0x20\n        /* \"#utility.yul\":612:630   */\n      dup6\n      add\n        /* \"#utility.yul\":599:631   */\n      calldataload\n      swap3\n      pop\n        /* \"#utility.yul\":730:732   */\n      0x40\n        /* \"#utility.yul\":715:733   */\n      dup6\n      add\n        /* \"#utility.yul\":702:734   */\n      calldataload\n      swap2\n      pop\n        /* \"#utility.yul\":812:814   */\n      0x60\n        /* \"#utility.yul\":797:815   */\n      dup6\n      add\n        /* \"#utility.yul\":784:816   */\n      calldataload\n        /* \"#utility.yul\":825:858   */\n      tag_659\n        /* \"#utility.yul\":784:816   */\n      dup2\n        /* \"#utility.yul\":825:858   */\n      tag_648\n      jump\t// in\n    tag_659:\n        /* \"#utility.yul\":282:890   */\n      swap4\n      swap7\n      swap3\n      swap6\n      pop\n      swap1\n      swap4\n      pop\n      pop\n      jump\t// out\n        /* \"#utility.yul\":1077:2039   */\n    tag_54:\n        /* \"#utility.yul\":1174:1180   */\n      0x00\n        /* \"#utility.yul\":1182:1188   */\n      0x00\n        /* \"#utility.yul\":1190:1196   */\n      0x00\n        /* \"#utility.yul\":1198:1204   */\n      0x00\n        /* \"#utility.yul\":1206:1212   */\n      0x00\n        /* \"#utility.yul\":1259:1262   */\n      0x80\n        /* \"#utility.yul\":1247:1256   */\n      dup7\n        /* \"#utility.yul\":1238:1245   */\n      dup9\n        /* \"#utility.yul\":1234:1257   */\n      sub\n        /* \"#utility.yul\":1230:1263   */\n      slt\n        /* \"#utility.yul\":1227:1280   */\n      iszero\n      tag_662\n      jumpi\n        /* \"#utility.yul\":1276:1277   */\n      0x00\n        /* \"#utility.yul\":1273:1274   */\n      0x00\n        /* \"#utility.yul\":1266:1278   */\n      revert\n        /* \"#utility.yul\":1227:1280   */\n    tag_662:\n        /* \"#utility.yul\":1315:1324   */\n      dup6\n        /* \"#utility.yul\":1302:1325   */\n      calldataload\n        /* \"#utility.yul\":1334:1365   */\n      tag_663\n        /* \"#utility.yul\":1359:1364   */\n      dup2\n        /* \"#utility.yul\":1334:1365   */\n      tag_648\n      jump\t// in\n    tag_663:\n        /* \"#utility.yul\":1384:1389   */\n      swap5\n      pop\n        /* \"#utility.yul\":1462:1464   */\n      0x20\n        /* \"#utility.yul\":1447:1465   */\n      dup7\n      add\n        /* \"#utility.yul\":1434:1466   */\n      calldataload\n      swap4\n      pop\n        /* \"#utility.yul\":1565:1567   */\n      0x40\n        /* \"#utility.yul\":1550:1568   */\n      dup7\n      add\n        /* \"#utility.yul\":1537:1569   */\n      calldataload\n      swap3\n      pop\n        /* \"#utility.yul\":1646:1648   */\n      0x60\n        /* \"#utility.yul\":1631:1649   */\n      dup7\n      add\n        /* \"#utility.yul\":1618:1650   */\n      calldataload\n        /* \"#utility.yul\":1673:1691   */\n      0xffffffffffffffff\n        /* \"#utility.yul\":1662:1692   */\n      dup2\n      gt\n        /* \"#utility.yul\":1659:1709   */\n      iszero\n      tag_664\n      jumpi\n        /* \"#utility.yul\":1705:1706   */\n      0x00\n        /* \"#utility.yul\":1702:1703   */\n      0x00\n        /* \"#utility.yul\":1695:1707   */\n      revert\n        /* \"#utility.yul\":1659:1709   */\n    tag_664:\n        /* \"#utility.yul\":1728:1750   */\n      dup7\n      add\n        /* \"#utility.yul\":1781:1785   */\n      0x1f\n        /* \"#utility.yul\":1773:1786   */\n      dup2\n      add\n        /* \"#utility.yul\":1769:1796   */\n      dup9\n      sgt\n        /* \"#utility.yul\":1759:1814   */\n      tag_665\n      jumpi\n        /* \"#utility.yul\":1810:1811   */\n      0x00\n        /* \"#utility.yul\":1807:1808   */\n      0x00\n        /* \"#utility.yul\":1800:1812   */\n      revert\n        /* \"#utility.yul\":1759:1814   */\n    tag_665:\n        /* \"#utility.yul\":1850:1852   */\n      dup1\n        /* \"#utility.yul\":1837:1853   */\n      calldataload\n        /* \"#utility.yul\":1876:1894   */\n      0xffffffffffffffff\n        /* \"#utility.yul\":1868:1874   */\n      dup2\n        /* \"#utility.yul\":1865:1895   */\n      gt\n        /* \"#utility.yul\":1862:1912   */\n      iszero\n      tag_666\n      jumpi\n        /* \"#utility.yul\":1908:1909   */\n      0x00\n        /* \"#utility.yul\":1905:1906   */\n      0x00\n        /* \"#utility.yul\":1898:1910   */\n      revert\n        /* \"#utility.yul\":1862:1912   */\n    tag_666:\n        /* \"#utility.yul\":1953:1960   */\n      dup9\n        /* \"#utility.yul\":1948:1950   */\n      0x20\n        /* \"#utility.yul\":1939:1945   */\n      dup3\n        /* \"#utility.yul\":1935:1937   */\n      dup5\n        /* \"#utility.yul\":1931:1946   */\n      add\n        /* \"#utility.yul\":1927:1951   */\n      add\n        /* \"#utility.yul\":1924:1961   */\n      gt\n        /* \"#utility.yul\":1921:1978   */\n      iszero\n      tag_667\n      jumpi\n        /* \"#utility.yul\":1974:1975   */\n      0x00\n        /* \"#utility.yul\":1971:1972   */\n      0x00\n        /* \"#utility.yul\":1964:1976   */\n      revert\n        /* \"#utility.yul\":1921:1978   */\n    tag_667:\n        /* \"#utility.yul\":1077:2039   */\n      swap6\n      swap9\n      swap5\n      swap8\n      pop\n      swap3\n      swap6\n      pop\n      pop\n      pop\n        /* \"#utility.yul\":2005:2007   */\n      0x20\n        /* \"#utility.yul\":1997:2008   */\n      add\n      swap2\n        /* \"#utility.yul\":2027:2033   */\n      swap1\n        /* \"#utility.yul\":1077:2039   */\n      jump\t// out\n        /* \"#utility.yul\":2252:2478   */\n    tag_77:\n        /* \"#utility.yul\":2311:2317   */\n      0x00\n        /* \"#utility.yul\":2364:2366   */\n      0x20\n        /* \"#utility.yul\":2352:2361   */\n      dup3\n        /* \"#utility.yul\":2343:2350   */\n      dup5\n        /* \"#utility.yul\":2339:2362   */\n      sub\n        /* \"#utility.yul\":2335:2367   */\n      slt\n        /* \"#utility.yul\":2332:2384   */\n      iszero\n      tag_670\n      jumpi\n        /* \"#utility.yul\":2380:2381   */\n      0x00\n        /* \"#utility.yul\":2377:2378   */\n      0x00\n        /* \"#utility.yul\":2370:2382   */\n      revert\n        /* \"#utility.yul\":2332:2384   */\n    tag_670:\n      pop\n        /* \"#utility.yul\":2425:2448   */\n      calldataload\n      swap2\n        /* \"#utility.yul\":2252:2478   */\n      swap1\n      pop\n      jump\t// out\n        /* \"#utility.yul\":3141:3259   */\n    tag_649:\n        /* \"#utility.yul\":3227:3232   */\n      dup1\n        /* \"#utility.yul\":3220:3233   */\n      iszero\n        /* \"#utility.yul\":3213:3234   */\n      iszero\n        /* \"#utility.yul\":3206:3211   */\n      dup2\n        /* \"#utility.yul\":3203:3235   */\n      eq\n        /* \"#utility.yul\":3193:3253   */\n      tag_378\n      jumpi\n        /* \"#utility.yul\":3249:3250   */\n      0x00\n        /* \"#utility.yul\":3246:3247   */\n      0x00\n        /* \"#utility.yul\":3239:3251   */\n      revert\n        /* \"#utility.yul\":3264:3625   */\n    tag_92:\n        /* \"#utility.yul\":3329:3335   */\n      0x00\n        /* \"#utility.yul\":3337:3343   */\n      0x00\n        /* \"#utility.yul\":3390:3392   */\n      0x40\n        /* \"#utility.yul\":3378:3387   */\n      dup4\n        /* \"#utility.yul\":3369:3376   */\n      dup6\n        /* \"#utility.yul\":3365:3388   */\n      sub\n        /* \"#utility.yul\":3361:3393   */\n      slt\n        /* \"#utility.yul\":3358:3410   */\n      iszero\n      tag_675\n      jumpi\n        /* \"#utility.yul\":3406:3407   */\n      0x00\n        /* \"#utility.yul\":3403:3404   */\n      0x00\n        /* \"#utility.yul\":3396:3408   */\n      revert\n        /* \"#utility.yul\":3358:3410   */\n    tag_675:\n        /* \"#utility.yul\":3451:3474   */\n      dup3\n      calldataload\n      swap2\n      pop\n        /* \"#utility.yul\":3550:3552   */\n      0x20\n        /* \"#utility.yul\":3535:3553   */\n      dup4\n      add\n        /* \"#utility.yul\":3522:3554   */\n      calldataload\n        /* \"#utility.yul\":3563:3593   */\n      tag_676\n        /* \"#utility.yul\":3522:3554   */\n      dup2\n        /* \"#utility.yul\":3563:3593   */\n      tag_649\n      jump\t// in\n    tag_676:\n        /* \"#utility.yul\":3612:3619   */\n      dup1\n        /* \"#utility.yul\":3602:3619   */\n      swap2\n      pop\n      pop\n        /* \"#utility.yul\":3264:3625   */\n      swap3\n      pop\n      swap3\n      swap1\n      pop\n      jump\t// out\n        /* \"#utility.yul\":3630:3976   */\n    tag_109:\n        /* \"#utility.yul\":3698:3704   */\n      0x00\n        /* \"#utility.yul\":3706:3712   */\n      0x00\n        /* \"#utility.yul\":3759:3761   */\n      0x40\n        /* \"#utility.yul\":3747:3756   */\n      dup4\n        /* \"#utility.yul\":3738:3745   */\n      dup6\n        /* \"#utility.yul\":3734:3757   */\n      sub\n        /* \"#utility.yul\":3730:3762   */\n      slt\n        /* \"#utility.yul\":3727:3779   */\n      iszero\n      tag_678\n      jumpi\n        /* \"#utility.yul\":3775:3776   */\n      0x00\n        /* \"#utility.yul\":3772:3773   */\n      0x00\n        /* \"#utility.yul\":3765:3777   */\n      revert\n        /* \"#utility.yul\":3727:3779   */\n    tag_678:\n      pop\n      pop\n        /* \"#utility.yul\":3820:3843   */\n      dup1\n      calldataload\n      swap3\n        /* \"#utility.yul\":3940:3942   */\n      0x20\n        /* \"#utility.yul\":3925:3943   */\n      swap1\n      swap2\n      add\n        /* \"#utility.yul\":3912:3944   */\n      calldataload\n      swap2\n      pop\n        /* \"#utility.yul\":3630:3976   */\n      jump\t// out\n        /* \"#utility.yul\":3981:5220   */\n    tag_114:\n        /* \"#utility.yul\":4103:4109   */\n      0x00\n        /* \"#utility.yul\":4111:4117   */\n      0x00\n        /* \"#utility.yul\":4119:4125   */\n      0x00\n        /* \"#utility.yul\":4127:4133   */\n      0x00\n        /* \"#utility.yul\":4135:4141   */\n      0x00\n        /* \"#utility.yul\":4143:4149   */\n      0x00\n        /* \"#utility.yul\":4151:4157   */\n      0x00\n        /* \"#utility.yul\":4159:4165   */\n      0x00\n        /* \"#utility.yul\":4212:4215   */\n      0x0100\n        /* \"#utility.yul\":4200:4209   */\n      dup10\n        /* \"#utility.yul\":4191:4198   */\n      dup12\n        /* \"#utility.yul\":4187:4210   */\n      sub\n        /* \"#utility.yul\":4183:4216   */\n      slt\n        /* \"#utility.yul\":4180:4233   */\n      iszero\n      tag_680\n      jumpi\n        /* \"#utility.yul\":4229:4230   */\n      0x00\n        /* \"#utility.yul\":4226:4227   */\n      0x00\n        /* \"#utility.yul\":4219:4231   */\n      revert\n        /* \"#utility.yul\":4180:4233   */\n    tag_680:\n        /* \"#utility.yul\":4268:4277   */\n      dup9\n        /* \"#utility.yul\":4255:4278   */\n      calldataload\n        /* \"#utility.yul\":4287:4318   */\n      tag_681\n        /* \"#utility.yul\":4312:4317   */\n      dup2\n        /* \"#utility.yul\":4287:4318   */\n      tag_648\n      jump\t// in\n    tag_681:\n        /* \"#utility.yul\":4337:4342   */\n      swap8\n      pop\n        /* \"#utility.yul\":4394:4396   */\n      0x20\n        /* \"#utility.yul\":4379:4397   */\n      dup10\n      add\n        /* \"#utility.yul\":4366:4398   */\n      calldataload\n        /* \"#utility.yul\":4407:4440   */\n      tag_682\n        /* \"#utility.yul\":4366:4398   */\n      dup2\n        /* \"#utility.yul\":4407:4440   */\n      tag_648\n      jump\t// in\n    tag_682:\n        /* \"#utility.yul\":4459:4466   */\n      swap7\n      pop\n        /* \"#utility.yul\":4518:4520   */\n      0x40\n        /* \"#utility.yul\":4503:4521   */\n      dup10\n      add\n        /* \"#utility.yul\":4490:4522   */\n      calldataload\n        /* \"#utility.yul\":4531:4564   */\n      tag_683\n        /* \"#utility.yul\":4490:4522   */\n      dup2\n        /* \"#utility.yul\":4531:4564   */\n      tag_648\n      jump\t// in\n    tag_683:\n        /* \"#utility.yul\":4583:4590   */\n      swap6\n      pop\n        /* \"#utility.yul\":4642:4644   */\n      0x60\n        /* \"#utility.yul\":4627:4645   */\n      dup10\n      add\n        /* \"#utility.yul\":4614:4646   */\n      calldataload\n        /* \"#utility.yul\":4655:4688   */\n      tag_684\n        /* \"#utility.yul\":4614:4646   */\n      dup2\n        /* \"#utility.yul\":4655:4688   */\n      tag_648\n      jump\t// in\n    tag_684:\n        /* \"#utility.yul\":4707:4714   */\n      swap5\n      pop\n        /* \"#utility.yul\":4766:4769   */\n      0x80\n        /* \"#utility.yul\":4751:4770   */\n      dup10\n      add\n        /* \"#utility.yul\":4738:4771   */\n      calldataload\n        /* \"#utility.yul\":4780:4813   */\n      tag_685\n        /* \"#utility.yul\":4738:4771   */\n      dup2\n        /* \"#utility.yul\":4780:4813   */\n      tag_648\n      jump\t// in\n    tag_685:\n        /* \"#utility.yul\":4832:4839   */\n      swap4\n      pop\n        /* \"#utility.yul\":4891:4894   */\n      0xa0\n        /* \"#utility.yul\":4876:4895   */\n      dup10\n      add\n        /* \"#utility.yul\":4863:4896   */\n      calldataload\n        /* \"#utility.yul\":4905:4938   */\n      tag_686\n        /* \"#utility.yul\":4863:4896   */\n      dup2\n        /* \"#utility.yul\":4905:4938   */\n      tag_648\n      jump\t// in\n    tag_686:\n        /* \"#utility.yul\":4957:4964   */\n      swap3\n      pop\n        /* \"#utility.yul\":5016:5019   */\n      0xc0\n        /* \"#utility.yul\":5001:5020   */\n      dup10\n      add\n        /* \"#utility.yul\":4988:5021   */\n      calldataload\n        /* \"#utility.yul\":5030:5063   */\n      tag_687\n        /* \"#utility.yul\":4988:5021   */\n      dup2\n        /* \"#utility.yul\":5030:5063   */\n      tag_648\n      jump\t// in\n    tag_687:\n        /* \"#utility.yul\":5082:5089   */\n      swap2\n      pop\n        /* \"#utility.yul\":5141:5144   */\n      0xe0\n        /* \"#utility.yul\":5126:5145   */\n      dup10\n      add\n        /* \"#utility.yul\":5113:5146   */\n      calldataload\n        /* \"#utility.yul\":5155:5188   */\n      tag_688\n        /* \"#utility.yul\":5113:5146   */\n      dup2\n        /* \"#utility.yul\":5155:5188   */\n      tag_648\n      jump\t// in\n    tag_688:\n        /* \"#utility.yul\":5207:5214   */\n      dup1\n        /* \"#utility.yul\":5197:5214   */\n      swap2\n      pop\n      pop\n        /* \"#utility.yul\":3981:5220   */\n      swap3\n      swap6\n      swap9\n      pop\n      swap3\n      swap6\n      swap9\n      swap1\n      swap4\n      swap7\n      pop\n      jump\t// out\n        /* \"#utility.yul\":5225:5472   */\n    tag_164:\n        /* \"#utility.yul\":5284:5290   */\n      0x00\n        /* \"#utility.yul\":5337:5339   */\n      0x20\n        /* \"#utility.yul\":5325:5334   */\n      dup3\n        /* \"#utility.yul\":5316:5323   */\n      dup5\n        /* \"#utility.yul\":5312:5335   */\n      sub\n        /* \"#utility.yul\":5308:5340   */\n      slt\n        /* \"#utility.yul\":5305:5357   */\n      iszero\n      tag_690\n      jumpi\n        /* \"#utility.yul\":5353:5354   */\n      0x00\n        /* \"#utility.yul\":5350:5351   */\n      0x00\n        /* \"#utility.yul\":5343:5355   */\n      revert\n        /* \"#utility.yul\":5305:5357   */\n    tag_690:\n        /* \"#utility.yul\":5392:5401   */\n      dup2\n        /* \"#utility.yul\":5379:5402   */\n      calldataload\n        /* \"#utility.yul\":5411:5442   */\n      tag_691\n        /* \"#utility.yul\":5436:5441   */\n      dup2\n        /* \"#utility.yul\":5411:5442   */\n      tag_648\n      jump\t// in\n    tag_691:\n        /* \"#utility.yul\":5461:5466   */\n      swap4\n        /* \"#utility.yul\":5225:5472   */\n      swap3\n      pop\n      pop\n      pop\n      jump\t// out\n        /* \"#utility.yul\":6220:6471   */\n    tag_186:\n        /* \"#utility.yul\":6290:6296   */\n      0x00\n        /* \"#utility.yul\":6343:6345   */\n      0x20\n        /* \"#utility.yul\":6331:6340   */\n      dup3\n        /* \"#utility.yul\":6322:6329   */\n      dup5\n        /* \"#utility.yul\":6318:6341   */\n      sub\n        /* \"#utility.yul\":6314:6346   */\n      slt\n        /* \"#utility.yul\":6311:6363   */\n      iszero\n      tag_695\n      jumpi\n        /* \"#utility.yul\":6359:6360   */\n      0x00\n        /* \"#utility.yul\":6356:6357   */\n      0x00\n        /* \"#utility.yul\":6349:6361   */\n      revert\n        /* \"#utility.yul\":6311:6363   */\n    tag_695:\n        /* \"#utility.yul\":6391:6400   */\n      dup2\n        /* \"#utility.yul\":6385:6401   */\n      mload\n        /* \"#utility.yul\":6410:6441   */\n      tag_691\n        /* \"#utility.yul\":6435:6440   */\n      dup2\n        /* \"#utility.yul\":6410:6441   */\n      tag_648\n      jump\t// in\n        /* \"#utility.yul\":6476:6664   */\n    tag_650:\n        /* \"#utility.yul\":6555:6568   */\n      dup1\n      mload\n      sub(shl(0x70, 0x01), 0x01)\n        /* \"#utility.yul\":6597:6639   */\n      dup2\n      and\n        /* \"#utility.yul\":6587:6640   */\n      dup2\n      eq\n        /* \"#utility.yul\":6577:6658   */\n      tag_698\n      jumpi\n        /* \"#utility.yul\":6654:6655   */\n      0x00\n        /* \"#utility.yul\":6651:6652   */\n      0x00\n        /* \"#utility.yul\":6644:6656   */\n      revert\n        /* \"#utility.yul\":6577:6658   */\n    tag_698:\n        /* \"#utility.yul\":6476:6664   */\n      swap2\n      swap1\n      pop\n      jump\t// out\n        /* \"#utility.yul\":6669:7119   */\n    tag_193:\n        /* \"#utility.yul\":6756:6762   */\n      0x00\n        /* \"#utility.yul\":6764:6770   */\n      0x00\n        /* \"#utility.yul\":6772:6778   */\n      0x00\n        /* \"#utility.yul\":6825:6827   */\n      0x60\n        /* \"#utility.yul\":6813:6822   */\n      dup5\n        /* \"#utility.yul\":6804:6811   */\n      dup7\n        /* \"#utility.yul\":6800:6823   */\n      sub\n        /* \"#utility.yul\":6796:6828   */\n      slt\n        /* \"#utility.yul\":6793:6845   */\n      iszero\n      tag_700\n      jumpi\n        /* \"#utility.yul\":6841:6842   */\n      0x00\n        /* \"#utility.yul\":6838:6839   */\n      0x00\n        /* \"#utility.yul\":6831:6843   */\n      revert\n        /* \"#utility.yul\":6793:6845   */\n    tag_700:\n        /* \"#utility.yul\":6864:6904   */\n      tag_701\n        /* \"#utility.yul\":6894:6903   */\n      dup5\n        /* \"#utility.yul\":6864:6904   */\n      tag_650\n      jump\t// in\n    tag_701:\n        /* \"#utility.yul\":6854:6904   */\n      swap3\n      pop\n        /* \"#utility.yul\":6923:6972   */\n      tag_702\n        /* \"#utility.yul\":6968:6970   */\n      0x20\n        /* \"#utility.yul\":6957:6966   */\n      dup6\n        /* \"#utility.yul\":6953:6971   */\n      add\n        /* \"#utility.yul\":6923:6972   */\n      tag_650\n      jump\t// in\n    tag_702:\n        /* \"#utility.yul\":6913:6972   */\n      swap2\n      pop\n        /* \"#utility.yul\":7015:7017   */\n      0x40\n        /* \"#utility.yul\":7004:7013   */\n      dup5\n        /* \"#utility.yul\":7000:7018   */\n      add\n        /* \"#utility.yul\":6994:7019   */\n      mload\n        /* \"#utility.yul\":7059:7069   */\n      0xffffffff\n        /* \"#utility.yul\":7052:7057   */\n      dup2\n        /* \"#utility.yul\":7048:7070   */\n      and\n        /* \"#utility.yul\":7041:7046   */\n      dup2\n        /* \"#utility.yul\":7038:7071   */\n      eq\n        /* \"#utility.yul\":7028:7089   */\n      tag_703\n      jumpi\n        /* \"#utility.yul\":7085:7086   */\n      0x00\n        /* \"#utility.yul\":7082:7083   */\n      0x00\n        /* \"#utility.yul\":7075:7087   */\n      revert\n        /* \"#utility.yul\":7028:7089   */\n    tag_703:\n        /* \"#utility.yul\":7108:7113   */\n      dup1\n        /* \"#utility.yul\":7098:7113   */\n      swap2\n      pop\n      pop\n        /* \"#utility.yul\":6669:7119   */\n      swap3\n      pop\n      swap3\n      pop\n      swap3\n      jump\t// out\n        /* \"#utility.yul\":7124:7354   */\n    tag_211:\n        /* \"#utility.yul\":7194:7200   */\n      0x00\n        /* \"#utility.yul\":7247:7249   */\n      0x20\n        /* \"#utility.yul\":7235:7244   */\n      dup3\n        /* \"#utility.yul\":7226:7233   */\n      dup5\n        /* \"#utility.yul\":7222:7245   */\n      sub\n        /* \"#utility.yul\":7218:7250   */\n      slt\n        /* \"#utility.yul\":7215:7267   */\n      iszero\n      tag_705\n      jumpi\n        /* \"#utility.yul\":7263:7264   */\n      0x00\n        /* \"#utility.yul\":7260:7261   */\n      0x00\n        /* \"#utility.yul\":7253:7265   */\n      revert\n        /* \"#utility.yul\":7215:7267   */\n    tag_705:\n      pop\n        /* \"#utility.yul\":7308:7324   */\n      mload\n      swap2\n        /* \"#utility.yul\":7124:7354   */\n      swap1\n      pop\n      jump\t// out\n        /* \"#utility.yul\":8379:8715   */\n    tag_253:\n        /* \"#utility.yul\":8581:8583   */\n      0x20\n        /* \"#utility.yul\":8563:8584   */\n      dup1\n      dup3\n      mstore\n        /* \"#utility.yul\":8620:8622   */\n      0x0c\n        /* \"#utility.yul\":8600:8618   */\n      swap1\n      dup3\n      add\n        /* \"#utility.yul\":8593:8623   */\n      mstore\n      shl(0xa1, 0x3932b232b2b69032b93937b9)\n        /* \"#utility.yul\":8654:8656   */\n      0x40\n        /* \"#utility.yul\":8639:8657   */\n      dup3\n      add\n        /* \"#utility.yul\":8632:8674   */\n      mstore\n        /* \"#utility.yul\":8706:8708   */\n      0x60\n        /* \"#utility.yul\":8691:8709   */\n      add\n      swap1\n        /* \"#utility.yul\":8379:8715   */\n      jump\t// out\n        /* \"#utility.yul\":8720:9291   */\n    tag_289:\n        /* \"#utility.yul\":8987:9012   */\n      swap3\n      dup4\n      mstore\n        /* \"#utility.yul\":9043:9045   */\n      0x20\n        /* \"#utility.yul\":9028:9046   */\n      dup4\n      add\n        /* \"#utility.yul\":9021:9055   */\n      swap2\n      swap1\n      swap2\n      mstore\n      sub(shl(0xa0, 0x01), 0x01)\n        /* \"#utility.yul\":9091:9123   */\n      and\n        /* \"#utility.yul\":9086:9088   */\n      0x40\n        /* \"#utility.yul\":9071:9089   */\n      dup3\n      add\n        /* \"#utility.yul\":9064:9124   */\n      mstore\n        /* \"#utility.yul\":9160:9163   */\n      0x80\n        /* \"#utility.yul\":9155:9157   */\n      0x60\n        /* \"#utility.yul\":9140:9158   */\n      dup3\n      add\n        /* \"#utility.yul\":9133:9164   */\n      dup2\n      swap1\n      mstore\n        /* \"#utility.yul\":9201:9202   */\n      0x06\n        /* \"#utility.yul\":9180:9199   */\n      swap1\n      dup3\n      add\n        /* \"#utility.yul\":9173:9203   */\n      mstore\n      shl(0xd2, 0x0c1e0c4c8ccd)\n        /* \"#utility.yul\":9111:9114   */\n      0xa0\n        /* \"#utility.yul\":9219:9238   */\n      dup3\n      add\n        /* \"#utility.yul\":9212:9249   */\n      mstore\n        /* \"#utility.yul\":9281:9284   */\n      0xc0\n        /* \"#utility.yul\":9266:9285   */\n      add\n      swap1\n        /* \"#utility.yul\":8720:9291   */\n      jump\t// out\n        /* \"#utility.yul\":9296:9423   */\n    tag_651:\n        /* \"#utility.yul\":9357:9367   */\n      0x4e487b71\n        /* \"#utility.yul\":9352:9355   */\n      0xe0\n        /* \"#utility.yul\":9348:9368   */\n      shl\n        /* \"#utility.yul\":9345:9346   */\n      0x00\n        /* \"#utility.yul\":9338:9369   */\n      mstore\n        /* \"#utility.yul\":9388:9392   */\n      0x11\n        /* \"#utility.yul\":9385:9386   */\n      0x04\n        /* \"#utility.yul\":9378:9393   */\n      mstore\n        /* \"#utility.yul\":9412:9416   */\n      0x24\n        /* \"#utility.yul\":9409:9410   */\n      0x00\n        /* \"#utility.yul\":9402:9417   */\n      revert\n        /* \"#utility.yul\":9428:9556   */\n    tag_298:\n        /* \"#utility.yul\":9495:9504   */\n      dup2\n      dup2\n      sub\n        /* \"#utility.yul\":9516:9527   */\n      dup2\n      dup2\n      gt\n        /* \"#utility.yul\":9513:9550   */\n      iszero\n      tag_714\n      jumpi\n        /* \"#utility.yul\":9530:9548   */\n      tag_714\n      tag_651\n      jump\t// in\n    tag_714:\n        /* \"#utility.yul\":9428:9556   */\n      swap3\n      swap2\n      pop\n      pop\n      jump\t// out\n        /* \"#utility.yul\":9967:10365   */\n    tag_314:\n        /* \"#utility.yul\":10169:10171   */\n      0x20\n        /* \"#utility.yul\":10151:10172   */\n      dup1\n      dup3\n      mstore\n        /* \"#utility.yul\":10208:10210   */\n      0x22\n        /* \"#utility.yul\":10188:10206   */\n      swap1\n      dup3\n      add\n        /* \"#utility.yul\":10181:10211   */\n      mstore\n        /* \"#utility.yul\":10247:10281   */\n      0x6f6e65206d757374206265207a65726f2c206f6e65206d757374206265206774\n        /* \"#utility.yul\":10242:10244   */\n      0x40\n        /* \"#utility.yul\":10227:10245   */\n      dup3\n      add\n        /* \"#utility.yul\":10220:10282   */\n      mstore\n      shl(0xf4, 0x0203)\n        /* \"#utility.yul\":10313:10315   */\n      0x60\n        /* \"#utility.yul\":10298:10316   */\n      dup3\n      add\n        /* \"#utility.yul\":10291:10323   */\n      mstore\n        /* \"#utility.yul\":10355:10358   */\n      0x80\n        /* \"#utility.yul\":10340:10359   */\n      add\n      swap1\n        /* \"#utility.yul\":9967:10365   */\n      jump\t// out\n        /* \"#utility.yul\":10704:10831   */\n    tag_353:\n        /* \"#utility.yul\":10765:10775   */\n      0x4e487b71\n        /* \"#utility.yul\":10760:10763   */\n      0xe0\n        /* \"#utility.yul\":10756:10776   */\n      shl\n        /* \"#utility.yul\":10753:10754   */\n      0x00\n        /* \"#utility.yul\":10746:10777   */\n      mstore\n        /* \"#utility.yul\":10796:10800   */\n      0x41\n        /* \"#utility.yul\":10793:10794   */\n      0x04\n        /* \"#utility.yul\":10786:10801   */\n      mstore\n        /* \"#utility.yul\":10820:10824   */\n      0x24\n        /* \"#utility.yul\":10817:10818   */\n      0x00\n        /* \"#utility.yul\":10810:10825   */\n      revert\n        /* \"#utility.yul\":10836:10963   */\n    tag_357:\n        /* \"#utility.yul\":10897:10907   */\n      0x4e487b71\n        /* \"#utility.yul\":10892:10895   */\n      0xe0\n        /* \"#utility.yul\":10888:10908   */\n      shl\n        /* \"#utility.yul\":10885:10886   */\n      0x00\n        /* \"#utility.yul\":10878:10909   */\n      mstore\n        /* \"#utility.yul\":10928:10932   */\n      0x32\n        /* \"#utility.yul\":10925:10926   */\n      0x04\n        /* \"#utility.yul\":10918:10933   */\n      mstore\n        /* \"#utility.yul\":10952:10956   */\n      0x24\n        /* \"#utility.yul\":10949:10950   */\n      0x00\n        /* \"#utility.yul\":10942:10957   */\n      revert\n        /* \"#utility.yul\":10968:11605   */\n    tag_361:\n        /* \"#utility.yul\":11158:11160   */\n      0x20\n        /* \"#utility.yul\":11170:11191   */\n      dup1\n      dup3\n      mstore\n        /* \"#utility.yul\":11240:11253   */\n      dup3\n      mload\n        /* \"#utility.yul\":11143:11161   */\n      dup3\n      dup3\n      add\n        /* \"#utility.yul\":11262:11284   */\n      dup2\n      swap1\n      mstore\n        /* \"#utility.yul\":11110:11114   */\n      0x00\n      swap2\n        /* \"#utility.yul\":11341:11356   */\n      dup5\n      add\n      swap1\n        /* \"#utility.yul\":11315:11317   */\n      0x40\n        /* \"#utility.yul\":11300:11318   */\n      dup5\n      add\n      swap1\n        /* \"#utility.yul\":11110:11114   */\n      dup4\n        /* \"#utility.yul\":11384:11579   */\n    tag_721:\n        /* \"#utility.yul\":11398:11404   */\n      dup2\n        /* \"#utility.yul\":11395:11396   */\n      dup2\n        /* \"#utility.yul\":11392:11405   */\n      lt\n        /* \"#utility.yul\":11384:11579   */\n      iszero\n      tag_723\n      jumpi\n        /* \"#utility.yul\":11463:11476   */\n      dup4\n      mload\n      sub(shl(0xa0, 0x01), 0x01)\n        /* \"#utility.yul\":11459:11498   */\n      and\n        /* \"#utility.yul\":11447:11499   */\n      dup4\n      mstore\n        /* \"#utility.yul\":11528:11530   */\n      0x20\n        /* \"#utility.yul\":11554:11569   */\n      swap4\n      dup5\n      add\n      swap4\n        /* \"#utility.yul\":11519:11531   */\n      swap1\n      swap3\n      add\n      swap2\n        /* \"#utility.yul\":11495:11496   */\n      0x01\n        /* \"#utility.yul\":11413:11422   */\n      add\n        /* \"#utility.yul\":11384:11579   */\n      jump(tag_721)\n    tag_723:\n      pop\n        /* \"#utility.yul\":11596:11599   */\n      swap1\n      swap6\n        /* \"#utility.yul\":10968:11605   */\n      swap5\n      pop\n      pop\n      pop\n      pop\n      pop\n      jump\t// out\n        /* \"#utility.yul\":11610:12775   */\n    tag_365:\n        /* \"#utility.yul\":11705:11711   */\n      0x00\n        /* \"#utility.yul\":11758:11760   */\n      0x20\n        /* \"#utility.yul\":11746:11755   */\n      dup3\n        /* \"#utility.yul\":11737:11744   */\n      dup5\n        /* \"#utility.yul\":11733:11756   */\n      sub\n        /* \"#utility.yul\":11729:11761   */\n      slt\n        /* \"#utility.yul\":11726:11778   */\n      iszero\n      tag_725\n      jumpi\n        /* \"#utility.yul\":11774:11775   */\n      0x00\n        /* \"#utility.yul\":11771:11772   */\n      0x00\n        /* \"#utility.yul\":11764:11776   */\n      revert\n        /* \"#utility.yul\":11726:11778   */\n    tag_725:\n        /* \"#utility.yul\":11807:11816   */\n      dup2\n        /* \"#utility.yul\":11801:11817   */\n      mload\n        /* \"#utility.yul\":11840:11858   */\n      0xffffffffffffffff\n        /* \"#utility.yul\":11832:11838   */\n      dup2\n        /* \"#utility.yul\":11829:11859   */\n      gt\n        /* \"#utility.yul\":11826:11876   */\n      iszero\n      tag_726\n      jumpi\n        /* \"#utility.yul\":11872:11873   */\n      0x00\n        /* \"#utility.yul\":11869:11870   */\n      0x00\n        /* \"#utility.yul\":11862:11874   */\n      revert\n        /* \"#utility.yul\":11826:11876   */\n    tag_726:\n        /* \"#utility.yul\":11895:11917   */\n      dup3\n      add\n        /* \"#utility.yul\":11948:11952   */\n      0x1f\n        /* \"#utility.yul\":11940:11953   */\n      dup2\n      add\n        /* \"#utility.yul\":11936:11963   */\n      dup5\n      sgt\n        /* \"#utility.yul\":11926:11981   */\n      tag_727\n      jumpi\n        /* \"#utility.yul\":11977:11978   */\n      0x00\n        /* \"#utility.yul\":11974:11975   */\n      0x00\n        /* \"#utility.yul\":11967:11979   */\n      revert\n        /* \"#utility.yul\":11926:11981   */\n    tag_727:\n        /* \"#utility.yul\":12010:12012   */\n      dup1\n        /* \"#utility.yul\":12004:12013   */\n      mload\n        /* \"#utility.yul\":12036:12054   */\n      0xffffffffffffffff\n        /* \"#utility.yul\":12028:12034   */\n      dup2\n        /* \"#utility.yul\":12025:12055   */\n      gt\n        /* \"#utility.yul\":12022:12078   */\n      iszero\n      tag_729\n      jumpi\n        /* \"#utility.yul\":12058:12076   */\n      tag_729\n      tag_353\n      jump\t// in\n    tag_729:\n        /* \"#utility.yul\":12104:12110   */\n      dup1\n        /* \"#utility.yul\":12101:12102   */\n      0x05\n        /* \"#utility.yul\":12097:12111   */\n      shl\n        /* \"#utility.yul\":12140:12142   */\n      0x40\n        /* \"#utility.yul\":12134:12143   */\n      mload\n        /* \"#utility.yul\":12203:12205   */\n      0x1f\n        /* \"#utility.yul\":12199:12206   */\n      not\n        /* \"#utility.yul\":12194:12196   */\n      0x3f\n        /* \"#utility.yul\":12190:12192   */\n      dup4\n        /* \"#utility.yul\":12186:12197   */\n      add\n        /* \"#utility.yul\":12182:12207   */\n      and\n        /* \"#utility.yul\":12174:12180   */\n      dup2\n        /* \"#utility.yul\":12170:12208   */\n      add\n        /* \"#utility.yul\":12274:12280   */\n      dup2\n        /* \"#utility.yul\":12262:12272   */\n      dup2\n        /* \"#utility.yul\":12259:12281   */\n      lt\n        /* \"#utility.yul\":12238:12256   */\n      0xffffffffffffffff\n        /* \"#utility.yul\":12226:12236   */\n      dup3\n        /* \"#utility.yul\":12223:12257   */\n      gt\n        /* \"#utility.yul\":12220:12282   */\n      or\n        /* \"#utility.yul\":12217:12305   */\n      iszero\n      tag_731\n      jumpi\n        /* \"#utility.yul\":12285:12303   */\n      tag_731\n      tag_353\n      jump\t// in\n    tag_731:\n        /* \"#utility.yul\":12321:12323   */\n      0x40\n        /* \"#utility.yul\":12314:12336   */\n      mstore\n        /* \"#utility.yul\":12371:12393   */\n      swap2\n      dup3\n      mstore\n        /* \"#utility.yul\":12421:12423   */\n      0x20\n        /* \"#utility.yul\":12451:12462   */\n      dup2\n      dup5\n      add\n        /* \"#utility.yul\":12447:12467   */\n      dup2\n      add\n      swap3\n        /* \"#utility.yul\":12371:12393   */\n      swap1\n        /* \"#utility.yul\":12409:12424   */\n      dup2\n      add\n        /* \"#utility.yul\":12479:12498   */\n      dup8\n      dup5\n      gt\n        /* \"#utility.yul\":12476:12515   */\n      iszero\n      tag_732\n      jumpi\n        /* \"#utility.yul\":12511:12512   */\n      0x00\n        /* \"#utility.yul\":12508:12509   */\n      0x00\n        /* \"#utility.yul\":12501:12513   */\n      revert\n        /* \"#utility.yul\":12476:12515   */\n    tag_732:\n        /* \"#utility.yul\":12543:12545   */\n      0x20\n        /* \"#utility.yul\":12539:12541   */\n      dup6\n        /* \"#utility.yul\":12535:12546   */\n      add\n        /* \"#utility.yul\":12524:12546   */\n      swap5\n      pop\n        /* \"#utility.yul\":12555:12744   */\n    tag_733:\n        /* \"#utility.yul\":12571:12577   */\n      dup4\n        /* \"#utility.yul\":12566:12569   */\n      dup6\n        /* \"#utility.yul\":12563:12578   */\n      lt\n        /* \"#utility.yul\":12555:12744   */\n      iszero\n      tag_735\n      jumpi\n        /* \"#utility.yul\":12661:12671   */\n      dup5\n      mload\n        /* \"#utility.yul\":12684:12702   */\n      dup1\n      dup3\n      mstore\n        /* \"#utility.yul\":12731:12733   */\n      0x20\n        /* \"#utility.yul\":12588:12600   */\n      swap6\n      dup7\n      add\n      swap6\n        /* \"#utility.yul\":12661:12671   */\n      swap1\n      swap4\n      pop\n        /* \"#utility.yul\":12722:12734   */\n      add\n        /* \"#utility.yul\":12555:12744   */\n      jump(tag_733)\n    tag_735:\n      pop\n        /* \"#utility.yul\":12763:12769   */\n      swap7\n        /* \"#utility.yul\":11610:12775   */\n      swap6\n      pop\n      pop\n      pop\n      pop\n      pop\n      pop\n      jump\t// out\n        /* \"#utility.yul\":12994:13173   */\n    tag_652:\n        /* \"#utility.yul\":13072:13085   */\n      dup1\n      mload\n        /* \"#utility.yul\":13125:13147   */\n      0xffffffffffffffffffff\n        /* \"#utility.yul\":13114:13148   */\n      dup2\n      and\n        /* \"#utility.yul\":13104:13149   */\n      dup2\n      eq\n        /* \"#utility.yul\":13094:13167   */\n      tag_698\n      jumpi\n        /* \"#utility.yul\":13163:13164   */\n      0x00\n        /* \"#utility.yul\":13160:13161   */\n      0x00\n        /* \"#utility.yul\":13153:13165   */\n      revert\n        /* \"#utility.yul\":13178:13749   */\n    tag_374:\n        /* \"#utility.yul\":13281:13287   */\n      0x00\n        /* \"#utility.yul\":13289:13295   */\n      0x00\n        /* \"#utility.yul\":13297:13303   */\n      0x00\n        /* \"#utility.yul\":13305:13311   */\n      0x00\n        /* \"#utility.yul\":13313:13319   */\n      0x00\n        /* \"#utility.yul\":13366:13369   */\n      0xa0\n        /* \"#utility.yul\":13354:13363   */\n      dup7\n        /* \"#utility.yul\":13345:13352   */\n      dup9\n        /* \"#utility.yul\":13341:13364   */\n      sub\n        /* \"#utility.yul\":13337:13370   */\n      slt\n        /* \"#utility.yul\":13334:13387   */\n      iszero\n      tag_740\n      jumpi\n        /* \"#utility.yul\":13383:13384   */\n      0x00\n        /* \"#utility.yul\":13380:13381   */\n      0x00\n        /* \"#utility.yul\":13373:13385   */\n      revert\n        /* \"#utility.yul\":13334:13387   */\n    tag_740:\n        /* \"#utility.yul\":13406:13445   */\n      tag_741\n        /* \"#utility.yul\":13435:13444   */\n      dup7\n        /* \"#utility.yul\":13406:13445   */\n      tag_652\n      jump\t// in\n    tag_741:\n        /* \"#utility.yul\":13485:13487   */\n      0x20\n        /* \"#utility.yul\":13470:13488   */\n      dup8\n      add\n        /* \"#utility.yul\":13464:13489   */\n      mload\n        /* \"#utility.yul\":13551:13553   */\n      0x40\n        /* \"#utility.yul\":13536:13554   */\n      dup9\n      add\n        /* \"#utility.yul\":13530:13555   */\n      mload\n        /* \"#utility.yul\":13645:13647   */\n      0x60\n        /* \"#utility.yul\":13630:13648   */\n      dup10\n      add\n        /* \"#utility.yul\":13624:13649   */\n      mload\n        /* \"#utility.yul\":13396:13445   */\n      swap3\n      swap8\n      pop\n        /* \"#utility.yul\":13464:13489   */\n      swap1\n      swap6\n      pop\n        /* \"#utility.yul\":13530:13555   */\n      swap4\n      pop\n        /* \"#utility.yul\":13624:13649   */\n      swap2\n      pop\n        /* \"#utility.yul\":13694:13743   */\n      tag_742\n        /* \"#utility.yul\":13738:13741   */\n      0x80\n        /* \"#utility.yul\":13723:13742   */\n      dup8\n      add\n        /* \"#utility.yul\":13694:13743   */\n      tag_652\n      jump\t// in\n    tag_742:\n        /* \"#utility.yul\":13684:13743   */\n      swap1\n      pop\n        /* \"#utility.yul\":13178:13749   */\n      swap3\n      swap6\n      pop\n      swap3\n      swap6\n      swap1\n      swap4\n      pop\n      jump\t// out\n        /* \"#utility.yul\":17108:17353   */\n    tag_511:\n        /* \"#utility.yul\":17175:17181   */\n      0x00\n        /* \"#utility.yul\":17228:17230   */\n      0x20\n        /* \"#utility.yul\":17216:17225   */\n      dup3\n        /* \"#utility.yul\":17207:17214   */\n      dup5\n        /* \"#utility.yul\":17203:17226   */\n      sub\n        /* \"#utility.yul\":17199:17231   */\n      slt\n        /* \"#utility.yul\":17196:17248   */\n      iszero\n      tag_754\n      jumpi\n        /* \"#utility.yul\":17244:17245   */\n      0x00\n        /* \"#utility.yul\":17241:17242   */\n      0x00\n        /* \"#utility.yul\":17234:17246   */\n      revert\n        /* \"#utility.yul\":17196:17248   */\n    tag_754:\n        /* \"#utility.yul\":17276:17285   */\n      dup2\n        /* \"#utility.yul\":17270:17286   */\n      mload\n        /* \"#utility.yul\":17295:17323   */\n      tag_691\n        /* \"#utility.yul\":17317:17322   */\n      dup2\n        /* \"#utility.yul\":17295:17323   */\n      tag_649\n      jump\t// in\n        /* \"#utility.yul\":18783:18908   */\n    tag_546:\n        /* \"#utility.yul\":18848:18857   */\n      dup1\n      dup3\n      add\n        /* \"#utility.yul\":18869:18879   */\n      dup1\n      dup3\n      gt\n        /* \"#utility.yul\":18866:18902   */\n      iszero\n      tag_714\n      jumpi\n        /* \"#utility.yul\":18882:18900   */\n      tag_714\n      tag_651\n      jump\t// in\n        /* \"#utility.yul\":19619:19787   */\n    tag_556:\n        /* \"#utility.yul\":19692:19701   */\n      dup1\n      dup3\n      mul\n        /* \"#utility.yul\":19723:19732   */\n      dup2\n      iszero\n        /* \"#utility.yul\":19740:19755   */\n      dup3\n      dup3\n      div\n        /* \"#utility.yul\":19734:19756   */\n      dup5\n      eq\n        /* \"#utility.yul\":19720:19757   */\n      or\n        /* \"#utility.yul\":19710:19781   */\n      tag_714\n      jumpi\n        /* \"#utility.yul\":19761:19779   */\n      tag_714\n      tag_651\n      jump\t// in\n        /* \"#utility.yul\":19792:20009   */\n    tag_561:\n        /* \"#utility.yul\":19832:19833   */\n      0x00\n        /* \"#utility.yul\":19858:19859   */\n      dup3\n        /* \"#utility.yul\":19848:19980   */\n      tag_769\n      jumpi\n        /* \"#utility.yul\":19902:19912   */\n      0x4e487b71\n        /* \"#utility.yul\":19897:19900   */\n      0xe0\n        /* \"#utility.yul\":19893:19913   */\n      shl\n        /* \"#utility.yul\":19890:19891   */\n      0x00\n        /* \"#utility.yul\":19883:19914   */\n      mstore\n        /* \"#utility.yul\":19937:19941   */\n      0x12\n        /* \"#utility.yul\":19934:19935   */\n      0x04\n        /* \"#utility.yul\":19927:19942   */\n      mstore\n        /* \"#utility.yul\":19965:19969   */\n      0x24\n        /* \"#utility.yul\":19962:19963   */\n      0x00\n        /* \"#utility.yul\":19955:19970   */\n      revert\n        /* \"#utility.yul\":19848:19980   */\n    tag_769:\n      pop\n        /* \"#utility.yul\":19994:20003   */\n      div\n      swap1\n        /* \"#utility.yul\":19792:20009   */\n      jump\t// out\n        /* \"#utility.yul\":20014:20315   */\n    tag_566:\n        /* \"#utility.yul\":20143:20146   */\n      0x00\n        /* \"#utility.yul\":20181:20187   */\n      dup3\n        /* \"#utility.yul\":20175:20188   */\n      mload\n        /* \"#utility.yul\":20227:20233   */\n      dup1\n        /* \"#utility.yul\":20220:20224   */\n      0x20\n        /* \"#utility.yul\":20212:20218   */\n      dup6\n        /* \"#utility.yul\":20208:20225   */\n      add\n        /* \"#utility.yul\":20203:20206   */\n      dup5\n        /* \"#utility.yul\":20197:20234   */\n      mcopy\n        /* \"#utility.yul\":20289:20290   */\n      0x00\n        /* \"#utility.yul\":20253:20269   */\n      swap3\n      add\n        /* \"#utility.yul\":20278:20291   */\n      swap2\n      dup3\n      mstore\n      pop\n        /* \"#utility.yul\":20253:20269   */\n      swap2\n        /* \"#utility.yul\":20014:20315   */\n      swap1\n      pop\n      jump\t// out\n\n    auxdata: 0xa2646970667358221220252c2b80791f0aa45f2ff1c62af09b71a8e41a302a87e5fab46ed114f84243dc64736f6c634300081b0033\n}\n",
				"bytecode": {
					"linkReferences": {},
					"object": "6080604052348015600e575f5ffd5b50601633601a565b6069565b5f80546001600160a01b038381166001600160a01b0319831681178455604051919092169283917f8be0079c531659141344cd1fd0a4f28419497f9722a3daafe3b4186f6b6457e09190a35050565b61376a806100765f395ff3fe6080604052600436106101bd575f3560e01c80638a29e2de116100f2578063c721946011610092578063f083ff9a11610062578063f083ff9a1461055c578063f2fde38b1461057b578063f6326fb31461059a578063f688bcfb146105a2575f5ffd5b8063c7219460146104e0578063c7cdea37146104ff578063ce347a3e1461051e578063ed072e221461053d575f5ffd5b80638fd1ef61116100cd5780638fd1ef611461046e5780639f03909014610483578063a1b4d011146104a2578063a5cdc8fc146104c1575f5ffd5b80638a29e2de1461041f5780638da5cb5b1461043e5780638e15f4731461045a575f5ffd5b80635662ecc71161015d578063715018a611610138578063715018a6146103b8578063741bef1a146103cc578063883f9741146103eb57806388e0866514610400575f5ffd5b80635662ecc7146103655780635fe3b5671461037a5780636d89ba2a14610399575f5ffd5b80633e413bee116101985780633e413bee146102525780633fc8cef31461028957806349bd5a5e146102a857806353061026146102c7575f5ffd5b806309fffa84146101e257806310d1e85c146102145780633b7ba77014610233575f5ffd5b366101de576001546001600160a01b031633146101dc576101dc61317f565b005b5f5ffd5b3480156101ed575f5ffd5b506102016101fc3660046131a7565b6105b5565b6040519081526020015b60405180910390f35b34801561021f575f5ffd5b506101dc61022e3660046131e5565b61062b565b34801561023e575f5ffd5b5061020161024d3660046131a7565b610e2c565b34801561025d575f5ffd5b50600254610271906001600160a01b031681565b6040516001600160a01b03909116815260200161020b565b348015610294575f5ffd5b50600154610271906001600160a01b031681565b3480156102b3575f5ffd5b50600354610271906001600160a01b031681565b3480156102d2575f5ffd5b506103256102e1366004613275565b60096020525f908152604090208054600182015460028301546003840154600485015460059095015460ff808616966101009096041694906001600160a01b031687565b6040805197151588529515156020880152948601939093526060850191909152608084015260a08301526001600160a01b031660c082015260e00161020b565b348015610370575f5ffd5b5061020160085481565b348015610385575f5ffd5b50600654610271906001600160a01b031681565b3480156103a4575f5ffd5b506102016103b3366004613299565b610e95565b3480156103c3575f5ffd5b506101dc611189565b3480156103d7575f5ffd5b50600754610271906001600160a01b031681565b3480156103f6575f5ffd5b5061020160125481565b34801561040b575f5ffd5b506101dc61041a3660046132c7565b61119c565b34801561042a575f5ffd5b506101dc6104393660046132e7565b611448565b348015610449575f5ffd5b505f546001600160a01b0316610271565b348015610465575f5ffd5b506102016116bc565b348015610479575f5ffd5b5061020160115481565b34801561048e575f5ffd5b506101dc61049d366004613275565b61173d565b3480156104ad575f5ffd5b50600454610271906001600160a01b031681565b3480156104cc575f5ffd5b506101dc6104db366004613275565b611751565b3480156104eb575f5ffd5b506101dc6104fa366004613275565b6119a1565b34801561050a575f5ffd5b506101dc6105193660046132c7565b611c6c565b348015610529575f5ffd5b50600554610271906001600160a01b031681565b348015610548575f5ffd5b506101dc610557366004613275565b611e9b565b348015610567575f5ffd5b50610201610576366004613299565b611eac565b348015610586575f5ffd5b506101dc61059536600461338b565b61216b565b6101dc6121e1565b6101dc6105b0366004613275565b612309565b5f6105be612507565b6105cc600186868686612560565b6040805182815260208101889052908101869052606081018590529091506001600160a01b038316907f0d3f71d54beaf5776a99a3c0c84a1207de2861ede3d1d85dfcc17df11ebab1d7906080015b60405180910390a2949350505050565b6003546001600160a01b0316331461067f5760405162461bcd60e51b815260206004820152601260248201527137b7363c903ab734b9bbb0b82b192830b4b960711b60448201526064015b60405180910390fd5b60035460408051630dfe168160e01b815290515f926001600160a01b031691630dfe16819160048083019260209291908290030181865afa1580156106c6573d5f5f3e3d5ffd5b505050506040513d601f19601f820116820180604052508101906106ea91906133ad565b90505f60035f9054906101000a90046001600160a01b03166001600160a01b031663d21220a76040518163ffffffff1660e01b8152600401602060405180830381865afa15801561073d573d5f5f3e3d5ffd5b505050506040513d601f19601f8201168201806040525081019061076191906133ad565b90505f5f60035f9054906101000a90046001600160a01b03166001600160a01b0316630902f1ac6040518163ffffffff1660e01b8152600401606060405180830381865afa1580156107b5573d5f5f3e3d5ffd5b505050506040513d601f19601f820116820180604052508101906107d991906133e3565b5090925090505f8080808b156108035750869250506001600160701b03808416915084168a610819565b50859250506001600160701b0380851691508316895b5f610825828585612759565b600a5490915060ff1615610bbb57600c819055600a54610100900460ff16156109d057600154604051632e1a7d4d60e01b8152600481018490526001600160a01b0390911690632e1a7d4d906024015f604051808303815f87803b15801561088b575f5ffd5b505af115801561089d573d5f5f3e3d5ffd5b5050505060045f9054906101000a90046001600160a01b03166001600160a01b0316631249c58b836040518263ffffffff1660e01b81526004015f604051808303818588803b1580156108ee575f5ffd5b505af1158015610900573d5f5f3e3d5ffd5b505060055460405163317afabb60e21b8152600481018690526001600160a01b03909116935063c5ebeaec925060240190506020604051808303815f875af115801561094e573d5f5f3e3d5ffd5b505050506040513d601f19601f82011682018060405250810190610972919061342f565b156109ae5760405162461bcd60e51b815260206004820152600c60248201526b3137b93937bb9032b93937b960a11b6044820152606401610676565b6002546003546109cb916001600160a01b0390811691168361284d565b610e1c565b6002546005546109ed916001600160a01b03908116911684612979565b60055460405163140e25ad60e31b8152600481018490526001600160a01b039091169063a0712d68906024016020604051808303815f875af1158015610a35573d5f5f3e3d5ffd5b505050506040513d601f19601f82011682018060405250810190610a59919061342f565b15610a935760405162461bcd60e51b815260206004820152600a60248201526936b4b73a1032b93937b960b11b6044820152606401610676565b6004805460405163317afabb60e21b81529182018390526001600160a01b03169063c5ebeaec906024016020604051808303815f875af1158015610ad9573d5f5f3e3d5ffd5b505050506040513d601f19601f82011682018060405250810190610afd919061342f565b15610b395760405162461bcd60e51b815260206004820152600c60248201526b3137b93937bb9032b93937b960a11b6044820152606401610676565b60015f9054906101000a90046001600160a01b03166001600160a01b031663d0e30db0826040518263ffffffff1660e01b81526004015f604051808303818588803b158015610b86575f5ffd5b505af1158015610b98573d5f5f3e3d5ffd5b50506001546003546109cb94506001600160a01b0391821693501690508361284d565b600f819055600a54610100900460ff1615610d1b57600254600554610bed916001600160a01b03908116911684612979565b60055460405163073a938160e11b8152600481018490526001600160a01b0390911690630e752702906024016020604051808303815f875af1158015610c35573d5f5f3e3d5ffd5b505050506040513d601f19601f82011682018060405250810190610c59919061342f565b15610c945760405162461bcd60e51b815260206004820152600b60248201526a3932b830bc9032b93937b960a91b6044820152606401610676565b6004805460405163852a12e360e01b81529182018390526001600160a01b03169063852a12e3906024016020604051808303815f875af1158015610cda573d5f5f3e3d5ffd5b505050506040513d601f19601f82011682018060405250810190610cfe919061342f565b15610b395760405162461bcd60e51b815260040161067690613446565b6004805460408051632726cff560e11b815290516001600160a01b0390921692634e4d9fea928692808301925f929182900301818588803b158015610d5e575f5ffd5b505af1158015610d70573d5f5f3e3d5ffd5b505060055460405163852a12e360e01b8152600481018690526001600160a01b03909116935063852a12e3925060240190506020604051808303815f875af1158015610dbe573d5f5f3e3d5ffd5b505050506040513d601f19601f82011682018060405250810190610de2919061342f565b15610dff5760405162461bcd60e51b815260040161067690613446565b600254600354610e1c916001600160a01b0390811691168361284d565b5050505050505050505050505050565b5f610e35612507565b610e425f86868686612560565b6040805182815260208101889052908101869052606081018590529091506001600160a01b038316907fa88905c54863632716f8c0132503b7e5d225a2537cd992c34fef80a5f6c2d8009060800161061b565b5f610e9e612507565b6005546040516395dd919360e01b81523060048201525f916001600160a01b0316906395dd919390602401602060405180830381865afa158015610ee4573d5f5f3e3d5ffd5b505050506040513d601f19601f82011682018060405250810190610f08919061342f565b905082610f155783610f17565b805b91505f60035f9054906101000a90046001600160a01b03166001600160a01b0316630dfe16816040518163ffffffff1660e01b8152600401602060405180830381865afa158015610f6a573d5f5f3e3d5ffd5b505050506040513d601f19601f82011682018060405250810190610f8e91906133ad565b6002549091505f9081906001600160a01b0390811690841603610fb357849150610fb6565b50835b6040805161010080820183525f80835260016020840152828401819052606083018190526080830181905260a0830181905260c0830181905260e0909201889052600a805461ffff19169091179055600b819055600c819055600d819055600e819055600f556010869055600354905163022c0d9f60e01b81526001600160a01b039091169063022c0d9f906110549085908590309060040161346c565b5f604051808303815f87803b15801561106b575f5ffd5b505af115801561107d573d5f5f3e3d5ffd5b5050600480546040516370a0823160e01b815230928101929092525f93506001600160a01b031691506370a0823190602401602060405180830381865afa1580156110ca573d5f5f3e3d5ffd5b505050506040513d601f19601f820116820180604052508101906110ee919061342f565b90505f816011546110ff91906134bd565b6011839055600f54604080518381526020810192909252810189905289151560608201529091507f37b43c784f8d7bce65eda84311e0e462cf6fd3db2f40193ef86e97b610f0c06f906080015b60405180910390a15050600a805461ffff1916905550505f600b819055600c819055600d819055600e819055600f81905560105550909392505050565b611191612507565b61119a5f612a9c565b565b6111a4612507565b5f821180156111b1575080155b806111c45750811580156111c457505f81115b6111e05760405162461bcd60e51b8152600401610676906134d6565b81156112745760055460405163db006a7560e01b8152600481018490526001600160a01b039091169063db006a75906024016020604051808303815f875af115801561122e573d5f5f3e3d5ffd5b505050506040513d601f19601f82011682018060405250810190611252919061342f565b1561126f5760405162461bcd60e51b815260040161067690613446565b6112fd565b60055460405163852a12e360e01b8152600481018390526001600160a01b039091169063852a12e3906024016020604051808303815f875af11580156112bc573d5f5f3e3d5ffd5b505050506040513d601f19601f820116820180604052508101906112e0919061342f565b156112fd5760405162461bcd60e51b815260040161067690613446565b6005546040516370a0823160e01b81523060048201525f916001600160a01b0316906370a0823190602401602060405180830381865afa158015611343573d5f5f3e3d5ffd5b505050506040513d601f19601f82011682018060405250810190611367919061342f565b90508060125461137791906134bd565b60128290556002546040516370a0823160e01b81523060048201529194506001600160a01b0316906370a0823190602401602060405180830381865afa1580156113c3573d5f5f3e3d5ffd5b505050506040513d601f19601f820116820180604052508101906113e7919061342f565b600254909250611401906001600160a01b0316338461284d565b604080515f8152602081018590529081018390527ffedb0622d5d5fa46cc706a5c2c169f2bf2eb31a59ff2f70cef3096376f58c2c0906060015b60405180910390a1505050565b7ff0c57e16840df040f15088dc2f81fe391c3923bec73e23a9662efc9c229c6a008054600160401b810460ff16159067ffffffffffffffff165f8115801561148d5750825b90505f8267ffffffffffffffff1660011480156114a95750303b155b9050811580156114b7575080155b156114d55760405163f92ee8a960e01b815260040160405180910390fd5b845467ffffffffffffffff1916600117855583156114ff57845460ff60401b1916600160401b1785555b6115088d61216b565b600180546001600160a01b03199081166001600160a01b038f8116919091179092556002805482168e84161781556003805483168e85161790556004805483168d85161790556005805483168c85161790556006805483168b851617905560078054909216928916929092179055604080518281526060810182525f929091602083019080368337505060045482519293506001600160a01b0316918391505f906115b5576115b561352c565b6001600160a01b0392831660209182029290920101526005548251911690829060019081106115e6576115e661352c565b6001600160a01b039283166020918202929092010152600654604051631853304760e31b815291169063c299823890611623908490600401613540565b5f604051808303815f875af115801561163e573d5f5f3e3d5ffd5b505050506040513d5f823e601f3d908101601f19168201604052611665919081019061358b565b505083156116ad57845460ff60401b19168555604051600181527fc7f505b2f371ae2175ee4913f4499e1f2633a7b5936321eed1cdaeb6115181d29060200160405180910390a15b50505050505050505050505050565b5f5f60075f9054906101000a90046001600160a01b03166001600160a01b031663feaf968c6040518163ffffffff1660e01b815260040160a060405180830381865afa15801561170e573d5f5f3e3d5ffd5b505050506040513d601f19601f82011682018060405250810190611732919061366c565b509195945050505050565b611745612507565b61174e81612aeb565b50565b611759612507565b5f8111801561176a57506008548111155b6117a85760405162461bcd60e51b815260206004820152600f60248201526e1bdc99195c881b9bdd08199bdd5b99608a1b6044820152606401610676565b5f81815260096020908152604091829020825160e081018452815460ff8082161515835261010090910416158015938201939093526001820154938101939093526002810154606084015260038101546080840152600481015460a0840152600501546001600160a01b031660c08301526118585760405162461bcd60e51b815260206004820152601060248201526f185b1c9958591e4818d85b98d95b195960821b6044820152606401610676565b60808101511561189a5760405162461bcd60e51b815260206004820152600d60248201526c185b1c9958591e481919585b1d609a1b6044820152606401610676565b428160a00151116118df5760405162461bcd60e51b815260206004820152600f60248201526e185b1c9958591e48195e1c1a5c9959608a1b6044820152606401610676565b600160208281018281525f8581526009835260409081902085518154935161ffff1990941690151561ff00191617610100931515939093029290921782558085015193820193909355606084015160028201556080840151600382015560a0840151600482015560c0840151600590910180546001600160a01b0319166001600160a01b0390921691909117905590518381527facb097d265630549c66967ff31a6d9a30a35656b951b1fe2d90a3499ba29ee26910160405180910390a15050565b5f811180156119b257506008548111155b6119f05760405162461bcd60e51b815260206004820152600f60248201526e1bdc99195c881b9bdd08199bdd5b99608a1b6044820152606401610676565b5f81815260096020908152604091829020825160e081018452815460ff80821615158352610100909104161515928101929092526001810154928201929092526002820154606082015260038201546080820152600482015460a08201526005909101546001600160a01b031660c082018190523314611aa35760405162461bcd60e51b815260206004820152600e60248201526d3932b8bab4b9329035b2b2b832b960911b6044820152606401610676565b806020015115611ae85760405162461bcd60e51b815260206004820152601060248201526f185b1c9958591e4818d85b98d95b195960821b6044820152606401610676565b608081015115611b2a5760405162461bcd60e51b815260206004820152600d60248201526c185b1c9958591e481919585b1d609a1b6044820152606401610676565b428160a0015111611b6f5760405162461bcd60e51b815260206004820152600f60248201526e185b1c9958591e48195e1c1a5c9959608a1b6044820152606401610676565b5f611b786116bc565b825190915015611bdf578082606001511015611bcd5760405162461bcd60e51b81526020600482015260146024820152736e6f74207265616368206c696d6974507269636560601b6044820152606401610676565b611bda8260400151612aeb565b611c36565b8082606001511115611c295760405162461bcd60e51b81526020600482015260136024820152726e6f742072616368206c696d6974507269636560681b6044820152606401610676565b611c368260400151612d45565b60408051848152602081018390527fba5c68549d7afe892d9d1e6d4acdb167b18828851f715d44db58adb8b0f91aca910161143b565b611c74612507565b5f82118015611c81575080155b80611c94575081158015611c9457505f81115b611cb05760405162461bcd60e51b8152600401610676906134d6565b8115611d42576004805460405163db006a7560e01b81529182018490526001600160a01b03169063db006a75906024016020604051808303815f875af1158015611cfc573d5f5f3e3d5ffd5b505050506040513d601f19601f82011682018060405250810190611d20919061342f565b15611d3d5760405162461bcd60e51b815260040161067690613446565b611dc9565b6004805460405163852a12e360e01b81529182018390526001600160a01b03169063852a12e3906024016020604051808303815f875af1158015611d88573d5f5f3e3d5ffd5b505050506040513d601f19601f82011682018060405250810190611dac919061342f565b15611dc95760405162461bcd60e51b815260040161067690613446565b600480546040516370a0823160e01b815230928101929092525f916001600160a01b03909116906370a0823190602401602060405180830381865afa158015611e14573d5f5f3e3d5ffd5b505050506040513d601f19601f82011682018060405250810190611e38919061342f565b905080601154611e4891906134bd565b60118290559250479150611e5c3347612f6b565b6040805160018152602081018590529081018390527ffedb0622d5d5fa46cc706a5c2c169f2bf2eb31a59ff2f70cef3096376f58c2c09060600161143b565b611ea3612507565b61174e81612d45565b5f611eb5612507565b600480546040516395dd919360e01b815230928101929092525f916001600160a01b03909116906395dd919390602401602060405180830381865afa158015611f00573d5f5f3e3d5ffd5b505050506040513d601f19601f82011682018060405250810190611f24919061342f565b905082611f315783611f33565b805b91505f60035f9054906101000a90046001600160a01b03166001600160a01b0316630dfe16816040518163ffffffff1660e01b8152600401602060405180830381865afa158015611f86573d5f5f3e3d5ffd5b505050506040513d601f19601f82011682018060405250810190611faa91906133ad565b6001549091505f9081906001600160a01b0390811690841603611fcf57849150611fd2565b50835b6040805161010080820183525f80835260016020840152828401819052606083018190526080830181905260a0830181905260c0830181905260e0909201889052600a805461ffff19169091179055600b819055600c819055600d819055600e819055600f556010869055600354905163022c0d9f60e01b81526001600160a01b039091169063022c0d9f906120709085908590309060040161346c565b5f604051808303815f87803b158015612087575f5ffd5b505af1158015612099573d5f5f3e3d5ffd5b50506005546040516370a0823160e01b81523060048201525f93506001600160a01b0390911691506370a0823190602401602060405180830381865afa1580156120e5573d5f5f3e3d5ffd5b505050506040513d601f19601f82011682018060405250810190612109919061342f565b90505f8160125461211a91906134bd565b6012839055600f54604080518381526020810192909252810189905289151560608201529091507f78ce03753721a9db485dbe4101e71eb7c530f35bf14365d3b53e0465bc54c0c59060800161114c565b612173612507565b6001600160a01b0381166121d85760405162461bcd60e51b815260206004820152602660248201527f4f776e61626c653a206e6577206f776e657220697320746865207a65726f206160448201526564647265737360d01b6064820152608401610676565b61174e81612a9c565b6121e9612507565b6004805460408051631249c58b60e01b8152905134936001600160a01b0390931692631249c58b928592818301925f9282900301818588803b15801561222d575f5ffd5b505af115801561223f573d5f5f3e3d5ffd5b5050600480546040516370a0823160e01b815230928101929092525f94506001600160a01b031692506370a082319150602401602060405180830381865afa15801561228d573d5f5f3e3d5ffd5b505050506040513d601f19601f820116820180604052508101906122b1919061342f565b90505f601154826122c291906134bd565b60118390556040805160018152602081018690529081018290529091507f1c49111414d8cd618ba259b16508c34541a4f27a1e3c4372c0f358d5086652bd9060600161143b565b612311612507565b600254612329906001600160a01b0316333084613046565b60025460055460405163095ea7b360e01b81526001600160a01b0391821660048201526024810184905291169063095ea7b3906044016020604051808303815f875af115801561237b573d5f5f3e3d5ffd5b505050506040513d601f19601f8201168201806040525081019061239f91906136ba565b5060055460405163140e25ad60e31b8152600481018390526001600160a01b039091169063a0712d68906024016020604051808303815f875af11580156123e8573d5f5f3e3d5ffd5b505050506040513d601f19601f8201168201806040525081019061240c919061342f565b156124465760405162461bcd60e51b815260206004820152600a60248201526936b4b73a1032b93937b960b11b6044820152606401610676565b6005546040516370a0823160e01b81523060048201525f916001600160a01b0316906370a0823190602401602060405180830381865afa15801561248c573d5f5f3e3d5ffd5b505050506040513d601f19601f820116820180604052508101906124b0919061342f565b90505f601254826124c191906134bd565b6011839055604080515f8152602081018690529081018290529091507f1c49111414d8cd618ba259b16508c34541a4f27a1e3c4372c0f358d5086652bd9060600161143b565b5f546001600160a01b0316331461119a5760405162461bcd60e51b815260206004820181905260248201527f4f776e61626c653a2063616c6c6572206973206e6f7420746865206f776e65726044820152606401610676565b5f4283116125b05760405162461bcd60e51b815260206004820152601b60248201527f6578706972654174203c3d20626c6f636b2e74696d657374616d7000000000006044820152606401610676565b8515612611576125be6116bc565b841061260c5760405162461bcd60e51b815260206004820152601960248201527f6c696d69745072696365203e3d206c61746573745072696365000000000000006044820152606401610676565b612667565b6126196116bc565b84116126675760405162461bcd60e51b815260206004820152601960248201527f6c696d69745072696365203c3d206c61746573745072696365000000000000006044820152606401610676565b5f6040518060e0016040528088151581526020015f151581526020018781526020018681526020015f8152602001858152602001846001600160a01b03168152509050600160085f8282546126bc91906136d5565b9091555050600880545f90815260096020908152604091829020845181549286015161ffff1990931690151561ff0019161761010092151592909202919091178155908301516001820155606083015160028201556080830151600382015560a0830151600482015560c090920151600590920180546001600160a01b0319166001600160a01b0390931692909217909155549695505050505050565b5f5f84116127a95760405162461bcd60e51b815260206004820152601a60248201527f494e53554646494349454e545f4f55545055545f414d4f554e540000000000006044820152606401610676565b5f831180156127b757505f82115b6127fc5760405162461bcd60e51b8152602060048201526016602482015275494e53554646494349454e545f4c495155494449545960501b6044820152606401610676565b5f61280785836136e8565b612813906103e86136e8565b90505f61282086856134bd565b61282c906103e56136e8565b905061283881836136ff565b6128439060016136d5565b9695505050505050565b604080516001600160a01b038481166024830152604480830185905283518084039091018152606490920183526020820180516001600160e01b031663a9059cbb60e01b17905291515f928392908716916128a8919061371e565b5f604051808303815f865af19150503d805f81146128e1576040519150601f19603f3d011682016040523d82523d5f602084013e6128e6565b606091505b509150915081801561291057508051158061291057508080602001905181019061291091906136ba565b6129725760405162461bcd60e51b815260206004820152602d60248201527f5472616e7366657248656c7065723a3a736166655472616e736665723a20747260448201526c185b9cd9995c8819985a5b1959609a1b6064820152608401610676565b5050505050565b604080516001600160a01b038481166024830152604480830185905283518084039091018152606490920183526020820180516001600160e01b031663095ea7b360e01b17905291515f928392908716916129d4919061371e565b5f604051808303815f865af19150503d805f8114612a0d576040519150601f19603f3d011682016040523d82523d5f602084013e612a12565b606091505b5091509150818015612a3c575080511580612a3c575080806020019051810190612a3c91906136ba565b6129725760405162461bcd60e51b815260206004820152602b60248201527f5472616e7366657248656c7065723a3a73616665417070726f76653a2061707060448201526a1c9bdd994819985a5b195960aa1b6064820152608401610676565b5f80546001600160a01b038381166001600160a01b0319831681178455604051919092169283917f8be0079c531659141344cd1fd0a4f28419497f9722a3daafe3b4186f6b6457e09190a35050565b60035460408051630dfe168160e01b815290515f926001600160a01b031691630dfe16819160048083019260209291908290030181865afa158015612b32573d5f5f3e3d5ffd5b505050506040513d601f19601f82011682018060405250810190612b5691906133ad565b6001549091505f9081906001600160a01b0390811690841603612b7b57839150612b7e565b50825b6040805161010081018252600180825260208201528082018690525f606082018190526080820181905260a0820181905260c0820181905260e0909101819052600a805461ffff1916610101179055600b869055600c819055600d819055600e819055600f819055601055600354905163022c0d9f60e01b81526001600160a01b039091169063022c0d9f90612c1c9085908590309060040161346c565b5f604051808303815f87803b158015612c33575f5ffd5b505af1158015612c45573d5f5f3e3d5ffd5b5050600480546040516370a0823160e01b815230928101929092525f93506001600160a01b031691506370a0823190602401602060405180830381865afa158015612c92573d5f5f3e3d5ffd5b505050506040513d601f19601f82011682018060405250810190612cb6919061342f565b90505f60115482612cc791906134bd565b6011839055600c546040805189815260208101849052908101919091529091507fefb1650edbd2ee9b7b1940e049e74fc26ce6f3d0f62f1a3f32e25397b4dffe3b906060015b60405180910390a15050600a805461ffff1916905550505f600b819055600c819055600d819055600e819055600f8190556010555050565b60035460408051630dfe168160e01b815290515f926001600160a01b031691630dfe16819160048083019260209291908290030181865afa158015612d8c573d5f5f3e3d5ffd5b505050506040513d601f19601f82011682018060405250810190612db091906133ad565b6002549091505f9081906001600160a01b0390811690841603612dd557839150612dd8565b50825b604080516101008101825260018082525f60208301819052828401889052606083018190526080830181905260a0830181905260c0830181905260e0909201829052600a805461ffff19169091179055600b869055600c819055600d819055600e819055600f819055601055600354905163022c0d9f60e01b81526001600160a01b039091169063022c0d9f90612e779085908590309060040161346c565b5f604051808303815f87803b158015612e8e575f5ffd5b505af1158015612ea0573d5f5f3e3d5ffd5b50506005546040516370a0823160e01b81523060048201525f93506001600160a01b0390911691506370a0823190602401602060405180830381865afa158015612eec573d5f5f3e3d5ffd5b505050506040513d601f19601f82011682018060405250810190612f10919061342f565b90505f60125482612f2191906134bd565b6012839055600c546040805189815260208101849052908101919091529091507f383a754f7fb836d68aa84a08d21e9abdd63725207f15a8d8777e1992ca92f4ed90606001612d0d565b604080515f808252602082019092526001600160a01b038416908390604051612f94919061371e565b5f6040518083038185875af1925050503d805f8114612fce576040519150601f19603f3d011682016040523d82523d5f602084013e612fd3565b606091505b50509050806130415760405162461bcd60e51b815260206004820152603460248201527f5472616e7366657248656c7065723a3a736166655472616e736665724554483a60448201527308115512081d1c985b9cd9995c8819985a5b195960621b6064820152608401610676565b505050565b604080516001600160a01b0385811660248301528481166044830152606480830185905283518084039091018152608490920183526020820180516001600160e01b03166323b872dd60e01b17905291515f928392908816916130a9919061371e565b5f604051808303815f865af19150503d805f81146130e2576040519150601f19603f3d011682016040523d82523d5f602084013e6130e7565b606091505b509150915081801561311157508051158061311157508080602001905181019061311191906136ba565b6131775760405162461bcd60e51b815260206004820152603160248201527f5472616e7366657248656c7065723a3a7472616e7366657246726f6d3a207472604482015270185b9cd9995c919c9bdb4819985a5b1959607a1b6064820152608401610676565b505050505050565b634e487b7160e01b5f52600160045260245ffd5b6001600160a01b038116811461174e575f5ffd5b5f5f5f5f608085870312156131ba575f5ffd5b84359350602085013592506040850135915060608501356131da81613193565b939692955090935050565b5f5f5f5f5f608086880312156131f9575f5ffd5b853561320481613193565b94506020860135935060408601359250606086013567ffffffffffffffff81111561322d575f5ffd5b8601601f8101881361323d575f5ffd5b803567ffffffffffffffff811115613253575f5ffd5b886020828401011115613264575f5ffd5b959894975092955050506020019190565b5f60208284031215613285575f5ffd5b5035919050565b801515811461174e575f5ffd5b5f5f604083850312156132aa575f5ffd5b8235915060208301356132bc8161328c565b809150509250929050565b5f5f604083850312156132d8575f5ffd5b50508035926020909101359150565b5f5f5f5f5f5f5f5f610100898b0312156132ff575f5ffd5b883561330a81613193565b9750602089013561331a81613193565b9650604089013561332a81613193565b9550606089013561333a81613193565b9450608089013561334a81613193565b935060a089013561335a81613193565b925060c089013561336a81613193565b915060e089013561337a81613193565b809150509295985092959890939650565b5f6020828403121561339b575f5ffd5b81356133a681613193565b9392505050565b5f602082840312156133bd575f5ffd5b81516133a681613193565b80516001600160701b03811681146133de575f5ffd5b919050565b5f5f5f606084860312156133f5575f5ffd5b6133fe846133c8565b925061340c602085016133c8565b9150604084015163ffffffff81168114613424575f5ffd5b809150509250925092565b5f6020828403121561343f575f5ffd5b5051919050565b6020808252600c908201526b3932b232b2b69032b93937b960a11b604082015260600190565b92835260208301919091526001600160a01b03166040820152608060608201819052600690820152650c1e0c4c8ccd60d21b60a082015260c00190565b634e487b7160e01b5f52601160045260245ffd5b818103818111156134d0576134d06134a9565b92915050565b60208082526022908201527f6f6e65206d757374206265207a65726f2c206f6e65206d757374206265206774604082015261020360f41b606082015260800190565b634e487b7160e01b5f52604160045260245ffd5b634e487b7160e01b5f52603260045260245ffd5b602080825282518282018190525f918401906040840190835b818110156135805783516001600160a01b0316835260209384019390920191600101613559565b509095945050505050565b5f6020828403121561359b575f5ffd5b815167ffffffffffffffff8111156135b1575f5ffd5b8201601f810184136135c1575f5ffd5b805167ffffffffffffffff8111156135db576135db613518565b8060051b604051601f19603f830116810181811067ffffffffffffffff8211171561360857613608613518565b604052918252602081840181019290810187841115613625575f5ffd5b6020850194505b838510156136485784518082526020958601959093500161362c565b509695505050505050565b805169ffffffffffffffffffff811681146133de575f5ffd5b5f5f5f5f5f60a08688031215613680575f5ffd5b61368986613653565b602087015160408801516060890151929750909550935091506136ae60808701613653565b90509295509295909350565b5f602082840312156136ca575f5ffd5b81516133a68161328c565b808201808211156134d0576134d06134a9565b80820281158282048414176134d0576134d06134a9565b5f8261371957634e487b7160e01b5f52601260045260245ffd5b500490565b5f82518060208501845e5f92019182525091905056fea2646970667358221220252c2b80791f0aa45f2ff1c62af09b71a8e41a302a87e5fab46ed114f84243dc64736f6c634300081b0033",
					"opcodes": "PUSH1 0x80 PUSH1 0x40 MSTORE CALLVALUE DUP1 ISZERO PUSH1 0xE JUMPI PUSH0 PUSH0 REVERT JUMPDEST POP PUSH1 0x16 CALLER PUSH1 0x1A JUMP JUMPDEST PUSH1 0x69 JUMP JUMPDEST PUSH0 DUP1 SLOAD PUSH1 0x1 PUSH1 0x1 PUSH1 0xA0 SHL SUB DUP4 DUP2 AND PUSH1 0x1 PUSH1 0x1 PUSH1 0xA0 SHL SUB NOT DUP4 AND DUP2 OR DUP5 SSTORE PUSH1 0x40 MLOAD SWAP2 SWAP1 SWAP3 AND SWAP3 DUP4 SWAP2 PUSH32 0x8BE0079C531659141344CD1FD0A4F28419497F9722A3DAAFE3B4186F6B6457E0 SWAP2 SWAP1 LOG3 POP POP JUMP JUMPDEST PUSH2 0x376A DUP1 PUSH2 0x76 PUSH0 CODECOPY PUSH0 RETURN INVALID PUSH1 0x80 PUSH1 0x40 MSTORE PUSH1 0x4 CALLDATASIZE LT PUSH2 0x1BD JUMPI PUSH0 CALLDATALOAD PUSH1 0xE0 SHR DUP1 PUSH4 0x8A29E2DE GT PUSH2 0xF2 JUMPI DUP1 PUSH4 0xC7219460 GT PUSH2 0x92 JUMPI DUP1 PUSH4 0xF083FF9A GT PUSH2 0x62 JUMPI DUP1 PUSH4 0xF083FF9A EQ PUSH2 0x55C JUMPI DUP1 PUSH4 0xF2FDE38B EQ PUSH2 0x57B JUMPI DUP1 PUSH4 0xF6326FB3 EQ PUSH2 0x59A JUMPI DUP1 PUSH4 0xF688BCFB EQ PUSH2 0x5A2 JUMPI PUSH0 PUSH0 REVERT JUMPDEST DUP1 PUSH4 0xC7219460 EQ PUSH2 0x4E0 JUMPI DUP1 PUSH4 0xC7CDEA37 EQ PUSH2 0x4FF JUMPI DUP1 PUSH4 0xCE347A3E EQ PUSH2 0x51E JUMPI DUP1 PUSH4 0xED072E22 EQ PUSH2 0x53D JUMPI PUSH0 PUSH0 REVERT JUMPDEST DUP1 PUSH4 0x8FD1EF61 GT PUSH2 0xCD JUMPI DUP1 PUSH4 0x8FD1EF61 EQ PUSH2 0x46E JUMPI DUP1 PUSH4 0x9F039090 EQ PUSH2 0x483 JUMPI DUP1 PUSH4 0xA1B4D011 EQ PUSH2 0x4A2 JUMPI DUP1 PUSH4 0xA5CDC8FC EQ PUSH2 0x4C1 JUMPI PUSH0 PUSH0 REVERT JUMPDEST DUP1 PUSH4 0x8A29E2DE EQ PUSH2 0x41F JUMPI DUP1 PUSH4 0x8DA5CB5B EQ PUSH2 0x43E JUMPI DUP1 PUSH4 0x8E15F473 EQ PUSH2 0x45A JUMPI PUSH0 PUSH0 REVERT JUMPDEST DUP1 PUSH4 0x5662ECC7 GT PUSH2 0x15D JUMPI DUP1 PUSH4 0x715018A6 GT PUSH2 0x138 JUMPI DUP1 PUSH4 0x715018A6 EQ PUSH2 0x3B8 JUMPI DUP1 PUSH4 0x741BEF1A EQ PUSH2 0x3CC JUMPI DUP1 PUSH4 0x883F9741 EQ PUSH2 0x3EB JUMPI DUP1 PUSH4 0x88E08665 EQ PUSH2 0x400 JUMPI PUSH0 PUSH0 REVERT JUMPDEST DUP1 PUSH4 0x5662ECC7 EQ PUSH2 0x365 JUMPI DUP1 PUSH4 0x5FE3B567 EQ PUSH2 0x37A JUMPI DUP1 PUSH4 0x6D89BA2A EQ PUSH2 0x399 JUMPI PUSH0 PUSH0 REVERT JUMPDEST DUP1 PUSH4 0x3E413BEE GT PUSH2 0x198 JUMPI DUP1 PUSH4 0x3E413BEE EQ PUSH2 0x252 JUMPI DUP1 PUSH4 0x3FC8CEF3 EQ PUSH2 0x289 JUMPI DUP1 PUSH4 0x49BD5A5E EQ PUSH2 0x2A8 JUMPI DUP1 PUSH4 0x53061026 EQ PUSH2 0x2C7 JUMPI PUSH0 PUSH0 REVERT JUMPDEST DUP1 PUSH4 0x9FFFA84 EQ PUSH2 0x1E2 JUMPI DUP1 PUSH4 0x10D1E85C EQ PUSH2 0x214 JUMPI DUP1 PUSH4 0x3B7BA770 EQ PUSH2 0x233 JUMPI PUSH0 PUSH0 REVERT JUMPDEST CALLDATASIZE PUSH2 0x1DE JUMPI PUSH1 0x1 SLOAD PUSH1 0x1 PUSH1 0x1 PUSH1 0xA0 SHL SUB AND CALLER EQ PUSH2 0x1DC JUMPI PUSH2 0x1DC PUSH2 0x317F JUMP JUMPDEST STOP JUMPDEST PUSH0 PUSH0 REVERT JUMPDEST CALLVALUE DUP1 ISZERO PUSH2 0x1ED JUMPI PUSH0 PUSH0 REVERT JUMPDEST POP PUSH2 0x201 PUSH2 0x1FC CALLDATASIZE PUSH1 0x4 PUSH2 0x31A7 JUMP JUMPDEST PUSH2 0x5B5 JUMP JUMPDEST PUSH1 0x40 MLOAD SWAP1 DUP2 MSTORE PUSH1 0x20 ADD JUMPDEST PUSH1 0x40 MLOAD DUP1 SWAP2 SUB SWAP1 RETURN JUMPDEST CALLVALUE DUP1 ISZERO PUSH2 0x21F JUMPI PUSH0 PUSH0 REVERT JUMPDEST POP PUSH2 0x1DC PUSH2 0x22E CALLDATASIZE PUSH1 0x4 PUSH2 0x31E5 JUMP JUMPDEST PUSH2 0x62B JUMP JUMPDEST CALLVALUE DUP1 ISZERO PUSH2 0x23E JUMPI PUSH0 PUSH0 REVERT JUMPDEST POP PUSH2 0x201 PUSH2 0x24D CALLDATASIZE PUSH1 0x4 PUSH2 0x31A7 JUMP JUMPDEST PUSH2 0xE2C JUMP JUMPDEST CALLVALUE DUP1 ISZERO PUSH2 0x25D JUMPI PUSH0 PUSH0 REVERT JUMPDEST POP PUSH1 0x2 SLOAD PUSH2 0x271 SWAP1 PUSH1 0x1 PUSH1 0x1 PUSH1 0xA0 SHL SUB AND DUP2 JUMP JUMPDEST PUSH1 0x40 MLOAD PUSH1 0x1 PUSH1 0x1 PUSH1 0xA0 SHL SUB SWAP1 SWAP2 AND DUP2 MSTORE PUSH1 0x20 ADD PUSH2 0x20B JUMP JUMPDEST CALLVALUE DUP1 ISZERO PUSH2 0x294 JUMPI PUSH0 PUSH0 REVERT JUMPDEST POP PUSH1 0x1 SLOAD PUSH2 0x271 SWAP1 PUSH1 0x1 PUSH1 0x1 PUSH1 0xA0 SHL SUB AND DUP2 JUMP JUMPDEST CALLVALUE DUP1 ISZERO PUSH2 0x2B3 JUMPI PUSH0 PUSH0 REVERT JUMPDEST POP PUSH1 0x3 SLOAD PUSH2 0x271 SWAP1 PUSH1 0x1 PUSH1 0x1 PUSH1 0xA0 SHL SUB AND DUP2 JUMP JUMPDEST CALLVALUE DUP1 ISZERO PUSH2 0x2D2 JUMPI PUSH0 PUSH0 REVERT JUMPDEST POP PUSH2 0x325 PUSH2 0x2E1 CALLDATASIZE PUSH1 0x4 PUSH2 0x3275 JUMP JUMPDEST PUSH1 0x9 PUSH1 0x20 MSTORE PUSH0 SWAP1 DUP2 MSTORE PUSH1 0x40 SWAP1 KECCAK256 DUP1 SLOAD PUSH1 0x1 DUP3 ADD SLOAD PUSH1 0x2 DUP4 ADD SLOAD PUSH1 0x3 DUP5 ADD SLOAD PUSH1 0x4 DUP6 ADD SLOAD PUSH1 0x5 SWAP1 SWAP6 ADD SLOAD PUSH1 0xFF DUP1 DUP7 AND SWAP7 PUSH2 0x100 SWAP1 SWAP7 DIV AND SWAP5 SWAP1 PUSH1 0x1 PUSH1 0x1 PUSH1 0xA0 SHL SUB AND DUP8 JUMP JUMPDEST PUSH1 0x40 DUP1 MLOAD SWAP8 ISZERO ISZERO DUP9 MSTORE SWAP6 ISZERO ISZERO PUSH1 0x20 DUP9 ADD MSTORE SWAP5 DUP7 ADD SWAP4 SWAP1 SWAP4 MSTORE PUSH1 0x60 DUP6 ADD SWAP2 SWAP1 SWAP2 MSTORE PUSH1 0x80 DUP5 ADD MSTORE PUSH1 0xA0 DUP4 ADD MSTORE PUSH1 0x1 PUSH1 0x1 PUSH1 0xA0 SHL SUB AND PUSH1 0xC0 DUP3 ADD MSTORE PUSH1 0xE0 ADD PUSH2 0x20B JUMP JUMPDEST CALLVALUE DUP1 ISZERO PUSH2 0x370 JUMPI PUSH0 PUSH0 REVERT JUMPDEST POP PUSH2 0x201 PUSH1 0x8 SLOAD DUP2 JUMP JUMPDEST CALLVALUE DUP1 ISZERO PUSH2 0x385 JUMPI PUSH0 PUSH0 REVERT JUMPDEST POP PUSH1 0x6 SLOAD PUSH2 0x271 SWAP1 PUSH1 0x1 PUSH1 0x1 PUSH1 0xA0 SHL SUB AND DUP2 JUMP JUMPDEST CALLVALUE DUP1 ISZERO PUSH2 0x3A4 JUMPI PUSH0 PUSH0 REVERT JUMPDEST POP PUSH2 0x201 PUSH2 0x3B3 CALLDATASIZE PUSH1 0x4 PUSH2 0x3299 JUMP JUMPDEST PUSH2 0xE95 JUMP JUMPDEST CALLVALUE DUP1 ISZERO PUSH2 0x3C3 JUMPI PUSH0 PUSH0 REVERT JUMPDEST POP PUSH2 0x1DC PUSH2 0x1189 JUMP JUMPDEST CALLVALUE DUP1 ISZERO PUSH2 0x3D7 JUMPI PUSH0 PUSH0 REVERT JUMPDEST POP PUSH1 0x7 SLOAD PUSH2 0x271 SWAP1 PUSH1 0x1 PUSH1 0x1 PUSH1 0xA0 SHL SUB AND DUP2 JUMP JUMPDEST CALLVALUE DUP1 ISZERO PUSH2 0x3F6 JUMPI PUSH0 PUSH0 REVERT JUMPDEST POP PUSH2 0x201 PUSH1 0x12 SLOAD DUP2 JUMP JUMPDEST CALLVALUE DUP1 ISZERO PUSH2 0x40B JUMPI PUSH0 PUSH0 REVERT JUMPDEST POP PUSH2 0x1DC PUSH2 0x41A CALLDATASIZE PUSH1 0x4 PUSH2 0x32C7 JUMP JUMPDEST PUSH2 0x119C JUMP JUMPDEST CALLVALUE DUP1 ISZERO PUSH2 0x42A JUMPI PUSH0 PUSH0 REVERT JUMPDEST POP PUSH2 0x1DC PUSH2 0x439 CALLDATASIZE PUSH1 0x4 PUSH2 0x32E7 JUMP JUMPDEST PUSH2 0x1448 JUMP JUMPDEST CALLVALUE DUP1 ISZERO PUSH2 0x449 JUMPI PUSH0 PUSH0 REVERT JUMPDEST POP PUSH0 SLOAD PUSH1 0x1 PUSH1 0x1 PUSH1 0xA0 SHL SUB AND PUSH2 0x271 JUMP JUMPDEST CALLVALUE DUP1 ISZERO PUSH2 0x465 JUMPI PUSH0 PUSH0 REVERT JUMPDEST POP PUSH2 0x201 PUSH2 0x16BC JUMP JUMPDEST CALLVALUE DUP1 ISZERO PUSH2 0x479 JUMPI PUSH0 PUSH0 REVERT JUMPDEST POP PUSH2 0x201 PUSH1 0x11 SLOAD DUP2 JUMP JUMPDEST CALLVALUE DUP1 ISZERO PUSH2 0x48E JUMPI PUSH0 PUSH0 REVERT JUMPDEST POP PUSH2 0x1DC PUSH2 0x49D CALLDATASIZE PUSH1 0x4 PUSH2 0x3275 JUMP JUMPDEST PUSH2 0x173D JUMP JUMPDEST CALLVALUE DUP1 ISZERO PUSH2 0x4AD JUMPI PUSH0 PUSH0 REVERT JUMPDEST POP PUSH1 0x4 SLOAD PUSH2 0x271 SWAP1 PUSH1 0x1 PUSH1 0x1 PUSH1 0xA0 SHL SUB AND DUP2 JUMP JUMPDEST CALLVALUE DUP1 ISZERO PUSH2 0x4CC JUMPI PUSH0 PUSH0 REVERT JUMPDEST POP PUSH2 0x1DC PUSH2 0x4DB CALLDATASIZE PUSH1 0x4 PUSH2 0x3275 JUMP JUMPDEST PUSH2 0x1751 JUMP JUMPDEST CALLVALUE DUP1 ISZERO PUSH2 0x4EB JUMPI PUSH0 PUSH0 REVERT JUMPDEST POP PUSH2 0x1DC PUSH2 0x4FA CALLDATASIZE PUSH1 0x4 PUSH2 0x3275 JUMP JUMPDEST PUSH2 0x19A1 JUMP JUMPDEST CALLVALUE DUP1 ISZERO PUSH2 0x50A JUMPI PUSH0 PUSH0 REVERT JUMPDEST POP PUSH2 0x1DC PUSH2 0x519 CALLDATASIZE PUSH1 0x4 PUSH2 0x32C7 JUMP JUMPDEST PUSH2 0x1C6C JUMP JUMPDEST CALLVALUE DUP1 ISZERO PUSH2 0x529 JUMPI PUSH0 PUSH0 REVERT JUMPDEST POP PUSH1 0x5 SLOAD PUSH2 0x271 SWAP1 PUSH1 0x1 PUSH1 0x1 PUSH1 0xA0 SHL SUB AND DUP2 JUMP JUMPDEST CALLVALUE DUP1 ISZERO PUSH2 0x548 JUMPI PUSH0 PUSH0 REVERT JUMPDEST POP PUSH2 0x1DC PUSH2 0x557 CALLDATASIZE PUSH1 0x4 PUSH2 0x3275 JUMP JUMPDEST PUSH2 0x1E9B JUMP JUMPDEST CALLVALUE DUP1 ISZERO PUSH2 0x567 JUMPI PUSH0 PUSH0 REVERT JUMPDEST POP PUSH2 0x201 PUSH2 0x576 CALLDATASIZE PUSH1 0x4 PUSH2 0x3299 JUMP JUMPDEST PUSH2 0x1EAC JUMP JUMPDEST CALLVALUE DUP1 ISZERO PUSH2 0x586 JUMPI PUSH0 PUSH0 REVERT JUMPDEST POP PUSH2 0x1DC PUSH2 0x595 CALLDATASIZE PUSH1 0x4 PUSH2 0x338B JUMP JUMPDEST PUSH2 0x216B JUMP JUMPDEST PUSH2 0x1DC PUSH2 0x21E1 JUMP JUMPDEST PUSH2 0x1DC PUSH2 0x5B0 CALLDATASIZE PUSH1 0x4 PUSH2 0x3275 JUMP JUMPDEST PUSH2 0x2309 JUMP JUMPDEST PUSH0 PUSH2 0x5BE PUSH2 0x2507 JUMP JUMPDEST PUSH2 0x5CC PUSH1 0x1 DUP7 DUP7 DUP7 DUP7 PUSH2 0x2560 JUMP JUMPDEST PUSH1 0x40 DUP1 MLOAD DUP3 DUP2 MSTORE PUSH1 0x20 DUP2 ADD DUP9 SWAP1 MSTORE SWAP1 DUP2 ADD DUP7 SWAP1 MSTORE PUSH1 0x60 DUP2 ADD DUP6 SWAP1 MSTORE SWAP1 SWAP2 POP PUSH1 0x1 PUSH1 0x1 PUSH1 0xA0 SHL SUB DUP4 AND SWAP1 PUSH32 0xD3F71D54BEAF5776A99A3C0C84A1207DE2861EDE3D1D85DFCC17DF11EBAB1D7 SWAP1 PUSH1 0x80 ADD JUMPDEST PUSH1 0x40 MLOAD DUP1 SWAP2 SUB SWAP1 LOG2 SWAP5 SWAP4 POP POP POP POP JUMP JUMPDEST PUSH1 0x3 SLOAD PUSH1 0x1 PUSH1 0x1 PUSH1 0xA0 SHL SUB AND CALLER EQ PUSH2 0x67F JUMPI PUSH1 0x40 MLOAD PUSH3 0x461BCD PUSH1 0xE5 SHL DUP2 MSTORE PUSH1 0x20 PUSH1 0x4 DUP3 ADD MSTORE PUSH1 0x12 PUSH1 0x24 DUP3 ADD MSTORE PUSH18 0x37B7363C903AB734B9BBB0B82B192830B4B9 PUSH1 0x71 SHL PUSH1 0x44 DUP3 ADD MSTORE PUSH1 0x64 ADD JUMPDEST PUSH1 0x40 MLOAD DUP1 SWAP2 SUB SWAP1 REVERT JUMPDEST PUSH1 0x3 SLOAD PUSH1 0x40 DUP1 MLOAD PUSH4 0xDFE1681 PUSH1 0xE0 SHL DUP2 MSTORE SWAP1 MLOAD PUSH0 SWAP3 PUSH1 0x1 PUSH1 0x1 PUSH1 0xA0 SHL SUB AND SWAP2 PUSH4 0xDFE1681 SWAP2 PUSH1 0x4 DUP1 DUP4 ADD SWAP3 PUSH1 0x20 SWAP3 SWAP2 SWAP1 DUP3 SWAP1 SUB ADD DUP2 DUP7 GAS STATICCALL ISZERO DUP1 ISZERO PUSH2 0x6C6 JUMPI RETURNDATASIZE PUSH0 PUSH0 RETURNDATACOPY RETURNDATASIZE PUSH0 REVERT JUMPDEST POP POP POP POP PUSH1 0x40 MLOAD RETURNDATASIZE PUSH1 0x1F NOT PUSH1 0x1F DUP3 ADD AND DUP3 ADD DUP1 PUSH1 0x40 MSTORE POP DUP2 ADD SWAP1 PUSH2 0x6EA SWAP2 SWAP1 PUSH2 0x33AD JUMP JUMPDEST SWAP1 POP PUSH0 PUSH1 0x3 PUSH0 SWAP1 SLOAD SWAP1 PUSH2 0x100 EXP SWAP1 DIV PUSH1 0x1 PUSH1 0x1 PUSH1 0xA0 SHL SUB AND PUSH1 0x1 PUSH1 0x1 PUSH1 0xA0 SHL SUB AND PUSH4 0xD21220A7 PUSH1 0x40 MLOAD DUP2 PUSH4 0xFFFFFFFF AND PUSH1 0xE0 SHL DUP2 MSTORE PUSH1 0x4 ADD PUSH1 0x20 PUSH1 0x40 MLOAD DUP1 DUP4 SUB DUP2 DUP7 GAS STATICCALL ISZERO DUP1 ISZERO PUSH2 0x73D JUMPI RETURNDATASIZE PUSH0 PUSH0 RETURNDATACOPY RETURNDATASIZE PUSH0 REVERT JUMPDEST POP POP POP POP PUSH1 0x40 MLOAD RETURNDATASIZE PUSH1 0x1F NOT PUSH1 0x1F DUP3 ADD AND DUP3 ADD DUP1 PUSH1 0x40 MSTORE POP DUP2 ADD SWAP1 PUSH2 0x761 SWAP2 SWAP1 PUSH2 0x33AD JUMP JUMPDEST SWAP1 POP PUSH0 PUSH0 PUSH1 0x3 PUSH0 SWAP1 SLOAD SWAP1 PUSH2 0x100 EXP SWAP1 DIV PUSH1 0x1 PUSH1 0x1 PUSH1 0xA0 SHL SUB AND PUSH1 0x1 PUSH1 0x1 PUSH1 0xA0 SHL SUB AND PUSH4 0x902F1AC PUSH1 0x40 MLOAD DUP2 PUSH4 0xFFFFFFFF AND PUSH1 0xE0 SHL DUP2 MSTORE PUSH1 0x4 ADD PUSH1 0x60 PUSH1 0x40 MLOAD DUP1 DUP4 SUB DUP2 DUP7 GAS STATICCALL ISZERO DUP1 ISZERO PUSH2 0x7B5 JUMPI RETURNDATASIZE PUSH0 PUSH0 RETURNDATACOPY RETURNDATASIZE PUSH0 REVERT JUMPDEST POP POP POP POP PUSH1 0x40 MLOAD RETURNDATASIZE PUSH1 0x1F NOT PUSH1 0x1F DUP3 ADD AND DUP3 ADD DUP1 PUSH1 0x40 MSTORE POP DUP2 ADD SWAP1 PUSH2 0x7D9 SWAP2 SWAP1 PUSH2 0x33E3 JUMP JUMPDEST POP SWAP1 SWAP3 POP SWAP1 POP PUSH0 DUP1 DUP1 DUP1 DUP12 ISZERO PUSH2 0x803 JUMPI POP DUP7 SWAP3 POP POP PUSH1 0x1 PUSH1 0x1 PUSH1 0x70 SHL SUB DUP1 DUP5 AND SWAP2 POP DUP5 AND DUP11 PUSH2 0x819 JUMP JUMPDEST POP DUP6 SWAP3 POP POP PUSH1 0x1 PUSH1 0x1 PUSH1 0x70 SHL SUB DUP1 DUP6 AND SWAP2 POP DUP4 AND DUP10 JUMPDEST PUSH0 PUSH2 0x825 DUP3 DUP6 DUP6 PUSH2 0x2759 JUMP JUMPDEST PUSH1 0xA SLOAD SWAP1 SWAP2 POP PUSH1 0xFF AND ISZERO PUSH2 0xBBB JUMPI PUSH1 0xC DUP2 SWAP1 SSTORE PUSH1 0xA SLOAD PUSH2 0x100 SWAP1 DIV PUSH1 0xFF AND ISZERO PUSH2 0x9D0 JUMPI PUSH1 0x1 SLOAD PUSH1 0x40 MLOAD PUSH4 0x2E1A7D4D PUSH1 0xE0 SHL DUP2 MSTORE PUSH1 0x4 DUP2 ADD DUP5 SWAP1 MSTORE PUSH1 0x1 PUSH1 0x1 PUSH1 0xA0 SHL SUB SWAP1 SWAP2 AND SWAP1 PUSH4 0x2E1A7D4D SWAP1 PUSH1 0x24 ADD PUSH0 PUSH1 0x40 MLOAD DUP1 DUP4 SUB DUP2 PUSH0 DUP8 DUP1 EXTCODESIZE ISZERO DUP1 ISZERO PUSH2 0x88B JUMPI PUSH0 PUSH0 REVERT JUMPDEST POP GAS CALL ISZERO DUP1 ISZERO PUSH2 0x89D JUMPI RETURNDATASIZE PUSH0 PUSH0 RETURNDATACOPY RETURNDATASIZE PUSH0 REVERT JUMPDEST POP POP POP POP PUSH1 0x4 PUSH0 SWAP1 SLOAD SWAP1 PUSH2 0x100 EXP SWAP1 DIV PUSH1 0x1 PUSH1 0x1 PUSH1 0xA0 SHL SUB AND PUSH1 0x1 PUSH1 0x1 PUSH1 0xA0 SHL SUB AND PUSH4 0x1249C58B DUP4 PUSH1 0x40 MLOAD DUP3 PUSH4 0xFFFFFFFF AND PUSH1 0xE0 SHL DUP2 MSTORE PUSH1 0x4 ADD PUSH0 PUSH1 0x40 MLOAD DUP1 DUP4 SUB DUP2 DUP6 DUP9 DUP1 EXTCODESIZE ISZERO DUP1 ISZERO PUSH2 0x8EE JUMPI PUSH0 PUSH0 REVERT JUMPDEST POP GAS CALL ISZERO DUP1 ISZERO PUSH2 0x900 JUMPI RETURNDATASIZE PUSH0 PUSH0 RETURNDATACOPY RETURNDATASIZE PUSH0 REVERT JUMPDEST POP POP PUSH1 0x5 SLOAD PUSH1 0x40 MLOAD PUSH4 0x317AFABB PUSH1 0xE2 SHL DUP2 MSTORE PUSH1 0x4 DUP2 ADD DUP7 SWAP1 MSTORE PUSH1 0x1 PUSH1 0x1 PUSH1 0xA0 SHL SUB SWAP1 SWAP2 AND SWAP4 POP PUSH4 0xC5EBEAEC SWAP3 POP PUSH1 0x24 ADD SWAP1 POP PUSH1 0x20 PUSH1 0x40 MLOAD DUP1 DUP4 SUB DUP2 PUSH0 DUP8 GAS CALL ISZERO DUP1 ISZERO PUSH2 0x94E JUMPI RETURNDATASIZE PUSH0 PUSH0 RETURNDATACOPY RETURNDATASIZE PUSH0 REVERT JUMPDEST POP POP POP POP PUSH1 0x40 MLOAD RETURNDATASIZE PUSH1 0x1F NOT PUSH1 0x1F DUP3 ADD AND DUP3 ADD DUP1 PUSH1 0x40 MSTORE POP DUP2 ADD SWAP1 PUSH2 0x972 SWAP2 SWAP1 PUSH2 0x342F JUMP JUMPDEST ISZERO PUSH2 0x9AE JUMPI PUSH1 0x40 MLOAD PUSH3 0x461BCD PUSH1 0xE5 SHL DUP2 MSTORE PUSH1 0x20 PUSH1 0x4 DUP3 ADD MSTORE PUSH1 0xC PUSH1 0x24 DUP3 ADD MSTORE PUSH12 0x3137B93937BB9032B93937B9 PUSH1 0xA1 SHL PUSH1 0x44 DUP3 ADD MSTORE PUSH1 0x64 ADD PUSH2 0x676 JUMP JUMPDEST PUSH1 0x2 SLOAD PUSH1 0x3 SLOAD PUSH2 0x9CB SWAP2 PUSH1 0x1 PUSH1 0x1 PUSH1 0xA0 SHL SUB SWAP1 DUP2 AND SWAP2 AND DUP4 PUSH2 0x284D JUMP JUMPDEST PUSH2 0xE1C JUMP JUMPDEST PUSH1 0x2 SLOAD PUSH1 0x5 SLOAD PUSH2 0x9ED SWAP2 PUSH1 0x1 PUSH1 0x1 PUSH1 0xA0 SHL SUB SWAP1 DUP2 AND SWAP2 AND DUP5 PUSH2 0x2979 JUMP JUMPDEST PUSH1 0x5 SLOAD PUSH1 0x40 MLOAD PUSH4 0x140E25AD PUSH1 0xE3 SHL DUP2 MSTORE PUSH1 0x4 DUP2 ADD DUP5 SWAP1 MSTORE PUSH1 0x1 PUSH1 0x1 PUSH1 0xA0 SHL SUB SWAP1 SWAP2 AND SWAP1 PUSH4 0xA0712D68 SWAP1 PUSH1 0x24 ADD PUSH1 0x20 PUSH1 0x40 MLOAD DUP1 DUP4 SUB DUP2 PUSH0 DUP8 GAS CALL ISZERO DUP1 ISZERO PUSH2 0xA35 JUMPI RETURNDATASIZE PUSH0 PUSH0 RETURNDATACOPY RETURNDATASIZE PUSH0 REVERT JUMPDEST POP POP POP POP PUSH1 0x40 MLOAD RETURNDATASIZE PUSH1 0x1F NOT PUSH1 0x1F DUP3 ADD AND DUP3 ADD DUP1 PUSH1 0x40 MSTORE POP DUP2 ADD SWAP1 PUSH2 0xA59 SWAP2 SWAP1 PUSH2 0x342F JUMP JUMPDEST ISZERO PUSH2 0xA93 JUMPI PUSH1 0x40 MLOAD PUSH3 0x461BCD PUSH1 0xE5 SHL DUP2 MSTORE PUSH1 0x20 PUSH1 0x4 DUP3 ADD MSTORE PUSH1 0xA PUSH1 0x24 DUP3 ADD MSTORE PUSH10 0x36B4B73A1032B93937B9 PUSH1 0xB1 SHL PUSH1 0x44 DUP3 ADD MSTORE PUSH1 0x64 ADD PUSH2 0x676 JUMP JUMPDEST PUSH1 0x4 DUP1 SLOAD PUSH1 0x40 MLOAD PUSH4 0x317AFABB PUSH1 0xE2 SHL DUP2 MSTORE SWAP2 DUP3 ADD DUP4 SWAP1 MSTORE PUSH1 0x1 PUSH1 0x1 PUSH1 0xA0 SHL SUB AND SWAP1 PUSH4 0xC5EBEAEC SWAP1 PUSH1 0x24 ADD PUSH1 0x20 PUSH1 0x40 MLOAD DUP1 DUP4 SUB DUP2 PUSH0 DUP8 GAS CALL ISZERO DUP1 ISZERO PUSH2 0xAD9 JUMPI RETURNDATASIZE PUSH0 PUSH0 RETURNDATACOPY RETURNDATASIZE PUSH0 REVERT JUMPDEST POP POP POP POP PUSH1 0x40 MLOAD RETURNDATASIZE PUSH1 0x1F NOT PUSH1 0x1F DUP3 ADD AND DUP3 ADD DUP1 PUSH1 0x40 MSTORE POP DUP2 ADD SWAP1 PUSH2 0xAFD SWAP2 SWAP1 PUSH2 0x342F JUMP JUMPDEST ISZERO PUSH2 0xB39 JUMPI PUSH1 0x40 MLOAD PUSH3 0x461BCD PUSH1 0xE5 SHL DUP2 MSTORE PUSH1 0x20 PUSH1 0x4 DUP3 ADD MSTORE PUSH1 0xC PUSH1 0x24 DUP3 ADD MSTORE PUSH12 0x3137B93937BB9032B93937B9 PUSH1 0xA1 SHL PUSH1 0x44 DUP3 ADD MSTORE PUSH1 0x64 ADD PUSH2 0x676 JUMP JUMPDEST PUSH1 0x1 PUSH0 SWAP1 SLOAD SWAP1 PUSH2 0x100 EXP SWAP1 DIV PUSH1 0x1 PUSH1 0x1 PUSH1 0xA0 SHL SUB AND PUSH1 0x1 PUSH1 0x1 PUSH1 0xA0 SHL SUB AND PUSH4 0xD0E30DB0 DUP3 PUSH1 0x40 MLOAD DUP3 PUSH4 0xFFFFFFFF AND PUSH1 0xE0 SHL DUP2 MSTORE PUSH1 0x4 ADD PUSH0 PUSH1 0x40 MLOAD DUP1 DUP4 SUB DUP2 DUP6 DUP9 DUP1 EXTCODESIZE ISZERO DUP1 ISZERO PUSH2 0xB86 JUMPI PUSH0 PUSH0 REVERT JUMPDEST POP GAS CALL ISZERO DUP1 ISZERO PUSH2 0xB98 JUMPI RETURNDATASIZE PUSH0 PUSH0 RETURNDATACOPY RETURNDATASIZE PUSH0 REVERT JUMPDEST POP POP PUSH1 0x1 SLOAD PUSH1 0x3 SLOAD PUSH2 0x9CB SWAP5 POP PUSH1 0x1 PUSH1 0x1 PUSH1 0xA0 SHL SUB SWAP2 DUP3 AND SWAP4 POP AND SWAP1 POP DUP4 PUSH2 0x284D JUMP JUMPDEST PUSH1 0xF DUP2 SWAP1 SSTORE PUSH1 0xA SLOAD PUSH2 0x100 SWAP1 DIV PUSH1 0xFF AND ISZERO PUSH2 0xD1B JUMPI PUSH1 0x2 SLOAD PUSH1 0x5 SLOAD PUSH2 0xBED SWAP2 PUSH1 0x1 PUSH1 0x1 PUSH1 0xA0 SHL SUB SWAP1 DUP2 AND SWAP2 AND DUP5 PUSH2 0x2979 JUMP JUMPDEST PUSH1 0x5 SLOAD PUSH1 0x40 MLOAD PUSH4 0x73A9381 PUSH1 0xE1 SHL DUP2 MSTORE PUSH1 0x4 DUP2 ADD DUP5 SWAP1 MSTORE PUSH1 0x1 PUSH1 0x1 PUSH1 0xA0 SHL SUB SWAP1 SWAP2 AND SWAP1 PUSH4 0xE752702 SWAP1 PUSH1 0x24 ADD PUSH1 0x20 PUSH1 0x40 MLOAD DUP1 DUP4 SUB DUP2 PUSH0 DUP8 GAS CALL ISZERO DUP1 ISZERO PUSH2 0xC35 JUMPI RETURNDATASIZE PUSH0 PUSH0 RETURNDATACOPY RETURNDATASIZE PUSH0 REVERT JUMPDEST POP POP POP POP PUSH1 0x40 MLOAD RETURNDATASIZE PUSH1 0x1F NOT PUSH1 0x1F DUP3 ADD AND DUP3 ADD DUP1 PUSH1 0x40 MSTORE POP DUP2 ADD SWAP1 PUSH2 0xC59 SWAP2 SWAP1 PUSH2 0x342F JUMP JUMPDEST ISZERO PUSH2 0xC94 JUMPI PUSH1 0x40 MLOAD PUSH3 0x461BCD PUSH1 0xE5 SHL DUP2 MSTORE PUSH1 0x20 PUSH1 0x4 DUP3 ADD MSTORE PUSH1 0xB PUSH1 0x24 DUP3 ADD MSTORE PUSH11 0x3932B830BC9032B93937B9 PUSH1 0xA9 SHL PUSH1 0x44 DUP3 ADD MSTORE PUSH1 0x64 ADD PUSH2 0x676 JUMP JUMPDEST PUSH1 0x4 DUP1 SLOAD PUSH1 0x40 MLOAD PUSH4 0x852A12E3 PUSH1 0xE0 SHL DUP2 MSTORE SWAP2 DUP3 ADD DUP4 SWAP1 MSTORE PUSH1 0x1 PUSH1 0x1 PUSH1 0xA0 SHL SUB AND SWAP1 PUSH4 0x852A12E3 SWAP1 PUSH1 0x24 ADD PUSH1 0x20 PUSH1 0x40 MLOAD DUP1 DUP4 SUB DUP2 PUSH0 DUP8 GAS CALL ISZERO DUP1 ISZERO PUSH2 0xCDA JUMPI RETURNDATASIZE PUSH0 PUSH0 RETURNDATACOPY RETURNDATASIZE PUSH0 REVERT JUMPDEST POP POP POP POP PUSH1 0x40 MLOAD RETURNDATASIZE PUSH1 0x1F NOT PUSH1 0x1F DUP3 ADD AND DUP3 ADD DUP1 PUSH1 0x40 MSTORE POP DUP2 ADD SWAP1 PUSH2 0xCFE SWAP2 SWAP1 PUSH2 0x342F JUMP JUMPDEST ISZERO PUSH2 0xB39 JUMPI PUSH1 0x40 MLOAD PUSH3 0x461BCD PUSH1 0xE5 SHL DUP2 MSTORE PUSH1 0x4 ADD PUSH2 0x676 SWAP1 PUSH2 0x3446 JUMP JUMPDEST PUSH1 0x4 DUP1 SLOAD PUSH1 0x40 DUP1 MLOAD PUSH4 0x2726CFF5 PUSH1 0xE1 SHL DUP2 MSTORE SWAP1 MLOAD PUSH1 0x1 PUSH1 0x1 PUSH1 0xA0 SHL SUB SWAP1 SWAP3 AND SWAP3 PUSH4 0x4E4D9FEA SWAP3 DUP7 SWAP3 DUP1 DUP4 ADD SWAP3 PUSH0 SWAP3 SWAP2 DUP3 SWAP1 SUB ADD DUP2 DUP6 DUP9 DUP1 EXTCODESIZE ISZERO DUP1 ISZERO PUSH2 0xD5E JUMPI PUSH0 PUSH0 REVERT JUMPDEST POP GAS CALL ISZERO DUP1 ISZERO PUSH2 0xD70 JUMPI RETURNDATASIZE PUSH0 PUSH0 RETURNDATACOPY RETURNDATASIZE PUSH0 REVERT JUMPDEST POP POP PUSH1 0x5 SLOAD PUSH1 0x40 MLOAD PUSH4 0x852A12E3 PUSH1 0xE0 SHL DUP2 MSTORE PUSH1 0x4 DUP2 ADD DUP7 SWAP1 MSTORE PUSH1 0x1 PUSH1 0x1 PUSH1 0xA0 SHL SUB SWAP1 SWAP2 AND SWAP4 POP PUSH4 0x852A12E3 SWAP3 POP PUSH1 0x24 ADD SWAP1 POP PUSH1 0x20 PUSH1 0x40 MLOAD DUP1 DUP4 SUB DUP2 PUSH0 DUP8 GAS CALL ISZERO DUP1 ISZERO PUSH2 0xDBE JUMPI RETURNDATASIZE PUSH0 PUSH0 RETURNDATACOPY RETURNDATASIZE PUSH0 REVERT JUMPDEST POP POP POP POP PUSH1 0x40 MLOAD RETURNDATASIZE PUSH1 0x1F NOT PUSH1 0x1F DUP3 ADD AND DUP3 ADD DUP1 PUSH1 0x40 MSTORE POP DUP2 ADD SWAP1 PUSH2 0xDE2 SWAP2 SWAP1 PUSH2 0x342F JUMP JUMPDEST ISZERO PUSH2 0xDFF JUMPI PUSH1 0x40 MLOAD PUSH3 0x461BCD PUSH1 0xE5 SHL DUP2 MSTORE PUSH1 0x4 ADD PUSH2 0x676 SWAP1 PUSH2 0x3446 JUMP JUMPDEST PUSH1 0x2 SLOAD PUSH1 0x3 SLOAD PUSH2 0xE1C SWAP2 PUSH1 0x1 PUSH1 0x1 PUSH1 0xA0 SHL SUB SWAP1 DUP2 AND SWAP2 AND DUP4 PUSH2 0x284D JUMP JUMPDEST POP POP POP POP POP POP POP POP POP POP POP POP POP POP JUMP JUMPDEST PUSH0 PUSH2 0xE35 PUSH2 0x2507 JUMP JUMPDEST PUSH2 0xE42 PUSH0 DUP7 DUP7 DUP7 DUP7 PUSH2 0x2560 JUMP JUMPDEST PUSH1 0x40 DUP1 MLOAD DUP3 DUP2 MSTORE PUSH1 0x20 DUP2 ADD DUP9 SWAP1 MSTORE SWAP1 DUP2 ADD DUP7 SWAP1 MSTORE PUSH1 0x60 DUP2 ADD DUP6 SWAP1 MSTORE SWAP1 SWAP2 POP PUSH1 0x1 PUSH1 0x1 PUSH1 0xA0 SHL SUB DUP4 AND SWAP1 PUSH32 0xA88905C54863632716F8C0132503B7E5D225A2537CD992C34FEF80A5F6C2D800 SWAP1 PUSH1 0x80 ADD PUSH2 0x61B JUMP JUMPDEST PUSH0 PUSH2 0xE9E PUSH2 0x2507 JUMP JUMPDEST PUSH1 0x5 SLOAD PUSH1 0x40 MLOAD PUSH4 0x95DD9193 PUSH1 0xE0 SHL DUP2 MSTORE ADDRESS PUSH1 0x4 DUP3 ADD MSTORE PUSH0 SWAP2 PUSH1 0x1 PUSH1 0x1 PUSH1 0xA0 SHL SUB AND SWAP1 PUSH4 0x95DD9193 SWAP1 PUSH1 0x24 ADD PUSH1 0x20 PUSH1 0x40 MLOAD DUP1 DUP4 SUB DUP2 DUP7 GAS STATICCALL ISZERO DUP1 ISZERO PUSH2 0xEE4 JUMPI RETURNDATASIZE PUSH0 PUSH0 RETURNDATACOPY RETURNDATASIZE PUSH0 REVERT JUMPDEST POP POP POP POP PUSH1 0x40 MLOAD RETURNDATASIZE PUSH1 0x1F NOT PUSH1 0x1F DUP3 ADD AND DUP3 ADD DUP1 PUSH1 0x40 MSTORE POP DUP2 ADD SWAP1 PUSH2 0xF08 SWAP2 SWAP1 PUSH2 0x342F JUMP JUMPDEST SWAP1 POP DUP3 PUSH2 0xF15 JUMPI DUP4 PUSH2 0xF17 JUMP JUMPDEST DUP1 JUMPDEST SWAP2 POP PUSH0 PUSH1 0x3 PUSH0 SWAP1 SLOAD SWAP1 PUSH2 0x100 EXP SWAP1 DIV PUSH1 0x1 PUSH1 0x1 PUSH1 0xA0 SHL SUB AND PUSH1 0x1 PUSH1 0x1 PUSH1 0xA0 SHL SUB AND PUSH4 0xDFE1681 PUSH1 0x40 MLOAD DUP2 PUSH4 0xFFFFFFFF AND PUSH1 0xE0 SHL DUP2 MSTORE PUSH1 0x4 ADD PUSH1 0x20 PUSH1 0x40 MLOAD DUP1 DUP4 SUB DUP2 DUP7 GAS STATICCALL ISZERO DUP1 ISZERO PUSH2 0xF6A JUMPI RETURNDATASIZE PUSH0 PUSH0 RETURNDATACOPY RETURNDATASIZE PUSH0 REVERT JUMPDEST POP POP POP POP PUSH1 0x40 MLOAD RETURNDATASIZE PUSH1 0x1F NOT PUSH1 0x1F DUP3 ADD AND DUP3 ADD DUP1 PUSH1 0x40 MSTORE POP DUP2 ADD SWAP1 PUSH2 0xF8E SWAP2 SWAP1 PUSH2 0x33AD JUMP JUMPDEST PUSH1 0x2 SLOAD SWAP1 SWAP2 POP PUSH0 SWAP1 DUP2 SWAP1 PUSH1 0x1 PUSH1 0x1 PUSH1 0xA0 SHL SUB SWAP1 DUP2 AND SWAP1 DUP5 AND SUB PUSH2 0xFB3 JUMPI DUP5 SWAP2 POP PUSH2 0xFB6 JUMP JUMPDEST POP DUP4 JUMPDEST PUSH1 0x40 DUP1 MLOAD PUSH2 0x100 DUP1 DUP3 ADD DUP4 MSTORE PUSH0 DUP1 DUP4 MSTORE PUSH1 0x1 PUSH1 0x20 DUP5 ADD MSTORE DUP3 DUP5 ADD DUP2 SWAP1 MSTORE PUSH1 0x60 DUP4 ADD DUP2 SWAP1 MSTORE PUSH1 0x80 DUP4 ADD DUP2 SWAP1 MSTORE PUSH1 0xA0 DUP4 ADD DUP2 SWAP1 MSTORE PUSH1 0xC0 DUP4 ADD DUP2 SWAP1 MSTORE PUSH1 0xE0 SWAP1 SWAP3 ADD DUP9 SWAP1 MSTORE PUSH1 0xA DUP1 SLOAD PUSH2 0xFFFF NOT AND SWAP1 SWAP2 OR SWAP1 SSTORE PUSH1 0xB DUP2 SWAP1 SSTORE PUSH1 0xC DUP2 SWAP1 SSTORE PUSH1 0xD DUP2 SWAP1 SSTORE PUSH1 0xE DUP2 SWAP1 SSTORE PUSH1 0xF SSTORE PUSH1 0x10 DUP7 SWAP1 SSTORE PUSH1 0x3 SLOAD SWAP1 MLOAD PUSH4 0x22C0D9F PUSH1 0xE0 SHL DUP2 MSTORE PUSH1 0x1 PUSH1 0x1 PUSH1 0xA0 SHL SUB SWAP1 SWAP2 AND SWAP1 PUSH4 0x22C0D9F SWAP1 PUSH2 0x1054 SWAP1 DUP6 SWAP1 DUP6 SWAP1 ADDRESS SWAP1 PUSH1 0x4 ADD PUSH2 0x346C JUMP JUMPDEST PUSH0 PUSH1 0x40 MLOAD DUP1 DUP4 SUB DUP2 PUSH0 DUP8 DUP1 EXTCODESIZE ISZERO DUP1 ISZERO PUSH2 0x106B JUMPI PUSH0 PUSH0 REVERT JUMPDEST POP GAS CALL ISZERO DUP1 ISZERO PUSH2 0x107D JUMPI RETURNDATASIZE PUSH0 PUSH0 RETURNDATACOPY RETURNDATASIZE PUSH0 REVERT JUMPDEST POP POP PUSH1 0x4 DUP1 SLOAD PUSH1 0x40 MLOAD PUSH4 0x70A08231 PUSH1 0xE0 SHL DUP2 MSTORE ADDRESS SWAP3 DUP2 ADD SWAP3 SWAP1 SWAP3 MSTORE PUSH0 SWAP4 POP PUSH1 0x1 PUSH1 0x1 PUSH1 0xA0 SHL SUB AND SWAP2 POP PUSH4 0x70A08231 SWAP1 PUSH1 0x24 ADD PUSH1 0x20 PUSH1 0x40 MLOAD DUP1 DUP4 SUB DUP2 DUP7 GAS STATICCALL ISZERO DUP1 ISZERO PUSH2 0x10CA JUMPI RETURNDATASIZE PUSH0 PUSH0 RETURNDATACOPY RETURNDATASIZE PUSH0 REVERT JUMPDEST POP POP POP POP PUSH1 0x40 MLOAD RETURNDATASIZE PUSH1 0x1F NOT PUSH1 0x1F DUP3 ADD AND DUP3 ADD DUP1 PUSH1 0x40 MSTORE POP DUP2 ADD SWAP1 PUSH2 0x10EE SWAP2 SWAP1 PUSH2 0x342F JUMP JUMPDEST SWAP1 POP PUSH0 DUP2 PUSH1 0x11 SLOAD PUSH2 0x10FF SWAP2 SWAP1 PUSH2 0x34BD JUMP JUMPDEST PUSH1 0x11 DUP4 SWAP1 SSTORE PUSH1 0xF SLOAD PUSH1 0x40 DUP1 MLOAD DUP4 DUP2 MSTORE PUSH1 0x20 DUP2 ADD SWAP3 SWAP1 SWAP3 MSTORE DUP2 ADD DUP10 SWAP1 MSTORE DUP10 ISZERO ISZERO PUSH1 0x60 DUP3 ADD MSTORE SWAP1 SWAP2 POP PUSH32 0x37B43C784F8D7BCE65EDA84311E0E462CF6FD3DB2F40193EF86E97B610F0C06F SWAP1 PUSH1 0x80 ADD JUMPDEST PUSH1 0x40 MLOAD DUP1 SWAP2 SUB SWAP1 LOG1 POP POP PUSH1 0xA DUP1 SLOAD PUSH2 0xFFFF NOT AND SWAP1 SSTORE POP POP PUSH0 PUSH1 0xB DUP2 SWAP1 SSTORE PUSH1 0xC DUP2 SWAP1 SSTORE PUSH1 0xD DUP2 SWAP1 SSTORE PUSH1 0xE DUP2 SWAP1 SSTORE PUSH1 0xF DUP2 SWAP1 SSTORE PUSH1 0x10 SSTORE POP SWAP1 SWAP4 SWAP3 POP POP POP JUMP JUMPDEST PUSH2 0x1191 PUSH2 0x2507 JUMP JUMPDEST PUSH2 0x119A PUSH0 PUSH2 0x2A9C JUMP JUMPDEST JUMP JUMPDEST PUSH2 0x11A4 PUSH2 0x2507 JUMP JUMPDEST PUSH0 DUP3 GT DUP1 ISZERO PUSH2 0x11B1 JUMPI POP DUP1 ISZERO JUMPDEST DUP1 PUSH2 0x11C4 JUMPI POP DUP2 ISZERO DUP1 ISZERO PUSH2 0x11C4 JUMPI POP PUSH0 DUP2 GT JUMPDEST PUSH2 0x11E0 JUMPI PUSH1 0x40 MLOAD PUSH3 0x461BCD PUSH1 0xE5 SHL DUP2 MSTORE PUSH1 0x4 ADD PUSH2 0x676 SWAP1 PUSH2 0x34D6 JUMP JUMPDEST DUP2 ISZERO PUSH2 0x1274 JUMPI PUSH1 0x5 SLOAD PUSH1 0x40 MLOAD PUSH4 0xDB006A75 PUSH1 0xE0 SHL DUP2 MSTORE PUSH1 0x4 DUP2 ADD DUP5 SWAP1 MSTORE PUSH1 0x1 PUSH1 0x1 PUSH1 0xA0 SHL SUB SWAP1 SWAP2 AND SWAP1 PUSH4 0xDB006A75 SWAP1 PUSH1 0x24 ADD PUSH1 0x20 PUSH1 0x40 MLOAD DUP1 DUP4 SUB DUP2 PUSH0 DUP8 GAS CALL ISZERO DUP1 ISZERO PUSH2 0x122E JUMPI RETURNDATASIZE PUSH0 PUSH0 RETURNDATACOPY RETURNDATASIZE PUSH0 REVERT JUMPDEST POP POP POP POP PUSH1 0x40 MLOAD RETURNDATASIZE PUSH1 0x1F NOT PUSH1 0x1F DUP3 ADD AND DUP3 ADD DUP1 PUSH1 0x40 MSTORE POP DUP2 ADD SWAP1 PUSH2 0x1252 SWAP2 SWAP1 PUSH2 0x342F JUMP JUMPDEST ISZERO PUSH2 0x126F JUMPI PUSH1 0x40 MLOAD PUSH3 0x461BCD PUSH1 0xE5 SHL DUP2 MSTORE PUSH1 0x4 ADD PUSH2 0x676 SWAP1 PUSH2 0x3446 JUMP JUMPDEST PUSH2 0x12FD JUMP JUMPDEST PUSH1 0x5 SLOAD PUSH1 0x40 MLOAD PUSH4 0x852A12E3 PUSH1 0xE0 SHL DUP2 MSTORE PUSH1 0x4 DUP2 ADD DUP4 SWAP1 MSTORE PUSH1 0x1 PUSH1 0x1 PUSH1 0xA0 SHL SUB SWAP1 SWAP2 AND SWAP1 PUSH4 0x852A12E3 SWAP1 PUSH1 0x24 ADD PUSH1 0x20 PUSH1 0x40 MLOAD DUP1 DUP4 SUB DUP2 PUSH0 DUP8 GAS CALL ISZERO DUP1 ISZERO PUSH2 0x12BC JUMPI RETURNDATASIZE PUSH0 PUSH0 RETURNDATACOPY RETURNDATASIZE PUSH0 REVERT JUMPDEST POP POP POP POP PUSH1 0x40 MLOAD RETURNDATASIZE PUSH1 0x1F NOT PUSH1 0x1F DUP3 ADD AND DUP3 ADD DUP1 PUSH1 0x40 MSTORE POP DUP2 ADD SWAP1 PUSH2 0x12E0 SWAP2 SWAP1 PUSH2 0x342F JUMP JUMPDEST ISZERO PUSH2 0x12FD JUMPI PUSH1 0x40 MLOAD PUSH3 0x461BCD PUSH1 0xE5 SHL DUP2 MSTORE PUSH1 0x4 ADD PUSH2 0x676 SWAP1 PUSH2 0x3446 JUMP JUMPDEST PUSH1 0x5 SLOAD PUSH1 0x40 MLOAD PUSH4 0x70A08231 PUSH1 0xE0 SHL DUP2 MSTORE ADDRESS PUSH1 0x4 DUP3 ADD MSTORE PUSH0 SWAP2 PUSH1 0x1 PUSH1 0x1 PUSH1 0xA0 SHL SUB AND SWAP1 PUSH4 0x70A08231 SWAP1 PUSH1 0x24 ADD PUSH1 0x20 PUSH1 0x40 MLOAD DUP1 DUP4 SUB DUP2 DUP7 GAS STATICCALL ISZERO DUP1 ISZERO PUSH2 0x1343 JUMPI RETURNDATASIZE PUSH0 PUSH0 RETURNDATACOPY RETURNDATASIZE PUSH0 REVERT JUMPDEST POP POP POP POP PUSH1 0x40 MLOAD RETURNDATASIZE PUSH1 0x1F NOT PUSH1 0x1F DUP3 ADD AND DUP3 ADD DUP1 PUSH1 0x40 MSTORE POP DUP2 ADD SWAP1 PUSH2 0x1367 SWAP2 SWAP1 PUSH2 0x342F JUMP JUMPDEST SWAP1 POP DUP1 PUSH1 0x12 SLOAD PUSH2 0x1377 SWAP2 SWAP1 PUSH2 0x34BD JUMP JUMPDEST PUSH1 0x12 DUP3 SWAP1 SSTORE PUSH1 0x2 SLOAD PUSH1 0x40 MLOAD PUSH4 0x70A08231 PUSH1 0xE0 SHL DUP2 MSTORE ADDRESS PUSH1 0x4 DUP3 ADD MSTORE SWAP2 SWAP5 POP PUSH1 0x1 PUSH1 0x1 PUSH1 0xA0 SHL SUB AND SWAP1 PUSH4 0x70A08231 SWAP1 PUSH1 0x24 ADD PUSH1 0x20 PUSH1 0x40 MLOAD DUP1 DUP4 SUB DUP2 DUP7 GAS STATICCALL ISZERO DUP1 ISZERO PUSH2 0x13C3 JUMPI RETURNDATASIZE PUSH0 PUSH0 RETURNDATACOPY RETURNDATASIZE PUSH0 REVERT JUMPDEST POP POP POP POP PUSH1 0x40 MLOAD RETURNDATASIZE PUSH1 0x1F NOT PUSH1 0x1F DUP3 ADD AND DUP3 ADD DUP1 PUSH1 0x40 MSTORE POP DUP2 ADD SWAP1 PUSH2 0x13E7 SWAP2 SWAP1 PUSH2 0x342F JUMP JUMPDEST PUSH1 0x2 SLOAD SWAP1 SWAP3 POP PUSH2 0x1401 SWAP1 PUSH1 0x1 PUSH1 0x1 PUSH1 0xA0 SHL SUB AND CALLER DUP5 PUSH2 0x284D JUMP JUMPDEST PUSH1 0x40 DUP1 MLOAD PUSH0 DUP2 MSTORE PUSH1 0x20 DUP2 ADD DUP6 SWAP1 MSTORE SWAP1 DUP2 ADD DUP4 SWAP1 MSTORE PUSH32 0xFEDB0622D5D5FA46CC706A5C2C169F2BF2EB31A59FF2F70CEF3096376F58C2C0 SWAP1 PUSH1 0x60 ADD JUMPDEST PUSH1 0x40 MLOAD DUP1 SWAP2 SUB SWAP1 LOG1 POP POP POP JUMP JUMPDEST PUSH32 0xF0C57E16840DF040F15088DC2F81FE391C3923BEC73E23A9662EFC9C229C6A00 DUP1 SLOAD PUSH1 0x1 PUSH1 0x40 SHL DUP2 DIV PUSH1 0xFF AND ISZERO SWAP1 PUSH8 0xFFFFFFFFFFFFFFFF AND PUSH0 DUP2 ISZERO DUP1 ISZERO PUSH2 0x148D JUMPI POP DUP3 JUMPDEST SWAP1 POP PUSH0 DUP3 PUSH8 0xFFFFFFFFFFFFFFFF AND PUSH1 0x1 EQ DUP1 ISZERO PUSH2 0x14A9 JUMPI POP ADDRESS EXTCODESIZE ISZERO JUMPDEST SWAP1 POP DUP2 ISZERO DUP1 ISZERO PUSH2 0x14B7 JUMPI POP DUP1 ISZERO JUMPDEST ISZERO PUSH2 0x14D5 JUMPI PUSH1 0x40 MLOAD PUSH4 0xF92EE8A9 PUSH1 0xE0 SHL DUP2 MSTORE PUSH1 0x4 ADD PUSH1 0x40 MLOAD DUP1 SWAP2 SUB SWAP1 REVERT JUMPDEST DUP5 SLOAD PUSH8 0xFFFFFFFFFFFFFFFF NOT AND PUSH1 0x1 OR DUP6 SSTORE DUP4 ISZERO PUSH2 0x14FF JUMPI DUP5 SLOAD PUSH1 0xFF PUSH1 0x40 SHL NOT AND PUSH1 0x1 PUSH1 0x40 SHL OR DUP6 SSTORE JUMPDEST PUSH2 0x1508 DUP14 PUSH2 0x216B JUMP JUMPDEST PUSH1 0x1 DUP1 SLOAD PUSH1 0x1 PUSH1 0x1 PUSH1 0xA0 SHL SUB NOT SWAP1 DUP2 AND PUSH1 0x1 PUSH1 0x1 PUSH1 0xA0 SHL SUB DUP16 DUP2 AND SWAP2 SWAP1 SWAP2 OR SWAP1 SWAP3 SSTORE PUSH1 0x2 DUP1 SLOAD DUP3 AND DUP15 DUP5 AND OR DUP2 SSTORE PUSH1 0x3 DUP1 SLOAD DUP4 AND DUP15 DUP6 AND OR SWAP1 SSTORE PUSH1 0x4 DUP1 SLOAD DUP4 AND DUP14 DUP6 AND OR SWAP1 SSTORE PUSH1 0x5 DUP1 SLOAD DUP4 AND DUP13 DUP6 AND OR SWAP1 SSTORE PUSH1 0x6 DUP1 SLOAD DUP4 AND DUP12 DUP6 AND OR SWAP1 SSTORE PUSH1 0x7 DUP1 SLOAD SWAP1 SWAP3 AND SWAP3 DUP10 AND SWAP3 SWAP1 SWAP3 OR SWAP1 SSTORE PUSH1 0x40 DUP1 MLOAD DUP3 DUP2 MSTORE PUSH1 0x60 DUP2 ADD DUP3 MSTORE PUSH0 SWAP3 SWAP1 SWAP2 PUSH1 0x20 DUP4 ADD SWAP1 DUP1 CALLDATASIZE DUP4 CALLDATACOPY POP POP PUSH1 0x4 SLOAD DUP3 MLOAD SWAP3 SWAP4 POP PUSH1 0x1 PUSH1 0x1 PUSH1 0xA0 SHL SUB AND SWAP2 DUP4 SWAP2 POP PUSH0 SWAP1 PUSH2 0x15B5 JUMPI PUSH2 0x15B5 PUSH2 0x352C JUMP JUMPDEST PUSH1 0x1 PUSH1 0x1 PUSH1 0xA0 SHL SUB SWAP3 DUP4 AND PUSH1 0x20 SWAP2 DUP3 MUL SWAP3 SWAP1 SWAP3 ADD ADD MSTORE PUSH1 0x5 SLOAD DUP3 MLOAD SWAP2 AND SWAP1 DUP3 SWAP1 PUSH1 0x1 SWAP1 DUP2 LT PUSH2 0x15E6 JUMPI PUSH2 0x15E6 PUSH2 0x352C JUMP JUMPDEST PUSH1 0x1 PUSH1 0x1 PUSH1 0xA0 SHL SUB SWAP3 DUP4 AND PUSH1 0x20 SWAP2 DUP3 MUL SWAP3 SWAP1 SWAP3 ADD ADD MSTORE PUSH1 0x6 SLOAD PUSH1 0x40 MLOAD PUSH4 0x18533047 PUSH1 0xE3 SHL DUP2 MSTORE SWAP2 AND SWAP1 PUSH4 0xC2998238 SWAP1 PUSH2 0x1623 SWAP1 DUP5 SWAP1 PUSH1 0x4 ADD PUSH2 0x3540 JUMP JUMPDEST PUSH0 PUSH1 0x40 MLOAD DUP1 DUP4 SUB DUP2 PUSH0 DUP8 GAS CALL ISZERO DUP1 ISZERO PUSH2 0x163E JUMPI RETURNDATASIZE PUSH0 PUSH0 RETURNDATACOPY RETURNDATASIZE PUSH0 REVERT JUMPDEST POP POP POP POP PUSH1 0x40 MLOAD RETURNDATASIZE PUSH0 DUP3 RETURNDATACOPY PUSH1 0x1F RETURNDATASIZE SWAP1 DUP2 ADD PUSH1 0x1F NOT AND DUP3 ADD PUSH1 0x40 MSTORE PUSH2 0x1665 SWAP2 SWAP1 DUP2 ADD SWAP1 PUSH2 0x358B JUMP JUMPDEST POP POP DUP4 ISZERO PUSH2 0x16AD JUMPI DUP5 SLOAD PUSH1 0xFF PUSH1 0x40 SHL NOT AND DUP6 SSTORE PUSH1 0x40 MLOAD PUSH1 0x1 DUP2 MSTORE PUSH32 0xC7F505B2F371AE2175EE4913F4499E1F2633A7B5936321EED1CDAEB6115181D2 SWAP1 PUSH1 0x20 ADD PUSH1 0x40 MLOAD DUP1 SWAP2 SUB SWAP1 LOG1 JUMPDEST POP POP POP POP POP POP POP POP POP POP POP POP POP JUMP JUMPDEST PUSH0 PUSH0 PUSH1 0x7 PUSH0 SWAP1 SLOAD SWAP1 PUSH2 0x100 EXP SWAP1 DIV PUSH1 0x1 PUSH1 0x1 PUSH1 0xA0 SHL SUB AND PUSH1 0x1 PUSH1 0x1 PUSH1 0xA0 SHL SUB AND PUSH4 0xFEAF968C PUSH1 0x40 MLOAD DUP2 PUSH4 0xFFFFFFFF AND PUSH1 0xE0 SHL DUP2 MSTORE PUSH1 0x4 ADD PUSH1 0xA0 PUSH1 0x40 MLOAD DUP1 DUP4 SUB DUP2 DUP7 GAS STATICCALL ISZERO DUP1 ISZERO PUSH2 0x170E JUMPI RETURNDATASIZE PUSH0 PUSH0 RETURNDATACOPY RETURNDATASIZE PUSH0 REVERT JUMPDEST POP POP POP POP PUSH1 0x40 MLOAD RETURNDATASIZE PUSH1 0x1F NOT PUSH1 0x1F DUP3 ADD AND DUP3 ADD DUP1 PUSH1 0x40 MSTORE POP DUP2 ADD SWAP1 PUSH2 0x1732 SWAP2 SWAP1 PUSH2 0x366C JUMP JUMPDEST POP SWAP2 SWAP6 SWAP5 POP POP POP POP POP JUMP JUMPDEST PUSH2 0x1745 PUSH2 0x2507 JUMP JUMPDEST PUSH2 0x174E DUP2 PUSH2 0x2AEB JUMP JUMPDEST POP JUMP JUMPDEST PUSH2 0x1759 PUSH2 0x2507 JUMP JUMPDEST PUSH0 DUP2 GT DUP1 ISZERO PUSH2 0x176A JUMPI POP PUSH1 0x8 SLOAD DUP2 GT ISZERO JUMPDEST PUSH2 0x17A8 JUMPI PUSH1 0x40 MLOAD PUSH3 0x461BCD PUSH1 0xE5 SHL DUP2 MSTORE PUSH1 0x20 PUSH1 0x4 DUP3 ADD MSTORE PUSH1 0xF PUSH1 0x24 DUP3 ADD MSTORE PUSH15 0x1BDC99195C881B9BDD08199BDD5B99 PUSH1 0x8A SHL PUSH1 0x44 DUP3 ADD MSTORE PUSH1 0x64 ADD PUSH2 0x676 JUMP JUMPDEST PUSH0 DUP2 DUP2 MSTORE PUSH1 0x9 PUSH1 0x20 SWAP1 DUP2 MSTORE PUSH1 0x40 SWAP2 DUP3 SWAP1 KECCAK256 DUP3 MLOAD PUSH1 0xE0 DUP2 ADD DUP5 MSTORE DUP2 SLOAD PUSH1 0xFF DUP1 DUP3 AND ISZERO ISZERO DUP4 MSTORE PUSH2 0x100 SWAP1 SWAP2 DIV AND ISZERO DUP1 ISZERO SWAP4 DUP3 ADD SWAP4 SWAP1 SWAP4 MSTORE PUSH1 0x1 DUP3 ADD SLOAD SWAP4 DUP2 ADD SWAP4 SWAP1 SWAP4 MSTORE PUSH1 0x2 DUP2 ADD SLOAD PUSH1 0x60 DUP5 ADD MSTORE PUSH1 0x3 DUP2 ADD SLOAD PUSH1 0x80 DUP5 ADD MSTORE PUSH1 0x4 DUP2 ADD SLOAD PUSH1 0xA0 DUP5 ADD MSTORE PUSH1 0x5 ADD SLOAD PUSH1 0x1 PUSH1 0x1 PUSH1 0xA0 SHL SUB AND PUSH1 0xC0 DUP4 ADD MSTORE PUSH2 0x1858 JUMPI PUSH1 0x40 MLOAD PUSH3 0x461BCD PUSH1 0xE5 SHL DUP2 MSTORE PUSH1 0x20 PUSH1 0x4 DUP3 ADD MSTORE PUSH1 0x10 PUSH1 0x24 DUP3 ADD MSTORE PUSH16 0x185B1C9958591E4818D85B98D95B1959 PUSH1 0x82 SHL PUSH1 0x44 DUP3 ADD MSTORE PUSH1 0x64 ADD PUSH2 0x676 JUMP JUMPDEST PUSH1 0x80 DUP2 ADD MLOAD ISZERO PUSH2 0x189A JUMPI PUSH1 0x40 MLOAD PUSH3 0x461BCD PUSH1 0xE5 SHL DUP2 MSTORE PUSH1 0x20 PUSH1 0x4 DUP3 ADD MSTORE PUSH1 0xD PUSH1 0x24 DUP3 ADD MSTORE PUSH13 0x185B1C9958591E481919585B1D PUSH1 0x9A SHL PUSH1 0x44 DUP3 ADD MSTORE PUSH1 0x64 ADD PUSH2 0x676 JUMP JUMPDEST TIMESTAMP DUP2 PUSH1 0xA0 ADD MLOAD GT PUSH2 0x18DF JUMPI PUSH1 0x40 MLOAD PUSH3 0x461BCD PUSH1 0xE5 SHL DUP2 MSTORE PUSH1 0x20 PUSH1 0x4 DUP3 ADD MSTORE PUSH1 0xF PUSH1 0x24 DUP3 ADD MSTORE PUSH15 0x185B1C9958591E48195E1C1A5C9959 PUSH1 0x8A SHL PUSH1 0x44 DUP3 ADD MSTORE PUSH1 0x64 ADD PUSH2 0x676 JUMP JUMPDEST PUSH1 0x1 PUSH1 0x20 DUP3 DUP2 ADD DUP3 DUP2 MSTORE PUSH0 DUP6 DUP2 MSTORE PUSH1 0x9 DUP4 MSTORE PUSH1 0x40 SWAP1 DUP2 SWAP1 KECCAK256 DUP6 MLOAD DUP2 SLOAD SWAP4 MLOAD PUSH2 0xFFFF NOT SWAP1 SWAP5 AND SWAP1 ISZERO ISZERO PUSH2 0xFF00 NOT AND OR PUSH2 0x100 SWAP4 ISZERO ISZERO SWAP4 SWAP1 SWAP4 MUL SWAP3 SWAP1 SWAP3 OR DUP3 SSTORE DUP1 DUP6 ADD MLOAD SWAP4 DUP3 ADD SWAP4 SWAP1 SWAP4 SSTORE PUSH1 0x60 DUP5 ADD MLOAD PUSH1 0x2 DUP3 ADD SSTORE PUSH1 0x80 DUP5 ADD MLOAD PUSH1 0x3 DUP3 ADD SSTORE PUSH1 0xA0 DUP5 ADD MLOAD PUSH1 0x4 DUP3 ADD SSTORE PUSH1 0xC0 DUP5 ADD MLOAD PUSH1 0x5 SWAP1 SWAP2 ADD DUP1 SLOAD PUSH1 0x1 PUSH1 0x1 PUSH1 0xA0 SHL SUB NOT AND PUSH1 0x1 PUSH1 0x1 PUSH1 0xA0 SHL SUB SWAP1 SWAP3 AND SWAP2 SWAP1 SWAP2 OR SWAP1 SSTORE SWAP1 MLOAD DUP4 DUP2 MSTORE PUSH32 0xACB097D265630549C66967FF31A6D9A30A35656B951B1FE2D90A3499BA29EE26 SWAP2 ADD PUSH1 0x40 MLOAD DUP1 SWAP2 SUB SWAP1 LOG1 POP POP JUMP JUMPDEST PUSH0 DUP2 GT DUP1 ISZERO PUSH2 0x19B2 JUMPI POP PUSH1 0x8 SLOAD DUP2 GT ISZERO JUMPDEST PUSH2 0x19F0 JUMPI PUSH1 0x40 MLOAD PUSH3 0x461BCD PUSH1 0xE5 SHL DUP2 MSTORE PUSH1 0x20 PUSH1 0x4 DUP3 ADD MSTORE PUSH1 0xF PUSH1 0x24 DUP3 ADD MSTORE PUSH15 0x1BDC99195C881B9BDD08199BDD5B99 PUSH1 0x8A SHL PUSH1 0x44 DUP3 ADD MSTORE PUSH1 0x64 ADD PUSH2 0x676 JUMP JUMPDEST PUSH0 DUP2 DUP2 MSTORE PUSH1 0x9 PUSH1 0x20 SWAP1 DUP2 MSTORE PUSH1 0x40 SWAP2 DUP3 SWAP1 KECCAK256 DUP3 MLOAD PUSH1 0xE0 DUP2 ADD DUP5 MSTORE DUP2 SLOAD PUSH1 0xFF DUP1 DUP3 AND ISZERO ISZERO DUP4 MSTORE PUSH2 0x100 SWAP1 SWAP2 DIV AND ISZERO ISZERO SWAP3 DUP2 ADD SWAP3 SWAP1 SWAP3 MSTORE PUSH1 0x1 DUP2 ADD SLOAD SWAP3 DUP3 ADD SWAP3 SWAP1 SWAP3 MSTORE PUSH1 0x2 DUP3 ADD SLOAD PUSH1 0x60 DUP3 ADD MSTORE PUSH1 0x3 DUP3 ADD SLOAD PUSH1 0x80 DUP3 ADD MSTORE PUSH1 0x4 DUP3 ADD SLOAD PUSH1 0xA0 DUP3 ADD MSTORE PUSH1 0x5 SWAP1 SWAP2 ADD SLOAD PUSH1 0x1 PUSH1 0x1 PUSH1 0xA0 SHL SUB AND PUSH1 0xC0 DUP3 ADD DUP2 SWAP1 MSTORE CALLER EQ PUSH2 0x1AA3 JUMPI PUSH1 0x40 MLOAD PUSH3 0x461BCD PUSH1 0xE5 SHL DUP2 MSTORE PUSH1 0x20 PUSH1 0x4 DUP3 ADD MSTORE PUSH1 0xE PUSH1 0x24 DUP3 ADD MSTORE PUSH14 0x3932B8BAB4B9329035B2B2B832B9 PUSH1 0x91 SHL PUSH1 0x44 DUP3 ADD MSTORE PUSH1 0x64 ADD PUSH2 0x676 JUMP JUMPDEST DUP1 PUSH1 0x20 ADD MLOAD ISZERO PUSH2 0x1AE8 JUMPI PUSH1 0x40 MLOAD PUSH3 0x461BCD PUSH1 0xE5 SHL DUP2 MSTORE PUSH1 0x20 PUSH1 0x4 DUP3 ADD MSTORE PUSH1 0x10 PUSH1 0x24 DUP3 ADD MSTORE PUSH16 0x185B1C9958591E4818D85B98D95B1959 PUSH1 0x82 SHL PUSH1 0x44 DUP3 ADD MSTORE PUSH1 0x64 ADD PUSH2 0x676 JUMP JUMPDEST PUSH1 0x80 DUP2 ADD MLOAD ISZERO PUSH2 0x1B2A JUMPI PUSH1 0x40 MLOAD PUSH3 0x461BCD PUSH1 0xE5 SHL DUP2 MSTORE PUSH1 0x20 PUSH1 0x4 DUP3 ADD MSTORE PUSH1 0xD PUSH1 0x24 DUP3 ADD MSTORE PUSH13 0x185B1C9958591E481919585B1D PUSH1 0x9A SHL PUSH1 0x44 DUP3 ADD MSTORE PUSH1 0x64 ADD PUSH2 0x676 JUMP JUMPDEST TIMESTAMP DUP2 PUSH1 0xA0 ADD MLOAD GT PUSH2 0x1B6F JUMPI PUSH1 0x40 MLOAD PUSH3 0x461BCD PUSH1 0xE5 SHL DUP2 MSTORE PUSH1 0x20 PUSH1 0x4 DUP3 ADD MSTORE PUSH1 0xF PUSH1 0x24 DUP3 ADD MSTORE PUSH15 0x185B1C9958591E48195E1C1A5C9959 PUSH1 0x8A SHL PUSH1 0x44 DUP3 ADD MSTORE PUSH1 0x64 ADD PUSH2 0x676 JUMP JUMPDEST PUSH0 PUSH2 0x1B78 PUSH2 0x16BC JUMP JUMPDEST DUP3 MLOAD SWAP1 SWAP2 POP ISZERO PUSH2 0x1BDF JUMPI DUP1 DUP3 PUSH1 0x60 ADD MLOAD LT ISZERO PUSH2 0x1BCD JUMPI PUSH1 0x40 MLOAD PUSH3 0x461BCD PUSH1 0xE5 SHL DUP2 MSTORE PUSH1 0x20 PUSH1 0x4 DUP3 ADD MSTORE PUSH1 0x14 PUSH1 0x24 DUP3 ADD MSTORE PUSH20 0x6E6F74207265616368206C696D69745072696365 PUSH1 0x60 SHL PUSH1 0x44 DUP3 ADD MSTORE PUSH1 0x64 ADD PUSH2 0x676 JUMP JUMPDEST PUSH2 0x1BDA DUP3 PUSH1 0x40 ADD MLOAD PUSH2 0x2AEB JUMP JUMPDEST PUSH2 0x1C36 JUMP JUMPDEST DUP1 DUP3 PUSH1 0x60 ADD MLOAD GT ISZERO PUSH2 0x1C29 JUMPI PUSH1 0x40 MLOAD PUSH3 0x461BCD PUSH1 0xE5 SHL DUP2 MSTORE PUSH1 0x20 PUSH1 0x4 DUP3 ADD MSTORE PUSH1 0x13 PUSH1 0x24 DUP3 ADD MSTORE PUSH19 0x6E6F742072616368206C696D69745072696365 PUSH1 0x68 SHL PUSH1 0x44 DUP3 ADD MSTORE PUSH1 0x64 ADD PUSH2 0x676 JUMP JUMPDEST PUSH2 0x1C36 DUP3 PUSH1 0x40 ADD MLOAD PUSH2 0x2D45 JUMP JUMPDEST PUSH1 0x40 DUP1 MLOAD DUP5 DUP2 MSTORE PUSH1 0x20 DUP2 ADD DUP4 SWAP1 MSTORE PUSH32 0xBA5C68549D7AFE892D9D1E6D4ACDB167B18828851F715D44DB58ADB8B0F91ACA SWAP2 ADD PUSH2 0x143B JUMP JUMPDEST PUSH2 0x1C74 PUSH2 0x2507 JUMP JUMPDEST PUSH0 DUP3 GT DUP1 ISZERO PUSH2 0x1C81 JUMPI POP DUP1 ISZERO JUMPDEST DUP1 PUSH2 0x1C94 JUMPI POP DUP2 ISZERO DUP1 ISZERO PUSH2 0x1C94 JUMPI POP PUSH0 DUP2 GT JUMPDEST PUSH2 0x1CB0 JUMPI PUSH1 0x40 MLOAD PUSH3 0x461BCD PUSH1 0xE5 SHL DUP2 MSTORE PUSH1 0x4 ADD PUSH2 0x676 SWAP1 PUSH2 0x34D6 JUMP JUMPDEST DUP2 ISZERO PUSH2 0x1D42 JUMPI PUSH1 0x4 DUP1 SLOAD PUSH1 0x40 MLOAD PUSH4 0xDB006A75 PUSH1 0xE0 SHL DUP2 MSTORE SWAP2 DUP3 ADD DUP5 SWAP1 MSTORE PUSH1 0x1 PUSH1 0x1 PUSH1 0xA0 SHL SUB AND SWAP1 PUSH4 0xDB006A75 SWAP1 PUSH1 0x24 ADD PUSH1 0x20 PUSH1 0x40 MLOAD DUP1 DUP4 SUB DUP2 PUSH0 DUP8 GAS CALL ISZERO DUP1 ISZERO PUSH2 0x1CFC JUMPI RETURNDATASIZE PUSH0 PUSH0 RETURNDATACOPY RETURNDATASIZE PUSH0 REVERT JUMPDEST POP POP POP POP PUSH1 0x40 MLOAD RETURNDATASIZE PUSH1 0x1F NOT PUSH1 0x1F DUP3 ADD AND DUP3 ADD DUP1 PUSH1 0x40 MSTORE POP DUP2 ADD SWAP1 PUSH2 0x1D20 SWAP2 SWAP1 PUSH2 0x342F JUMP JUMPDEST ISZERO PUSH2 0x1D3D JUMPI PUSH1 0x40 MLOAD PUSH3 0x461BCD PUSH1 0xE5 SHL DUP2 MSTORE PUSH1 0x4 ADD PUSH2 0x676 SWAP1 PUSH2 0x3446 JUMP JUMPDEST PUSH2 0x1DC9 JUMP JUMPDEST PUSH1 0x4 DUP1 SLOAD PUSH1 0x40 MLOAD PUSH4 0x852A12E3 PUSH1 0xE0 SHL DUP2 MSTORE SWAP2 DUP3 ADD DUP4 SWAP1 MSTORE PUSH1 0x1 PUSH1 0x1 PUSH1 0xA0 SHL SUB AND SWAP1 PUSH4 0x852A12E3 SWAP1 PUSH1 0x24 ADD PUSH1 0x20 PUSH1 0x40 MLOAD DUP1 DUP4 SUB DUP2 PUSH0 DUP8 GAS CALL ISZERO DUP1 ISZERO PUSH2 0x1D88 JUMPI RETURNDATASIZE PUSH0 PUSH0 RETURNDATACOPY RETURNDATASIZE PUSH0 REVERT JUMPDEST POP POP POP POP PUSH1 0x40 MLOAD RETURNDATASIZE PUSH1 0x1F NOT PUSH1 0x1F DUP3 ADD AND DUP3 ADD DUP1 PUSH1 0x40 MSTORE POP DUP2 ADD SWAP1 PUSH2 0x1DAC SWAP2 SWAP1 PUSH2 0x342F JUMP JUMPDEST ISZERO PUSH2 0x1DC9 JUMPI PUSH1 0x40 MLOAD PUSH3 0x461BCD PUSH1 0xE5 SHL DUP2 MSTORE PUSH1 0x4 ADD PUSH2 0x676 SWAP1 PUSH2 0x3446 JUMP JUMPDEST PUSH1 0x4 DUP1 SLOAD PUSH1 0x40 MLOAD PUSH4 0x70A08231 PUSH1 0xE0 SHL DUP2 MSTORE ADDRESS SWAP3 DUP2 ADD SWAP3 SWAP1 SWAP3 MSTORE PUSH0 SWAP2 PUSH1 0x1 PUSH1 0x1 PUSH1 0xA0 SHL SUB SWAP1 SWAP2 AND SWAP1 PUSH4 0x70A08231 SWAP1 PUSH1 0x24 ADD PUSH1 0x20 PUSH1 0x40 MLOAD DUP1 DUP4 SUB DUP2 DUP7 GAS STATICCALL ISZERO DUP1 ISZERO PUSH2 0x1E14 JUMPI RETURNDATASIZE PUSH0 PUSH0 RETURNDATACOPY RETURNDATASIZE PUSH0 REVERT JUMPDEST POP POP POP POP PUSH1 0x40 MLOAD RETURNDATASIZE PUSH1 0x1F NOT PUSH1 0x1F DUP3 ADD AND DUP3 ADD DUP1 PUSH1 0x40 MSTORE POP DUP2 ADD SWAP1 PUSH2 0x1E38 SWAP2 SWAP1 PUSH2 0x342F JUMP JUMPDEST SWAP1 POP DUP1 PUSH1 0x11 SLOAD PUSH2 0x1E48 SWAP2 SWAP1 PUSH2 0x34BD JUMP JUMPDEST PUSH1 0x11 DUP3 SWAP1 SSTORE SWAP3 POP SELFBALANCE SWAP2 POP PUSH2 0x1E5C CALLER SELFBALANCE PUSH2 0x2F6B JUMP JUMPDEST PUSH1 0x40 DUP1 MLOAD PUSH1 0x1 DUP2 MSTORE PUSH1 0x20 DUP2 ADD DUP6 SWAP1 MSTORE SWAP1 DUP2 ADD DUP4 SWAP1 MSTORE PUSH32 0xFEDB0622D5D5FA46CC706A5C2C169F2BF2EB31A59FF2F70CEF3096376F58C2C0 SWAP1 PUSH1 0x60 ADD PUSH2 0x143B JUMP JUMPDEST PUSH2 0x1EA3 PUSH2 0x2507 JUMP JUMPDEST PUSH2 0x174E DUP2 PUSH2 0x2D45 JUMP JUMPDEST PUSH0 PUSH2 0x1EB5 PUSH2 0x2507 JUMP JUMPDEST PUSH1 0x4 DUP1 SLOAD PUSH1 0x40 MLOAD PUSH4 0x95DD9193 PUSH1 0xE0 SHL DUP2 MSTORE ADDRESS SWAP3 DUP2 ADD SWAP3 SWAP1 SWAP3 MSTORE PUSH0 SWAP2 PUSH1 0x1 PUSH1 0x1 PUSH1 0xA0 SHL SUB SWAP1 SWAP2 AND SWAP1 PUSH4 0x95DD9193 SWAP1 PUSH1 0x24 ADD PUSH1 0x20 PUSH1 0x40 MLOAD DUP1 DUP4 SUB DUP2 DUP7 GAS STATICCALL ISZERO DUP1 ISZERO PUSH2 0x1F00 JUMPI RETURNDATASIZE PUSH0 PUSH0 RETURNDATACOPY RETURNDATASIZE PUSH0 REVERT JUMPDEST POP POP POP POP PUSH1 0x40 MLOAD RETURNDATASIZE PUSH1 0x1F NOT PUSH1 0x1F DUP3 ADD AND DUP3 ADD DUP1 PUSH1 0x40 MSTORE POP DUP2 ADD SWAP1 PUSH2 0x1F24 SWAP2 SWAP1 PUSH2 0x342F JUMP JUMPDEST SWAP1 POP DUP3 PUSH2 0x1F31 JUMPI DUP4 PUSH2 0x1F33 JUMP JUMPDEST DUP1 JUMPDEST SWAP2 POP PUSH0 PUSH1 0x3 PUSH0 SWAP1 SLOAD SWAP1 PUSH2 0x100 EXP SWAP1 DIV PUSH1 0x1 PUSH1 0x1 PUSH1 0xA0 SHL SUB AND PUSH1 0x1 PUSH1 0x1 PUSH1 0xA0 SHL SUB AND PUSH4 0xDFE1681 PUSH1 0x40 MLOAD DUP2 PUSH4 0xFFFFFFFF AND PUSH1 0xE0 SHL DUP2 MSTORE PUSH1 0x4 ADD PUSH1 0x20 PUSH1 0x40 MLOAD DUP1 DUP4 SUB DUP2 DUP7 GAS STATICCALL ISZERO DUP1 ISZERO PUSH2 0x1F86 JUMPI RETURNDATASIZE PUSH0 PUSH0 RETURNDATACOPY RETURNDATASIZE PUSH0 REVERT JUMPDEST POP POP POP POP PUSH1 0x40 MLOAD RETURNDATASIZE PUSH1 0x1F NOT PUSH1 0x1F DUP3 ADD AND DUP3 ADD DUP1 PUSH1 0x40 MSTORE POP DUP2 ADD SWAP1 PUSH2 0x1FAA SWAP2 SWAP1 PUSH2 0x33AD JUMP JUMPDEST PUSH1 0x1 SLOAD SWAP1 SWAP2 POP PUSH0 SWAP1 DUP2 SWAP1 PUSH1 0x1 PUSH1 0x1 PUSH1 0xA0 SHL SUB SWAP1 DUP2 AND SWAP1 DUP5 AND SUB PUSH2 0x1FCF JUMPI DUP5 SWAP2 POP PUSH2 0x1FD2 JUMP JUMPDEST POP DUP4 JUMPDEST PUSH1 0x40 DUP1 MLOAD PUSH2 0x100 DUP1 DUP3 ADD DUP4 MSTORE PUSH0 DUP1 DUP4 MSTORE PUSH1 0x1 PUSH1 0x20 DUP5 ADD MSTORE DUP3 DUP5 ADD DUP2 SWAP1 MSTORE PUSH1 0x60 DUP4 ADD DUP2 SWAP1 MSTORE PUSH1 0x80 DUP4 ADD DUP2 SWAP1 MSTORE PUSH1 0xA0 DUP4 ADD DUP2 SWAP1 MSTORE PUSH1 0xC0 DUP4 ADD DUP2 SWAP1 MSTORE PUSH1 0xE0 SWAP1 SWAP3 ADD DUP9 SWAP1 MSTORE PUSH1 0xA DUP1 SLOAD PUSH2 0xFFFF NOT AND SWAP1 SWAP2 OR SWAP1 SSTORE PUSH1 0xB DUP2 SWAP1 SSTORE PUSH1 0xC DUP2 SWAP1 SSTORE PUSH1 0xD DUP2 SWAP1 SSTORE PUSH1 0xE DUP2 SWAP1 SSTORE PUSH1 0xF SSTORE PUSH1 0x10 DUP7 SWAP1 SSTORE PUSH1 0x3 SLOAD SWAP1 MLOAD PUSH4 0x22C0D9F PUSH1 0xE0 SHL DUP2 MSTORE PUSH1 0x1 PUSH1 0x1 PUSH1 0xA0 SHL SUB SWAP1 SWAP2 AND SWAP1 PUSH4 0x22C0D9F SWAP1 PUSH2 0x2070 SWAP1 DUP6 SWAP1 DUP6 SWAP1 ADDRESS SWAP1 PUSH1 0x4 ADD PUSH2 0x346C JUMP JUMPDEST PUSH0 PUSH1 0x40 MLOAD DUP1 DUP4 SUB DUP2 PUSH0 DUP8 DUP1 EXTCODESIZE ISZERO DUP1 ISZERO PUSH2 0x2087 JUMPI PUSH0 PUSH0 REVERT JUMPDEST POP GAS CALL ISZERO DUP1 ISZERO PUSH2 0x2099 JUMPI RETURNDATASIZE PUSH0 PUSH0 RETURNDATACOPY RETURNDATASIZE PUSH0 REVERT JUMPDEST POP POP PUSH1 0x5 SLOAD PUSH1 0x40 MLOAD PUSH4 0x70A08231 PUSH1 0xE0 SHL DUP2 MSTORE ADDRESS PUSH1 0x4 DUP3 ADD MSTORE PUSH0 SWAP4 POP PUSH1 0x1 PUSH1 0x1 PUSH1 0xA0 SHL SUB SWAP1 SWAP2 AND SWAP2 POP PUSH4 0x70A08231 SWAP1 PUSH1 0x24 ADD PUSH1 0x20 PUSH1 0x40 MLOAD DUP1 DUP4 SUB DUP2 DUP7 GAS STATICCALL ISZERO DUP1 ISZERO PUSH2 0x20E5 JUMPI RETURNDATASIZE PUSH0 PUSH0 RETURNDATACOPY RETURNDATASIZE PUSH0 REVERT JUMPDEST POP POP POP POP PUSH1 0x40 MLOAD RETURNDATASIZE PUSH1 0x1F NOT PUSH1 0x1F DUP3 ADD AND DUP3 ADD DUP1 PUSH1 0x40 MSTORE POP DUP2 ADD SWAP1 PUSH2 0x2109 SWAP2 SWAP1 PUSH2 0x342F JUMP JUMPDEST SWAP1 POP PUSH0 DUP2 PUSH1 0x12 SLOAD PUSH2 0x211A SWAP2 SWAP1 PUSH2 0x34BD JUMP JUMPDEST PUSH1 0x12 DUP4 SWAP1 SSTORE PUSH1 0xF SLOAD PUSH1 0x40 DUP1 MLOAD DUP4 DUP2 MSTORE PUSH1 0x20 DUP2 ADD SWAP3 SWAP1 SWAP3 MSTORE DUP2 ADD DUP10 SWAP1 MSTORE DUP10 ISZERO ISZERO PUSH1 0x60 DUP3 ADD MSTORE SWAP1 SWAP2 POP PUSH32 0x78CE03753721A9DB485DBE4101E71EB7C530F35BF14365D3B53E0465BC54C0C5 SWAP1 PUSH1 0x80 ADD PUSH2 0x114C JUMP JUMPDEST PUSH2 0x2173 PUSH2 0x2507 JUMP JUMPDEST PUSH1 0x1 PUSH1 0x1 PUSH1 0xA0 SHL SUB DUP2 AND PUSH2 0x21D8 JUMPI PUSH1 0x40 MLOAD PUSH3 0x461BCD PUSH1 0xE5 SHL DUP2 MSTORE PUSH1 0x20 PUSH1 0x4 DUP3 ADD MSTORE PUSH1 0x26 PUSH1 0x24 DUP3 ADD MSTORE PUSH32 0x4F776E61626C653A206E6577206F776E657220697320746865207A65726F2061 PUSH1 0x44 DUP3 ADD MSTORE PUSH6 0x646472657373 PUSH1 0xD0 SHL PUSH1 0x64 DUP3 ADD MSTORE PUSH1 0x84 ADD PUSH2 0x676 JUMP JUMPDEST PUSH2 0x174E DUP2 PUSH2 0x2A9C JUMP JUMPDEST PUSH2 0x21E9 PUSH2 0x2507 JUMP JUMPDEST PUSH1 0x4 DUP1 SLOAD PUSH1 0x40 DUP1 MLOAD PUSH4 0x1249C58B PUSH1 0xE0 SHL DUP2 MSTORE SWAP1 MLOAD CALLVALUE SWAP4 PUSH1 0x1 PUSH1 0x1 PUSH1 0xA0 SHL SUB SWAP1 SWAP4 AND SWAP3 PUSH4 0x1249C58B SWAP3 DUP6 SWAP3 DUP2 DUP4 ADD SWAP3 PUSH0 SWAP3 DUP3 SWAP1 SUB ADD DUP2 DUP6 DUP9 DUP1 EXTCODESIZE ISZERO DUP1 ISZERO PUSH2 0x222D JUMPI PUSH0 PUSH0 REVERT JUMPDEST POP GAS CALL ISZERO DUP1 ISZERO PUSH2 0x223F JUMPI RETURNDATASIZE PUSH0 PUSH0 RETURNDATACOPY RETURNDATASIZE PUSH0 REVERT JUMPDEST POP POP PUSH1 0x4 DUP1 SLOAD PUSH1 0x40 MLOAD PUSH4 0x70A08231 PUSH1 0xE0 SHL DUP2 MSTORE ADDRESS SWAP3 DUP2 ADD SWAP3 SWAP1 SWAP3 MSTORE PUSH0 SWAP5 POP PUSH1 0x1 PUSH1 0x1 PUSH1 0xA0 SHL SUB AND SWAP3 POP PUSH4 0x70A08231 SWAP2 POP PUSH1 0x24 ADD PUSH1 0x20 PUSH1 0x40 MLOAD DUP1 DUP4 SUB DUP2 DUP7 GAS STATICCALL ISZERO DUP1 ISZERO PUSH2 0x228D JUMPI RETURNDATASIZE PUSH0 PUSH0 RETURNDATACOPY RETURNDATASIZE PUSH0 REVERT JUMPDEST POP POP POP POP PUSH1 0x40 MLOAD RETURNDATASIZE PUSH1 0x1F NOT PUSH1 0x1F DUP3 ADD AND DUP3 ADD DUP1 PUSH1 0x40 MSTORE POP DUP2 ADD SWAP1 PUSH2 0x22B1 SWAP2 SWAP1 PUSH2 0x342F JUMP JUMPDEST SWAP1 POP PUSH0 PUSH1 0x11 SLOAD DUP3 PUSH2 0x22C2 SWAP2 SWAP1 PUSH2 0x34BD JUMP JUMPDEST PUSH1 0x11 DUP4 SWAP1 SSTORE PUSH1 0x40 DUP1 MLOAD PUSH1 0x1 DUP2 MSTORE PUSH1 0x20 DUP2 ADD DUP7 SWAP1 MSTORE SWAP1 DUP2 ADD DUP3 SWAP1 MSTORE SWAP1 SWAP2 POP PUSH32 0x1C49111414D8CD618BA259B16508C34541A4F27A1E3C4372C0F358D5086652BD SWAP1 PUSH1 0x60 ADD PUSH2 0x143B JUMP JUMPDEST PUSH2 0x2311 PUSH2 0x2507 JUMP JUMPDEST PUSH1 0x2 SLOAD PUSH2 0x2329 SWAP1 PUSH1 0x1 PUSH1 0x1 PUSH1 0xA0 SHL SUB AND CALLER ADDRESS DUP5 PUSH2 0x3046 JUMP JUMPDEST PUSH1 0x2 SLOAD PUSH1 0x5 SLOAD PUSH1 0x40 MLOAD PUSH4 0x95EA7B3 PUSH1 0xE0 SHL DUP2 MSTORE PUSH1 0x1 PUSH1 0x1 PUSH1 0xA0 SHL SUB SWAP2 DUP3 AND PUSH1 0x4 DUP3 ADD MSTORE PUSH1 0x24 DUP2 ADD DUP5 SWAP1 MSTORE SWAP2 AND SWAP1 PUSH4 0x95EA7B3 SWAP1 PUSH1 0x44 ADD PUSH1 0x20 PUSH1 0x40 MLOAD DUP1 DUP4 SUB DUP2 PUSH0 DUP8 GAS CALL ISZERO DUP1 ISZERO PUSH2 0x237B JUMPI RETURNDATASIZE PUSH0 PUSH0 RETURNDATACOPY RETURNDATASIZE PUSH0 REVERT JUMPDEST POP POP POP POP PUSH1 0x40 MLOAD RETURNDATASIZE PUSH1 0x1F NOT PUSH1 0x1F DUP3 ADD AND DUP3 ADD DUP1 PUSH1 0x40 MSTORE POP DUP2 ADD SWAP1 PUSH2 0x239F SWAP2 SWAP1 PUSH2 0x36BA JUMP JUMPDEST POP PUSH1 0x5 SLOAD PUSH1 0x40 MLOAD PUSH4 0x140E25AD PUSH1 0xE3 SHL DUP2 MSTORE PUSH1 0x4 DUP2 ADD DUP4 SWAP1 MSTORE PUSH1 0x1 PUSH1 0x1 PUSH1 0xA0 SHL SUB SWAP1 SWAP2 AND SWAP1 PUSH4 0xA0712D68 SWAP1 PUSH1 0x24 ADD PUSH1 0x20 PUSH1 0x40 MLOAD DUP1 DUP4 SUB DUP2 PUSH0 DUP8 GAS CALL ISZERO DUP1 ISZERO PUSH2 0x23E8 JUMPI RETURNDATASIZE PUSH0 PUSH0 RETURNDATACOPY RETURNDATASIZE PUSH0 REVERT JUMPDEST POP POP POP POP PUSH1 0x40 MLOAD RETURNDATASIZE PUSH1 0x1F NOT PUSH1 0x1F DUP3 ADD AND DUP3 ADD DUP1 PUSH1 0x40 MSTORE POP DUP2 ADD SWAP1 PUSH2 0x240C SWAP2 SWAP1 PUSH2 0x342F JUMP JUMPDEST ISZERO PUSH2 0x2446 JUMPI PUSH1 0x40 MLOAD PUSH3 0x461BCD PUSH1 0xE5 SHL DUP2 MSTORE PUSH1 0x20 PUSH1 0x4 DUP3 ADD MSTORE PUSH1 0xA PUSH1 0x24 DUP3 ADD MSTORE PUSH10 0x36B4B73A1032B93937B9 PUSH1 0xB1 SHL PUSH1 0x44 DUP3 ADD MSTORE PUSH1 0x64 ADD PUSH2 0x676 JUMP JUMPDEST PUSH1 0x5 SLOAD PUSH1 0x40 MLOAD PUSH4 0x70A08231 PUSH1 0xE0 SHL DUP2 MSTORE ADDRESS PUSH1 0x4 DUP3 ADD MSTORE PUSH0 SWAP2 PUSH1 0x1 PUSH1 0x1 PUSH1 0xA0 SHL SUB AND SWAP1 PUSH4 0x70A08231 SWAP1 PUSH1 0x24 ADD PUSH1 0x20 PUSH1 0x40 MLOAD DUP1 DUP4 SUB DUP2 DUP7 GAS STATICCALL ISZERO DUP1 ISZERO PUSH2 0x248C JUMPI RETURNDATASIZE PUSH0 PUSH0 RETURNDATACOPY RETURNDATASIZE PUSH0 REVERT JUMPDEST POP POP POP POP PUSH1 0x40 MLOAD RETURNDATASIZE PUSH1 0x1F NOT PUSH1 0x1F DUP3 ADD AND DUP3 ADD DUP1 PUSH1 0x40 MSTORE POP DUP2 ADD SWAP1 PUSH2 0x24B0 SWAP2 SWAP1 PUSH2 0x342F JUMP JUMPDEST SWAP1 POP PUSH0 PUSH1 0x12 SLOAD DUP3 PUSH2 0x24C1 SWAP2 SWAP1 PUSH2 0x34BD JUMP JUMPDEST PUSH1 0x11 DUP4 SWAP1 SSTORE PUSH1 0x40 DUP1 MLOAD PUSH0 DUP2 MSTORE PUSH1 0x20 DUP2 ADD DUP7 SWAP1 MSTORE SWAP1 DUP2 ADD DUP3 SWAP1 MSTORE SWAP1 SWAP2 POP PUSH32 0x1C49111414D8CD618BA259B16508C34541A4F27A1E3C4372C0F358D5086652BD SWAP1 PUSH1 0x60 ADD PUSH2 0x143B JUMP JUMPDEST PUSH0 SLOAD PUSH1 0x1 PUSH1 0x1 PUSH1 0xA0 SHL SUB AND CALLER EQ PUSH2 0x119A JUMPI PUSH1 0x40 MLOAD PUSH3 0x461BCD PUSH1 0xE5 SHL DUP2 MSTORE PUSH1 0x20 PUSH1 0x4 DUP3 ADD DUP2 SWAP1 MSTORE PUSH1 0x24 DUP3 ADD MSTORE PUSH32 0x4F776E61626C653A2063616C6C6572206973206E6F7420746865206F776E6572 PUSH1 0x44 DUP3 ADD MSTORE PUSH1 0x64 ADD PUSH2 0x676 JUMP JUMPDEST PUSH0 TIMESTAMP DUP4 GT PUSH2 0x25B0 JUMPI PUSH1 0x40 MLOAD PUSH3 0x461BCD PUSH1 0xE5 SHL DUP2 MSTORE PUSH1 0x20 PUSH1 0x4 DUP3 ADD MSTORE PUSH1 0x1B PUSH1 0x24 DUP3 ADD MSTORE PUSH32 0x6578706972654174203C3D20626C6F636B2E74696D657374616D700000000000 PUSH1 0x44 DUP3 ADD MSTORE PUSH1 0x64 ADD PUSH2 0x676 JUMP JUMPDEST DUP6 ISZERO PUSH2 0x2611 JUMPI PUSH2 0x25BE PUSH2 0x16BC JUMP JUMPDEST DUP5 LT PUSH2 0x260C JUMPI PUSH1 0x40 MLOAD PUSH3 0x461BCD PUSH1 0xE5 SHL DUP2 MSTORE PUSH1 0x20 PUSH1 0x4 DUP3 ADD MSTORE PUSH1 0x19 PUSH1 0x24 DUP3 ADD MSTORE PUSH32 0x6C696D69745072696365203E3D206C6174657374507269636500000000000000 PUSH1 0x44 DUP3 ADD MSTORE PUSH1 0x64 ADD PUSH2 0x676 JUMP JUMPDEST PUSH2 0x2667 JUMP JUMPDEST PUSH2 0x2619 PUSH2 0x16BC JUMP JUMPDEST DUP5 GT PUSH2 0x2667 JUMPI PUSH1 0x40 MLOAD PUSH3 0x461BCD PUSH1 0xE5 SHL DUP2 MSTORE PUSH1 0x20 PUSH1 0x4 DUP3 ADD MSTORE PUSH1 0x19 PUSH1 0x24 DUP3 ADD MSTORE PUSH32 0x6C696D69745072696365203C3D206C6174657374507269636500000000000000 PUSH1 0x44 DUP3 ADD MSTORE PUSH1 0x64 ADD PUSH2 0x676 JUMP JUMPDEST PUSH0 PUSH1 0x40 MLOAD DUP1 PUSH1 0xE0 ADD PUSH1 0x40 MSTORE DUP1 DUP9 ISZERO ISZERO DUP2 MSTORE PUSH1 0x20 ADD PUSH0 ISZERO ISZERO DUP2 MSTORE PUSH1 0x20 ADD DUP8 DUP2 MSTORE PUSH1 0x20 ADD DUP7 DUP2 MSTORE PUSH1 0x20 ADD PUSH0 DUP2 MSTORE PUSH1 0x20 ADD DUP6 DUP2 MSTORE PUSH1 0x20 ADD DUP5 PUSH1 0x1 PUSH1 0x1 PUSH1 0xA0 SHL SUB AND DUP2 MSTORE POP SWAP1 POP PUSH1 0x1 PUSH1 0x8 PUSH0 DUP3 DUP3 SLOAD PUSH2 0x26BC SWAP2 SWAP1 PUSH2 0x36D5 JUMP JUMPDEST SWAP1 SWAP2 SSTORE POP POP PUSH1 0x8 DUP1 SLOAD PUSH0 SWAP1 DUP2 MSTORE PUSH1 0x9 PUSH1 0x20 SWAP1 DUP2 MSTORE PUSH1 0x40 SWAP2 DUP3 SWAP1 KECCAK256 DUP5 MLOAD DUP2 SLOAD SWAP3 DUP7 ADD MLOAD PUSH2 0xFFFF NOT SWAP1 SWAP4 AND SWAP1 ISZERO ISZERO PUSH2 0xFF00 NOT AND OR PUSH2 0x100 SWAP3 ISZERO ISZERO SWAP3 SWAP1 SWAP3 MUL SWAP2 SWAP1 SWAP2 OR DUP2 SSTORE SWAP1 DUP4 ADD MLOAD PUSH1 0x1 DUP3 ADD SSTORE PUSH1 0x60 DUP4 ADD MLOAD PUSH1 0x2 DUP3 ADD SSTORE PUSH1 0x80 DUP4 ADD MLOAD PUSH1 0x3 DUP3 ADD SSTORE PUSH1 0xA0 DUP4 ADD MLOAD PUSH1 0x4 DUP3 ADD SSTORE PUSH1 0xC0 SWAP1 SWAP3 ADD MLOAD PUSH1 0x5 SWAP1 SWAP3 ADD DUP1 SLOAD PUSH1 0x1 PUSH1 0x1 PUSH1 0xA0 SHL SUB NOT AND PUSH1 0x1 PUSH1 0x1 PUSH1 0xA0 SHL SUB SWAP1 SWAP4 AND SWAP3 SWAP1 SWAP3 OR SWAP1 SWAP2 SSTORE SLOAD SWAP7 SWAP6 POP POP POP POP POP POP JUMP JUMPDEST PUSH0 PUSH0 DUP5 GT PUSH2 0x27A9 JUMPI PUSH1 0x40 MLOAD PUSH3 0x461BCD PUSH1 0xE5 SHL DUP2 MSTORE PUSH1 0x20 PUSH1 0x4 DUP3 ADD MSTORE PUSH1 0x1A PUSH1 0x24 DUP3 ADD MSTORE PUSH32 0x494E53554646494349454E545F4F55545055545F414D4F554E54000000000000 PUSH1 0x44 DUP3 ADD MSTORE PUSH1 0x64 ADD PUSH2 0x676 JUMP JUMPDEST PUSH0 DUP4 GT DUP1 ISZERO PUSH2 0x27B7 JUMPI POP PUSH0 DUP3 GT JUMPDEST PUSH2 0x27FC JUMPI PUSH1 0x40 MLOAD PUSH3 0x461BCD PUSH1 0xE5 SHL DUP2 MSTORE PUSH1 0x20 PUSH1 0x4 DUP3 ADD MSTORE PUSH1 0x16 PUSH1 0x24 DUP3 ADD MSTORE PUSH22 0x494E53554646494349454E545F4C4951554944495459 PUSH1 0x50 SHL PUSH1 0x44 DUP3 ADD MSTORE PUSH1 0x64 ADD PUSH2 0x676 JUMP JUMPDEST PUSH0 PUSH2 0x2807 DUP6 DUP4 PUSH2 0x36E8 JUMP JUMPDEST PUSH2 0x2813 SWAP1 PUSH2 0x3E8 PUSH2 0x36E8 JUMP JUMPDEST SWAP1 POP PUSH0 PUSH2 0x2820 DUP7 DUP6 PUSH2 0x34BD JUMP JUMPDEST PUSH2 0x282C SWAP1 PUSH2 0x3E5 PUSH2 0x36E8 JUMP JUMPDEST SWAP1 POP PUSH2 0x2838 DUP2 DUP4 PUSH2 0x36FF JUMP JUMPDEST PUSH2 0x2843 SWAP1 PUSH1 0x1 PUSH2 0x36D5 JUMP JUMPDEST SWAP7 SWAP6 POP POP POP POP POP POP JUMP JUMPDEST PUSH1 0x40 DUP1 MLOAD PUSH1 0x1 PUSH1 0x1 PUSH1 0xA0 SHL SUB DUP5 DUP2 AND PUSH1 0x24 DUP4 ADD MSTORE PUSH1 0x44 DUP1 DUP4 ADD DUP6 SWAP1 MSTORE DUP4 MLOAD DUP1 DUP5 SUB SWAP1 SWAP2 ADD DUP2 MSTORE PUSH1 0x64 SWAP1 SWAP3 ADD DUP4 MSTORE PUSH1 0x20 DUP3 ADD DUP1 MLOAD PUSH1 0x1 PUSH1 0x1 PUSH1 0xE0 SHL SUB AND PUSH4 0xA9059CBB PUSH1 0xE0 SHL OR SWAP1 MSTORE SWAP2 MLOAD PUSH0 SWAP3 DUP4 SWAP3 SWAP1 DUP8 AND SWAP2 PUSH2 0x28A8 SWAP2 SWAP1 PUSH2 0x371E JUMP JUMPDEST PUSH0 PUSH1 0x40 MLOAD DUP1 DUP4 SUB DUP2 PUSH0 DUP7 GAS CALL SWAP2 POP POP RETURNDATASIZE DUP1 PUSH0 DUP2 EQ PUSH2 0x28E1 JUMPI PUSH1 0x40 MLOAD SWAP2 POP PUSH1 0x1F NOT PUSH1 0x3F RETURNDATASIZE ADD AND DUP3 ADD PUSH1 0x40 MSTORE RETURNDATASIZE DUP3 MSTORE RETURNDATASIZE PUSH0 PUSH1 0x20 DUP5 ADD RETURNDATACOPY PUSH2 0x28E6 JUMP JUMPDEST PUSH1 0x60 SWAP2 POP JUMPDEST POP SWAP2 POP SWAP2 POP DUP2 DUP1 ISZERO PUSH2 0x2910 JUMPI POP DUP1 MLOAD ISZERO DUP1 PUSH2 0x2910 JUMPI POP DUP1 DUP1 PUSH1 0x20 ADD SWAP1 MLOAD DUP2 ADD SWAP1 PUSH2 0x2910 SWAP2 SWAP1 PUSH2 0x36BA JUMP JUMPDEST PUSH2 0x2972 JUMPI PUSH1 0x40 MLOAD PUSH3 0x461BCD PUSH1 0xE5 SHL DUP2 MSTORE PUSH1 0x20 PUSH1 0x4 DUP3 ADD MSTORE PUSH1 0x2D PUSH1 0x24 DUP3 ADD MSTORE PUSH32 0x5472616E7366657248656C7065723A3A736166655472616E736665723A207472 PUSH1 0x44 DUP3 ADD MSTORE PUSH13 0x185B9CD9995C8819985A5B1959 PUSH1 0x9A SHL PUSH1 0x64 DUP3 ADD MSTORE PUSH1 0x84 ADD PUSH2 0x676 JUMP JUMPDEST POP POP POP POP POP JUMP JUMPDEST PUSH1 0x40 DUP1 MLOAD PUSH1 0x1 PUSH1 0x1 PUSH1 0xA0 SHL SUB DUP5 DUP2 AND PUSH1 0x24 DUP4 ADD MSTORE PUSH1 0x44 DUP1 DUP4 ADD DUP6 SWAP1 MSTORE DUP4 MLOAD DUP1 DUP5 SUB SWAP1 SWAP2 ADD DUP2 MSTORE PUSH1 0x64 SWAP1 SWAP3 ADD DUP4 MSTORE PUSH1 0x20 DUP3 ADD DUP1 MLOAD PUSH1 0x1 PUSH1 0x1 PUSH1 0xE0 SHL SUB AND PUSH4 0x95EA7B3 PUSH1 0xE0 SHL OR SWAP1 MSTORE SWAP2 MLOAD PUSH0 SWAP3 DUP4 SWAP3 SWAP1 DUP8 AND SWAP2 PUSH2 0x29D4 SWAP2 SWAP1 PUSH2 0x371E JUMP JUMPDEST PUSH0 PUSH1 0x40 MLOAD DUP1 DUP4 SUB DUP2 PUSH0 DUP7 GAS CALL SWAP2 POP POP RETURNDATASIZE DUP1 PUSH0 DUP2 EQ PUSH2 0x2A0D JUMPI PUSH1 0x40 MLOAD SWAP2 POP PUSH1 0x1F NOT PUSH1 0x3F RETURNDATASIZE ADD AND DUP3 ADD PUSH1 0x40 MSTORE RETURNDATASIZE DUP3 MSTORE RETURNDATASIZE PUSH0 PUSH1 0x20 DUP5 ADD RETURNDATACOPY PUSH2 0x2A12 JUMP JUMPDEST PUSH1 0x60 SWAP2 POP JUMPDEST POP SWAP2 POP SWAP2 POP DUP2 DUP1 ISZERO PUSH2 0x2A3C JUMPI POP DUP1 MLOAD ISZERO DUP1 PUSH2 0x2A3C JUMPI POP DUP1 DUP1 PUSH1 0x20 ADD SWAP1 MLOAD DUP2 ADD SWAP1 PUSH2 0x2A3C SWAP2 SWAP1 PUSH2 0x36BA JUMP JUMPDEST PUSH2 0x2972 JUMPI PUSH1 0x40 MLOAD PUSH3 0x461BCD PUSH1 0xE5 SHL DUP2 MSTORE PUSH1 0x20 PUSH1 0x4 DUP3 ADD MSTORE PUSH1 0x2B PUSH1 0x24 DUP3 ADD MSTORE PUSH32 0x5472616E7366657248656C7065723A3A73616665417070726F76653A20617070 PUSH1 0x44 DUP3 ADD MSTORE PUSH11 0x1C9BDD994819985A5B1959 PUSH1 0xAA SHL PUSH1 0x64 DUP3 ADD MSTORE PUSH1 0x84 ADD PUSH2 0x676 JUMP JUMPDEST PUSH0 DUP1 SLOAD PUSH1 0x1 PUSH1 0x1 PUSH1 0xA0 SHL SUB DUP4 DUP2 AND PUSH1 0x1 PUSH1 0x1 PUSH1 0xA0 SHL SUB NOT DUP4 AND DUP2 OR DUP5 SSTORE PUSH1 0x40 MLOAD SWAP2 SWAP1 SWAP3 AND SWAP3 DUP4 SWAP2 PUSH32 0x8BE0079C531659141344CD1FD0A4F28419497F9722A3DAAFE3B4186F6B6457E0 SWAP2 SWAP1 LOG3 POP POP JUMP JUMPDEST PUSH1 0x3 SLOAD PUSH1 0x40 DUP1 MLOAD PUSH4 0xDFE1681 PUSH1 0xE0 SHL DUP2 MSTORE SWAP1 MLOAD PUSH0 SWAP3 PUSH1 0x1 PUSH1 0x1 PUSH1 0xA0 SHL SUB AND SWAP2 PUSH4 0xDFE1681 SWAP2 PUSH1 0x4 DUP1 DUP4 ADD SWAP3 PUSH1 0x20 SWAP3 SWAP2 SWAP1 DUP3 SWAP1 SUB ADD DUP2 DUP7 GAS STATICCALL ISZERO DUP1 ISZERO PUSH2 0x2B32 JUMPI RETURNDATASIZE PUSH0 PUSH0 RETURNDATACOPY RETURNDATASIZE PUSH0 REVERT JUMPDEST POP POP POP POP PUSH1 0x40 MLOAD RETURNDATASIZE PUSH1 0x1F NOT PUSH1 0x1F DUP3 ADD AND DUP3 ADD DUP1 PUSH1 0x40 MSTORE POP DUP2 ADD SWAP1 PUSH2 0x2B56 SWAP2 SWAP1 PUSH2 0x33AD JUMP JUMPDEST PUSH1 0x1 SLOAD SWAP1 SWAP2 POP PUSH0 SWAP1 DUP2 SWAP1 PUSH1 0x1 PUSH1 0x1 PUSH1 0xA0 SHL SUB SWAP1 DUP2 AND SWAP1 DUP5 AND SUB PUSH2 0x2B7B JUMPI DUP4 SWAP2 POP PUSH2 0x2B7E JUMP JUMPDEST POP DUP3 JUMPDEST PUSH1 0x40 DUP1 MLOAD PUSH2 0x100 DUP2 ADD DUP3 MSTORE PUSH1 0x1 DUP1 DUP3 MSTORE PUSH1 0x20 DUP3 ADD MSTORE DUP1 DUP3 ADD DUP7 SWAP1 MSTORE PUSH0 PUSH1 0x60 DUP3 ADD DUP2 SWAP1 MSTORE PUSH1 0x80 DUP3 ADD DUP2 SWAP1 MSTORE PUSH1 0xA0 DUP3 ADD DUP2 SWAP1 MSTORE PUSH1 0xC0 DUP3 ADD DUP2 SWAP1 MSTORE PUSH1 0xE0 SWAP1 SWAP2 ADD DUP2 SWAP1 MSTORE PUSH1 0xA DUP1 SLOAD PUSH2 0xFFFF NOT AND PUSH2 0x101 OR SWAP1 SSTORE PUSH1 0xB DUP7 SWAP1 SSTORE PUSH1 0xC DUP2 SWAP1 SSTORE PUSH1 0xD DUP2 SWAP1 SSTORE PUSH1 0xE DUP2 SWAP1 SSTORE PUSH1 0xF DUP2 SWAP1 SSTORE PUSH1 0x10 SSTORE PUSH1 0x3 SLOAD SWAP1 MLOAD PUSH4 0x22C0D9F PUSH1 0xE0 SHL DUP2 MSTORE PUSH1 0x1 PUSH1 0x1 PUSH1 0xA0 SHL SUB SWAP1 SWAP2 AND SWAP1 PUSH4 0x22C0D9F SWAP1 PUSH2 0x2C1C SWAP1 DUP6 SWAP1 DUP6 SWAP1 ADDRESS SWAP1 PUSH1 0x4 ADD PUSH2 0x346C JUMP JUMPDEST PUSH0 PUSH1 0x40 MLOAD DUP1 DUP4 SUB DUP2 PUSH0 DUP8 DUP1 EXTCODESIZE ISZERO DUP1 ISZERO PUSH2 0x2C33 JUMPI PUSH0 PUSH0 REVERT JUMPDEST POP GAS CALL ISZERO DUP1 ISZERO PUSH2 0x2C45 JUMPI RETURNDATASIZE PUSH0 PUSH0 RETURNDATACOPY RETURNDATASIZE PUSH0 REVERT JUMPDEST POP POP PUSH1 0x4 DUP1 SLOAD PUSH1 0x40 MLOAD PUSH4 0x70A08231 PUSH1 0xE0 SHL DUP2 MSTORE ADDRESS SWAP3 DUP2 ADD SWAP3 SWAP1 SWAP3 MSTORE PUSH0 SWAP4 POP PUSH1 0x1 PUSH1 0x1 PUSH1 0xA0 SHL SUB AND SWAP2 POP PUSH4 0x70A08231 SWAP1 PUSH1 0x24 ADD PUSH1 0x20 PUSH1 0x40 MLOAD DUP1 DUP4 SUB DUP2 DUP7 GAS STATICCALL ISZERO DUP1 ISZERO PUSH2 0x2C92 JUMPI RETURNDATASIZE PUSH0 PUSH0 RETURNDATACOPY RETURNDATASIZE PUSH0 REVERT JUMPDEST POP POP POP POP PUSH1 0x40 MLOAD RETURNDATASIZE PUSH1 0x1F NOT PUSH1 0x1F DUP3 ADD AND DUP3 ADD DUP1 PUSH1 0x40 MSTORE POP DUP2 ADD SWAP1 PUSH2 0x2CB6 SWAP2 SWAP1 PUSH2 0x342F JUMP JUMPDEST SWAP1 POP PUSH0 PUSH1 0x11 SLOAD DUP3 PUSH2 0x2CC7 SWAP2 SWAP1 PUSH2 0x34BD JUMP JUMPDEST PUSH1 0x11 DUP4 SWAP1 SSTORE PUSH1 0xC SLOAD PUSH1 0x40 DUP1 MLOAD DUP10 DUP2 MSTORE PUSH1 0x20 DUP2 ADD DUP5 SWAP1 MSTORE SWAP1 DUP2 ADD SWAP2 SWAP1 SWAP2 MSTORE SWAP1 SWAP2 POP PUSH32 0xEFB1650EDBD2EE9B7B1940E049E74FC26CE6F3D0F62F1A3F32E25397B4DFFE3B SWAP1 PUSH1 0x60 ADD JUMPDEST PUSH1 0x40 MLOAD DUP1 SWAP2 SUB SWAP1 LOG1 POP POP PUSH1 0xA DUP1 SLOAD PUSH2 0xFFFF NOT AND SWAP1 SSTORE POP POP PUSH0 PUSH1 0xB DUP2 SWAP1 SSTORE PUSH1 0xC DUP2 SWAP1 SSTORE PUSH1 0xD DUP2 SWAP1 SSTORE PUSH1 0xE DUP2 SWAP1 SSTORE PUSH1 0xF DUP2 SWAP1 SSTORE PUSH1 0x10 SSTORE POP POP JUMP JUMPDEST PUSH1 0x3 SLOAD PUSH1 0x40 DUP1 MLOAD PUSH4 0xDFE1681 PUSH1 0xE0 SHL DUP2 MSTORE SWAP1 MLOAD PUSH0 SWAP3 PUSH1 0x1 PUSH1 0x1 PUSH1 0xA0 SHL SUB AND SWAP2 PUSH4 0xDFE1681 SWAP2 PUSH1 0x4 DUP1 DUP4 ADD SWAP3 PUSH1 0x20 SWAP3 SWAP2 SWAP1 DUP3 SWAP1 SUB ADD DUP2 DUP7 GAS STATICCALL ISZERO DUP1 ISZERO PUSH2 0x2D8C JUMPI RETURNDATASIZE PUSH0 PUSH0 RETURNDATACOPY RETURNDATASIZE PUSH0 REVERT JUMPDEST POP POP POP POP PUSH1 0x40 MLOAD RETURNDATASIZE PUSH1 0x1F NOT PUSH1 0x1F DUP3 ADD AND DUP3 ADD DUP1 PUSH1 0x40 MSTORE POP DUP2 ADD SWAP1 PUSH2 0x2DB0 SWAP2 SWAP1 PUSH2 0x33AD JUMP JUMPDEST PUSH1 0x2 SLOAD SWAP1 SWAP2 POP PUSH0 SWAP1 DUP2 SWAP1 PUSH1 0x1 PUSH1 0x1 PUSH1 0xA0 SHL SUB SWAP1 DUP2 AND SWAP1 DUP5 AND SUB PUSH2 0x2DD5 JUMPI DUP4 SWAP2 POP PUSH2 0x2DD8 JUMP JUMPDEST POP DUP3 JUMPDEST PUSH1 0x40 DUP1 MLOAD PUSH2 0x100 DUP2 ADD DUP3 MSTORE PUSH1 0x1 DUP1 DUP3 MSTORE PUSH0 PUSH1 0x20 DUP4 ADD DUP2 SWAP1 MSTORE DUP3 DUP5 ADD DUP9 SWAP1 MSTORE PUSH1 0x60 DUP4 ADD DUP2 SWAP1 MSTORE PUSH1 0x80 DUP4 ADD DUP2 SWAP1 MSTORE PUSH1 0xA0 DUP4 ADD DUP2 SWAP1 MSTORE PUSH1 0xC0 DUP4 ADD DUP2 SWAP1 MSTORE PUSH1 0xE0 SWAP1 SWAP3 ADD DUP3 SWAP1 MSTORE PUSH1 0xA DUP1 SLOAD PUSH2 0xFFFF NOT AND SWAP1 SWAP2 OR SWAP1 SSTORE PUSH1 0xB DUP7 SWAP1 SSTORE PUSH1 0xC DUP2 SWAP1 SSTORE PUSH1 0xD DUP2 SWAP1 SSTORE PUSH1 0xE DUP2 SWAP1 SSTORE PUSH1 0xF DUP2 SWAP1 SSTORE PUSH1 0x10 SSTORE PUSH1 0x3 SLOAD SWAP1 MLOAD PUSH4 0x22C0D9F PUSH1 0xE0 SHL DUP2 MSTORE PUSH1 0x1 PUSH1 0x1 PUSH1 0xA0 SHL SUB SWAP1 SWAP2 AND SWAP1 PUSH4 0x22C0D9F SWAP1 PUSH2 0x2E77 SWAP1 DUP6 SWAP1 DUP6 SWAP1 ADDRESS SWAP1 PUSH1 0x4 ADD PUSH2 0x346C JUMP JUMPDEST PUSH0 PUSH1 0x40 MLOAD DUP1 DUP4 SUB DUP2 PUSH0 DUP8 DUP1 EXTCODESIZE ISZERO DUP1 ISZERO PUSH2 0x2E8E JUMPI PUSH0 PUSH0 REVERT JUMPDEST POP GAS CALL ISZERO DUP1 ISZERO PUSH2 0x2EA0 JUMPI RETURNDATASIZE PUSH0 PUSH0 RETURNDATACOPY RETURNDATASIZE PUSH0 REVERT JUMPDEST POP POP PUSH1 0x5 SLOAD PUSH1 0x40 MLOAD PUSH4 0x70A08231 PUSH1 0xE0 SHL DUP2 MSTORE ADDRESS PUSH1 0x4 DUP3 ADD MSTORE PUSH0 SWAP4 POP PUSH1 0x1 PUSH1 0x1 PUSH1 0xA0 SHL SUB SWAP1 SWAP2 AND SWAP2 POP PUSH4 0x70A08231 SWAP1 PUSH1 0x24 ADD PUSH1 0x20 PUSH1 0x40 MLOAD DUP1 DUP4 SUB DUP2 DUP7 GAS STATICCALL ISZERO DUP1 ISZERO PUSH2 0x2EEC JUMPI RETURNDATASIZE PUSH0 PUSH0 RETURNDATACOPY RETURNDATASIZE PUSH0 REVERT JUMPDEST POP POP POP POP PUSH1 0x40 MLOAD RETURNDATASIZE PUSH1 0x1F NOT PUSH1 0x1F DUP3 ADD AND DUP3 ADD DUP1 PUSH1 0x40 MSTORE POP DUP2 ADD SWAP1 PUSH2 0x2F10 SWAP2 SWAP1 PUSH2 0x342F JUMP JUMPDEST SWAP1 POP PUSH0 PUSH1 0x12 SLOAD DUP3 PUSH2 0x2F21 SWAP2 SWAP1 PUSH2 0x34BD JUMP JUMPDEST PUSH1 0x12 DUP4 SWAP1 SSTORE PUSH1 0xC SLOAD PUSH1 0x40 DUP1 MLOAD DUP10 DUP2 MSTORE PUSH1 0x20 DUP2 ADD DUP5 SWAP1 MSTORE SWAP1 DUP2 ADD SWAP2 SWAP1 SWAP2 MSTORE SWAP1 SWAP2 POP PUSH32 0x383A754F7FB836D68AA84A08D21E9ABDD63725207F15A8D8777E1992CA92F4ED SWAP1 PUSH1 0x60 ADD PUSH2 0x2D0D JUMP JUMPDEST PUSH1 0x40 DUP1 MLOAD PUSH0 DUP1 DUP3 MSTORE PUSH1 0x20 DUP3 ADD SWAP1 SWAP3 MSTORE PUSH1 0x1 PUSH1 0x1 PUSH1 0xA0 SHL SUB DUP5 AND SWAP1 DUP4 SWAP1 PUSH1 0x40 MLOAD PUSH2 0x2F94 SWAP2 SWAP1 PUSH2 0x371E JUMP JUMPDEST PUSH0 PUSH1 0x40 MLOAD DUP1 DUP4 SUB DUP2 DUP6 DUP8 GAS CALL SWAP3 POP POP POP RETURNDATASIZE DUP1 PUSH0 DUP2 EQ PUSH2 0x2FCE JUMPI PUSH1 0x40 MLOAD SWAP2 POP PUSH1 0x1F NOT PUSH1 0x3F RETURNDATASIZE ADD AND DUP3 ADD PUSH1 0x40 MSTORE RETURNDATASIZE DUP3 MSTORE RETURNDATASIZE PUSH0 PUSH1 0x20 DUP5 ADD RETURNDATACOPY PUSH2 0x2FD3 JUMP JUMPDEST PUSH1 0x60 SWAP2 POP JUMPDEST POP POP SWAP1 POP DUP1 PUSH2 0x3041 JUMPI PUSH1 0x40 MLOAD PUSH3 0x461BCD PUSH1 0xE5 SHL DUP2 MSTORE PUSH1 0x20 PUSH1 0x4 DUP3 ADD MSTORE PUSH1 0x34 PUSH1 0x24 DUP3 ADD MSTORE PUSH32 0x5472616E7366657248656C7065723A3A736166655472616E736665724554483A PUSH1 0x44 DUP3 ADD MSTORE PUSH20 0x8115512081D1C985B9CD9995C8819985A5B1959 PUSH1 0x62 SHL PUSH1 0x64 DUP3 ADD MSTORE PUSH1 0x84 ADD PUSH2 0x676 JUMP JUMPDEST POP POP POP JUMP JUMPDEST PUSH1 0x40 DUP1 MLOAD PUSH1 0x1 PUSH1 0x1 PUSH1 0xA0 SHL SUB DUP6 DUP2 AND PUSH1 0x24 DUP4 ADD MSTORE DUP5 DUP2 AND PUSH1 0x44 DUP4 ADD MSTORE PUSH1 0x64 DUP1 DUP4 ADD DUP6 SWAP1 MSTORE DUP4 MLOAD DUP1 DUP5 SUB SWAP1 SWAP2 ADD DUP2 MSTORE PUSH1 0x84 SWAP1 SWAP3 ADD DUP4 MSTORE PUSH1 0x20 DUP3 ADD DUP1 MLOAD PUSH1 0x1 PUSH1 0x1 PUSH1 0xE0 SHL SUB AND PUSH4 0x23B872DD PUSH1 0xE0 SHL OR SWAP1 MSTORE SWAP2 MLOAD PUSH0 SWAP3 DUP4 SWAP3 SWAP1 DUP9 AND SWAP2 PUSH2 0x30A9 SWAP2 SWAP1 PUSH2 0x371E JUMP JUMPDEST PUSH0 PUSH1 0x40 MLOAD DUP1 DUP4 SUB DUP2 PUSH0 DUP7 GAS CALL SWAP2 POP POP RETURNDATASIZE DUP1 PUSH0 DUP2 EQ PUSH2 0x30E2 JUMPI PUSH1 0x40 MLOAD SWAP2 POP PUSH1 0x1F NOT PUSH1 0x3F RETURNDATASIZE ADD AND DUP3 ADD PUSH1 0x40 MSTORE RETURNDATASIZE DUP3 MSTORE RETURNDATASIZE PUSH0 PUSH1 0x20 DUP5 ADD RETURNDATACOPY PUSH2 0x30E7 JUMP JUMPDEST PUSH1 0x60 SWAP2 POP JUMPDEST POP SWAP2 POP SWAP2 POP DUP2 DUP1 ISZERO PUSH2 0x3111 JUMPI POP DUP1 MLOAD ISZERO DUP1 PUSH2 0x3111 JUMPI POP DUP1 DUP1 PUSH1 0x20 ADD SWAP1 MLOAD DUP2 ADD SWAP1 PUSH2 0x3111 SWAP2 SWAP1 PUSH2 0x36BA JUMP JUMPDEST PUSH2 0x3177 JUMPI PUSH1 0x40 MLOAD PUSH3 0x461BCD PUSH1 0xE5 SHL DUP2 MSTORE PUSH1 0x20 PUSH1 0x4 DUP3 ADD MSTORE PUSH1 0x31 PUSH1 0x24 DUP3 ADD MSTORE PUSH32 0x5472616E7366657248656C7065723A3A7472616E7366657246726F6D3A207472 PUSH1 0x44 DUP3 ADD MSTORE PUSH17 0x185B9CD9995C919C9BDB4819985A5B1959 PUSH1 0x7A SHL PUSH1 0x64 DUP3 ADD MSTORE PUSH1 0x84 ADD PUSH2 0x676 JUMP JUMPDEST POP POP POP POP POP POP JUMP JUMPDEST PUSH4 0x4E487B71 PUSH1 0xE0 SHL PUSH0 MSTORE PUSH1 0x1 PUSH1 0x4 MSTORE PUSH1 0x24 PUSH0 REVERT JUMPDEST PUSH1 0x1 PUSH1 0x1 PUSH1 0xA0 SHL SUB DUP2 AND DUP2 EQ PUSH2 0x174E JUMPI PUSH0 PUSH0 REVERT JUMPDEST PUSH0 PUSH0 PUSH0 PUSH0 PUSH1 0x80 DUP6 DUP8 SUB SLT ISZERO PUSH2 0x31BA JUMPI PUSH0 PUSH0 REVERT JUMPDEST DUP5 CALLDATALOAD SWAP4 POP PUSH1 0x20 DUP6 ADD CALLDATALOAD SWAP3 POP PUSH1 0x40 DUP6 ADD CALLDATALOAD SWAP2 POP PUSH1 0x60 DUP6 ADD CALLDATALOAD PUSH2 0x31DA DUP2 PUSH2 0x3193 JUMP JUMPDEST SWAP4 SWAP7 SWAP3 SWAP6 POP SWAP1 SWAP4 POP POP JUMP JUMPDEST PUSH0 PUSH0 PUSH0 PUSH0 PUSH0 PUSH1 0x80 DUP7 DUP9 SUB SLT ISZERO PUSH2 0x31F9 JUMPI PUSH0 PUSH0 REVERT JUMPDEST DUP6 CALLDATALOAD PUSH2 0x3204 DUP2 PUSH2 0x3193 JUMP JUMPDEST SWAP5 POP PUSH1 0x20 DUP7 ADD CALLDATALOAD SWAP4 POP PUSH1 0x40 DUP7 ADD CALLDATALOAD SWAP3 POP PUSH1 0x60 DUP7 ADD CALLDATALOAD PUSH8 0xFFFFFFFFFFFFFFFF DUP2 GT ISZERO PUSH2 0x322D JUMPI PUSH0 PUSH0 REVERT JUMPDEST DUP7 ADD PUSH1 0x1F DUP2 ADD DUP9 SGT PUSH2 0x323D JUMPI PUSH0 PUSH0 REVERT JUMPDEST DUP1 CALLDATALOAD PUSH8 0xFFFFFFFFFFFFFFFF DUP2 GT ISZERO PUSH2 0x3253 JUMPI PUSH0 PUSH0 REVERT JUMPDEST DUP9 PUSH1 0x20 DUP3 DUP5 ADD ADD GT ISZERO PUSH2 0x3264 JUMPI PUSH0 PUSH0 REVERT JUMPDEST SWAP6 SWAP9 SWAP5 SWAP8 POP SWAP3 SWAP6 POP POP POP PUSH1 0x20 ADD SWAP2 SWAP1 JUMP JUMPDEST PUSH0 PUSH1 0x20 DUP3 DUP5 SUB SLT ISZERO PUSH2 0x3285 JUMPI PUSH0 PUSH0 REVERT JUMPDEST POP CALLDATALOAD SWAP2 SWAP1 POP JUMP JUMPDEST DUP1 ISZERO ISZERO DUP2 EQ PUSH2 0x174E JUMPI PUSH0 PUSH0 REVERT JUMPDEST PUSH0 PUSH0 PUSH1 0x40 DUP4 DUP6 SUB SLT ISZERO PUSH2 0x32AA JUMPI PUSH0 PUSH0 REVERT JUMPDEST DUP3 CALLDATALOAD SWAP2 POP PUSH1 0x20 DUP4 ADD CALLDATALOAD PUSH2 0x32BC DUP2 PUSH2 0x328C JUMP JUMPDEST DUP1 SWAP2 POP POP SWAP3 POP SWAP3 SWAP1 POP JUMP JUMPDEST PUSH0 PUSH0 PUSH1 0x40 DUP4 DUP6 SUB SLT ISZERO PUSH2 0x32D8 JUMPI PUSH0 PUSH0 REVERT JUMPDEST POP POP DUP1 CALLDATALOAD SWAP3 PUSH1 0x20 SWAP1 SWAP2 ADD CALLDATALOAD SWAP2 POP JUMP JUMPDEST PUSH0 PUSH0 PUSH0 PUSH0 PUSH0 PUSH0 PUSH0 PUSH0 PUSH2 0x100 DUP10 DUP12 SUB SLT ISZERO PUSH2 0x32FF JUMPI PUSH0 PUSH0 REVERT JUMPDEST DUP9 CALLDATALOAD PUSH2 0x330A DUP2 PUSH2 0x3193 JUMP JUMPDEST SWAP8 POP PUSH1 0x20 DUP10 ADD CALLDATALOAD PUSH2 0x331A DUP2 PUSH2 0x3193 JUMP JUMPDEST SWAP7 POP PUSH1 0x40 DUP10 ADD CALLDATALOAD PUSH2 0x332A DUP2 PUSH2 0x3193 JUMP JUMPDEST SWAP6 POP PUSH1 0x60 DUP10 ADD CALLDATALOAD PUSH2 0x333A DUP2 PUSH2 0x3193 JUMP JUMPDEST SWAP5 POP PUSH1 0x80 DUP10 ADD CALLDATALOAD PUSH2 0x334A DUP2 PUSH2 0x3193 JUMP JUMPDEST SWAP4 POP PUSH1 0xA0 DUP10 ADD CALLDATALOAD PUSH2 0x335A DUP2 PUSH2 0x3193 JUMP JUMPDEST SWAP3 POP PUSH1 0xC0 DUP10 ADD CALLDATALOAD PUSH2 0x336A DUP2 PUSH2 0x3193 JUMP JUMPDEST SWAP2 POP PUSH1 0xE0 DUP10 ADD CALLDATALOAD PUSH2 0x337A DUP2 PUSH2 0x3193 JUMP JUMPDEST DUP1 SWAP2 POP POP SWAP3 SWAP6 SWAP9 POP SWAP3 SWAP6 SWAP9 SWAP1 SWAP4 SWAP7 POP JUMP JUMPDEST PUSH0 PUSH1 0x20 DUP3 DUP5 SUB SLT ISZERO PUSH2 0x339B JUMPI PUSH0 PUSH0 REVERT JUMPDEST DUP2 CALLDATALOAD PUSH2 0x33A6 DUP2 PUSH2 0x3193 JUMP JUMPDEST SWAP4 SWAP3 POP POP POP JUMP JUMPDEST PUSH0 PUSH1 0x20 DUP3 DUP5 SUB SLT ISZERO PUSH2 0x33BD JUMPI PUSH0 PUSH0 REVERT JUMPDEST DUP2 MLOAD PUSH2 0x33A6 DUP2 PUSH2 0x3193 JUMP JUMPDEST DUP1 MLOAD PUSH1 0x1 PUSH1 0x1 PUSH1 0x70 SHL SUB DUP2 AND DUP2 EQ PUSH2 0x33DE JUMPI PUSH0 PUSH0 REVERT JUMPDEST SWAP2 SWAP1 POP JUMP JUMPDEST PUSH0 PUSH0 PUSH0 PUSH1 0x60 DUP5 DUP7 SUB SLT ISZERO PUSH2 0x33F5 JUMPI PUSH0 PUSH0 REVERT JUMPDEST PUSH2 0x33FE DUP5 PUSH2 0x33C8 JUMP JUMPDEST SWAP3 POP PUSH2 0x340C PUSH1 0x20 DUP6 ADD PUSH2 0x33C8 JUMP JUMPDEST SWAP2 POP PUSH1 0x40 DUP5 ADD MLOAD PUSH4 0xFFFFFFFF DUP2 AND DUP2 EQ PUSH2 0x3424 JUMPI PUSH0 PUSH0 REVERT JUMPDEST DUP1 SWAP2 POP POP SWAP3 POP SWAP3 POP SWAP3 JUMP JUMPDEST PUSH0 PUSH1 0x20 DUP3 DUP5 SUB SLT ISZERO PUSH2 0x343F JUMPI PUSH0 PUSH0 REVERT JUMPDEST POP MLOAD SWAP2 SWAP1 POP JUMP JUMPDEST PUSH1 0x20 DUP1 DUP3 MSTORE PUSH1 0xC SWAP1 DUP3 ADD MSTORE PUSH12 0x3932B232B2B69032B93937B9 PUSH1 0xA1 SHL PUSH1 0x40 DUP3 ADD MSTORE PUSH1 0x60 ADD SWAP1 JUMP JUMPDEST SWAP3 DUP4 MSTORE PUSH1 0x20 DUP4 ADD SWAP2 SWAP1 SWAP2 MSTORE PUSH1 0x1 PUSH1 0x1 PUSH1 0xA0 SHL SUB AND PUSH1 0x40 DUP3 ADD MSTORE PUSH1 0x80 PUSH1 0x60 DUP3 ADD DUP2 SWAP1 MSTORE PUSH1 0x6 SWAP1 DUP3 ADD MSTORE PUSH6 0xC1E0C4C8CCD PUSH1 0xD2 SHL PUSH1 0xA0 DUP3 ADD MSTORE PUSH1 0xC0 ADD SWAP1 JUMP JUMPDEST PUSH4 0x4E487B71 PUSH1 0xE0 SHL PUSH0 MSTORE PUSH1 0x11 PUSH1 0x4 MSTORE PUSH1 0x24 PUSH0 REVERT JUMPDEST DUP2 DUP2 SUB DUP2 DUP2 GT ISZERO PUSH2 0x34D0 JUMPI PUSH2 0x34D0 PUSH2 0x34A9 JUMP JUMPDEST SWAP3 SWAP2 POP POP JUMP JUMPDEST PUSH1 0x20 DUP1 DUP3 MSTORE PUSH1 0x22 SWAP1 DUP3 ADD MSTORE PUSH32 0x6F6E65206D757374206265207A65726F2C206F6E65206D757374206265206774 PUSH1 0x40 DUP3 ADD MSTORE PUSH2 0x203 PUSH1 0xF4 SHL PUSH1 0x60 DUP3 ADD MSTORE PUSH1 0x80 ADD SWAP1 JUMP JUMPDEST PUSH4 0x4E487B71 PUSH1 0xE0 SHL PUSH0 MSTORE PUSH1 0x41 PUSH1 0x4 MSTORE PUSH1 0x24 PUSH0 REVERT JUMPDEST PUSH4 0x4E487B71 PUSH1 0xE0 SHL PUSH0 MSTORE PUSH1 0x32 PUSH1 0x4 MSTORE PUSH1 0x24 PUSH0 REVERT JUMPDEST PUSH1 0x20 DUP1 DUP3 MSTORE DUP3 MLOAD DUP3 DUP3 ADD DUP2 SWAP1 MSTORE PUSH0 SWAP2 DUP5 ADD SWAP1 PUSH1 0x40 DUP5 ADD SWAP1 DUP4 JUMPDEST DUP2 DUP2 LT ISZERO PUSH2 0x3580 JUMPI DUP4 MLOAD PUSH1 0x1 PUSH1 0x1 PUSH1 0xA0 SHL SUB AND DUP4 MSTORE PUSH1 0x20 SWAP4 DUP5 ADD SWAP4 SWAP1 SWAP3 ADD SWAP2 PUSH1 0x1 ADD PUSH2 0x3559 JUMP JUMPDEST POP SWAP1 SWAP6 SWAP5 POP POP POP POP POP JUMP JUMPDEST PUSH0 PUSH1 0x20 DUP3 DUP5 SUB SLT ISZERO PUSH2 0x359B JUMPI PUSH0 PUSH0 REVERT JUMPDEST DUP2 MLOAD PUSH8 0xFFFFFFFFFFFFFFFF DUP2 GT ISZERO PUSH2 0x35B1 JUMPI PUSH0 PUSH0 REVERT JUMPDEST DUP3 ADD PUSH1 0x1F DUP2 ADD DUP5 SGT PUSH2 0x35C1 JUMPI PUSH0 PUSH0 REVERT JUMPDEST DUP1 MLOAD PUSH8 0xFFFFFFFFFFFFFFFF DUP2 GT ISZERO PUSH2 0x35DB JUMPI PUSH2 0x35DB PUSH2 0x3518 JUMP JUMPDEST DUP1 PUSH1 0x5 SHL PUSH1 0x40 MLOAD PUSH1 0x1F NOT PUSH1 0x3F DUP4 ADD AND DUP2 ADD DUP2 DUP2 LT PUSH8 0xFFFFFFFFFFFFFFFF DUP3 GT OR ISZERO PUSH2 0x3608 JUMPI PUSH2 0x3608 PUSH2 0x3518 JUMP JUMPDEST PUSH1 0x40 MSTORE SWAP2 DUP3 MSTORE PUSH1 0x20 DUP2 DUP5 ADD DUP2 ADD SWAP3 SWAP1 DUP2 ADD DUP8 DUP5 GT ISZERO PUSH2 0x3625 JUMPI PUSH0 PUSH0 REVERT JUMPDEST PUSH1 0x20 DUP6 ADD SWAP5 POP JUMPDEST DUP4 DUP6 LT ISZERO PUSH2 0x3648 JUMPI DUP5 MLOAD DUP1 DUP3 MSTORE PUSH1 0x20 SWAP6 DUP7 ADD SWAP6 SWAP1 SWAP4 POP ADD PUSH2 0x362C JUMP JUMPDEST POP SWAP7 SWAP6 POP POP POP POP POP POP JUMP JUMPDEST DUP1 MLOAD PUSH10 0xFFFFFFFFFFFFFFFFFFFF DUP2 AND DUP2 EQ PUSH2 0x33DE JUMPI PUSH0 PUSH0 REVERT JUMPDEST PUSH0 PUSH0 PUSH0 PUSH0 PUSH0 PUSH1 0xA0 DUP7 DUP9 SUB SLT ISZERO PUSH2 0x3680 JUMPI PUSH0 PUSH0 REVERT JUMPDEST PUSH2 0x3689 DUP7 PUSH2 0x3653 JUMP JUMPDEST PUSH1 0x20 DUP8 ADD MLOAD PUSH1 0x40 DUP9 ADD MLOAD PUSH1 0x60 DUP10 ADD MLOAD SWAP3 SWAP8 POP SWAP1 SWAP6 POP SWAP4 POP SWAP2 POP PUSH2 0x36AE PUSH1 0x80 DUP8 ADD PUSH2 0x3653 JUMP JUMPDEST SWAP1 POP SWAP3 SWAP6 POP SWAP3 SWAP6 SWAP1 SWAP4 POP JUMP JUMPDEST PUSH0 PUSH1 0x20 DUP3 DUP5 SUB SLT ISZERO PUSH2 0x36CA JUMPI PUSH0 PUSH0 REVERT JUMPDEST DUP2 MLOAD PUSH2 0x33A6 DUP2 PUSH2 0x328C JUMP JUMPDEST DUP1 DUP3 ADD DUP1 DUP3 GT ISZERO PUSH2 0x34D0 JUMPI PUSH2 0x34D0 PUSH2 0x34A9 JUMP JUMPDEST DUP1 DUP3 MUL DUP2 ISZERO DUP3 DUP3 DIV DUP5 EQ OR PUSH2 0x34D0 JUMPI PUSH2 0x34D0 PUSH2 0x34A9 JUMP JUMPDEST PUSH0 DUP3 PUSH2 0x3719 JUMPI PUSH4 0x4E487B71 PUSH1 0xE0 SHL PUSH0 MSTORE PUSH1 0x12 PUSH1 0x4 MSTORE PUSH1 0x24 PUSH0 REVERT JUMPDEST POP DIV SWAP1 JUMP JUMPDEST PUSH0 DUP3 MLOAD DUP1 PUSH1 0x20 DUP6 ADD DUP5 MCOPY PUSH0 SWAP3 ADD SWAP2 DUP3 MSTORE POP SWAP2 SWAP1 POP JUMP INVALID LOG2 PUSH5 0x6970667358 0x22 SLT KECCAK256 0x25 0x2C 0x2B DUP1 PUSH26 0x1F0AA45F2FF1C62AF09B71A8E41A302A87E5FAB46ED114F84243 0xDC PUSH5 0x736F6C6343 STOP ADDMOD SHL STOP CALLER "
				},
				"gasEstimates": {
					"creation": {
						"codeDepositCost": "2837200",
						"executionCost": "28938",
						"totalCost": "2866138"
					},
					"external": {
						"cETH()": "2425",
						"cUSDC()": "2425",
						"cancelLimitOrder(uint256)": "155876",
						"closeLong(uint256,bool)": "infinite",
						"closeShort(uint256,bool)": "infinite",
						"comptroller()": "2404",
						"depositETH()": "infinite",
						"depositUSDC(uint256)": "infinite",
						"executeLimitOrder(uint256)": "infinite",
						"getLatestPrice()": "infinite",
						"getLimitOrder(uint256)": "13298",
						"initialize(address,address,address,address,address,address,address,address)": "infinite",
						"lastCEthBalance()": "2328",
						"lastCUsdcBalance()": "2372",
						"lastOrderId()": "2329",
						"limitOpenLong(uint256,uint256,uint256,address)": "infinite",
						"limitOpenShort(uint256,uint256,uint256,address)": "infinite",
						"openLong(uint256)": "infinite",
						"openShort(uint256)": "infinite",
						"owner()": "2397",
						"priceFeed()": "2403",
						"renounceOwnership()": "infinite",
						"transferOwnership(address)": "infinite",
						"uniswapV2Call(address,uint256,uint256,bytes)": "infinite",
						"uniswapV2Pair()": "2426",
						"usdc()": "2382",
						"weth()": "2404",
						"withdrawETH(uint256,uint256)": "infinite",
						"withdrawUSDC(uint256,uint256)": "infinite"
					},
					"internal": {
						"_getAmountIn(uint256,uint256,uint256)": "infinite",
						"_getAmountOut(uint256,uint256,uint256)": "infinite",
						"_newLimitOrder(bool,uint256,uint256,uint256,address)": "infinite",
						"_openLong(uint256)": "infinite",
						"_openShort(uint256)": "infinite"
					}
				},
				"methodIdentifiers": {
					"cETH()": "a1b4d011",
					"cUSDC()": "ce347a3e",
					"cancelLimitOrder(uint256)": "a5cdc8fc",
					"closeLong(uint256,bool)": "6d89ba2a",
					"closeShort(uint256,bool)": "f083ff9a",
					"comptroller()": "5fe3b567",
					"depositETH()": "f6326fb3",
					"depositUSDC(uint256)": "f688bcfb",
					"executeLimitOrder(uint256)": "c7219460",
					"getLatestPrice()": "8e15f473",
					"getLimitOrder(uint256)": "53061026",
					"initialize(address,address,address,address,address,address,address,address)": "8a29e2de",
					"lastCEthBalance()": "8fd1ef61",
					"lastCUsdcBalance()": "883f9741",
					"lastOrderId()": "5662ecc7",
					"limitOpenLong(uint256,uint256,uint256,address)": "09fffa84",
					"limitOpenShort(uint256,uint256,uint256,address)": "3b7ba770",
					"openLong(uint256)": "9f039090",
					"openShort(uint256)": "ed072e22",
					"owner()": "8da5cb5b",
					"priceFeed()": "741bef1a",
					"renounceOwnership()": "715018a6",
					"transferOwnership(address)": "f2fde38b",
					"uniswapV2Call(address,uint256,uint256,bytes)": "10d1e85c",
					"uniswapV2Pair()": "49bd5a5e",
					"usdc()": "3e413bee",
					"weth()": "3fc8cef3",
					"withdrawETH(uint256,uint256)": "c7cdea37",
					"withdrawUSDC(uint256,uint256)": "88e08665"
				}
			},
			"storageLayout": {
				"storage": [
					{
						"astId": 1995,
						"contract": "contracts/TradingAccount.sol:TradingAccount",
						"label": "_owner",
						"offset": 0,
						"slot": "0",
						"type": "t_address"
					},
					{
						"astId": 323,
						"contract": "contracts/TradingAccount.sol:TradingAccount",
						"label": "weth",
						"offset": 0,
						"slot": "1",
						"type": "t_address"
					},
					{
						"astId": 325,
						"contract": "contracts/TradingAccount.sol:TradingAccount",
						"label": "usdc",
						"offset": 0,
						"slot": "2",
						"type": "t_address"
					},
					{
						"astId": 327,
						"contract": "contracts/TradingAccount.sol:TradingAccount",
						"label": "uniswapV2Pair",
						"offset": 0,
						"slot": "3",
						"type": "t_address"
					},
					{
						"astId": 329,
						"contract": "contracts/TradingAccount.sol:TradingAccount",
						"label": "cETH",
						"offset": 0,
						"slot": "4",
						"type": "t_address"
					},
					{
						"astId": 331,
						"contract": "contracts/TradingAccount.sol:TradingAccount",
						"label": "cUSDC",
						"offset": 0,
						"slot": "5",
						"type": "t_address"
					},
					{
						"astId": 333,
						"contract": "contracts/TradingAccount.sol:TradingAccount",
						"label": "comptroller",
						"offset": 0,
						"slot": "6",
						"type": "t_address"
					},
					{
						"astId": 335,
						"contract": "contracts/TradingAccount.sol:TradingAccount",
						"label": "priceFeed",
						"offset": 0,
						"slot": "7",
						"type": "t_address"
					},
					{
						"astId": 337,
						"contract": "contracts/TradingAccount.sol:TradingAccount",
						"label": "lastOrderId",
						"offset": 0,
						"slot": "8",
						"type": "t_uint256"
					},
					{
						"astId": 342,
						"contract": "contracts/TradingAccount.sol:TradingAccount",
						"label": "getLimitOrder",
						"offset": 0,
						"slot": "9",
						"type": "t_mapping(t_uint256,t_struct(LimitOrder)2590_storage)"
					},
					{
						"astId": 362,
						"contract": "contracts/TradingAccount.sol:TradingAccount",
						"label": "tempParams",
						"offset": 0,
						"slot": "10",
						"type": "t_struct(TempParams)359_storage"
					},
					{
						"astId": 364,
						"contract": "contracts/TradingAccount.sol:TradingAccount",
						"label": "lastCEthBalance",
						"offset": 0,
						"slot": "17",
						"type": "t_uint256"
					},
					{
						"astId": 366,
						"contract": "contracts/TradingAccount.sol:TradingAccount",
						"label": "lastCUsdcBalance",
						"offset": 0,
						"slot": "18",
						"type": "t_uint256"
					}
				],
				"types": {
					"t_address": {
						"encoding": "inplace",
						"label": "address",
						"numberOfBytes": "20"
					},
					"t_bool": {
						"encoding": "inplace",
						"label": "bool",
						"numberOfBytes": "1"
					},
					"t_mapping(t_uint256,t_struct(LimitOrder)2590_storage)": {
						"encoding": "mapping",
						"key": "t_uint256",
						"label": "mapping(uint256 => struct ITradingAccount.LimitOrder)",
						"numberOfBytes": "32",
						"value": "t_struct(LimitOrder)2590_storage"
					},
					"t_struct(LimitOrder)2590_storage": {
						"encoding": "inplace",
						"label": "struct ITradingAccount.LimitOrder",
						"members": [
							{
								"astId": 2577,
								"contract": "contracts/TradingAccount.sol:TradingAccount",
								"label": "isLong",
								"offset": 0,
								"slot": "0",
								"type": "t_bool"
							},
							{
								"astId": 2579,
								"contract": "contracts/TradingAccount.sol:TradingAccount",
								"label": "isCanceled",
								"offset": 1,
								"slot": "0",
								"type": "t_bool"
							},
							{
								"astId": 2581,
								"contract": "contracts/TradingAccount.sol:TradingAccount",
								"label": "openSize",
								"offset": 0,
								"slot": "1",
								"type": "t_uint256"
							},
							{
								"astId": 2583,
								"contract": "contracts/TradingAccount.sol:TradingAccount",
								"label": "limitPrice",
								"offset": 0,
								"slot": "2",
								"type": "t_uint256"
							},
							{
								"astId": 2585,
								"contract": "contracts/TradingAccount.sol:TradingAccount",
								"label": "dealPrice",
								"offset": 0,
								"slot": "3",
								"type": "t_uint256"
							},
							{
								"astId": 2587,
								"contract": "contracts/TradingAccount.sol:TradingAccount",
								"label": "expireAt",
								"offset": 0,
								"slot": "4",
								"type": "t_uint256"
							},
							{
								"astId": 2589,
								"contract": "contracts/TradingAccount.sol:TradingAccount",
								"label": "keeper",
								"offset": 0,
								"slot": "5",
								"type": "t_address"
							}
						],
						"numberOfBytes": "192"
					},
					"t_struct(TempParams)359_storage": {
						"encoding": "inplace",
						"label": "struct TradingAccount.TempParams",
						"members": [
							{
								"astId": 344,
								"contract": "contracts/TradingAccount.sol:TradingAccount",
								"label": "isOpen",
								"offset": 0,
								"slot": "0",
								"type": "t_bool"
							},
							{
								"astId": 346,
								"contract": "contracts/TradingAccount.sol:TradingAccount",
								"label": "isLong",
								"offset": 1,
								"slot": "0",
								"type": "t_bool"
							},
							{
								"astId": 348,
								"contract": "contracts/TradingAccount.sol:TradingAccount",
								"label": "openSize",
								"offset": 0,
								"slot": "1",
								"type": "t_uint256"
							},
							{
								"astId": 350,
								"contract": "contracts/TradingAccount.sol:TradingAccount",
								"label": "borrowedAmount",
								"offset": 0,
								"slot": "2",
								"type": "t_uint256"
							},
							{
								"astId": 352,
								"contract": "contracts/TradingAccount.sol:TradingAccount",
								"label": "cTokenMinted",
								"offset": 0,
								"slot": "3",
								"type": "t_uint256"
							},
							{
								"astId": 354,
								"contract": "contracts/TradingAccount.sol:TradingAccount",
								"label": "cTokenRedeemed",
								"offset": 0,
								"slot": "4",
								"type": "t_uint256"
							},
							{
								"astId": 356,
								"contract": "contracts/TradingAccount.sol:TradingAccount",
								"label": "underlyingRedeemed",
								"offset": 0,
								"slot": "5",
								"type": "t_uint256"
							},
							{
								"astId": 358,
								"contract": "contracts/TradingAccount.sol:TradingAccount",
								"label": "repayAmount",
								"offset": 0,
								"slot": "6",
								"type": "t_uint256"
							}
						],
						"numberOfBytes": "224"
					},
					"t_uint256": {
						"encoding": "inplace",
						"label": "uint256",
						"numberOfBytes": "32"
					}
				}
			},
			"userdoc": {
				"kind": "user",
				"methods": {},
				"version": 1
			}
		}
	}
}