{
	"contracts/AccountRegistry.sol": {
		"AccountRegistry": {
			"abi": [
				{
					"inputs": [
						{
							"internalType": "address",
							"name": "weth_",
							"type": "address"
						},
						{
							"internalType": "address",
							"name": "usdc_",
							"type": "address"
						},
						{
							"internalType": "address",
							"name": "uniswapV2Pair_",
							"type": "address"
						},
						{
							"internalType": "address",
							"name": "cETH_",
							"type": "address"
						},
						{
							"internalType": "address",
							"name": "cUSDC_",
							"type": "address"
						},
						{
							"internalType": "address",
							"name": "comptroller_",
							"type": "address"
						},
						{
							"internalType": "address",
							"name": "priceFeed_",
							"type": "address"
						},
						{
							"internalType": "address",
							"name": "accountTemplate_",
							"type": "address"
						}
					],
					"stateMutability": "nonpayable",
					"type": "constructor"
				},
				{
					"inputs": [],
					"name": "ERC1167FailedCreateClone",
					"type": "error"
				},
				{
					"inputs": [
						{
							"internalType": "address",
							"name": "owner",
							"type": "address"
						}
					],
					"name": "OwnableInvalidOwner",
					"type": "error"
				},
				{
					"inputs": [
						{
							"internalType": "address",
							"name": "account",
							"type": "address"
						}
					],
					"name": "OwnableUnauthorizedAccount",
					"type": "error"
				},
				{
					"anonymous": false,
					"inputs": [
						{
							"indexed": true,
							"internalType": "address",
							"name": "owner",
							"type": "address"
						},
						{
							"indexed": true,
							"internalType": "address",
							"name": "account",
							"type": "address"
						}
					],
					"name": "AccountCreated",
					"type": "event"
				},
				{
					"anonymous": false,
					"inputs": [
						{
							"indexed": true,
							"internalType": "address",
							"name": "previousOwner",
							"type": "address"
						},
						{
							"indexed": true,
							"internalType": "address",
							"name": "newOwner",
							"type": "address"
						}
					],
					"name": "OwnershipTransferred",
					"type": "event"
				},
				{
					"inputs": [],
					"name": "accountTemplate",
					"outputs": [
						{
							"internalType": "address",
							"name": "",
							"type": "address"
						}
					],
					"stateMutability": "view",
					"type": "function"
				},
				{
					"inputs": [],
					"name": "cETH",
					"outputs": [
						{
							"internalType": "address",
							"name": "",
							"type": "address"
						}
					],
					"stateMutability": "view",
					"type": "function"
				},
				{
					"inputs": [],
					"name": "cUSDC",
					"outputs": [
						{
							"internalType": "address",
							"name": "",
							"type": "address"
						}
					],
					"stateMutability": "view",
					"type": "function"
				},
				{
					"inputs": [],
					"name": "comptroller",
					"outputs": [
						{
							"internalType": "address",
							"name": "",
							"type": "address"
						}
					],
					"stateMutability": "view",
					"type": "function"
				},
				{
					"inputs": [],
					"name": "createAccount",
					"outputs": [
						{
							"internalType": "address",
							"name": "",
							"type": "address"
						}
					],
					"stateMutability": "nonpayable",
					"type": "function"
				},
				{
					"inputs": [
						{
							"internalType": "address",
							"name": "",
							"type": "address"
						}
					],
					"name": "getAccount",
					"outputs": [
						{
							"internalType": "address",
							"name": "",
							"type": "address"
						}
					],
					"stateMutability": "view",
					"type": "function"
				},
				{
					"inputs": [],
					"name": "owner",
					"outputs": [
						{
							"internalType": "address",
							"name": "",
							"type": "address"
						}
					],
					"stateMutability": "view",
					"type": "function"
				},
				{
					"inputs": [],
					"name": "priceFeed",
					"outputs": [
						{
							"internalType": "address",
							"name": "",
							"type": "address"
						}
					],
					"stateMutability": "view",
					"type": "function"
				},
				{
					"inputs": [],
					"name": "renounceOwnership",
					"outputs": [],
					"stateMutability": "nonpayable",
					"type": "function"
				},
				{
					"inputs": [
						{
							"internalType": "address",
							"name": "newOwner",
							"type": "address"
						}
					],
					"name": "transferOwnership",
					"outputs": [],
					"stateMutability": "nonpayable",
					"type": "function"
				},
				{
					"inputs": [],
					"name": "uniswapV2Pair",
					"outputs": [
						{
							"internalType": "address",
							"name": "",
							"type": "address"
						}
					],
					"stateMutability": "view",
					"type": "function"
				},
				{
					"inputs": [],
					"name": "usdc",
					"outputs": [
						{
							"internalType": "address",
							"name": "",
							"type": "address"
						}
					],
					"stateMutability": "view",
					"type": "function"
				},
				{
					"inputs": [],
					"name": "weth",
					"outputs": [
						{
							"internalType": "address",
							"name": "",
							"type": "address"
						}
					],
					"stateMutability": "view",
					"type": "function"
				}
			],
			"devdoc": {
				"errors": {
					"ERC1167FailedCreateClone()": [
						{
							"details": "A clone instance deployment failed."
						}
					],
					"OwnableInvalidOwner(address)": [
						{
							"details": "The owner is not a valid owner account. (eg. `address(0)`)"
						}
					],
					"OwnableUnauthorizedAccount(address)": [
						{
							"details": "The caller account is not authorized to perform an operation."
						}
					]
				},
				"kind": "dev",
				"methods": {
					"owner()": {
						"details": "Returns the address of the current owner."
					},
					"renounceOwnership()": {
						"details": "Leaves the contract without owner. It will not be possible to call `onlyOwner` functions. Can only be called by the current owner. NOTE: Renouncing ownership will leave the contract without an owner, thereby disabling any functionality that is only available to the owner."
					},
					"transferOwnership(address)": {
						"details": "Transfers ownership of the contract to a new account (`newOwner`). Can only be called by the current owner."
					}
				},
				"version": 1
			},
			"evm": {
				"assembly": "    /* \"contracts/AccountRegistry.sol\":205:1731  contract AccountRegistry is Ownable {... */\n  mstore(0x40, 0x0180)\n    /* \"contracts/AccountRegistry.sol\":687:1191  constructor(... */\n  callvalue\n  dup1\n  iszero\n  tag_1\n  jumpi\n  0x00\n  dup1\n  revert\ntag_1:\n  pop\n  mload(0x40)\n  sub(codesize, bytecodeSize)\n  dup1\n  bytecodeSize\n  dup4\n  codecopy\n  dup2\n  dup2\n  add\n  0x40\n  mstore\n  dup2\n  add\n  swap1\n  tag_2\n  swap2\n  swap1\n  tag_3\n  jump\t// in\ntag_2:\n    /* \"contracts/AccountRegistry.sol\":930:940  msg.sender */\n  caller\n    /* \"@openzeppelin/contracts/access/Ownable.sol\":1297:1298  0 */\n  0x00\n    /* \"@openzeppelin/contracts/access/Ownable.sol\":1273:1299  initialOwner == address(0) */\n  0xffffffffffffffffffffffffffffffffffffffff\n  and\n    /* \"@openzeppelin/contracts/access/Ownable.sol\":1273:1285  initialOwner */\n  dup2\n    /* \"@openzeppelin/contracts/access/Ownable.sol\":1273:1299  initialOwner == address(0) */\n  0xffffffffffffffffffffffffffffffffffffffff\n  and\n  sub\n    /* \"@openzeppelin/contracts/access/Ownable.sol\":1269:1364  if (initialOwner == address(0)) {... */\n  tag_7\n  jumpi\n    /* \"@openzeppelin/contracts/access/Ownable.sol\":1350:1351  0 */\n  0x00\n    /* \"@openzeppelin/contracts/access/Ownable.sol\":1322:1353  OwnableInvalidOwner(address(0)) */\n  mload(0x40)\n  0x1e4fbdf700000000000000000000000000000000000000000000000000000000\n  dup2\n  mstore\n  0x04\n  add\n  tag_8\n  swap2\n  swap1\n  tag_9\n  jump\t// in\ntag_8:\n  mload(0x40)\n  dup1\n  swap2\n  sub\n  swap1\n  revert\n    /* \"@openzeppelin/contracts/access/Ownable.sol\":1269:1364  if (initialOwner == address(0)) {... */\ntag_7:\n    /* \"@openzeppelin/contracts/access/Ownable.sol\":1373:1405  _transferOwnership(initialOwner) */\n  tag_10\n    /* \"@openzeppelin/contracts/access/Ownable.sol\":1392:1404  initialOwner */\n  dup2\n    /* \"@openzeppelin/contracts/access/Ownable.sol\":1373:1391  _transferOwnership */\n  shl(0x20, tag_11)\n    /* \"@openzeppelin/contracts/access/Ownable.sol\":1373:1405  _transferOwnership(initialOwner) */\n  0x20\n  shr\n  jump\t// in\ntag_10:\n    /* \"@openzeppelin/contracts/access/Ownable.sol\":1225:1412  constructor(address initialOwner) {... */\n  pop\n    /* \"contracts/AccountRegistry.sol\":959:964  weth_ */\n  dup8\n    /* \"contracts/AccountRegistry.sol\":952:964  weth = weth_ */\n  0xffffffffffffffffffffffffffffffffffffffff\n  and\n  0x80\n  dup2\n  0xffffffffffffffffffffffffffffffffffffffff\n  and\n  dup2\n  mstore\n  pop\n  pop\n    /* \"contracts/AccountRegistry.sol\":981:986  usdc_ */\n  dup7\n    /* \"contracts/AccountRegistry.sol\":974:986  usdc = usdc_ */\n  0xffffffffffffffffffffffffffffffffffffffff\n  and\n  0xa0\n  dup2\n  0xffffffffffffffffffffffffffffffffffffffff\n  and\n  dup2\n  mstore\n  pop\n  pop\n    /* \"contracts/AccountRegistry.sol\":1012:1026  uniswapV2Pair_ */\n  dup6\n    /* \"contracts/AccountRegistry.sol\":996:1026  uniswapV2Pair = uniswapV2Pair_ */\n  0xffffffffffffffffffffffffffffffffffffffff\n  and\n  0xc0\n  dup2\n  0xffffffffffffffffffffffffffffffffffffffff\n  and\n  dup2\n  mstore\n  pop\n  pop\n    /* \"contracts/AccountRegistry.sol\":1043:1048  cETH_ */\n  dup5\n    /* \"contracts/AccountRegistry.sol\":1036:1048  cETH = cETH_ */\n  0xffffffffffffffffffffffffffffffffffffffff\n  and\n  0xe0\n  dup2\n  0xffffffffffffffffffffffffffffffffffffffff\n  and\n  dup2\n  mstore\n  pop\n  pop\n    /* \"contracts/AccountRegistry.sol\":1066:1072  cUSDC_ */\n  dup4\n    /* \"contracts/AccountRegistry.sol\":1058:1072  cUSDC = cUSDC_ */\n  0xffffffffffffffffffffffffffffffffffffffff\n  and\n  0x0100\n  dup2\n  0xffffffffffffffffffffffffffffffffffffffff\n  and\n  dup2\n  mstore\n  pop\n  pop\n    /* \"contracts/AccountRegistry.sol\":1096:1108  comptroller_ */\n  dup3\n    /* \"contracts/AccountRegistry.sol\":1082:1108  comptroller = comptroller_ */\n  0xffffffffffffffffffffffffffffffffffffffff\n  and\n  0x0120\n  dup2\n  0xffffffffffffffffffffffffffffffffffffffff\n  and\n  dup2\n  mstore\n  pop\n  pop\n    /* \"contracts/AccountRegistry.sol\":1130:1140  priceFeed_ */\n  dup2\n    /* \"contracts/AccountRegistry.sol\":1118:1140  priceFeed = priceFeed_ */\n  0xffffffffffffffffffffffffffffffffffffffff\n  and\n  0x0140\n  dup2\n  0xffffffffffffffffffffffffffffffffffffffff\n  and\n  dup2\n  mstore\n  pop\n  pop\n    /* \"contracts/AccountRegistry.sol\":1168:1184  accountTemplate_ */\n  dup1\n    /* \"contracts/AccountRegistry.sol\":1150:1184  accountTemplate = accountTemplate_ */\n  0xffffffffffffffffffffffffffffffffffffffff\n  and\n  0x0160\n  dup2\n  0xffffffffffffffffffffffffffffffffffffffff\n  and\n  dup2\n  mstore\n  pop\n  pop\n    /* \"contracts/AccountRegistry.sol\":687:1191  constructor(... */\n  pop\n  pop\n  pop\n  pop\n  pop\n  pop\n  pop\n  pop\n    /* \"contracts/AccountRegistry.sol\":205:1731  contract AccountRegistry is Ownable {... */\n  jump(tag_13)\n    /* \"@openzeppelin/contracts/access/Ownable.sol\":2912:3099  function _transferOwnership(address newOwner) internal virtual {... */\ntag_11:\n    /* \"@openzeppelin/contracts/access/Ownable.sol\":2985:3001  address oldOwner */\n  0x00\n    /* \"@openzeppelin/contracts/access/Ownable.sol\":3004:3010  _owner */\n  dup1\n  0x00\n  swap1\n  sload\n  swap1\n  0x0100\n  exp\n  swap1\n  div\n  0xffffffffffffffffffffffffffffffffffffffff\n  and\n    /* \"@openzeppelin/contracts/access/Ownable.sol\":2985:3010  address oldOwner = _owner */\n  swap1\n  pop\n    /* \"@openzeppelin/contracts/access/Ownable.sol\":3029:3037  newOwner */\n  dup2\n    /* \"@openzeppelin/contracts/access/Ownable.sol\":3020:3026  _owner */\n  0x00\n  dup1\n    /* \"@openzeppelin/contracts/access/Ownable.sol\":3020:3037  _owner = newOwner */\n  0x0100\n  exp\n  dup2\n  sload\n  dup2\n  0xffffffffffffffffffffffffffffffffffffffff\n  mul\n  not\n  and\n  swap1\n  dup4\n  0xffffffffffffffffffffffffffffffffffffffff\n  and\n  mul\n  or\n  swap1\n  sstore\n  pop\n    /* \"@openzeppelin/contracts/access/Ownable.sol\":3083:3091  newOwner */\n  dup2\n    /* \"@openzeppelin/contracts/access/Ownable.sol\":3052:3092  OwnershipTransferred(oldOwner, newOwner) */\n  0xffffffffffffffffffffffffffffffffffffffff\n  and\n    /* \"@openzeppelin/contracts/access/Ownable.sol\":3073:3081  oldOwner */\n  dup2\n    /* \"@openzeppelin/contracts/access/Ownable.sol\":3052:3092  OwnershipTransferred(oldOwner, newOwner) */\n  0xffffffffffffffffffffffffffffffffffffffff\n  and\n  0x8be0079c531659141344cd1fd0a4f28419497f9722a3daafe3b4186f6b6457e0\n  mload(0x40)\n  mload(0x40)\n  dup1\n  swap2\n  sub\n  swap1\n  log3\n    /* \"@openzeppelin/contracts/access/Ownable.sol\":2975:3099  {... */\n  pop\n    /* \"@openzeppelin/contracts/access/Ownable.sol\":2912:3099  function _transferOwnership(address newOwner) internal virtual {... */\n  pop\n  jump\t// out\n    /* \"#utility.yul\":88:205   */\ntag_16:\n    /* \"#utility.yul\":197:198   */\n  0x00\n    /* \"#utility.yul\":194:195   */\n  dup1\n    /* \"#utility.yul\":187:199   */\n  revert\n    /* \"#utility.yul\":334:460   */\ntag_18:\n    /* \"#utility.yul\":371:378   */\n  0x00\n    /* \"#utility.yul\":411:453   */\n  0xffffffffffffffffffffffffffffffffffffffff\n    /* \"#utility.yul\":404:409   */\n  dup3\n    /* \"#utility.yul\":400:454   */\n  and\n    /* \"#utility.yul\":389:454   */\n  swap1\n  pop\n    /* \"#utility.yul\":334:460   */\n  swap2\n  swap1\n  pop\n  jump\t// out\n    /* \"#utility.yul\":466:562   */\ntag_19:\n    /* \"#utility.yul\":503:510   */\n  0x00\n    /* \"#utility.yul\":532:556   */\n  tag_29\n    /* \"#utility.yul\":550:555   */\n  dup3\n    /* \"#utility.yul\":532:556   */\n  tag_18\n  jump\t// in\ntag_29:\n    /* \"#utility.yul\":521:556   */\n  swap1\n  pop\n    /* \"#utility.yul\":466:562   */\n  swap2\n  swap1\n  pop\n  jump\t// out\n    /* \"#utility.yul\":568:690   */\ntag_20:\n    /* \"#utility.yul\":641:665   */\n  tag_31\n    /* \"#utility.yul\":659:664   */\n  dup2\n    /* \"#utility.yul\":641:665   */\n  tag_19\n  jump\t// in\ntag_31:\n    /* \"#utility.yul\":634:639   */\n  dup2\n    /* \"#utility.yul\":631:666   */\n  eq\n    /* \"#utility.yul\":621:684   */\n  tag_32\n  jumpi\n    /* \"#utility.yul\":680:681   */\n  0x00\n    /* \"#utility.yul\":677:678   */\n  dup1\n    /* \"#utility.yul\":670:682   */\n  revert\n    /* \"#utility.yul\":621:684   */\ntag_32:\n    /* \"#utility.yul\":568:690   */\n  pop\n  jump\t// out\n    /* \"#utility.yul\":696:839   */\ntag_21:\n    /* \"#utility.yul\":753:758   */\n  0x00\n    /* \"#utility.yul\":784:790   */\n  dup2\n    /* \"#utility.yul\":778:791   */\n  mload\n    /* \"#utility.yul\":769:791   */\n  swap1\n  pop\n    /* \"#utility.yul\":800:833   */\n  tag_34\n    /* \"#utility.yul\":827:832   */\n  dup2\n    /* \"#utility.yul\":800:833   */\n  tag_20\n  jump\t// in\ntag_34:\n    /* \"#utility.yul\":696:839   */\n  swap3\n  swap2\n  pop\n  pop\n  jump\t// out\n    /* \"#utility.yul\":845:2293   */\ntag_3:\n    /* \"#utility.yul\":978:984   */\n  0x00\n    /* \"#utility.yul\":986:992   */\n  dup1\n    /* \"#utility.yul\":994:1000   */\n  0x00\n    /* \"#utility.yul\":1002:1008   */\n  dup1\n    /* \"#utility.yul\":1010:1016   */\n  0x00\n    /* \"#utility.yul\":1018:1024   */\n  dup1\n    /* \"#utility.yul\":1026:1032   */\n  0x00\n    /* \"#utility.yul\":1034:1040   */\n  dup1\n    /* \"#utility.yul\":1083:1086   */\n  0x0100\n    /* \"#utility.yul\":1071:1080   */\n  dup10\n    /* \"#utility.yul\":1062:1069   */\n  dup12\n    /* \"#utility.yul\":1058:1081   */\n  sub\n    /* \"#utility.yul\":1054:1087   */\n  slt\n    /* \"#utility.yul\":1051:1171   */\n  iszero\n  tag_36\n  jumpi\n    /* \"#utility.yul\":1090:1169   */\n  tag_37\n  tag_16\n  jump\t// in\ntag_37:\n    /* \"#utility.yul\":1051:1171   */\ntag_36:\n    /* \"#utility.yul\":1210:1211   */\n  0x00\n    /* \"#utility.yul\":1235:1299   */\n  tag_38\n    /* \"#utility.yul\":1291:1298   */\n  dup12\n    /* \"#utility.yul\":1282:1288   */\n  dup3\n    /* \"#utility.yul\":1271:1280   */\n  dup13\n    /* \"#utility.yul\":1267:1289   */\n  add\n    /* \"#utility.yul\":1235:1299   */\n  tag_21\n  jump\t// in\ntag_38:\n    /* \"#utility.yul\":1225:1299   */\n  swap9\n  pop\n    /* \"#utility.yul\":1181:1309   */\n  pop\n    /* \"#utility.yul\":1348:1350   */\n  0x20\n    /* \"#utility.yul\":1374:1438   */\n  tag_39\n    /* \"#utility.yul\":1430:1437   */\n  dup12\n    /* \"#utility.yul\":1421:1427   */\n  dup3\n    /* \"#utility.yul\":1410:1419   */\n  dup13\n    /* \"#utility.yul\":1406:1428   */\n  add\n    /* \"#utility.yul\":1374:1438   */\n  tag_21\n  jump\t// in\ntag_39:\n    /* \"#utility.yul\":1364:1438   */\n  swap8\n  pop\n    /* \"#utility.yul\":1319:1448   */\n  pop\n    /* \"#utility.yul\":1487:1489   */\n  0x40\n    /* \"#utility.yul\":1513:1577   */\n  tag_40\n    /* \"#utility.yul\":1569:1576   */\n  dup12\n    /* \"#utility.yul\":1560:1566   */\n  dup3\n    /* \"#utility.yul\":1549:1558   */\n  dup13\n    /* \"#utility.yul\":1545:1567   */\n  add\n    /* \"#utility.yul\":1513:1577   */\n  tag_21\n  jump\t// in\ntag_40:\n    /* \"#utility.yul\":1503:1577   */\n  swap7\n  pop\n    /* \"#utility.yul\":1458:1587   */\n  pop\n    /* \"#utility.yul\":1626:1628   */\n  0x60\n    /* \"#utility.yul\":1652:1716   */\n  tag_41\n    /* \"#utility.yul\":1708:1715   */\n  dup12\n    /* \"#utility.yul\":1699:1705   */\n  dup3\n    /* \"#utility.yul\":1688:1697   */\n  dup13\n    /* \"#utility.yul\":1684:1706   */\n  add\n    /* \"#utility.yul\":1652:1716   */\n  tag_21\n  jump\t// in\ntag_41:\n    /* \"#utility.yul\":1642:1716   */\n  swap6\n  pop\n    /* \"#utility.yul\":1597:1726   */\n  pop\n    /* \"#utility.yul\":1765:1768   */\n  0x80\n    /* \"#utility.yul\":1792:1856   */\n  tag_42\n    /* \"#utility.yul\":1848:1855   */\n  dup12\n    /* \"#utility.yul\":1839:1845   */\n  dup3\n    /* \"#utility.yul\":1828:1837   */\n  dup13\n    /* \"#utility.yul\":1824:1846   */\n  add\n    /* \"#utility.yul\":1792:1856   */\n  tag_21\n  jump\t// in\ntag_42:\n    /* \"#utility.yul\":1782:1856   */\n  swap5\n  pop\n    /* \"#utility.yul\":1736:1866   */\n  pop\n    /* \"#utility.yul\":1905:1908   */\n  0xa0\n    /* \"#utility.yul\":1932:1996   */\n  tag_43\n    /* \"#utility.yul\":1988:1995   */\n  dup12\n    /* \"#utility.yul\":1979:1985   */\n  dup3\n    /* \"#utility.yul\":1968:1977   */\n  dup13\n    /* \"#utility.yul\":1964:1986   */\n  add\n    /* \"#utility.yul\":1932:1996   */\n  tag_21\n  jump\t// in\ntag_43:\n    /* \"#utility.yul\":1922:1996   */\n  swap4\n  pop\n    /* \"#utility.yul\":1876:2006   */\n  pop\n    /* \"#utility.yul\":2045:2048   */\n  0xc0\n    /* \"#utility.yul\":2072:2136   */\n  tag_44\n    /* \"#utility.yul\":2128:2135   */\n  dup12\n    /* \"#utility.yul\":2119:2125   */\n  dup3\n    /* \"#utility.yul\":2108:2117   */\n  dup13\n    /* \"#utility.yul\":2104:2126   */\n  add\n    /* \"#utility.yul\":2072:2136   */\n  tag_21\n  jump\t// in\ntag_44:\n    /* \"#utility.yul\":2062:2136   */\n  swap3\n  pop\n    /* \"#utility.yul\":2016:2146   */\n  pop\n    /* \"#utility.yul\":2185:2188   */\n  0xe0\n    /* \"#utility.yul\":2212:2276   */\n  tag_45\n    /* \"#utility.yul\":2268:2275   */\n  dup12\n    /* \"#utility.yul\":2259:2265   */\n  dup3\n    /* \"#utility.yul\":2248:2257   */\n  dup13\n    /* \"#utility.yul\":2244:2266   */\n  add\n    /* \"#utility.yul\":2212:2276   */\n  tag_21\n  jump\t// in\ntag_45:\n    /* \"#utility.yul\":2202:2276   */\n  swap2\n  pop\n    /* \"#utility.yul\":2156:2286   */\n  pop\n    /* \"#utility.yul\":845:2293   */\n  swap3\n  swap6\n  swap9\n  pop\n  swap3\n  swap6\n  swap9\n  swap1\n  swap4\n  swap7\n  pop\n  jump\t// out\n    /* \"#utility.yul\":2299:2417   */\ntag_22:\n    /* \"#utility.yul\":2386:2410   */\n  tag_47\n    /* \"#utility.yul\":2404:2409   */\n  dup2\n    /* \"#utility.yul\":2386:2410   */\n  tag_19\n  jump\t// in\ntag_47:\n    /* \"#utility.yul\":2381:2384   */\n  dup3\n    /* \"#utility.yul\":2374:2411   */\n  mstore\n    /* \"#utility.yul\":2299:2417   */\n  pop\n  pop\n  jump\t// out\n    /* \"#utility.yul\":2423:2645   */\ntag_9:\n    /* \"#utility.yul\":2516:2520   */\n  0x00\n    /* \"#utility.yul\":2554:2556   */\n  0x20\n    /* \"#utility.yul\":2543:2552   */\n  dup3\n    /* \"#utility.yul\":2539:2557   */\n  add\n    /* \"#utility.yul\":2531:2557   */\n  swap1\n  pop\n    /* \"#utility.yul\":2567:2638   */\n  tag_49\n    /* \"#utility.yul\":2635:2636   */\n  0x00\n    /* \"#utility.yul\":2624:2633   */\n  dup4\n    /* \"#utility.yul\":2620:2637   */\n  add\n    /* \"#utility.yul\":2611:2617   */\n  dup5\n    /* \"#utility.yul\":2567:2638   */\n  tag_22\n  jump\t// in\ntag_49:\n    /* \"#utility.yul\":2423:2645   */\n  swap3\n  swap2\n  pop\n  pop\n  jump\t// out\n    /* \"contracts/AccountRegistry.sol\":205:1731  contract AccountRegistry is Ownable {... */\ntag_13:\n  mload(0x80)\n  mload(0xa0)\n  mload(0xc0)\n  mload(0xe0)\n  mload(0x0100)\n  mload(0x0120)\n  mload(0x0140)\n  mload(0x0160)\n  codecopy(0x00, dataOffset(sub_0), dataSize(sub_0))\n  0x00\n  assignImmutable(\"0x874d79415a6c1facf72c59e397422dafe50d60bcd1a0a03f27f1304ffa3c436c\")\n  0x00\n  assignImmutable(\"0x51863e56b7cfaa34136dd39904ea52747b45d5dc781efc9504f80805fc45ebbd\")\n  0x00\n  assignImmutable(\"0xbf1fcd4bbdcfbc55a741fb1df45db5ad6a5122c50e7ade06e72a5499ae322de6\")\n  0x00\n  assignImmutable(\"0xee252382c79bfa6ec40c155f050ab722ccbabcbb7b12ece2b8aae6a3832d22ff\")\n  0x00\n  assignImmutable(\"0x857e85748da10ccbe81de0660ded5eadee8cb2ec5755eca1592043b0a2bb582b\")\n  0x00\n  assignImmutable(\"0x391cad19c81a4773de6b9365ea023cc0a7fd2c96665694aa047da79f41f9a730\")\n  0x00\n  assignImmutable(\"0x55d5fd63362338cf39d9291ca86bb9cbe04ab09125d5154614fdab28459afffd\")\n  0x00\n  assignImmutable(\"0x1919bbb77b48a65a3a334e011819abf5317994b267bc385c63c0af09ecf64635\")\n  return(0x00, dataSize(sub_0))\nstop\n\nsub_0: assembly {\n        /* \"contracts/AccountRegistry.sol\":205:1731  contract AccountRegistry is Ownable {... */\n      mstore(0x40, 0x80)\n      callvalue\n      dup1\n      iszero\n      tag_1\n      jumpi\n      0x00\n      dup1\n      revert\n    tag_1:\n      pop\n      jumpi(tag_2, lt(calldatasize, 0x04))\n      shr(0xe0, calldataload(0x00))\n      dup1\n      0x741bef1a\n      gt\n      tag_16\n      jumpi\n      dup1\n      0xa1b4d011\n      gt\n      tag_17\n      jumpi\n      dup1\n      0xa1b4d011\n      eq\n      tag_12\n      jumpi\n      dup1\n      0xce347a3e\n      eq\n      tag_13\n      jumpi\n      dup1\n      0xf2fde38b\n      eq\n      tag_14\n      jumpi\n      dup1\n      0xfbcbc0f1\n      eq\n      tag_15\n      jumpi\n      jump(tag_2)\n    tag_17:\n      dup1\n      0x741bef1a\n      eq\n      tag_9\n      jumpi\n      dup1\n      0x8da5cb5b\n      eq\n      tag_10\n      jumpi\n      dup1\n      0x9dca362f\n      eq\n      tag_11\n      jumpi\n      jump(tag_2)\n    tag_16:\n      dup1\n      0x25e9d730\n      eq\n      tag_3\n      jumpi\n      dup1\n      0x3e413bee\n      eq\n      tag_4\n      jumpi\n      dup1\n      0x3fc8cef3\n      eq\n      tag_5\n      jumpi\n      dup1\n      0x49bd5a5e\n      eq\n      tag_6\n      jumpi\n      dup1\n      0x5fe3b567\n      eq\n      tag_7\n      jumpi\n      dup1\n      0x715018a6\n      eq\n      tag_8\n      jumpi\n    tag_2:\n      0x00\n      dup1\n      revert\n        /* \"contracts/AccountRegistry.sol\":589:629  address public immutable accountTemplate */\n    tag_3:\n      tag_18\n      tag_19\n      jump\t// in\n    tag_18:\n      mload(0x40)\n      tag_20\n      swap2\n      swap1\n      tag_21\n      jump\t// in\n    tag_20:\n      mload(0x40)\n      dup1\n      swap2\n      sub\n      swap1\n      return\n        /* \"contracts/AccountRegistry.sol\":357:386  address public immutable usdc */\n    tag_4:\n      tag_22\n      tag_23\n      jump\t// in\n    tag_22:\n      mload(0x40)\n      tag_24\n      swap2\n      swap1\n      tag_21\n      jump\t// in\n    tag_24:\n      mload(0x40)\n      dup1\n      swap2\n      sub\n      swap1\n      return\n        /* \"contracts/AccountRegistry.sol\":322:351  address public immutable weth */\n    tag_5:\n      tag_25\n      tag_26\n      jump\t// in\n    tag_25:\n      mload(0x40)\n      tag_27\n      swap2\n      swap1\n      tag_21\n      jump\t// in\n    tag_27:\n      mload(0x40)\n      dup1\n      swap2\n      sub\n      swap1\n      return\n        /* \"contracts/AccountRegistry.sol\":392:430  address public immutable uniswapV2Pair */\n    tag_6:\n      tag_28\n      tag_29\n      jump\t// in\n    tag_28:\n      mload(0x40)\n      tag_30\n      swap2\n      swap1\n      tag_21\n      jump\t// in\n    tag_30:\n      mload(0x40)\n      dup1\n      swap2\n      sub\n      swap1\n      return\n        /* \"contracts/AccountRegistry.sol\":507:543  address public immutable comptroller */\n    tag_7:\n      tag_31\n      tag_32\n      jump\t// in\n    tag_31:\n      mload(0x40)\n      tag_33\n      swap2\n      swap1\n      tag_21\n      jump\t// in\n    tag_33:\n      mload(0x40)\n      dup1\n      swap2\n      sub\n      swap1\n      return\n        /* \"@openzeppelin/contracts/access/Ownable.sol\":2293:2394  function renounceOwnership() public virtual onlyOwner {... */\n    tag_8:\n      tag_34\n      tag_35\n      jump\t// in\n    tag_34:\n      stop\n        /* \"contracts/AccountRegistry.sol\":549:583  address public immutable priceFeed */\n    tag_9:\n      tag_36\n      tag_37\n      jump\t// in\n    tag_36:\n      mload(0x40)\n      tag_38\n      swap2\n      swap1\n      tag_21\n      jump\t// in\n    tag_38:\n      mload(0x40)\n      dup1\n      swap2\n      sub\n      swap1\n      return\n        /* \"@openzeppelin/contracts/access/Ownable.sol\":1638:1723  function owner() public view virtual returns (address) {... */\n    tag_10:\n      tag_39\n      tag_40\n      jump\t// in\n    tag_39:\n      mload(0x40)\n      tag_41\n      swap2\n      swap1\n      tag_21\n      jump\t// in\n    tag_41:\n      mload(0x40)\n      dup1\n      swap2\n      sub\n      swap1\n      return\n        /* \"contracts/AccountRegistry.sol\":1197:1729  function createAccount() external returns (address) {... */\n    tag_11:\n      tag_42\n      tag_43\n      jump\t// in\n    tag_42:\n      mload(0x40)\n      tag_44\n      swap2\n      swap1\n      tag_21\n      jump\t// in\n    tag_44:\n      mload(0x40)\n      dup1\n      swap2\n      sub\n      swap1\n      return\n        /* \"contracts/AccountRegistry.sol\":436:465  address public immutable cETH */\n    tag_12:\n      tag_45\n      tag_46\n      jump\t// in\n    tag_45:\n      mload(0x40)\n      tag_47\n      swap2\n      swap1\n      tag_21\n      jump\t// in\n    tag_47:\n      mload(0x40)\n      dup1\n      swap2\n      sub\n      swap1\n      return\n        /* \"contracts/AccountRegistry.sol\":471:501  address public immutable cUSDC */\n    tag_13:\n      tag_48\n      tag_49\n      jump\t// in\n    tag_48:\n      mload(0x40)\n      tag_50\n      swap2\n      swap1\n      tag_21\n      jump\t// in\n    tag_50:\n      mload(0x40)\n      dup1\n      swap2\n      sub\n      swap1\n      return\n        /* \"@openzeppelin/contracts/access/Ownable.sol\":2543:2758  function transferOwnership(address newOwner) public virtual onlyOwner {... */\n    tag_14:\n      tag_51\n      0x04\n      dup1\n      calldatasize\n      sub\n      dup2\n      add\n      swap1\n      tag_52\n      swap2\n      swap1\n      tag_53\n      jump\t// in\n    tag_52:\n      tag_54\n      jump\t// in\n    tag_51:\n      stop\n        /* \"contracts/AccountRegistry.sol\":635:680  mapping(address => address) public getAccount */\n    tag_15:\n      tag_55\n      0x04\n      dup1\n      calldatasize\n      sub\n      dup2\n      add\n      swap1\n      tag_56\n      swap2\n      swap1\n      tag_53\n      jump\t// in\n    tag_56:\n      tag_57\n      jump\t// in\n    tag_55:\n      mload(0x40)\n      tag_58\n      swap2\n      swap1\n      tag_21\n      jump\t// in\n    tag_58:\n      mload(0x40)\n      dup1\n      swap2\n      sub\n      swap1\n      return\n        /* \"contracts/AccountRegistry.sol\":589:629  address public immutable accountTemplate */\n    tag_19:\n      immutable(\"0x874d79415a6c1facf72c59e397422dafe50d60bcd1a0a03f27f1304ffa3c436c\")\n      dup2\n      jump\t// out\n        /* \"contracts/AccountRegistry.sol\":357:386  address public immutable usdc */\n    tag_23:\n      immutable(\"0x55d5fd63362338cf39d9291ca86bb9cbe04ab09125d5154614fdab28459afffd\")\n      dup2\n      jump\t// out\n        /* \"contracts/AccountRegistry.sol\":322:351  address public immutable weth */\n    tag_26:\n      immutable(\"0x1919bbb77b48a65a3a334e011819abf5317994b267bc385c63c0af09ecf64635\")\n      dup2\n      jump\t// out\n        /* \"contracts/AccountRegistry.sol\":392:430  address public immutable uniswapV2Pair */\n    tag_29:\n      immutable(\"0x391cad19c81a4773de6b9365ea023cc0a7fd2c96665694aa047da79f41f9a730\")\n      dup2\n      jump\t// out\n        /* \"contracts/AccountRegistry.sol\":507:543  address public immutable comptroller */\n    tag_32:\n      immutable(\"0xbf1fcd4bbdcfbc55a741fb1df45db5ad6a5122c50e7ade06e72a5499ae322de6\")\n      dup2\n      jump\t// out\n        /* \"@openzeppelin/contracts/access/Ownable.sol\":2293:2394  function renounceOwnership() public virtual onlyOwner {... */\n    tag_35:\n        /* \"@openzeppelin/contracts/access/Ownable.sol\":1531:1544  _checkOwner() */\n      tag_60\n        /* \"@openzeppelin/contracts/access/Ownable.sol\":1531:1542  _checkOwner */\n      tag_61\n        /* \"@openzeppelin/contracts/access/Ownable.sol\":1531:1544  _checkOwner() */\n      jump\t// in\n    tag_60:\n        /* \"@openzeppelin/contracts/access/Ownable.sol\":2357:2387  _transferOwnership(address(0)) */\n      tag_63\n        /* \"@openzeppelin/contracts/access/Ownable.sol\":2384:2385  0 */\n      0x00\n        /* \"@openzeppelin/contracts/access/Ownable.sol\":2357:2375  _transferOwnership */\n      tag_64\n        /* \"@openzeppelin/contracts/access/Ownable.sol\":2357:2387  _transferOwnership(address(0)) */\n      jump\t// in\n    tag_63:\n        /* \"@openzeppelin/contracts/access/Ownable.sol\":2293:2394  function renounceOwnership() public virtual onlyOwner {... */\n      jump\t// out\n        /* \"contracts/AccountRegistry.sol\":549:583  address public immutable priceFeed */\n    tag_37:\n      immutable(\"0x51863e56b7cfaa34136dd39904ea52747b45d5dc781efc9504f80805fc45ebbd\")\n      dup2\n      jump\t// out\n        /* \"@openzeppelin/contracts/access/Ownable.sol\":1638:1723  function owner() public view virtual returns (address) {... */\n    tag_40:\n        /* \"@openzeppelin/contracts/access/Ownable.sol\":1684:1691  address */\n      0x00\n        /* \"@openzeppelin/contracts/access/Ownable.sol\":1710:1716  _owner */\n      dup1\n      0x00\n      swap1\n      sload\n      swap1\n      0x0100\n      exp\n      swap1\n      div\n      0xffffffffffffffffffffffffffffffffffffffff\n      and\n        /* \"@openzeppelin/contracts/access/Ownable.sol\":1703:1716  return _owner */\n      swap1\n      pop\n        /* \"@openzeppelin/contracts/access/Ownable.sol\":1638:1723  function owner() public view virtual returns (address) {... */\n      swap1\n      jump\t// out\n        /* \"contracts/AccountRegistry.sol\":1197:1729  function createAccount() external returns (address) {... */\n    tag_43:\n        /* \"contracts/AccountRegistry.sol\":1240:1247  address */\n      0x00\n        /* \"contracts/AccountRegistry.sol\":1301:1302  0 */\n      dup1\n        /* \"contracts/AccountRegistry.sol\":1267:1303  getAccount[msg.sender] == address(0) */\n      0xffffffffffffffffffffffffffffffffffffffff\n      and\n        /* \"contracts/AccountRegistry.sol\":1267:1277  getAccount */\n      0x01\n        /* \"contracts/AccountRegistry.sol\":1267:1289  getAccount[msg.sender] */\n      0x00\n        /* \"contracts/AccountRegistry.sol\":1278:1288  msg.sender */\n      caller\n        /* \"contracts/AccountRegistry.sol\":1267:1289  getAccount[msg.sender] */\n      0xffffffffffffffffffffffffffffffffffffffff\n      and\n      0xffffffffffffffffffffffffffffffffffffffff\n      and\n      dup2\n      mstore\n      0x20\n      add\n      swap1\n      dup2\n      mstore\n      0x20\n      add\n      0x00\n      keccak256\n      0x00\n      swap1\n      sload\n      swap1\n      0x0100\n      exp\n      swap1\n      div\n      0xffffffffffffffffffffffffffffffffffffffff\n      and\n        /* \"contracts/AccountRegistry.sol\":1267:1303  getAccount[msg.sender] == address(0) */\n      0xffffffffffffffffffffffffffffffffffffffff\n      and\n      eq\n        /* \"contracts/AccountRegistry.sol\":1259:1322  require(getAccount[msg.sender] == address(0), \"account exists\") */\n      tag_67\n      jumpi\n      mload(0x40)\n      0x08c379a000000000000000000000000000000000000000000000000000000000\n      dup2\n      mstore\n      0x04\n      add\n      tag_68\n      swap1\n      tag_69\n      jump\t// in\n    tag_68:\n      mload(0x40)\n      dup1\n      swap2\n      sub\n      swap1\n      revert\n    tag_67:\n        /* \"contracts/AccountRegistry.sol\":1332:1347  address account */\n      0x00\n        /* \"contracts/AccountRegistry.sol\":1350:1379  Clones.clone(accountTemplate) */\n      tag_70\n        /* \"contracts/AccountRegistry.sol\":1363:1378  accountTemplate */\n      immutable(\"0x874d79415a6c1facf72c59e397422dafe50d60bcd1a0a03f27f1304ffa3c436c\")\n        /* \"contracts/AccountRegistry.sol\":1350:1362  Clones.clone */\n      tag_71\n        /* \"contracts/AccountRegistry.sol\":1350:1379  Clones.clone(accountTemplate) */\n      jump\t// in\n    tag_70:\n        /* \"contracts/AccountRegistry.sol\":1332:1379  address account = Clones.clone(accountTemplate) */\n      swap1\n      pop\n        /* \"contracts/AccountRegistry.sol\":1405:1412  account */\n      dup1\n        /* \"contracts/AccountRegistry.sol\":1389:1424  ITradingAccount(account).initialize */\n      0xffffffffffffffffffffffffffffffffffffffff\n      and\n      0x8a29e2de\n        /* \"contracts/AccountRegistry.sol\":1438:1448  msg.sender */\n      caller\n        /* \"contracts/AccountRegistry.sol\":1462:1466  weth */\n      immutable(\"0x1919bbb77b48a65a3a334e011819abf5317994b267bc385c63c0af09ecf64635\")\n        /* \"contracts/AccountRegistry.sol\":1480:1484  usdc */\n      immutable(\"0x55d5fd63362338cf39d9291ca86bb9cbe04ab09125d5154614fdab28459afffd\")\n        /* \"contracts/AccountRegistry.sol\":1498:1511  uniswapV2Pair */\n      immutable(\"0x391cad19c81a4773de6b9365ea023cc0a7fd2c96665694aa047da79f41f9a730\")\n        /* \"contracts/AccountRegistry.sol\":1525:1529  cETH */\n      immutable(\"0x857e85748da10ccbe81de0660ded5eadee8cb2ec5755eca1592043b0a2bb582b\")\n        /* \"contracts/AccountRegistry.sol\":1543:1548  cUSDC */\n      immutable(\"0xee252382c79bfa6ec40c155f050ab722ccbabcbb7b12ece2b8aae6a3832d22ff\")\n        /* \"contracts/AccountRegistry.sol\":1562:1573  comptroller */\n      immutable(\"0xbf1fcd4bbdcfbc55a741fb1df45db5ad6a5122c50e7ade06e72a5499ae322de6\")\n        /* \"contracts/AccountRegistry.sol\":1587:1596  priceFeed */\n      immutable(\"0x51863e56b7cfaa34136dd39904ea52747b45d5dc781efc9504f80805fc45ebbd\")\n        /* \"contracts/AccountRegistry.sol\":1389:1606  ITradingAccount(account).initialize(... */\n      mload(0x40)\n      dup10\n      0xffffffff\n      and\n      0xe0\n      shl\n      dup2\n      mstore\n      0x04\n      add\n      tag_72\n      swap9\n      swap8\n      swap7\n      swap6\n      swap5\n      swap4\n      swap3\n      swap2\n      swap1\n      tag_73\n      jump\t// in\n    tag_72:\n      0x00\n      mload(0x40)\n      dup1\n      dup4\n      sub\n      dup2\n      0x00\n      dup8\n      dup1\n      extcodesize\n      iszero\n      dup1\n      iszero\n      tag_74\n      jumpi\n      0x00\n      dup1\n      revert\n    tag_74:\n      pop\n      gas\n      call\n      iszero\n      dup1\n      iszero\n      tag_76\n      jumpi\n      returndatasize\n      0x00\n      dup1\n      returndatacopy\n      revert(0x00, returndatasize)\n    tag_76:\n      pop\n      pop\n      pop\n      pop\n        /* \"contracts/AccountRegistry.sol\":1641:1648  account */\n      dup1\n        /* \"contracts/AccountRegistry.sol\":1616:1626  getAccount */\n      0x01\n        /* \"contracts/AccountRegistry.sol\":1616:1638  getAccount[msg.sender] */\n      0x00\n        /* \"contracts/AccountRegistry.sol\":1627:1637  msg.sender */\n      caller\n        /* \"contracts/AccountRegistry.sol\":1616:1638  getAccount[msg.sender] */\n      0xffffffffffffffffffffffffffffffffffffffff\n      and\n      0xffffffffffffffffffffffffffffffffffffffff\n      and\n      dup2\n      mstore\n      0x20\n      add\n      swap1\n      dup2\n      mstore\n      0x20\n      add\n      0x00\n      keccak256\n      0x00\n        /* \"contracts/AccountRegistry.sol\":1616:1648  getAccount[msg.sender] = account */\n      0x0100\n      exp\n      dup2\n      sload\n      dup2\n      0xffffffffffffffffffffffffffffffffffffffff\n      mul\n      not\n      and\n      swap1\n      dup4\n      0xffffffffffffffffffffffffffffffffffffffff\n      and\n      mul\n      or\n      swap1\n      sstore\n      pop\n        /* \"contracts/AccountRegistry.sol\":1690:1697  account */\n      dup1\n        /* \"contracts/AccountRegistry.sol\":1663:1698  AccountCreated(msg.sender, account) */\n      0xffffffffffffffffffffffffffffffffffffffff\n      and\n        /* \"contracts/AccountRegistry.sol\":1678:1688  msg.sender */\n      caller\n        /* \"contracts/AccountRegistry.sol\":1663:1698  AccountCreated(msg.sender, account) */\n      0xffffffffffffffffffffffffffffffffffffffff\n      and\n      0xac631f3001b55ea1509cf3d7e74898f85392a61a76e8149181ae1259622dabc8\n      mload(0x40)\n      mload(0x40)\n      dup1\n      swap2\n      sub\n      swap1\n      log3\n        /* \"contracts/AccountRegistry.sol\":1715:1722  account */\n      dup1\n        /* \"contracts/AccountRegistry.sol\":1708:1722  return account */\n      swap2\n      pop\n      pop\n        /* \"contracts/AccountRegistry.sol\":1197:1729  function createAccount() external returns (address) {... */\n      swap1\n      jump\t// out\n        /* \"contracts/AccountRegistry.sol\":436:465  address public immutable cETH */\n    tag_46:\n      immutable(\"0x857e85748da10ccbe81de0660ded5eadee8cb2ec5755eca1592043b0a2bb582b\")\n      dup2\n      jump\t// out\n        /* \"contracts/AccountRegistry.sol\":471:501  address public immutable cUSDC */\n    tag_49:\n      immutable(\"0xee252382c79bfa6ec40c155f050ab722ccbabcbb7b12ece2b8aae6a3832d22ff\")\n      dup2\n      jump\t// out\n        /* \"@openzeppelin/contracts/access/Ownable.sol\":2543:2758  function transferOwnership(address newOwner) public virtual onlyOwner {... */\n    tag_54:\n        /* \"@openzeppelin/contracts/access/Ownable.sol\":1531:1544  _checkOwner() */\n      tag_78\n        /* \"@openzeppelin/contracts/access/Ownable.sol\":1531:1542  _checkOwner */\n      tag_61\n        /* \"@openzeppelin/contracts/access/Ownable.sol\":1531:1544  _checkOwner() */\n      jump\t// in\n    tag_78:\n        /* \"@openzeppelin/contracts/access/Ownable.sol\":2647:2648  0 */\n      0x00\n        /* \"@openzeppelin/contracts/access/Ownable.sol\":2627:2649  newOwner == address(0) */\n      0xffffffffffffffffffffffffffffffffffffffff\n      and\n        /* \"@openzeppelin/contracts/access/Ownable.sol\":2627:2635  newOwner */\n      dup2\n        /* \"@openzeppelin/contracts/access/Ownable.sol\":2627:2649  newOwner == address(0) */\n      0xffffffffffffffffffffffffffffffffffffffff\n      and\n      sub\n        /* \"@openzeppelin/contracts/access/Ownable.sol\":2623:2714  if (newOwner == address(0)) {... */\n      tag_80\n      jumpi\n        /* \"@openzeppelin/contracts/access/Ownable.sol\":2700:2701  0 */\n      0x00\n        /* \"@openzeppelin/contracts/access/Ownable.sol\":2672:2703  OwnableInvalidOwner(address(0)) */\n      mload(0x40)\n      0x1e4fbdf700000000000000000000000000000000000000000000000000000000\n      dup2\n      mstore\n      0x04\n      add\n      tag_81\n      swap2\n      swap1\n      tag_21\n      jump\t// in\n    tag_81:\n      mload(0x40)\n      dup1\n      swap2\n      sub\n      swap1\n      revert\n        /* \"@openzeppelin/contracts/access/Ownable.sol\":2623:2714  if (newOwner == address(0)) {... */\n    tag_80:\n        /* \"@openzeppelin/contracts/access/Ownable.sol\":2723:2751  _transferOwnership(newOwner) */\n      tag_82\n        /* \"@openzeppelin/contracts/access/Ownable.sol\":2742:2750  newOwner */\n      dup2\n        /* \"@openzeppelin/contracts/access/Ownable.sol\":2723:2741  _transferOwnership */\n      tag_64\n        /* \"@openzeppelin/contracts/access/Ownable.sol\":2723:2751  _transferOwnership(newOwner) */\n      jump\t// in\n    tag_82:\n        /* \"@openzeppelin/contracts/access/Ownable.sol\":2543:2758  function transferOwnership(address newOwner) public virtual onlyOwner {... */\n      pop\n      jump\t// out\n        /* \"contracts/AccountRegistry.sol\":635:680  mapping(address => address) public getAccount */\n    tag_57:\n      mstore(0x20, 0x01)\n      dup1\n      0x00\n      mstore\n      keccak256(0x00, 0x40)\n      0x00\n      swap2\n      pop\n      sload\n      swap1\n      0x0100\n      exp\n      swap1\n      div\n      0xffffffffffffffffffffffffffffffffffffffff\n      and\n      dup2\n      jump\t// out\n        /* \"@openzeppelin/contracts/access/Ownable.sol\":1796:1958  function _checkOwner() internal view virtual {... */\n    tag_61:\n        /* \"@openzeppelin/contracts/access/Ownable.sol\":1866:1878  _msgSender() */\n      tag_84\n        /* \"@openzeppelin/contracts/access/Ownable.sol\":1866:1876  _msgSender */\n      tag_85\n        /* \"@openzeppelin/contracts/access/Ownable.sol\":1866:1878  _msgSender() */\n      jump\t// in\n    tag_84:\n        /* \"@openzeppelin/contracts/access/Ownable.sol\":1855:1878  owner() != _msgSender() */\n      0xffffffffffffffffffffffffffffffffffffffff\n      and\n        /* \"@openzeppelin/contracts/access/Ownable.sol\":1855:1862  owner() */\n      tag_86\n        /* \"@openzeppelin/contracts/access/Ownable.sol\":1855:1860  owner */\n      tag_40\n        /* \"@openzeppelin/contracts/access/Ownable.sol\":1855:1862  owner() */\n      jump\t// in\n    tag_86:\n        /* \"@openzeppelin/contracts/access/Ownable.sol\":1855:1878  owner() != _msgSender() */\n      0xffffffffffffffffffffffffffffffffffffffff\n      and\n      eq\n        /* \"@openzeppelin/contracts/access/Ownable.sol\":1851:1952  if (owner() != _msgSender()) {... */\n      tag_87\n      jumpi\n        /* \"@openzeppelin/contracts/access/Ownable.sol\":1928:1940  _msgSender() */\n      tag_88\n        /* \"@openzeppelin/contracts/access/Ownable.sol\":1928:1938  _msgSender */\n      tag_85\n        /* \"@openzeppelin/contracts/access/Ownable.sol\":1928:1940  _msgSender() */\n      jump\t// in\n    tag_88:\n        /* \"@openzeppelin/contracts/access/Ownable.sol\":1901:1941  OwnableUnauthorizedAccount(_msgSender()) */\n      mload(0x40)\n      0x118cdaa700000000000000000000000000000000000000000000000000000000\n      dup2\n      mstore\n      0x04\n      add\n      tag_89\n      swap2\n      swap1\n      tag_21\n      jump\t// in\n    tag_89:\n      mload(0x40)\n      dup1\n      swap2\n      sub\n      swap1\n      revert\n        /* \"@openzeppelin/contracts/access/Ownable.sol\":1851:1952  if (owner() != _msgSender()) {... */\n    tag_87:\n        /* \"@openzeppelin/contracts/access/Ownable.sol\":1796:1958  function _checkOwner() internal view virtual {... */\n      jump\t// out\n        /* \"@openzeppelin/contracts/access/Ownable.sol\":2912:3099  function _transferOwnership(address newOwner) internal virtual {... */\n    tag_64:\n        /* \"@openzeppelin/contracts/access/Ownable.sol\":2985:3001  address oldOwner */\n      0x00\n        /* \"@openzeppelin/contracts/access/Ownable.sol\":3004:3010  _owner */\n      dup1\n      0x00\n      swap1\n      sload\n      swap1\n      0x0100\n      exp\n      swap1\n      div\n      0xffffffffffffffffffffffffffffffffffffffff\n      and\n        /* \"@openzeppelin/contracts/access/Ownable.sol\":2985:3010  address oldOwner = _owner */\n      swap1\n      pop\n        /* \"@openzeppelin/contracts/access/Ownable.sol\":3029:3037  newOwner */\n      dup2\n        /* \"@openzeppelin/contracts/access/Ownable.sol\":3020:3026  _owner */\n      0x00\n      dup1\n        /* \"@openzeppelin/contracts/access/Ownable.sol\":3020:3037  _owner = newOwner */\n      0x0100\n      exp\n      dup2\n      sload\n      dup2\n      0xffffffffffffffffffffffffffffffffffffffff\n      mul\n      not\n      and\n      swap1\n      dup4\n      0xffffffffffffffffffffffffffffffffffffffff\n      and\n      mul\n      or\n      swap1\n      sstore\n      pop\n        /* \"@openzeppelin/contracts/access/Ownable.sol\":3083:3091  newOwner */\n      dup2\n        /* \"@openzeppelin/contracts/access/Ownable.sol\":3052:3092  OwnershipTransferred(oldOwner, newOwner) */\n      0xffffffffffffffffffffffffffffffffffffffff\n      and\n        /* \"@openzeppelin/contracts/access/Ownable.sol\":3073:3081  oldOwner */\n      dup2\n        /* \"@openzeppelin/contracts/access/Ownable.sol\":3052:3092  OwnershipTransferred(oldOwner, newOwner) */\n      0xffffffffffffffffffffffffffffffffffffffff\n      and\n      0x8be0079c531659141344cd1fd0a4f28419497f9722a3daafe3b4186f6b6457e0\n      mload(0x40)\n      mload(0x40)\n      dup1\n      swap2\n      sub\n      swap1\n      log3\n        /* \"@openzeppelin/contracts/access/Ownable.sol\":2975:3099  {... */\n      pop\n        /* \"@openzeppelin/contracts/access/Ownable.sol\":2912:3099  function _transferOwnership(address newOwner) internal virtual {... */\n      pop\n      jump\t// out\n        /* \"@openzeppelin/contracts/proxy/Clones.sol\":1047:1834  function clone(address implementation) internal returns (address instance) {... */\n    tag_71:\n        /* \"@openzeppelin/contracts/proxy/Clones.sol\":1104:1120  address instance */\n      0x00\n        /* \"@openzeppelin/contracts/proxy/Clones.sol\":1436:1484  0x3d602d80600a3d3981f3363d3d373d3d3d363d73000000 */\n      0x3d602d80600a3d3981f3363d3d373d3d3d363d73000000\n        /* \"@openzeppelin/contracts/proxy/Clones.sol\":1418:1432  implementation */\n      dup3\n        /* \"@openzeppelin/contracts/proxy/Clones.sol\":1412:1416  0x60 */\n      0x60\n        /* \"@openzeppelin/contracts/proxy/Clones.sol\":1408:1433  shl(0x60, implementation) */\n      shl\n        /* \"@openzeppelin/contracts/proxy/Clones.sol\":1402:1406  0xe8 */\n      0xe8\n        /* \"@openzeppelin/contracts/proxy/Clones.sol\":1398:1434  shr(0xe8, shl(0x60, implementation)) */\n      shr\n        /* \"@openzeppelin/contracts/proxy/Clones.sol\":1395:1485  or(shr(0xe8, shl(0x60, implementation)), 0x3d602d80600a3d3981f3363d3d373d3d3d363d73000000) */\n      or\n        /* \"@openzeppelin/contracts/proxy/Clones.sol\":1389:1393  0x00 */\n      0x00\n        /* \"@openzeppelin/contracts/proxy/Clones.sol\":1382:1486  mstore(0x00, or(shr(0xe8, shl(0x60, implementation)), 0x3d602d80600a3d3981f3363d3d373d3d3d363d73000000)) */\n      mstore\n        /* \"@openzeppelin/contracts/proxy/Clones.sol\":1643:1675  0x5af43d82803e903d91602b57fd5bf3 */\n      0x5af43d82803e903d91602b57fd5bf3\n        /* \"@openzeppelin/contracts/proxy/Clones.sol\":1626:1640  implementation */\n      dup3\n        /* \"@openzeppelin/contracts/proxy/Clones.sol\":1620:1624  0x78 */\n      0x78\n        /* \"@openzeppelin/contracts/proxy/Clones.sol\":1616:1641  shl(0x78, implementation) */\n      shl\n        /* \"@openzeppelin/contracts/proxy/Clones.sol\":1613:1676  or(shl(0x78, implementation), 0x5af43d82803e903d91602b57fd5bf3) */\n      or\n        /* \"@openzeppelin/contracts/proxy/Clones.sol\":1607:1611  0x20 */\n      0x20\n        /* \"@openzeppelin/contracts/proxy/Clones.sol\":1600:1677  mstore(0x20, or(shl(0x78, implementation), 0x5af43d82803e903d91602b57fd5bf3)) */\n      mstore\n        /* \"@openzeppelin/contracts/proxy/Clones.sol\":1718:1722  0x37 */\n      0x37\n        /* \"@openzeppelin/contracts/proxy/Clones.sol\":1712:1716  0x09 */\n      0x09\n        /* \"@openzeppelin/contracts/proxy/Clones.sol\":1709:1710  0 */\n      0x00\n        /* \"@openzeppelin/contracts/proxy/Clones.sol\":1702:1723  create(0, 0x09, 0x37) */\n      create\n        /* \"@openzeppelin/contracts/proxy/Clones.sol\":1690:1723  instance := create(0, 0x09, 0x37) */\n      swap1\n      pop\n        /* \"@openzeppelin/contracts/proxy/Clones.sol\":1766:1767  0 */\n      0x00\n        /* \"@openzeppelin/contracts/proxy/Clones.sol\":1746:1768  instance == address(0) */\n      0xffffffffffffffffffffffffffffffffffffffff\n      and\n        /* \"@openzeppelin/contracts/proxy/Clones.sol\":1746:1754  instance */\n      dup2\n        /* \"@openzeppelin/contracts/proxy/Clones.sol\":1746:1768  instance == address(0) */\n      0xffffffffffffffffffffffffffffffffffffffff\n      and\n      sub\n        /* \"@openzeppelin/contracts/proxy/Clones.sol\":1742:1828  if (instance == address(0)) {... */\n      tag_92\n      jumpi\n        /* \"@openzeppelin/contracts/proxy/Clones.sol\":1791:1817  ERC1167FailedCreateClone() */\n      mload(0x40)\n      0xc2f868f400000000000000000000000000000000000000000000000000000000\n      dup2\n      mstore\n      0x04\n      add\n      mload(0x40)\n      dup1\n      swap2\n      sub\n      swap1\n      revert\n        /* \"@openzeppelin/contracts/proxy/Clones.sol\":1742:1828  if (instance == address(0)) {... */\n    tag_92:\n        /* \"@openzeppelin/contracts/proxy/Clones.sol\":1047:1834  function clone(address implementation) internal returns (address instance) {... */\n      swap2\n      swap1\n      pop\n      jump\t// out\n        /* \"@openzeppelin/contracts/utils/Context.sol\":656:752  function _msgSender() internal view virtual returns (address) {... */\n    tag_85:\n        /* \"@openzeppelin/contracts/utils/Context.sol\":709:716  address */\n      0x00\n        /* \"@openzeppelin/contracts/utils/Context.sol\":735:745  msg.sender */\n      caller\n        /* \"@openzeppelin/contracts/utils/Context.sol\":728:745  return msg.sender */\n      swap1\n      pop\n        /* \"@openzeppelin/contracts/utils/Context.sol\":656:752  function _msgSender() internal view virtual returns (address) {... */\n      swap1\n      jump\t// out\n        /* \"#utility.yul\":7:133   */\n    tag_94:\n        /* \"#utility.yul\":44:51   */\n      0x00\n        /* \"#utility.yul\":84:126   */\n      0xffffffffffffffffffffffffffffffffffffffff\n        /* \"#utility.yul\":77:82   */\n      dup3\n        /* \"#utility.yul\":73:127   */\n      and\n        /* \"#utility.yul\":62:127   */\n      swap1\n      pop\n        /* \"#utility.yul\":7:133   */\n      swap2\n      swap1\n      pop\n      jump\t// out\n        /* \"#utility.yul\":139:235   */\n    tag_95:\n        /* \"#utility.yul\":176:183   */\n      0x00\n        /* \"#utility.yul\":205:229   */\n      tag_108\n        /* \"#utility.yul\":223:228   */\n      dup3\n        /* \"#utility.yul\":205:229   */\n      tag_94\n      jump\t// in\n    tag_108:\n        /* \"#utility.yul\":194:229   */\n      swap1\n      pop\n        /* \"#utility.yul\":139:235   */\n      swap2\n      swap1\n      pop\n      jump\t// out\n        /* \"#utility.yul\":241:359   */\n    tag_96:\n        /* \"#utility.yul\":328:352   */\n      tag_110\n        /* \"#utility.yul\":346:351   */\n      dup2\n        /* \"#utility.yul\":328:352   */\n      tag_95\n      jump\t// in\n    tag_110:\n        /* \"#utility.yul\":323:326   */\n      dup3\n        /* \"#utility.yul\":316:353   */\n      mstore\n        /* \"#utility.yul\":241:359   */\n      pop\n      pop\n      jump\t// out\n        /* \"#utility.yul\":365:587   */\n    tag_21:\n        /* \"#utility.yul\":458:462   */\n      0x00\n        /* \"#utility.yul\":496:498   */\n      0x20\n        /* \"#utility.yul\":485:494   */\n      dup3\n        /* \"#utility.yul\":481:499   */\n      add\n        /* \"#utility.yul\":473:499   */\n      swap1\n      pop\n        /* \"#utility.yul\":509:580   */\n      tag_112\n        /* \"#utility.yul\":577:578   */\n      0x00\n        /* \"#utility.yul\":566:575   */\n      dup4\n        /* \"#utility.yul\":562:579   */\n      add\n        /* \"#utility.yul\":553:559   */\n      dup5\n        /* \"#utility.yul\":509:580   */\n      tag_96\n      jump\t// in\n    tag_112:\n        /* \"#utility.yul\":365:587   */\n      swap3\n      swap2\n      pop\n      pop\n      jump\t// out\n        /* \"#utility.yul\":674:791   */\n    tag_98:\n        /* \"#utility.yul\":783:784   */\n      0x00\n        /* \"#utility.yul\":780:781   */\n      dup1\n        /* \"#utility.yul\":773:785   */\n      revert\n        /* \"#utility.yul\":920:1042   */\n    tag_100:\n        /* \"#utility.yul\":993:1017   */\n      tag_117\n        /* \"#utility.yul\":1011:1016   */\n      dup2\n        /* \"#utility.yul\":993:1017   */\n      tag_95\n      jump\t// in\n    tag_117:\n        /* \"#utility.yul\":986:991   */\n      dup2\n        /* \"#utility.yul\":983:1018   */\n      eq\n        /* \"#utility.yul\":973:1036   */\n      tag_118\n      jumpi\n        /* \"#utility.yul\":1032:1033   */\n      0x00\n        /* \"#utility.yul\":1029:1030   */\n      dup1\n        /* \"#utility.yul\":1022:1034   */\n      revert\n        /* \"#utility.yul\":973:1036   */\n    tag_118:\n        /* \"#utility.yul\":920:1042   */\n      pop\n      jump\t// out\n        /* \"#utility.yul\":1048:1187   */\n    tag_101:\n        /* \"#utility.yul\":1094:1099   */\n      0x00\n        /* \"#utility.yul\":1132:1138   */\n      dup2\n        /* \"#utility.yul\":1119:1139   */\n      calldataload\n        /* \"#utility.yul\":1110:1139   */\n      swap1\n      pop\n        /* \"#utility.yul\":1148:1181   */\n      tag_120\n        /* \"#utility.yul\":1175:1180   */\n      dup2\n        /* \"#utility.yul\":1148:1181   */\n      tag_100\n      jump\t// in\n    tag_120:\n        /* \"#utility.yul\":1048:1187   */\n      swap3\n      swap2\n      pop\n      pop\n      jump\t// out\n        /* \"#utility.yul\":1193:1522   */\n    tag_53:\n        /* \"#utility.yul\":1252:1258   */\n      0x00\n        /* \"#utility.yul\":1301:1303   */\n      0x20\n        /* \"#utility.yul\":1289:1298   */\n      dup3\n        /* \"#utility.yul\":1280:1287   */\n      dup5\n        /* \"#utility.yul\":1276:1299   */\n      sub\n        /* \"#utility.yul\":1272:1304   */\n      slt\n        /* \"#utility.yul\":1269:1388   */\n      iszero\n      tag_122\n      jumpi\n        /* \"#utility.yul\":1307:1386   */\n      tag_123\n      tag_98\n      jump\t// in\n    tag_123:\n        /* \"#utility.yul\":1269:1388   */\n    tag_122:\n        /* \"#utility.yul\":1427:1428   */\n      0x00\n        /* \"#utility.yul\":1452:1505   */\n      tag_124\n        /* \"#utility.yul\":1497:1504   */\n      dup5\n        /* \"#utility.yul\":1488:1494   */\n      dup3\n        /* \"#utility.yul\":1477:1486   */\n      dup6\n        /* \"#utility.yul\":1473:1495   */\n      add\n        /* \"#utility.yul\":1452:1505   */\n      tag_101\n      jump\t// in\n    tag_124:\n        /* \"#utility.yul\":1442:1505   */\n      swap2\n      pop\n        /* \"#utility.yul\":1398:1515   */\n      pop\n        /* \"#utility.yul\":1193:1522   */\n      swap3\n      swap2\n      pop\n      pop\n      jump\t// out\n        /* \"#utility.yul\":1528:1697   */\n    tag_102:\n        /* \"#utility.yul\":1612:1623   */\n      0x00\n        /* \"#utility.yul\":1646:1652   */\n      dup3\n        /* \"#utility.yul\":1641:1644   */\n      dup3\n        /* \"#utility.yul\":1634:1653   */\n      mstore\n        /* \"#utility.yul\":1686:1690   */\n      0x20\n        /* \"#utility.yul\":1681:1684   */\n      dup3\n        /* \"#utility.yul\":1677:1691   */\n      add\n        /* \"#utility.yul\":1662:1691   */\n      swap1\n      pop\n        /* \"#utility.yul\":1528:1697   */\n      swap3\n      swap2\n      pop\n      pop\n      jump\t// out\n        /* \"#utility.yul\":1703:1867   */\n    tag_103:\n        /* \"#utility.yul\":1843:1859   */\n      0x6163636f756e7420657869737473000000000000000000000000000000000000\n        /* \"#utility.yul\":1839:1840   */\n      0x00\n        /* \"#utility.yul\":1831:1837   */\n      dup3\n        /* \"#utility.yul\":1827:1841   */\n      add\n        /* \"#utility.yul\":1820:1860   */\n      mstore\n        /* \"#utility.yul\":1703:1867   */\n      pop\n      jump\t// out\n        /* \"#utility.yul\":1873:2239   */\n    tag_104:\n        /* \"#utility.yul\":2015:2018   */\n      0x00\n        /* \"#utility.yul\":2036:2103   */\n      tag_128\n        /* \"#utility.yul\":2100:2102   */\n      0x0e\n        /* \"#utility.yul\":2095:2098   */\n      dup4\n        /* \"#utility.yul\":2036:2103   */\n      tag_102\n      jump\t// in\n    tag_128:\n        /* \"#utility.yul\":2029:2103   */\n      swap2\n      pop\n        /* \"#utility.yul\":2112:2205   */\n      tag_129\n        /* \"#utility.yul\":2201:2204   */\n      dup3\n        /* \"#utility.yul\":2112:2205   */\n      tag_103\n      jump\t// in\n    tag_129:\n        /* \"#utility.yul\":2230:2232   */\n      0x20\n        /* \"#utility.yul\":2225:2228   */\n      dup3\n        /* \"#utility.yul\":2221:2233   */\n      add\n        /* \"#utility.yul\":2214:2233   */\n      swap1\n      pop\n        /* \"#utility.yul\":1873:2239   */\n      swap2\n      swap1\n      pop\n      jump\t// out\n        /* \"#utility.yul\":2245:2664   */\n    tag_69:\n        /* \"#utility.yul\":2411:2415   */\n      0x00\n        /* \"#utility.yul\":2449:2451   */\n      0x20\n        /* \"#utility.yul\":2438:2447   */\n      dup3\n        /* \"#utility.yul\":2434:2452   */\n      add\n        /* \"#utility.yul\":2426:2452   */\n      swap1\n      pop\n        /* \"#utility.yul\":2498:2507   */\n      dup2\n        /* \"#utility.yul\":2492:2496   */\n      dup2\n        /* \"#utility.yul\":2488:2508   */\n      sub\n        /* \"#utility.yul\":2484:2485   */\n      0x00\n        /* \"#utility.yul\":2473:2482   */\n      dup4\n        /* \"#utility.yul\":2469:2486   */\n      add\n        /* \"#utility.yul\":2462:2509   */\n      mstore\n        /* \"#utility.yul\":2526:2657   */\n      tag_131\n        /* \"#utility.yul\":2652:2656   */\n      dup2\n        /* \"#utility.yul\":2526:2657   */\n      tag_104\n      jump\t// in\n    tag_131:\n        /* \"#utility.yul\":2518:2657   */\n      swap1\n      pop\n        /* \"#utility.yul\":2245:2664   */\n      swap2\n      swap1\n      pop\n      jump\t// out\n        /* \"#utility.yul\":2670:3667   */\n    tag_73:\n        /* \"#utility.yul\":2959:2963   */\n      0x00\n        /* \"#utility.yul\":2997:3000   */\n      0x0100\n        /* \"#utility.yul\":2986:2995   */\n      dup3\n        /* \"#utility.yul\":2982:3001   */\n      add\n        /* \"#utility.yul\":2974:3001   */\n      swap1\n      pop\n        /* \"#utility.yul\":3011:3082   */\n      tag_133\n        /* \"#utility.yul\":3079:3080   */\n      0x00\n        /* \"#utility.yul\":3068:3077   */\n      dup4\n        /* \"#utility.yul\":3064:3081   */\n      add\n        /* \"#utility.yul\":3055:3061   */\n      dup12\n        /* \"#utility.yul\":3011:3082   */\n      tag_96\n      jump\t// in\n    tag_133:\n        /* \"#utility.yul\":3092:3164   */\n      tag_134\n        /* \"#utility.yul\":3160:3162   */\n      0x20\n        /* \"#utility.yul\":3149:3158   */\n      dup4\n        /* \"#utility.yul\":3145:3163   */\n      add\n        /* \"#utility.yul\":3136:3142   */\n      dup11\n        /* \"#utility.yul\":3092:3164   */\n      tag_96\n      jump\t// in\n    tag_134:\n        /* \"#utility.yul\":3174:3246   */\n      tag_135\n        /* \"#utility.yul\":3242:3244   */\n      0x40\n        /* \"#utility.yul\":3231:3240   */\n      dup4\n        /* \"#utility.yul\":3227:3245   */\n      add\n        /* \"#utility.yul\":3218:3224   */\n      dup10\n        /* \"#utility.yul\":3174:3246   */\n      tag_96\n      jump\t// in\n    tag_135:\n        /* \"#utility.yul\":3256:3328   */\n      tag_136\n        /* \"#utility.yul\":3324:3326   */\n      0x60\n        /* \"#utility.yul\":3313:3322   */\n      dup4\n        /* \"#utility.yul\":3309:3327   */\n      add\n        /* \"#utility.yul\":3300:3306   */\n      dup9\n        /* \"#utility.yul\":3256:3328   */\n      tag_96\n      jump\t// in\n    tag_136:\n        /* \"#utility.yul\":3338:3411   */\n      tag_137\n        /* \"#utility.yul\":3406:3409   */\n      0x80\n        /* \"#utility.yul\":3395:3404   */\n      dup4\n        /* \"#utility.yul\":3391:3410   */\n      add\n        /* \"#utility.yul\":3382:3388   */\n      dup8\n        /* \"#utility.yul\":3338:3411   */\n      tag_96\n      jump\t// in\n    tag_137:\n        /* \"#utility.yul\":3421:3494   */\n      tag_138\n        /* \"#utility.yul\":3489:3492   */\n      0xa0\n        /* \"#utility.yul\":3478:3487   */\n      dup4\n        /* \"#utility.yul\":3474:3493   */\n      add\n        /* \"#utility.yul\":3465:3471   */\n      dup7\n        /* \"#utility.yul\":3421:3494   */\n      tag_96\n      jump\t// in\n    tag_138:\n        /* \"#utility.yul\":3504:3577   */\n      tag_139\n        /* \"#utility.yul\":3572:3575   */\n      0xc0\n        /* \"#utility.yul\":3561:3570   */\n      dup4\n        /* \"#utility.yul\":3557:3576   */\n      add\n        /* \"#utility.yul\":3548:3554   */\n      dup6\n        /* \"#utility.yul\":3504:3577   */\n      tag_96\n      jump\t// in\n    tag_139:\n        /* \"#utility.yul\":3587:3660   */\n      tag_140\n        /* \"#utility.yul\":3655:3658   */\n      0xe0\n        /* \"#utility.yul\":3644:3653   */\n      dup4\n        /* \"#utility.yul\":3640:3659   */\n      add\n        /* \"#utility.yul\":3631:3637   */\n      dup5\n        /* \"#utility.yul\":3587:3660   */\n      tag_96\n      jump\t// in\n    tag_140:\n        /* \"#utility.yul\":2670:3667   */\n      swap10\n      swap9\n      pop\n      pop\n      pop\n      pop\n      pop\n      pop\n      pop\n      pop\n      pop\n      jump\t// out\n\n    auxdata: 0xa2646970667358221220fbfa4cb124f8eb01a6a0c5d8f9728e12a925bda1d340a72ee16799468c550eb164736f6c634300081a0033\n}\n",
				"bytecode": {
					"linkReferences": {},
					"object": "610180604052348015610010575f80fd5b5060405161104e38038061104e83398181016040528101906100329190610383565b335f73ffffffffffffffffffffffffffffffffffffffff168173ffffffffffffffffffffffffffffffffffffffff16036100a3575f6040517f1e4fbdf700000000000000000000000000000000000000000000000000000000815260040161009a9190610443565b60405180910390fd5b6100b28161026460201b60201c565b508773ffffffffffffffffffffffffffffffffffffffff1660808173ffffffffffffffffffffffffffffffffffffffff16815250508673ffffffffffffffffffffffffffffffffffffffff1660a08173ffffffffffffffffffffffffffffffffffffffff16815250508573ffffffffffffffffffffffffffffffffffffffff1660c08173ffffffffffffffffffffffffffffffffffffffff16815250508473ffffffffffffffffffffffffffffffffffffffff1660e08173ffffffffffffffffffffffffffffffffffffffff16815250508373ffffffffffffffffffffffffffffffffffffffff166101008173ffffffffffffffffffffffffffffffffffffffff16815250508273ffffffffffffffffffffffffffffffffffffffff166101208173ffffffffffffffffffffffffffffffffffffffff16815250508173ffffffffffffffffffffffffffffffffffffffff166101408173ffffffffffffffffffffffffffffffffffffffff16815250508073ffffffffffffffffffffffffffffffffffffffff166101608173ffffffffffffffffffffffffffffffffffffffff1681525050505050505050505061045c565b5f805f9054906101000a900473ffffffffffffffffffffffffffffffffffffffff169050815f806101000a81548173ffffffffffffffffffffffffffffffffffffffff021916908373ffffffffffffffffffffffffffffffffffffffff1602179055508173ffffffffffffffffffffffffffffffffffffffff168173ffffffffffffffffffffffffffffffffffffffff167f8be0079c531659141344cd1fd0a4f28419497f9722a3daafe3b4186f6b6457e060405160405180910390a35050565b5f80fd5b5f73ffffffffffffffffffffffffffffffffffffffff82169050919050565b5f61035282610329565b9050919050565b61036281610348565b811461036c575f80fd5b50565b5f8151905061037d81610359565b92915050565b5f805f805f805f80610100898b0312156103a05761039f610325565b5b5f6103ad8b828c0161036f565b98505060206103be8b828c0161036f565b97505060406103cf8b828c0161036f565b96505060606103e08b828c0161036f565b95505060806103f18b828c0161036f565b94505060a06104028b828c0161036f565b93505060c06104138b828c0161036f565b92505060e06104248b828c0161036f565b9150509295985092959890939650565b61043d81610348565b82525050565b5f6020820190506104565f830184610434565b92915050565b60805160a05160c05160e05161010051610120516101405161016051610b5f6104ef5f395f8181610255015261043601525f818161031c015261054101525f81816102e5015261052001525f81816104ff01526106b201525f81816104de015261068e01525f81816102c101526104bd01525f8181610279015261049c01525f818161029d015261047b0152610b5f5ff3fe608060405234801561000f575f80fd5b50600436106100cd575f3560e01c8063741bef1a1161008a578063a1b4d01111610064578063a1b4d011146101cb578063ce347a3e146101e9578063f2fde38b14610207578063fbcbc0f114610223576100cd565b8063741bef1a146101715780638da5cb5b1461018f5780639dca362f146101ad576100cd565b806325e9d730146100d15780633e413bee146100ef5780633fc8cef31461010d57806349bd5a5e1461012b5780635fe3b56714610149578063715018a614610167575b5f80fd5b6100d9610253565b6040516100e691906109c3565b60405180910390f35b6100f7610277565b60405161010491906109c3565b60405180910390f35b61011561029b565b60405161012291906109c3565b60405180910390f35b6101336102bf565b60405161014091906109c3565b60405180910390f35b6101516102e3565b60405161015e91906109c3565b60405180910390f35b61016f610307565b005b61017961031a565b60405161018691906109c3565b60405180910390f35b61019761033e565b6040516101a491906109c3565b60405180910390f35b6101b5610365565b6040516101c291906109c3565b60405180910390f35b6101d361068c565b6040516101e091906109c3565b60405180910390f35b6101f16106b0565b6040516101fe91906109c3565b60405180910390f35b610221600480360381019061021c9190610a0a565b6106d4565b005b61023d60048036038101906102389190610a0a565b610758565b60405161024a91906109c3565b60405180910390f35b7f000000000000000000000000000000000000000000000000000000000000000081565b7f000000000000000000000000000000000000000000000000000000000000000081565b7f000000000000000000000000000000000000000000000000000000000000000081565b7f000000000000000000000000000000000000000000000000000000000000000081565b7f000000000000000000000000000000000000000000000000000000000000000081565b61030f610788565b6103185f61080f565b565b7f000000000000000000000000000000000000000000000000000000000000000081565b5f805f9054906101000a900473ffffffffffffffffffffffffffffffffffffffff16905090565b5f8073ffffffffffffffffffffffffffffffffffffffff1660015f3373ffffffffffffffffffffffffffffffffffffffff1673ffffffffffffffffffffffffffffffffffffffff1681526020019081526020015f205f9054906101000a900473ffffffffffffffffffffffffffffffffffffffff1673ffffffffffffffffffffffffffffffffffffffff1614610430576040517f08c379a000000000000000000000000000000000000000000000000000000000815260040161042790610a8f565b60405180910390fd5b5f61045a7f00000000000000000000000000000000000000000000000000000000000000006108d0565b90508073ffffffffffffffffffffffffffffffffffffffff16638a29e2de337f00000000000000000000000000000000000000000000000000000000000000007f00000000000000000000000000000000000000000000000000000000000000007f00000000000000000000000000000000000000000000000000000000000000007f00000000000000000000000000000000000000000000000000000000000000007f00000000000000000000000000000000000000000000000000000000000000007f00000000000000000000000000000000000000000000000000000000000000007f00000000000000000000000000000000000000000000000000000000000000006040518963ffffffff1660e01b8152600401610583989796959493929190610aad565b5f604051808303815f87803b15801561059a575f80fd5b505af11580156105ac573d5f803e3d5ffd5b505050508060015f3373ffffffffffffffffffffffffffffffffffffffff1673ffffffffffffffffffffffffffffffffffffffff1681526020019081526020015f205f6101000a81548173ffffffffffffffffffffffffffffffffffffffff021916908373ffffffffffffffffffffffffffffffffffffffff1602179055508073ffffffffffffffffffffffffffffffffffffffff163373ffffffffffffffffffffffffffffffffffffffff167fac631f3001b55ea1509cf3d7e74898f85392a61a76e8149181ae1259622dabc860405160405180910390a38091505090565b7f000000000000000000000000000000000000000000000000000000000000000081565b7f000000000000000000000000000000000000000000000000000000000000000081565b6106dc610788565b5f73ffffffffffffffffffffffffffffffffffffffff168173ffffffffffffffffffffffffffffffffffffffff160361074c575f6040517f1e4fbdf700000000000000000000000000000000000000000000000000000000815260040161074391906109c3565b60405180910390fd5b6107558161080f565b50565b6001602052805f5260405f205f915054906101000a900473ffffffffffffffffffffffffffffffffffffffff1681565b61079061097d565b73ffffffffffffffffffffffffffffffffffffffff166107ae61033e565b73ffffffffffffffffffffffffffffffffffffffff161461080d576107d161097d565b6040517f118cdaa700000000000000000000000000000000000000000000000000000000815260040161080491906109c3565b60405180910390fd5b565b5f805f9054906101000a900473ffffffffffffffffffffffffffffffffffffffff169050815f806101000a81548173ffffffffffffffffffffffffffffffffffffffff021916908373ffffffffffffffffffffffffffffffffffffffff1602179055508173ffffffffffffffffffffffffffffffffffffffff168173ffffffffffffffffffffffffffffffffffffffff167f8be0079c531659141344cd1fd0a4f28419497f9722a3daafe3b4186f6b6457e060405160405180910390a35050565b5f763d602d80600a3d3981f3363d3d373d3d3d363d730000008260601b60e81c175f526e5af43d82803e903d91602b57fd5bf38260781b17602052603760095ff090505f73ffffffffffffffffffffffffffffffffffffffff168173ffffffffffffffffffffffffffffffffffffffff1603610978576040517fc2f868f400000000000000000000000000000000000000000000000000000000815260040160405180910390fd5b919050565b5f33905090565b5f73ffffffffffffffffffffffffffffffffffffffff82169050919050565b5f6109ad82610984565b9050919050565b6109bd816109a3565b82525050565b5f6020820190506109d65f8301846109b4565b92915050565b5f80fd5b6109e9816109a3565b81146109f3575f80fd5b50565b5f81359050610a04816109e0565b92915050565b5f60208284031215610a1f57610a1e6109dc565b5b5f610a2c848285016109f6565b91505092915050565b5f82825260208201905092915050565b7f6163636f756e74206578697374730000000000000000000000000000000000005f82015250565b5f610a79600e83610a35565b9150610a8482610a45565b602082019050919050565b5f6020820190508181035f830152610aa681610a6d565b9050919050565b5f61010082019050610ac15f83018b6109b4565b610ace602083018a6109b4565b610adb60408301896109b4565b610ae860608301886109b4565b610af560808301876109b4565b610b0260a08301866109b4565b610b0f60c08301856109b4565b610b1c60e08301846109b4565b999850505050505050505056fea2646970667358221220fbfa4cb124f8eb01a6a0c5d8f9728e12a925bda1d340a72ee16799468c550eb164736f6c634300081a0033",
					"opcodes": "PUSH2 0x180 PUSH1 0x40 MSTORE CALLVALUE DUP1 ISZERO PUSH2 0x10 JUMPI PUSH0 DUP1 REVERT JUMPDEST POP PUSH1 0x40 MLOAD PUSH2 0x104E CODESIZE SUB DUP1 PUSH2 0x104E DUP4 CODECOPY DUP2 DUP2 ADD PUSH1 0x40 MSTORE DUP2 ADD SWAP1 PUSH2 0x32 SWAP2 SWAP1 PUSH2 0x383 JUMP JUMPDEST CALLER PUSH0 PUSH20 0xFFFFFFFFFFFFFFFFFFFFFFFFFFFFFFFFFFFFFFFF AND DUP2 PUSH20 0xFFFFFFFFFFFFFFFFFFFFFFFFFFFFFFFFFFFFFFFF AND SUB PUSH2 0xA3 JUMPI PUSH0 PUSH1 0x40 MLOAD PUSH32 0x1E4FBDF700000000000000000000000000000000000000000000000000000000 DUP2 MSTORE PUSH1 0x4 ADD PUSH2 0x9A SWAP2 SWAP1 PUSH2 0x443 JUMP JUMPDEST PUSH1 0x40 MLOAD DUP1 SWAP2 SUB SWAP1 REVERT JUMPDEST PUSH2 0xB2 DUP2 PUSH2 0x264 PUSH1 0x20 SHL PUSH1 0x20 SHR JUMP JUMPDEST POP DUP8 PUSH20 0xFFFFFFFFFFFFFFFFFFFFFFFFFFFFFFFFFFFFFFFF AND PUSH1 0x80 DUP2 PUSH20 0xFFFFFFFFFFFFFFFFFFFFFFFFFFFFFFFFFFFFFFFF AND DUP2 MSTORE POP POP DUP7 PUSH20 0xFFFFFFFFFFFFFFFFFFFFFFFFFFFFFFFFFFFFFFFF AND PUSH1 0xA0 DUP2 PUSH20 0xFFFFFFFFFFFFFFFFFFFFFFFFFFFFFFFFFFFFFFFF AND DUP2 MSTORE POP POP DUP6 PUSH20 0xFFFFFFFFFFFFFFFFFFFFFFFFFFFFFFFFFFFFFFFF AND PUSH1 0xC0 DUP2 PUSH20 0xFFFFFFFFFFFFFFFFFFFFFFFFFFFFFFFFFFFFFFFF AND DUP2 MSTORE POP POP DUP5 PUSH20 0xFFFFFFFFFFFFFFFFFFFFFFFFFFFFFFFFFFFFFFFF AND PUSH1 0xE0 DUP2 PUSH20 0xFFFFFFFFFFFFFFFFFFFFFFFFFFFFFFFFFFFFFFFF AND DUP2 MSTORE POP POP DUP4 PUSH20 0xFFFFFFFFFFFFFFFFFFFFFFFFFFFFFFFFFFFFFFFF AND PUSH2 0x100 DUP2 PUSH20 0xFFFFFFFFFFFFFFFFFFFFFFFFFFFFFFFFFFFFFFFF AND DUP2 MSTORE POP POP DUP3 PUSH20 0xFFFFFFFFFFFFFFFFFFFFFFFFFFFFFFFFFFFFFFFF AND PUSH2 0x120 DUP2 PUSH20 0xFFFFFFFFFFFFFFFFFFFFFFFFFFFFFFFFFFFFFFFF AND DUP2 MSTORE POP POP DUP2 PUSH20 0xFFFFFFFFFFFFFFFFFFFFFFFFFFFFFFFFFFFFFFFF AND PUSH2 0x140 DUP2 PUSH20 0xFFFFFFFFFFFFFFFFFFFFFFFFFFFFFFFFFFFFFFFF AND DUP2 MSTORE POP POP DUP1 PUSH20 0xFFFFFFFFFFFFFFFFFFFFFFFFFFFFFFFFFFFFFFFF AND PUSH2 0x160 DUP2 PUSH20 0xFFFFFFFFFFFFFFFFFFFFFFFFFFFFFFFFFFFFFFFF AND DUP2 MSTORE POP POP POP POP POP POP POP POP POP POP PUSH2 0x45C JUMP JUMPDEST PUSH0 DUP1 PUSH0 SWAP1 SLOAD SWAP1 PUSH2 0x100 EXP SWAP1 DIV PUSH20 0xFFFFFFFFFFFFFFFFFFFFFFFFFFFFFFFFFFFFFFFF AND SWAP1 POP DUP2 PUSH0 DUP1 PUSH2 0x100 EXP DUP2 SLOAD DUP2 PUSH20 0xFFFFFFFFFFFFFFFFFFFFFFFFFFFFFFFFFFFFFFFF MUL NOT AND SWAP1 DUP4 PUSH20 0xFFFFFFFFFFFFFFFFFFFFFFFFFFFFFFFFFFFFFFFF AND MUL OR SWAP1 SSTORE POP DUP2 PUSH20 0xFFFFFFFFFFFFFFFFFFFFFFFFFFFFFFFFFFFFFFFF AND DUP2 PUSH20 0xFFFFFFFFFFFFFFFFFFFFFFFFFFFFFFFFFFFFFFFF AND PUSH32 0x8BE0079C531659141344CD1FD0A4F28419497F9722A3DAAFE3B4186F6B6457E0 PUSH1 0x40 MLOAD PUSH1 0x40 MLOAD DUP1 SWAP2 SUB SWAP1 LOG3 POP POP JUMP JUMPDEST PUSH0 DUP1 REVERT JUMPDEST PUSH0 PUSH20 0xFFFFFFFFFFFFFFFFFFFFFFFFFFFFFFFFFFFFFFFF DUP3 AND SWAP1 POP SWAP2 SWAP1 POP JUMP JUMPDEST PUSH0 PUSH2 0x352 DUP3 PUSH2 0x329 JUMP JUMPDEST SWAP1 POP SWAP2 SWAP1 POP JUMP JUMPDEST PUSH2 0x362 DUP2 PUSH2 0x348 JUMP JUMPDEST DUP2 EQ PUSH2 0x36C JUMPI PUSH0 DUP1 REVERT JUMPDEST POP JUMP JUMPDEST PUSH0 DUP2 MLOAD SWAP1 POP PUSH2 0x37D DUP2 PUSH2 0x359 JUMP JUMPDEST SWAP3 SWAP2 POP POP JUMP JUMPDEST PUSH0 DUP1 PUSH0 DUP1 PUSH0 DUP1 PUSH0 DUP1 PUSH2 0x100 DUP10 DUP12 SUB SLT ISZERO PUSH2 0x3A0 JUMPI PUSH2 0x39F PUSH2 0x325 JUMP JUMPDEST JUMPDEST PUSH0 PUSH2 0x3AD DUP12 DUP3 DUP13 ADD PUSH2 0x36F JUMP JUMPDEST SWAP9 POP POP PUSH1 0x20 PUSH2 0x3BE DUP12 DUP3 DUP13 ADD PUSH2 0x36F JUMP JUMPDEST SWAP8 POP POP PUSH1 0x40 PUSH2 0x3CF DUP12 DUP3 DUP13 ADD PUSH2 0x36F JUMP JUMPDEST SWAP7 POP POP PUSH1 0x60 PUSH2 0x3E0 DUP12 DUP3 DUP13 ADD PUSH2 0x36F JUMP JUMPDEST SWAP6 POP POP PUSH1 0x80 PUSH2 0x3F1 DUP12 DUP3 DUP13 ADD PUSH2 0x36F JUMP JUMPDEST SWAP5 POP POP PUSH1 0xA0 PUSH2 0x402 DUP12 DUP3 DUP13 ADD PUSH2 0x36F JUMP JUMPDEST SWAP4 POP POP PUSH1 0xC0 PUSH2 0x413 DUP12 DUP3 DUP13 ADD PUSH2 0x36F JUMP JUMPDEST SWAP3 POP POP PUSH1 0xE0 PUSH2 0x424 DUP12 DUP3 DUP13 ADD PUSH2 0x36F JUMP JUMPDEST SWAP2 POP POP SWAP3 SWAP6 SWAP9 POP SWAP3 SWAP6 SWAP9 SWAP1 SWAP4 SWAP7 POP JUMP JUMPDEST PUSH2 0x43D DUP2 PUSH2 0x348 JUMP JUMPDEST DUP3 MSTORE POP POP JUMP JUMPDEST PUSH0 PUSH1 0x20 DUP3 ADD SWAP1 POP PUSH2 0x456 PUSH0 DUP4 ADD DUP5 PUSH2 0x434 JUMP JUMPDEST SWAP3 SWAP2 POP POP JUMP JUMPDEST PUSH1 0x80 MLOAD PUSH1 0xA0 MLOAD PUSH1 0xC0 MLOAD PUSH1 0xE0 MLOAD PUSH2 0x100 MLOAD PUSH2 0x120 MLOAD PUSH2 0x140 MLOAD PUSH2 0x160 MLOAD PUSH2 0xB5F PUSH2 0x4EF PUSH0 CODECOPY PUSH0 DUP2 DUP2 PUSH2 0x255 ADD MSTORE PUSH2 0x436 ADD MSTORE PUSH0 DUP2 DUP2 PUSH2 0x31C ADD MSTORE PUSH2 0x541 ADD MSTORE PUSH0 DUP2 DUP2 PUSH2 0x2E5 ADD MSTORE PUSH2 0x520 ADD MSTORE PUSH0 DUP2 DUP2 PUSH2 0x4FF ADD MSTORE PUSH2 0x6B2 ADD MSTORE PUSH0 DUP2 DUP2 PUSH2 0x4DE ADD MSTORE PUSH2 0x68E ADD MSTORE PUSH0 DUP2 DUP2 PUSH2 0x2C1 ADD MSTORE PUSH2 0x4BD ADD MSTORE PUSH0 DUP2 DUP2 PUSH2 0x279 ADD MSTORE PUSH2 0x49C ADD MSTORE PUSH0 DUP2 DUP2 PUSH2 0x29D ADD MSTORE PUSH2 0x47B ADD MSTORE PUSH2 0xB5F PUSH0 RETURN INVALID PUSH1 0x80 PUSH1 0x40 MSTORE CALLVALUE DUP1 ISZERO PUSH2 0xF JUMPI PUSH0 DUP1 REVERT JUMPDEST POP PUSH1 0x4 CALLDATASIZE LT PUSH2 0xCD JUMPI PUSH0 CALLDATALOAD PUSH1 0xE0 SHR DUP1 PUSH4 0x741BEF1A GT PUSH2 0x8A JUMPI DUP1 PUSH4 0xA1B4D011 GT PUSH2 0x64 JUMPI DUP1 PUSH4 0xA1B4D011 EQ PUSH2 0x1CB JUMPI DUP1 PUSH4 0xCE347A3E EQ PUSH2 0x1E9 JUMPI DUP1 PUSH4 0xF2FDE38B EQ PUSH2 0x207 JUMPI DUP1 PUSH4 0xFBCBC0F1 EQ PUSH2 0x223 JUMPI PUSH2 0xCD JUMP JUMPDEST DUP1 PUSH4 0x741BEF1A EQ PUSH2 0x171 JUMPI DUP1 PUSH4 0x8DA5CB5B EQ PUSH2 0x18F JUMPI DUP1 PUSH4 0x9DCA362F EQ PUSH2 0x1AD JUMPI PUSH2 0xCD JUMP JUMPDEST DUP1 PUSH4 0x25E9D730 EQ PUSH2 0xD1 JUMPI DUP1 PUSH4 0x3E413BEE EQ PUSH2 0xEF JUMPI DUP1 PUSH4 0x3FC8CEF3 EQ PUSH2 0x10D JUMPI DUP1 PUSH4 0x49BD5A5E EQ PUSH2 0x12B JUMPI DUP1 PUSH4 0x5FE3B567 EQ PUSH2 0x149 JUMPI DUP1 PUSH4 0x715018A6 EQ PUSH2 0x167 JUMPI JUMPDEST PUSH0 DUP1 REVERT JUMPDEST PUSH2 0xD9 PUSH2 0x253 JUMP JUMPDEST PUSH1 0x40 MLOAD PUSH2 0xE6 SWAP2 SWAP1 PUSH2 0x9C3 JUMP JUMPDEST PUSH1 0x40 MLOAD DUP1 SWAP2 SUB SWAP1 RETURN JUMPDEST PUSH2 0xF7 PUSH2 0x277 JUMP JUMPDEST PUSH1 0x40 MLOAD PUSH2 0x104 SWAP2 SWAP1 PUSH2 0x9C3 JUMP JUMPDEST PUSH1 0x40 MLOAD DUP1 SWAP2 SUB SWAP1 RETURN JUMPDEST PUSH2 0x115 PUSH2 0x29B JUMP JUMPDEST PUSH1 0x40 MLOAD PUSH2 0x122 SWAP2 SWAP1 PUSH2 0x9C3 JUMP JUMPDEST PUSH1 0x40 MLOAD DUP1 SWAP2 SUB SWAP1 RETURN JUMPDEST PUSH2 0x133 PUSH2 0x2BF JUMP JUMPDEST PUSH1 0x40 MLOAD PUSH2 0x140 SWAP2 SWAP1 PUSH2 0x9C3 JUMP JUMPDEST PUSH1 0x40 MLOAD DUP1 SWAP2 SUB SWAP1 RETURN JUMPDEST PUSH2 0x151 PUSH2 0x2E3 JUMP JUMPDEST PUSH1 0x40 MLOAD PUSH2 0x15E SWAP2 SWAP1 PUSH2 0x9C3 JUMP JUMPDEST PUSH1 0x40 MLOAD DUP1 SWAP2 SUB SWAP1 RETURN JUMPDEST PUSH2 0x16F PUSH2 0x307 JUMP JUMPDEST STOP JUMPDEST PUSH2 0x179 PUSH2 0x31A JUMP JUMPDEST PUSH1 0x40 MLOAD PUSH2 0x186 SWAP2 SWAP1 PUSH2 0x9C3 JUMP JUMPDEST PUSH1 0x40 MLOAD DUP1 SWAP2 SUB SWAP1 RETURN JUMPDEST PUSH2 0x197 PUSH2 0x33E JUMP JUMPDEST PUSH1 0x40 MLOAD PUSH2 0x1A4 SWAP2 SWAP1 PUSH2 0x9C3 JUMP JUMPDEST PUSH1 0x40 MLOAD DUP1 SWAP2 SUB SWAP1 RETURN JUMPDEST PUSH2 0x1B5 PUSH2 0x365 JUMP JUMPDEST PUSH1 0x40 MLOAD PUSH2 0x1C2 SWAP2 SWAP1 PUSH2 0x9C3 JUMP JUMPDEST PUSH1 0x40 MLOAD DUP1 SWAP2 SUB SWAP1 RETURN JUMPDEST PUSH2 0x1D3 PUSH2 0x68C JUMP JUMPDEST PUSH1 0x40 MLOAD PUSH2 0x1E0 SWAP2 SWAP1 PUSH2 0x9C3 JUMP JUMPDEST PUSH1 0x40 MLOAD DUP1 SWAP2 SUB SWAP1 RETURN JUMPDEST PUSH2 0x1F1 PUSH2 0x6B0 JUMP JUMPDEST PUSH1 0x40 MLOAD PUSH2 0x1FE SWAP2 SWAP1 PUSH2 0x9C3 JUMP JUMPDEST PUSH1 0x40 MLOAD DUP1 SWAP2 SUB SWAP1 RETURN JUMPDEST PUSH2 0x221 PUSH1 0x4 DUP1 CALLDATASIZE SUB DUP2 ADD SWAP1 PUSH2 0x21C SWAP2 SWAP1 PUSH2 0xA0A JUMP JUMPDEST PUSH2 0x6D4 JUMP JUMPDEST STOP JUMPDEST PUSH2 0x23D PUSH1 0x4 DUP1 CALLDATASIZE SUB DUP2 ADD SWAP1 PUSH2 0x238 SWAP2 SWAP1 PUSH2 0xA0A JUMP JUMPDEST PUSH2 0x758 JUMP JUMPDEST PUSH1 0x40 MLOAD PUSH2 0x24A SWAP2 SWAP1 PUSH2 0x9C3 JUMP JUMPDEST PUSH1 0x40 MLOAD DUP1 SWAP2 SUB SWAP1 RETURN JUMPDEST PUSH32 0x0 DUP2 JUMP JUMPDEST PUSH32 0x0 DUP2 JUMP JUMPDEST PUSH32 0x0 DUP2 JUMP JUMPDEST PUSH32 0x0 DUP2 JUMP JUMPDEST PUSH32 0x0 DUP2 JUMP JUMPDEST PUSH2 0x30F PUSH2 0x788 JUMP JUMPDEST PUSH2 0x318 PUSH0 PUSH2 0x80F JUMP JUMPDEST JUMP JUMPDEST PUSH32 0x0 DUP2 JUMP JUMPDEST PUSH0 DUP1 PUSH0 SWAP1 SLOAD SWAP1 PUSH2 0x100 EXP SWAP1 DIV PUSH20 0xFFFFFFFFFFFFFFFFFFFFFFFFFFFFFFFFFFFFFFFF AND SWAP1 POP SWAP1 JUMP JUMPDEST PUSH0 DUP1 PUSH20 0xFFFFFFFFFFFFFFFFFFFFFFFFFFFFFFFFFFFFFFFF AND PUSH1 0x1 PUSH0 CALLER PUSH20 0xFFFFFFFFFFFFFFFFFFFFFFFFFFFFFFFFFFFFFFFF AND PUSH20 0xFFFFFFFFFFFFFFFFFFFFFFFFFFFFFFFFFFFFFFFF AND DUP2 MSTORE PUSH1 0x20 ADD SWAP1 DUP2 MSTORE PUSH1 0x20 ADD PUSH0 KECCAK256 PUSH0 SWAP1 SLOAD SWAP1 PUSH2 0x100 EXP SWAP1 DIV PUSH20 0xFFFFFFFFFFFFFFFFFFFFFFFFFFFFFFFFFFFFFFFF AND PUSH20 0xFFFFFFFFFFFFFFFFFFFFFFFFFFFFFFFFFFFFFFFF AND EQ PUSH2 0x430 JUMPI PUSH1 0x40 MLOAD PUSH32 0x8C379A000000000000000000000000000000000000000000000000000000000 DUP2 MSTORE PUSH1 0x4 ADD PUSH2 0x427 SWAP1 PUSH2 0xA8F JUMP JUMPDEST PUSH1 0x40 MLOAD DUP1 SWAP2 SUB SWAP1 REVERT JUMPDEST PUSH0 PUSH2 0x45A PUSH32 0x0 PUSH2 0x8D0 JUMP JUMPDEST SWAP1 POP DUP1 PUSH20 0xFFFFFFFFFFFFFFFFFFFFFFFFFFFFFFFFFFFFFFFF AND PUSH4 0x8A29E2DE CALLER PUSH32 0x0 PUSH32 0x0 PUSH32 0x0 PUSH32 0x0 PUSH32 0x0 PUSH32 0x0 PUSH32 0x0 PUSH1 0x40 MLOAD DUP10 PUSH4 0xFFFFFFFF AND PUSH1 0xE0 SHL DUP2 MSTORE PUSH1 0x4 ADD PUSH2 0x583 SWAP9 SWAP8 SWAP7 SWAP6 SWAP5 SWAP4 SWAP3 SWAP2 SWAP1 PUSH2 0xAAD JUMP JUMPDEST PUSH0 PUSH1 0x40 MLOAD DUP1 DUP4 SUB DUP2 PUSH0 DUP8 DUP1 EXTCODESIZE ISZERO DUP1 ISZERO PUSH2 0x59A JUMPI PUSH0 DUP1 REVERT JUMPDEST POP GAS CALL ISZERO DUP1 ISZERO PUSH2 0x5AC JUMPI RETURNDATASIZE PUSH0 DUP1 RETURNDATACOPY RETURNDATASIZE PUSH0 REVERT JUMPDEST POP POP POP POP DUP1 PUSH1 0x1 PUSH0 CALLER PUSH20 0xFFFFFFFFFFFFFFFFFFFFFFFFFFFFFFFFFFFFFFFF AND PUSH20 0xFFFFFFFFFFFFFFFFFFFFFFFFFFFFFFFFFFFFFFFF AND DUP2 MSTORE PUSH1 0x20 ADD SWAP1 DUP2 MSTORE PUSH1 0x20 ADD PUSH0 KECCAK256 PUSH0 PUSH2 0x100 EXP DUP2 SLOAD DUP2 PUSH20 0xFFFFFFFFFFFFFFFFFFFFFFFFFFFFFFFFFFFFFFFF MUL NOT AND SWAP1 DUP4 PUSH20 0xFFFFFFFFFFFFFFFFFFFFFFFFFFFFFFFFFFFFFFFF AND MUL OR SWAP1 SSTORE POP DUP1 PUSH20 0xFFFFFFFFFFFFFFFFFFFFFFFFFFFFFFFFFFFFFFFF AND CALLER PUSH20 0xFFFFFFFFFFFFFFFFFFFFFFFFFFFFFFFFFFFFFFFF AND PUSH32 0xAC631F3001B55EA1509CF3D7E74898F85392A61A76E8149181AE1259622DABC8 PUSH1 0x40 MLOAD PUSH1 0x40 MLOAD DUP1 SWAP2 SUB SWAP1 LOG3 DUP1 SWAP2 POP POP SWAP1 JUMP JUMPDEST PUSH32 0x0 DUP2 JUMP JUMPDEST PUSH32 0x0 DUP2 JUMP JUMPDEST PUSH2 0x6DC PUSH2 0x788 JUMP JUMPDEST PUSH0 PUSH20 0xFFFFFFFFFFFFFFFFFFFFFFFFFFFFFFFFFFFFFFFF AND DUP2 PUSH20 0xFFFFFFFFFFFFFFFFFFFFFFFFFFFFFFFFFFFFFFFF AND SUB PUSH2 0x74C JUMPI PUSH0 PUSH1 0x40 MLOAD PUSH32 0x1E4FBDF700000000000000000000000000000000000000000000000000000000 DUP2 MSTORE PUSH1 0x4 ADD PUSH2 0x743 SWAP2 SWAP1 PUSH2 0x9C3 JUMP JUMPDEST PUSH1 0x40 MLOAD DUP1 SWAP2 SUB SWAP1 REVERT JUMPDEST PUSH2 0x755 DUP2 PUSH2 0x80F JUMP JUMPDEST POP JUMP JUMPDEST PUSH1 0x1 PUSH1 0x20 MSTORE DUP1 PUSH0 MSTORE PUSH1 0x40 PUSH0 KECCAK256 PUSH0 SWAP2 POP SLOAD SWAP1 PUSH2 0x100 EXP SWAP1 DIV PUSH20 0xFFFFFFFFFFFFFFFFFFFFFFFFFFFFFFFFFFFFFFFF AND DUP2 JUMP JUMPDEST PUSH2 0x790 PUSH2 0x97D JUMP JUMPDEST PUSH20 0xFFFFFFFFFFFFFFFFFFFFFFFFFFFFFFFFFFFFFFFF AND PUSH2 0x7AE PUSH2 0x33E JUMP JUMPDEST PUSH20 0xFFFFFFFFFFFFFFFFFFFFFFFFFFFFFFFFFFFFFFFF AND EQ PUSH2 0x80D JUMPI PUSH2 0x7D1 PUSH2 0x97D JUMP JUMPDEST PUSH1 0x40 MLOAD PUSH32 0x118CDAA700000000000000000000000000000000000000000000000000000000 DUP2 MSTORE PUSH1 0x4 ADD PUSH2 0x804 SWAP2 SWAP1 PUSH2 0x9C3 JUMP JUMPDEST PUSH1 0x40 MLOAD DUP1 SWAP2 SUB SWAP1 REVERT JUMPDEST JUMP JUMPDEST PUSH0 DUP1 PUSH0 SWAP1 SLOAD SWAP1 PUSH2 0x100 EXP SWAP1 DIV PUSH20 0xFFFFFFFFFFFFFFFFFFFFFFFFFFFFFFFFFFFFFFFF AND SWAP1 POP DUP2 PUSH0 DUP1 PUSH2 0x100 EXP DUP2 SLOAD DUP2 PUSH20 0xFFFFFFFFFFFFFFFFFFFFFFFFFFFFFFFFFFFFFFFF MUL NOT AND SWAP1 DUP4 PUSH20 0xFFFFFFFFFFFFFFFFFFFFFFFFFFFFFFFFFFFFFFFF AND MUL OR SWAP1 SSTORE POP DUP2 PUSH20 0xFFFFFFFFFFFFFFFFFFFFFFFFFFFFFFFFFFFFFFFF AND DUP2 PUSH20 0xFFFFFFFFFFFFFFFFFFFFFFFFFFFFFFFFFFFFFFFF AND PUSH32 0x8BE0079C531659141344CD1FD0A4F28419497F9722A3DAAFE3B4186F6B6457E0 PUSH1 0x40 MLOAD PUSH1 0x40 MLOAD DUP1 SWAP2 SUB SWAP1 LOG3 POP POP JUMP JUMPDEST PUSH0 PUSH23 0x3D602D80600A3D3981F3363D3D373D3D3D363D73000000 DUP3 PUSH1 0x60 SHL PUSH1 0xE8 SHR OR PUSH0 MSTORE PUSH15 0x5AF43D82803E903D91602B57FD5BF3 DUP3 PUSH1 0x78 SHL OR PUSH1 0x20 MSTORE PUSH1 0x37 PUSH1 0x9 PUSH0 CREATE SWAP1 POP PUSH0 PUSH20 0xFFFFFFFFFFFFFFFFFFFFFFFFFFFFFFFFFFFFFFFF AND DUP2 PUSH20 0xFFFFFFFFFFFFFFFFFFFFFFFFFFFFFFFFFFFFFFFF AND SUB PUSH2 0x978 JUMPI PUSH1 0x40 MLOAD PUSH32 0xC2F868F400000000000000000000000000000000000000000000000000000000 DUP2 MSTORE PUSH1 0x4 ADD PUSH1 0x40 MLOAD DUP1 SWAP2 SUB SWAP1 REVERT JUMPDEST SWAP2 SWAP1 POP JUMP JUMPDEST PUSH0 CALLER SWAP1 POP SWAP1 JUMP JUMPDEST PUSH0 PUSH20 0xFFFFFFFFFFFFFFFFFFFFFFFFFFFFFFFFFFFFFFFF DUP3 AND SWAP1 POP SWAP2 SWAP1 POP JUMP JUMPDEST PUSH0 PUSH2 0x9AD DUP3 PUSH2 0x984 JUMP JUMPDEST SWAP1 POP SWAP2 SWAP1 POP JUMP JUMPDEST PUSH2 0x9BD DUP2 PUSH2 0x9A3 JUMP JUMPDEST DUP3 MSTORE POP POP JUMP JUMPDEST PUSH0 PUSH1 0x20 DUP3 ADD SWAP1 POP PUSH2 0x9D6 PUSH0 DUP4 ADD DUP5 PUSH2 0x9B4 JUMP JUMPDEST SWAP3 SWAP2 POP POP JUMP JUMPDEST PUSH0 DUP1 REVERT JUMPDEST PUSH2 0x9E9 DUP2 PUSH2 0x9A3 JUMP JUMPDEST DUP2 EQ PUSH2 0x9F3 JUMPI PUSH0 DUP1 REVERT JUMPDEST POP JUMP JUMPDEST PUSH0 DUP2 CALLDATALOAD SWAP1 POP PUSH2 0xA04 DUP2 PUSH2 0x9E0 JUMP JUMPDEST SWAP3 SWAP2 POP POP JUMP JUMPDEST PUSH0 PUSH1 0x20 DUP3 DUP5 SUB SLT ISZERO PUSH2 0xA1F JUMPI PUSH2 0xA1E PUSH2 0x9DC JUMP JUMPDEST JUMPDEST PUSH0 PUSH2 0xA2C DUP5 DUP3 DUP6 ADD PUSH2 0x9F6 JUMP JUMPDEST SWAP2 POP POP SWAP3 SWAP2 POP POP JUMP JUMPDEST PUSH0 DUP3 DUP3 MSTORE PUSH1 0x20 DUP3 ADD SWAP1 POP SWAP3 SWAP2 POP POP JUMP JUMPDEST PUSH32 0x6163636F756E7420657869737473000000000000000000000000000000000000 PUSH0 DUP3 ADD MSTORE POP JUMP JUMPDEST PUSH0 PUSH2 0xA79 PUSH1 0xE DUP4 PUSH2 0xA35 JUMP JUMPDEST SWAP2 POP PUSH2 0xA84 DUP3 PUSH2 0xA45 JUMP JUMPDEST PUSH1 0x20 DUP3 ADD SWAP1 POP SWAP2 SWAP1 POP JUMP JUMPDEST PUSH0 PUSH1 0x20 DUP3 ADD SWAP1 POP DUP2 DUP2 SUB PUSH0 DUP4 ADD MSTORE PUSH2 0xAA6 DUP2 PUSH2 0xA6D JUMP JUMPDEST SWAP1 POP SWAP2 SWAP1 POP JUMP JUMPDEST PUSH0 PUSH2 0x100 DUP3 ADD SWAP1 POP PUSH2 0xAC1 PUSH0 DUP4 ADD DUP12 PUSH2 0x9B4 JUMP JUMPDEST PUSH2 0xACE PUSH1 0x20 DUP4 ADD DUP11 PUSH2 0x9B4 JUMP JUMPDEST PUSH2 0xADB PUSH1 0x40 DUP4 ADD DUP10 PUSH2 0x9B4 JUMP JUMPDEST PUSH2 0xAE8 PUSH1 0x60 DUP4 ADD DUP9 PUSH2 0x9B4 JUMP JUMPDEST PUSH2 0xAF5 PUSH1 0x80 DUP4 ADD DUP8 PUSH2 0x9B4 JUMP JUMPDEST PUSH2 0xB02 PUSH1 0xA0 DUP4 ADD DUP7 PUSH2 0x9B4 JUMP JUMPDEST PUSH2 0xB0F PUSH1 0xC0 DUP4 ADD DUP6 PUSH2 0x9B4 JUMP JUMPDEST PUSH2 0xB1C PUSH1 0xE0 DUP4 ADD DUP5 PUSH2 0x9B4 JUMP JUMPDEST SWAP10 SWAP9 POP POP POP POP POP POP POP POP POP JUMP INVALID LOG2 PUSH5 0x6970667358 0x22 SLT KECCAK256 0xFB STATICCALL 0x4C 0xB1 0x24 0xF8 0xEB ADD 0xA6 LOG0 0xC5 0xD8 0xF9 PUSH19 0x8E12A925BDA1D340A72EE16799468C550EB164 PUSH20 0x6F6C634300081A00330000000000000000000000 "
				},
				"gasEstimates": {
					"creation": {
						"codeDepositCost": "582200",
						"executionCost": "infinite",
						"totalCost": "infinite"
					},
					"external": {
						"accountTemplate()": "infinite",
						"cETH()": "infinite",
						"cUSDC()": "infinite",
						"comptroller()": "infinite",
						"createAccount()": "infinite",
						"getAccount(address)": "infinite",
						"owner()": "2560",
						"priceFeed()": "infinite",
						"renounceOwnership()": "infinite",
						"transferOwnership(address)": "infinite",
						"uniswapV2Pair()": "infinite",
						"usdc()": "infinite",
						"weth()": "infinite"
					}
				},
				"methodIdentifiers": {
					"accountTemplate()": "25e9d730",
					"cETH()": "a1b4d011",
					"cUSDC()": "ce347a3e",
					"comptroller()": "5fe3b567",
					"createAccount()": "9dca362f",
					"getAccount(address)": "fbcbc0f1",
					"owner()": "8da5cb5b",
					"priceFeed()": "741bef1a",
					"renounceOwnership()": "715018a6",
					"transferOwnership(address)": "f2fde38b",
					"uniswapV2Pair()": "49bd5a5e",
					"usdc()": "3e413bee",
					"weth()": "3fc8cef3"
				}
			},
			"storageLayout": {
				"storage": [
					{
						"astId": 8,
						"contract": "contracts/AccountRegistry.sol:AccountRegistry",
						"label": "_owner",
						"offset": 0,
						"slot": "0",
						"type": "t_address"
					},
					{
						"astId": 295,
						"contract": "contracts/AccountRegistry.sol:AccountRegistry",
						"label": "getAccount",
						"offset": 0,
						"slot": "1",
						"type": "t_mapping(t_address,t_address)"
					}
				],
				"types": {
					"t_address": {
						"encoding": "inplace",
						"label": "address",
						"numberOfBytes": "20"
					},
					"t_mapping(t_address,t_address)": {
						"encoding": "mapping",
						"key": "t_address",
						"label": "mapping(address => address)",
						"numberOfBytes": "32",
						"value": "t_address"
					}
				}
			},
			"userdoc": {
				"kind": "user",
				"methods": {},
				"version": 1
			}
		}
	}
}